:020000021000EC
:10800000D8A8012005CF01008BAF0300A1CE01004D
:10801000A1CE0100A1CE0100A1CE0100A1CE0100A0
:1080200000000000000000000000000029D1010055
:10803000A1CE010000000000ADD00100A1CE0100E2
:1080400061D3010061D3010061D3010061D301005C
:1080500061D3010061D3010061D3010061D301004C
:1080600061D3010061D3010061D3010061D301003C
:1080700061D3010061D3010061D3010061D301002C
:1080800061D3010061D3010061D3010061D301001C
:1080900061D3010061D3010061D3010061D301000C
:1080A00061D3010061D3010061D3010061D30100FC
:1080B00061D3010061D3010061D3010061D30100EC
:1080C00061D3010061D3010061D3010061D30100DC
:1080D00061D3010061D3010061D3010061D30100CC
:1080E00061D3010061D3010061D3010061D30100BC
:1080F00061D3010061D3010061D3010061D30100AC
:1081000061D3010061D3010061D3010061D301009B
:1081100061D3010061D3010061D3010061D301008B
:1081200061D3010061D3010061D3010061D301007B
:1081300061D3010061D3010061D3010061D301006B
:1081400061D30100000000000000000000000000FA
:10815000000000000000000000000000000000001F
:10816000000000000000000000000000000000000F
:1081700000000000000000000000000000000000FF
:1081800000000000000000000000000000000000EF
:1081900000000000000000000000000000000000DF
:1081A00000000000000000000000000000000000CF
:1081B00000000000000000000000000000000000BF
:1081C00000000000000000000000000000000000AF
:1081D000000000000000000000000000000000009F
:1081E000000000000000000000000000000000008F
:1081F000000000000000000000000000000000007F
:10820000DEE61E284CBBCE8F025B00003C00000067
:108210002C0103000100000000800100008001002B
:10822000FFFF0291000000000000000000000000BD
:0C82300000000000000000000000000042
:1082400081F0004102E000BF83F0004330B54FEA07
:1082500041044FEA430594EA050F08BF90EA020F74
:108260001FBF54EA000C55EA020C7FEA645C7FEA07
:10827000655C00F0E2804FEA5454D4EB5555B8BF2A
:108280006D420CDD2C4480EA020281EA030382EA9B
:10829000000083EA010180EA020281EA0303362D2D
:1082A00088BF30BD11F0004F4FEA01314FF4801C00
:1082B0004CEA113102D0404261EB410113F0004F12
:1082C0004FEA03334CEA133302D0524263EB4303C9
:1082D00094EA050F00F0A780A4F10104D5F1200E67
:1082E0000DDB02FA0EFC22FA05F2801841F10001C2
:1082F00003FA0EF2801843FA05F359410EE0A5F196
:1083000020050EF1200E012A03FA0EFC28BF4CF0C6
:10831000020C43FA05F3C01851EBE37101F000457C
:1083200007D54FF0000EDCF1000C7EEB00006EEB89
:108330000101B1F5801F1BD3B1F5001F0CD3490813
:108340005FEA30004FEA3C0C04F101044FEA44526A
:1083500012F5800F80F09A80BCF1004F08BF5FEAF1
:10836000500C50F1000041EB045141EA050130BDD1
:108370005FEA4C0C404141EB0101013C28BFB1F5E3
:10838000801FE9D291F0000F04BF01460020B1FA2E
:1083900081F308BF2033A3F10B03B3F120020CDA01
:1083A0000C3208DD02F1140CC2F10C0201FA0CF0DF
:1083B00021FA02F10CE002F11402D8BFC2F1200C44
:1083C00001FA02F120FA0CFCDCBF41EA0C019040FA
:1083D000E41AA2BF01EB0451294330BD6FEA040443
:1083E0001F3C1CDA0C340EDC04F11404C4F120022E
:1083F00020FA04F001FA02F340EA030021FA04F340
:1084000045EA030130BDC4F10C04C4F1200220FA96
:1084100002F001FA04F340EA0300294630BD21FAD4
:1084200004F0294630BD94F0000F83F4801306BF9A
:1084300081F480110134013D4EE77FEA645C18BF8E
:108440007FEA655C29D094EA050F08BF90EA020F25
:1084500005D054EA000C04BF1946104630BD91EA1D
:10846000030F1EBF0021002030BD5FEA545C05D120
:108470004000494128BF41F0004130BD14F580045F
:108480003CBF01F5801130BD01F0004545F0FE41D3
:1084900041F470014FF0000030BD7FEA645C1ABF08
:1084A000194610467FEA655C1CBF0B46024650EA3F
:1084B000013406BF52EA033591EA030F41F400216B
:1084C00030BD00BF90F0000F04BF0021704730B5F1
:1084D0004FF4806404F132044FF000054FF00001C6
:1084E00050E700BF90F0000F04BF0021704730B587
:1084F0004FF4806404F1320410F0004548BF40425C
:108500004FF000013EE700BF42004FEAE2014FEAB0
:1085100031014FEA02701FBF12F07F4393F07F4F8B
:1085200081F06051704732F07F4208BF704793F08E
:108530007F4F04BF41F40021704730B54FF46074A1
:1085400001F0004521F000411CE700BF50EA0102A4
:1085500008BF704730B54FF000050AE050EA01024D
:1085600008BF704730B511F0004502D5404261EBBD
:1085700041014FF4806404F132045FEA915C3FF4FE
:10858000D8AE4FF003025FEADC0C18BF03325FEA9B
:10859000DC0C18BF033202EBDC02C2F1200300FA4C
:1085A00003FC20FA02F001FA03FE40EA0E0021FA71
:1085B00002F11444BDE600BF70B54FF0FF0C4CF45F
:1085C000E06C1CEA11541DBF1CEA135594EA0C0F11
:1085D00095EA0C0F00F0DEF82C4481EA030621EA4C
:1085E0004C5123EA4C5350EA013518BF52EA033587
:1085F00041F4801143F4801338D0A0FB02CE4FF039
:108600000005E1FB02E506F00042E0FB03E54FF068
:108610000006E1FB03569CF0000F18BF4EF0010E60
:10862000A4F1FF04B6F5007F64F5407404D25FEA5C
:108630004E0E6D4146EB060642EAC62141EA55510F
:108640004FEAC52040EA5E504FEACE2EB4F1FD0C51
:1086500088BFBCF5E06F1ED8BEF1004F08BF5FEACF
:10866000500E50F1000041EB045170BD06F0004681
:1086700046EA010140EA020081EA0301B4EB5C042E
:10868000C2BFD4EB0C0541EA045170BD41F4801126
:108690004FF0000E013C00F3AB8014F1360FDEBF4B
:1086A000002001F0004170BDC4F10004203C35DA27
:1086B0000C341BDC04F11404C4F1200500FA05F3AA
:1086C00020FA04F001FA05F240EA020001F000424B
:1086D00021F0004110EBD37021FA04F642EB0601C1
:1086E0005EEA430E08BF20EAD37070BDC4F10C04EB
:1086F000C4F1200500FA04F320FA05F001FA04F2AF
:1087000040EA020001F0004110EBD37041F100019A
:108710005EEA430E08BF20EAD37070BDC4F12005A5
:1087200000FA05F24EEA020E20FA04F301FA05F20D
:1087300043EA020321FA04F001F0004121FA04F2B5
:1087400020EA020000EBD3705EEA430E08BF20EA85
:10875000D37070BD94F0000F0FD101F000464000BF
:1087600041EB010111F4801F08BF013CF7D041EA41
:10877000060195F0000F18BF704703F00046520045
:1087800043EB030313F4801F08BF013DF7D043EA16
:108790000603704794EA0C0F0CEA135518BF95EACC
:1087A0000C0F0CD050EA410618BF52EA4306D1D153
:1087B00081EA030101F000414FF0000070BD50EA72
:1087C000410606BF1046194652EA430619D094EAFC
:1087D0000C0F02D150EA013613D195EA0C0F05D1E6
:1087E00052EA03361CBF104619460AD181EA03013A
:1087F00001F0004141F0FE4141F470014FF00000F2
:1088000070BD41F0FE4141F4780170BD70B54FF08C
:10881000FF0C4CF4E06C1CEA11541DBF1CEA13550C
:1088200094EA0C0F95EA0C0F00F0A7F8A4EB0504EE
:1088300081EA030E52EA03354FEA013100F08880E5
:108840004FEA03334FF0805545EA131343EA1263AE
:108850004FEA022245EA111545EA10654FEA002663
:108860000EF000419D4208BF964244F1FD0404F51C
:10887000407402D25B084FEA3202B61A65EB030578
:108880005B084FEA32024FF480104FF4002CB6EB35
:10889000020E75EB030E22BFB61A754640EA0C00B5
:1088A0005B084FEA3202B6EB020E75EB030E22BFF5
:1088B000B61A754640EA5C005B084FEA3202B6EB36
:1088C000020E75EB030E22BFB61A754640EA9C00F5
:1088D0005B084FEA3202B6EB020E75EB030E22BFC5
:1088E000B61A754640EADC0055EA060E18D04FEA83
:1088F000051545EA16754FEA06164FEAC30343EA23
:1089000052734FEAC2025FEA1C1CC0D111F4801FEF
:108910000BD141EA00014FF000004FF0004CB6E7E8
:1089200011F4801F04BF01430020B4F1FD0C88BF87
:10893000BCF5E06F3FF6AFAEB5EB030C04BFB6EB92
:10894000020C5FEA500C50F1000041EB045170BD85
:108950000EF0004E4EEA113114EB5C04C2BFD4EBB2
:108960000C0541EA045170BD41F480114FF0000E36
:10897000013C90E645EA060E8DE60CEA135594EAB2
:108980000C0F08BF95EA0C0F3FF43BAF94EA0C0FB5
:108990000AD150EA01347FF434AF95EA0C0F7FF42A
:1089A00025AF104619462CE795EA0C0F06D152EA7E
:1089B00003353FF4FDAE1046194622E750EA410662
:1089C00018BF52EA43067FF4C5AE50EA41047FF473
:1089D0000DAF52EA43057FF4EBAE12E74FF0FF3CD8
:1089E00006E000BF4FF0010C02E000BF4FF0010CA9
:1089F0004DF804CD4FEA410C7FEA6C5C4FEA430C22
:108A000018BF7FEA6C5C1BD001B050EA410C0CBF70
:108A100052EA430C91EA030F02BF90EA020F0020D2
:108A2000704710F1000F91EA030F58BF994208BF39
:108A300090422CBFD8176FEAE37040F001007047F6
:108A40004FEA410C7FEA6C5C02D150EA013C07D14D
:108A50004FEA430C7FEA6C5CD6D152EA033CD3D098
:108A60005DF8040B704700BF8446104662468C4692
:108A70001946634600E000BF01B5FFF7B7FF0028C5
:108A800048BF10F1000F01BD4DF808EDFFF7F4FFEE
:108A90000CBF012000205DF808FB00BF4DF808ED79
:108AA000FFF7EAFF34BF012000205DF808FB00BF9C
:108AB0004DF808EDFFF7E0FF94BF012000205DF8BE
:108AC00008FB00BF4DF808EDFFF7CEFF94BF012073
:108AD00000205DF808FB00BF4DF808EDFFF7C4FF6C
:108AE00034BF012000205DF808FB00BF4FEA410CB5
:108AF0007FEA6C5C02D150EA013C0AD14FEA430C98
:108B00007FEA6C5C02D152EA033C02D14FF00000D4
:108B100070474FF0010070474FEA410212F5001212
:108B200015D211D56FF47873B3EB625212D94FEAB4
:108B3000C12343F0004343EA505311F0004F23FA9E
:108B400002F018BF404270474FF00000704750EAF3
:108B5000013005D111F0004008BF6FF000407047B0
:108B60004FF00000704700BF4A0011D212F500120A
:108B700011D20DD56FF47873B3EB62520ED44FEA75
:108B8000C12343F0004343EA505323FA02F07047F5
:108B90004FF00000704750EA013002D14FF0FF3033
:108BA00070474FF0000070474FEA4102B2F1E043D6
:108BB00024BFB3F5001CDCF1FE5C0DD901F0004CC4
:108BC0004FEAC0024CEA5070B2F1004F40EB830014
:108BD00008BF20F00100704711F0804F21D113F140
:108BE0003872BCBF01F00040704741F480114FEA79
:108BF0005252C2F11802C2F1200C10FA0CF320FA02
:108C000002F018BF40F001004FEAC1234FEAD3231E
:108C100003FA0CFC40EA0C0023FA02F34FEA430388
:108C2000CCE77FEA625307D150EA01331EBF4FF011
:108C3000FE4040F44000704701F0004040F0FE402C
:108C400040F40000704700BF7BB972B90029BEBF75
:108C500000204FF0004106E008BF00281CBF6FF065
:108C600000414FF0FF3000F075B8ADF1080C6DE930
:108C700004CE002909DB002B1ADB00F09EF8DDF89A
:108C800004E0DDE9022304B07047404261EB41019A
:108C9000002B1BDB00F091F8DDF804E0DDE9022396
:108CA00004B0404261EB4101524263EB4303704721
:108CB000524263EB430300F080F8DDF804E0DDE9A5
:108CC000022304B0404261EB41017047524263EB22
:108CD000430300F072F8DDF804E0DDE9022304B09C
:108CE000524263EB4303704753B94AB9002908BFA6
:108CF00000281CBF4FF0FF314FF0FF3000F02AB8C2
:108D0000ADF1080C6DE904CE00F057F8DDF804E091
:108D1000DDE9022304B07047D0B500220B4B0646B4
:108D20000F46FFF749FCFFF71FFF0446FFF7CAFB9A
:108D30000022074BFFF740FC02460B4630463946FF
:108D4000FFF782FAFFF710FF2146D0BD0000F03D8B
:108D50000000F041704700BF10F8012B11F8013BF3
:108D6000012A28BF9A42F7D0D01A7047034611F85B
:108D7000012B03F8012B002AF9D17047034613F8A1
:108D8000012B002AFBD1181A0138704738B5002290
:108D9000002304460D46FFF781FE28B920462946E8
:108DA000BDE83840FFF7B8BF204605F10041FFF7A6
:108DB000B3FF404261EB410138BD2DE9F0478646E3
:108DC0008C460846089E154674461946002B40F00E
:108DD000C1808542B2FA82F245D94AB1C2F120037C
:108DE00000FA02FC954094402EFA03F343EA0C0C7F
:108DF0004FEA154EA8B2230CBCFBFEF80EFB18CCB4
:108E000008FB00F943EA0C43994528D9EB1808F10F
:108E1000FF3704D2994502D9A8F102072B44A3EBEE
:108E20000903A4B2B3FBFEFC0EFB1C330CFB00F0E9
:108E300044EA0344A04214D92C190CF1FF3304D2A4
:108E4000A04202D9ACF102032C44241A43EA0740A1
:108E50001EB1D440002334607360BDE8F0874746FC
:108E6000DDE76346F1E792BB431B01214FEA154E54
:108E7000AFB2200CB3FBFEFC0EFB1C330CFB07F85F
:108E800040EA0343984561D9EB180CF1FF3004D256
:108E9000984502D9ACF102002B44A3EB0803A4B21D
:108EA000B3FBFEFC0EFB1C330CFB07F744EA034448
:108EB000A7424DD92C190CF1FF3304D2A74202D995
:108EC000ACF102032C44E41B43EA0040C0E7C2F1CA
:108ED00020039540944020FA03F12EFA03F34FEA61
:108EE000154E9040AFB20343B1FBFEFC0EFB1C10CD
:108EF000190C0CFB07F841EA0041884522D9691892
:108F00000CF1FF3004D2884502D9ACF102002944AB
:108F1000A1EB08019BB2B1FBFEFC0EFB1C110CFB8C
:108F200007F743EA01439F420ED9EB180CF1FF31DA
:108F300004D29F4202D9ACF102012B44DB1B41EA6F
:108F4000004193E76046E3E76146F7E76046A4E740
:108F50006346B8E7834206D916B9002108467CE784
:108F6000C6E900E0F9E7B3FA83F78FB9834201D38A
:108F7000724508D8BEEB020460EB030301209C4657
:108F80001EB9002169E73846FAE7C6E9004CF8E760
:108F9000C7F1200CBB400EFA07F522FA0CF42EFAAA
:108FA0000CF1BA401C4320FA0CF3B8404FEA1449C4
:108FB00001431FFA84FEB3FBF9F809FB18300B0CD0
:108FC00008FB0EFA43EA00439A4540D9E31808F13A
:108FD000FF3004D29A4502D9A8F102002344A3EB42
:108FE0000A0389B2B3FBF9F809FB183308FB0EFE3C
:108FF00041EA03418E452CD9611808F1FF3304D2B0
:109000008E4502D9A8F10203214443EA0040A1EBB6
:109010000E01A0FB02984145CE46434602D306D13D
:109020004D4504D20138B9EB020E68EB0403002E63
:10903000A7D0B5EB0E0261EB030101FA0CFC22FA9A
:1090400007F3F9404CEA0303C6E9003199E74046CB
:10905000C5E74346D9E700002DE9F0472DED028B27
:109060004FF0FF318CB04FF0FF3001F027FE9FED45
:10907000560A0021012013F021F900214FF41600B7
:1090800001F03CFE12F0B2FD032027F01AF94F4B1D
:109090004F4A5049032012F0E9FD4AF6C0014E48FC
:1090A00002F016F942F20F7400259FED458B4FF048
:1090B0000008DFF850A1DFF850914FF0FF324FF079
:1090C000FF335046CDE9002300234FF470121DF00A
:1090D0008FFD424B1B784BB12846FFF703FA6E1CFD
:1090E00041EC100B3E4801F025FD354604AB08AAC3
:1090F00006A902A88DED028B8DED048B8DED068BFC
:109100008DED088B8DED0A8B00F0B6F860BB35480D
:109110009DED020B01F00EFDDDE9026742464B4674
:1091200030463946FFF7D8FC88B32F4B1A78002A0F
:109130003DD10122394630461A70FFF735FD2B49E3
:1091400000EE100A052013F0B9F89DED040B284835
:1091500001F0F0FC9DED080B264801F0EBFC9DEDC5
:10916000060B254801F0E6FC0134042C0BDD0AA8AF
:1091700000F04EF820B99DED0A0B204801F0DAFC12
:1091800001F012FD002450461DF090FD95E70022ED
:10919000304639461A4BFFF781FC0028D5D0124BD8
:1091A0001B78002BD1D000220F4B1A70CDE7002284
:1091B00030463946124BFFF771FC0028F3D1C4E763
:1091C000000000000000F0BF000000000255040095
:1091D000075504000D550400559D03008328012008
:1091E0005355040059550400822801205E5504009F
:1091F000765504007F550400895504008F550400FE
:1092000000803C4018BA002000003E4000000000F2
:109210000023F7B505461648CDE9003320F0EFFDF1
:1092200020B16FF03C04204603B0F0BD6A462A210D
:109230000F4820F0E1FD04460028F2D10198FFF725
:1092400051F909A3D3E90023FFF7E0FA0646009895
:109250000F46FFF747F902460B4630463946FEF700
:10926000F5FFC5E90001DEE70000000080842E4123
:10927000643E0400000000002DE9F3471D46002372
:1092800082463F480F461646CDE9003320F0B7FD31
:10929000044600286BD16A460D21394820F0ACFD08
:1092A0000198FFF71FF934A3D3E90023FFF7AEFAC3
:1092B000804600988946FFF715F90B460246494655
:1092C0004046FEF7C3FF6A46CAE9000110212C4858
:1092D00020F092FD0198FFF705F927A3D3E90023B9
:1092E000FFF794FA804600988946FFF7FBF80B4693
:1092F000024649464046FEF7A9FF6A46C7E9000113
:109300000E211F4820F078FD0198FFF7EBF81AA313
:10931000D3E90023FFF77AFA804600988946FFF7E1
:10932000E1F80B46024649464046FEF78FFF6A4683
:10933000C6E900011E21124820F05EFD0198FFF7EA
:10934000D1F80DA3D3E90023FFF760FA0646009891
:109350000F46FFF7C7F802460B4630463946FEF780
:1093600075FFC5E90001204602B0BDE8F0876FF047
:109370003C04F8E7AFF300800000000080842E4139
:109380004C3E04000000000001282DE9F041884611
:1093900008D02AF03DFC1622374B1A504FF0FF3010
:1093A000BDE8F0818A68354B9A42F2D829F0CBFEAD
:1093B00005460F4629F0C7FE314CD8F80030D8F8E2
:1093C0000420A3FB043604FB0266D8F808209B188F
:1093D00046EBE276EA0B42EA4742A2FB0421FF0B8E
:1093E0009B1AC0F30E0204FB0711A2FB04244FEAF0
:1093F000D23242EA444266EB0101981A61F100015F
:109400001BA3D3E90023FFF71FFC06460D461446B5
:10941000EFF31187202383F31288BFF36F8F19486E
:109420001DF0F4F840B918498822184820F00BFFC5
:109430008821154820F0FEFE12481DF00BF9144B50
:109440001048C3E900659C601DF0EEF840B90E4974
:1094500040F231120D4820F0F6FE40F23111E8E7FB
:1094600087F31188BFF36F8F002099E7AFF3008077
:1094700000CA9A3B000000000C000000FFC99A3BA4
:1094800000CA9A3BC807012052560400EC5504005C
:1094900020D40020000000002DE9F0470546994641
:1094A0000024282386B088469246CDE9024323F063
:1094B00089FA284602A923F0D6FC0746002800F0C6
:1094C000AF8083793A2B18D104230399284604945A
:1094D000059323F0C6FA284604A923F0C4FC18B16A
:1094E00090F90030A34205DB6FF01505284606B061
:1094F000BDE8F087284623F065FABB79112B58D0D8
:10950000062B58D00020AB68002B4ED19FED487B36
:10951000022295F824308DED007B02FB03013A23F3
:10952000A869043109F0A8FA044600287BD095F810
:109530002420296A23F07CFC061E31DBA368204628
:10954000DB68A36295F82C20A96A23F071FC061E43
:1095500026DBA06895F82C100C3004F0EDFBA06819
:1095600050F80C3F236295F8241004F0E5FB95F8C1
:109570002C3007F1180184F8243095F8243084F851
:109580002C303B7EFF2B03D1A06922F02DFB01463E
:10959000204607F1080224F04AF970B16FF0040682
:1095A000204623F0A4F93546A0E71A8A5B681044E8
:1095B000AAE73020AAE73C20A8E7414652462046C9
:1095C00024F04BF801460028E8D1B8F1040F22D16D
:1095D00099FA89F34246204604A9049323F028FC13
:1095E0000646204623F0A3F90246002ED8D129468C
:1095F000204623F012FB05460028D1D1204623F057
:10960000E1F93A21204624F075F9204621F0D1FFF6
:109610000028C5DB6AE70422204623F0EAFADFE7E8
:109620006FF0040562E76FF00B055FE7AFF30080B2
:1096300000800000000000002DE9F0412DED028BBC
:109640001F4605238AB00C4690460146029340B956
:109650005749C022574820F0F6FDC021544820F059
:10966000E9FD34B95249C122524820F0ECFDC12134
:10967000F4E705A80DF040FE30B14D49C6224D4833
:1096800020F0E1FDC621E9E7012101AA05A826F0A5
:10969000E5F90546002831D1019B3BB3042B33D0BB
:1096A000052B0CBF0923FF232370032102AB03AA60
:1096B00005A826F0DCF90646002872D1029BABB162
:1096C00003A94046FFF752FB0222314603A81EF0D1
:1096D0001DFB2378C2B2092B18D0072B1FD03449A9
:1096E0008F22344820F0AFFD8F21B7E7DFED327ACB
:1096F0000023C4ED017A2370C4ED027A28460AB033
:10970000BDEC028BBDE8F0810723CDE70F2A37D9E6
:109710002749A422274820F096FDA4219EE70F2A7E
:10972000F6D89FED268A264B33F8120070B3FEF769
:10973000D9FE1DA3D3E90023FEF73EFFFFF734FA5D
:10974000052360600293042102AB03AA05A826F05A
:109750008EF9064628BB03A93846FFF707FB02220D
:10976000314603A81EF0D2FAC3B20F2B10D910490C
:1097700040F21B120F4820F066FD40F21B116DE70E
:10978000104B9FED118A33F81200CFE70F48D7E74F
:109790000133DBB207EE903AF8EEE77A67EE887AAB
:1097A000AAE73546AAE700BF7B14AE47E17A24401A
:1097B00032610400EC550400000000000AD7A33F0A
:1097C0004C5404002C5404000AD723400AD7A34069
:1097D0002DE9F04F8FB081468B461E46019253B95A
:1097E0006B496C4840F2D71220F02DFD40F2D711A2
:1097F000674820F01FFD831F012B00F2C18016F087
:1098000085FE6549074627F0D0FF6449824627F068
:10981000CCFF6349044627F0C8FF6249054620464D
:1098200027F0C3FF804605B140B9384616F09EFDCB
:109830006FF00B0420460FB0BDE8F08FB9F1060FB2
:10984000594B38D11A787ABB012228461A705249EE
:10985000564A26F07DFB56498146284626F093FB62
:1098600054498144204626F08EFB534981444046AA
:1098700026F089FB51498144284626F084FB504953
:1098800009EB0005204626F07EFB4E4905442046A4
:1098900026F079FB2C18002C64D0384616F066FDB3
:1098A000002070603060C5E70024384616F05EFD89
:1098B00074602046F6E7002228461A70CDE902229D
:1098C0003549414A26F044FB9FED2F0B81463A492A
:1098D000404626F04BFB36498144284627F065FF79
:1098E000804604A813F07EFD049A3249204626F0F3
:1098F0002FFB089A354909EB0005404626F028FB66
:10990000069A05443249404626F022FB0544BBF145
:10991000000F0ED02F49504627F047FF204927F06F
:1099200044FF234927F041FF069A294926F010FBFE
:10993000054412F011FD8DF8080012F00DFA02A98D
:109940000390204610F0B6FE019B4BB1224B2046FF
:10995000196811F049FB044610B110F1130F9CD1A6
:109960002C4698E7384627F04AFE0546384616F05A
:10997000FDFC7560002D9CD02846FFF7FFF991E7AC
:109980006FF0850456E700BF0000000000C0924061
:109990003E680400EC550400B3550400AA550400C9
:1099A000376904001F6A0400E53F01205C69040078
:1099B0003F6904001C6904002A6A0400A3550400DE
:1099C000346A0400426A0400466904004D690400D8
:1099D000ED6804006B6904004015012000000000E0
:1099E0002DE9F04706460C4692B0002900F0BF80F2
:1099F0000F68002F00F0BB808D68D1F8048005F15E
:109A00000409C1450AD80422AD49781929F02BFD73
:109A1000A8B90423F360A36804331DE06B1D9845C7
:109A200010D2454580F0A3807B5D7819222B24D18C
:109A30002146304612B0BDE8F04716F06BB86B1DFA
:109A400098450ED305229F49781929F00CFD30B9AD
:109A50000123F360A36805330120A36088E0C145BA
:109A6000DFD804229849781929F0FDFC0028D8D1C4
:109A70000223F36001237361CDE72D2B03D0A3F103
:109A80003002092A55D800230DF1080C67464FF023
:109A9000010EA8EB0505DFF83882019310F8012BC1
:109AA000452A3ED82A2A10D9A2F12B01C9B20EFAB2
:109AB00001F111EA080F01D12E2A06D101333F2B03
:109AC0000CF8012B01D0AB42E8D1002548336B44A0
:109AD000384601A903F8405C1DF058FEDDF804A0EB
:109AE00059EC108BBA4542D073A3D3E9002340460A
:109AF0004946FEF7E7FFB0B9002240464946734B9E
:109B0000FEF7D6FF90B940464946FFF705F808230F
:109B1000C6E906897061F360A368AAEB070A53449B
:109B20009AE7652AC9E76FF00040F0E74FF0004080
:109B3000EDE75B2B58D1D4F80C90B9F57A7F16D2AB
:109B400009F10103E3607B5D5B2B10D101352046F9
:109B5000A56027F080FCA368984506D9FA5C5D2AC9
:109B600009D10027C4F80C9036E0013BA360002027
:109B700012B0BDE8F08700252F46013BA3602069A5
:109B800027F01DFDA8460546002800F0A5804FB32C
:109B9000C8F80000C0F80480A36820460133A36021
:109BA00027F059FC21462846FFF71AFF002800F04D
:109BB0009380204627F04FFCD4E90123934280F0A4
:109BC0008E802268D35C2C2BD9D05D2B40F087800F
:109BD000E368013BE3607D602023C6E90273A3686C
:109BE000013339E70746D7E77B2BC0D1D4F80C9077
:109BF000B9F57A7FBBD209F10103E3607B5D7B2B72
:109C0000B5D101352046A56027F025FCA36898450D
:109C1000ABD9FA5C7D2A03D10027C4F80C9047E049
:109C200000252F46A846013BA360206927F0C7FC0A
:109C3000A946054600284FD0002F4BD0C9F8000098
:109C4000C0F80490A36820460133A36027F003FC0A
:109C50002146284615F05EFF00283DD0204627F01B
:109C6000FAFB2B69C5F810802B62D4E901239342DB
:109C700032D22268D25C3A2A2ED101332046A36028
:109C800027F0E9FB21462846FFF7AAFE20B320462D
:109C900027F0E1FBD4E90123934220D22268D35C70
:109CA0002C2BC2D07D2B1AD1E368013BE3607D6091
:109CB000402392E7AFF300800000C0FFFFFFDF41C9
:109CC000DE710400F5710400FB7104000000E0C1C6
:109CD000E57F00040746B5E7002F3FF448AF38465C
:109CE00016F044FB43E700BFD0B5174B57EC106BA1
:109CF000186827F064FC044670B10823C0E90667C1
:109D0000C36039460EA3D3E900233046FEF7DAFEDE
:109D100020B16FF0004363612046D0BD0022304681
:109D200039460A4BFEF7C4FE10B14FF00043F2E78C
:109D300030463946FEF7F0FE6061EDE7AFF3008094
:109D40000000C0FFFFFFDF4134B800200000E0C189
:109D500008B5024627F050FD10B192ED060B08BD84
:109D60009FED010BFBE700BF000000000000F87F43
:109D70002DE9FF47804616460F46002900F0A280D5
:109D8000B1FA81F4341B002E04F10A04C0F2A2805F
:109D900030461FF035FD044430461FF037FDA4EB7C
:109DA00006090546694630461FF058FDA9EB050334
:109DB0006A4640467D33394629F032FCA642824647
:109DC0000D4600F38380B9F13F0F00F381804FF01F
:109DD000FF33A9F12000C9F1200103FA00F003FAD2
:109DE00009F223FA01F103FA09F3024328EA030313
:109DF0000A4327EA020213430CBF01200020002D72
:109E000000F08A80B5FA85F3E31A40F2FE7203F29D
:109E10003E43934200F38980002B23EAE376D4BFCC
:109E200001223246121BA2F23341A2F23447A2F2BF
:109E30005344C1F1200C2AFA01F325FA04F4C7F1C6
:109E4000200E05FA0CFC25FA01F105FA0EFE43EA94
:109E50000C03A2F2544CA2F2544223432AFA07F410
:109E600025FA0CFC44EA0E0444EA0C04C7F1200C69
:109E700014F0010F54D0A8B14FF0FF3000FA02F2F5
:109E800000FA07F4144320FA0CF2B840144303F02C
:109E900001022AEA000A25EA04054AEA020A5AEA05
:109EA000050A3DD0013341F10002C2F3130253EA27
:109EB000020138D0184642EA065141EC100B04B0BA
:109EC000BDE8F087B0FA80F420345BE7012096E724
:109ED000002094E7C6F1000948461FF097FC241AB9
:109EE00048461FF093FCA61B0546694648462E448B
:109EF0001FF026FD6A46404606F17C03394629F0EC
:109F00008FFB82460D46404639461FF08FFC814547
:109F10008CBF0020012072E7BAFA8AF3203373E77E
:109F2000C1F31302C6E70136C4E79FED010BC6E794
:109F3000000000000000F07F2DE9FF4755EC104BBA
:109F400025F00042B049EE0F8A4236D9AF498A4225
:109F500018D82046294696A3D3E90023FEF7BCFD76
:109F6000074620BB2046294693A3D3E90023FEF7EA
:109F700095FD002800F0A280384604B0BDE8F04707
:109F800000F006BBC5F313032246234307D02B463C
:109F900020462946FEF75AF904460D4602E0002EF7
:109FA00040F0038145EC104B04B0BDE8F087002081
:109FB00004B0BDE8F04700F0FBBA954B9A4240F27E
:109FC000A980944B9A4279D8934B20462946F700B2
:109FD00003EBC603C6F1010AD3E90023FEF734F907
:109FE0008E4B804689463B44AAEB060A93ED007BE4
:109FF0008DED007BDDE9002340464946FEF724F95C
:10A0000004460D4622462B4620462946FEF7D4FA42
:10A0100006460F466AA3D3E90023FEF7CDFA6AA3EA
:10A02000D3E90023FEF710F932463B46FEF7C4FAA7
:10A0300067A3D3E90023FEF709F932463B46FEF752
:10A04000BBFA65A3D3E90023FEF7FEF832463B4690
:10A05000FEF7B2FA62A3D3E90023FEF7F7F832461F
:10A060003B46FEF7A9FA02460B4620462946FEF774
:10A07000EBF802460B4606460F4620462946FEF7F9
:10A080009BFACDE90201BAF1000F5CD100224FF03A
:10A09000804330463946FEF7D7F802460B46DDE9E5
:10A0A0000201FEF7B3FB22462B46FEF7CDF802462F
:10A0B0000B4600205A49FEF7C7F86DE7594B20467A
:10A0C000294603EBC60648A3D3E90023FEF774FA3A
:10A0D000D6E90023FEF7BAF8FEF71EFD8246FEF72A
:10A0E00001FA06460F4642A3D3E90023FEF764FABD
:10A0F00002460B4620462946FEF7A6F880468946CA
:10A10000304639463CA3D3E90023FEF755FACDE9A2
:10A1100000016FE7444B9A4210D82046294638A3E5
:10A12000D3E90023FEF792F800223D4BFEF7D4FC62
:10A1300038B100223A4B204629462BE74FF0000A5F
:10A1400060E782465EE732463B4600204FF08041A2
:10A15000FEF77AF802460B46DDE90201FEF756FBF0
:10A1600002460B46DDE90001FEF76EF842464B461B
:10A17000FEF76AF80B46024629490020FEF764F80C
:10A180000B466FF47F7106468A4503DB344603EBCA
:10A190000A5507E70AF57A7A3046002203EB0A519E
:10A1A0004FF0B873FEF708FAF6E600240025F9E64A
:10A1B000EF39FAFE422E864051302DD5104987C026
:10A1C000D0A4BE726937663EF16BD2C541BDBB3EBD
:10A1D0002CDE25AF6A56113F93BDBE166CC1663F9B
:10A1E0003E5555555555C53FFE822B654715F73FE2
:10A1F0000000E0FE422EE63F763C7935EF39EA3D3D
:10A200009C7500883CE4377E412E8640FFFFEF7F3F
:10A21000422ED63FB1A2F03FA84404009844040067
:10A220000000F03FB8440400FFFFEF3D00000000D5
:10A2300051EC100BB1F5801F2DE9F04F0D4687B0A2
:10A2400023DA21F00043034305D1012007B0BDE824
:10A25000F04F00F0BDB9002904DA07B0BDE8F04FB7
:10A2600000F0C6B9C64B0022FEF7A6F96FF0350321
:10A270000D46C44A95420ADD02460B46FDF7E6FF4D
:10A2800041EC100B07B0BDE8F08F0023F1E72C156F
:10A29000C5F31305A4F2FF341C4405F5152303F69A
:10A2A000647303F4801383F07F5204EB1354B64BB2
:10A2B00082F4401242EA05010022FDF7C5FFAB1C03
:10A2C00082468B46C3F313030022022B53DC002388
:10A2D000FEF7DAFBD0B1002C00F020812046FEF71B
:10A2E00001F906460F4690A3D3E90023FEF764F96F
:10A2F00004460D46304639468DA3D3E90023FEF7C8
:10A300005BF902460B4620462946B7E78AA3D3E904
:10A31000002350465946FEF74FF902460B460020EF
:10A320009A49FDF791FF06460F4652465B46504656
:10A330005946FEF741F902460B4630463946FEF7CC
:10A340003BF906460F4614B932463B46A0E020468C
:10A35000FEF7C8F88046894673A3D3E90023FEF7C9
:10A360002BF904460D464046494671A3D3E9002324
:10A37000FEF722F9A5E04FF08043A5F5C226FDF7D0
:10A3800065FF02460B4650465946C5F5D725FEF7F0
:10A390003DFAA6F27A465135CDE900012046354313
:10A3A000FEF7A0F8DDE90023CDE9020110461946C9
:10A3B000FEF702F902460B46CDE90423FEF7FCF84E
:10A3C000804689465EA3D3E90023FEF7F5F85EA335
:10A3D000D3E90023FDF73AFF42464B46FEF7ECF87F
:10A3E0005BA3D3E90023FDF731FF42464B46FEF75E
:10A3F000E3F859A3D3E90023FDF728FFDDE904239F
:10A40000FEF7DAF856A3D3E90023CDE9040140466C
:10A410004946FEF7D1F854A3D3E90023FDF716FF10
:10A4200042464B46FEF7C8F851A3D3E90023FDF797
:10A430000DFF42464B46FEF7BFF802460B46DDE9EC
:10A440000401FDF703FF002D8046894648DD002208
:10A450004E4B50465946FEF7AFF852465B46FEF764
:10A46000ABF802460B4606460F4640464946FDF706
:10A47000EDFEDDE90023FEF79FF88046894664B9CA
:10A4800002460B4630463946FDF7DEFE02460B46D5
:10A4900050465946FDF7D8FEF2E623A3D3E9002340
:10A4A000DDE90201FEF788F804460D4620A3D3E952
:10A4B0000023DDE90201FEF77FF842464B46FDF737
:10A4C000C5FE02460B4630463946FDF7BDFE5246F4
:10A4D0005B46FDF7B9FE02460B4620462946D9E702
:10A4E00002460B4650465946FDF7AEFEDDE9002315
:10A4F000FEF762F806460F46002C3FF425AF0AA38C
:10A50000D3E90023DDE90201FEF756F804460D46C3
:10A5100007A3D3E90023DDE9020129E79FED160B2C
:10A52000B0E600BFAFF300800000E0FE422EE63F41
:10A53000763C7935EF39EA3D555555555555D53F5A
:10A5400044523EDF12F1C23FDE03CB966446C73F62
:10A55000599322942449D23F935555555555E53F7B
:10A560009FC678D0099AC33FAF788E1DC571CC3F86
:10A5700004FA97999999D93F000000000000000063
:10A5800000005043FFFFEF7F0000F03F0000E03F7E
:10A5900010B19FED030B70479FED030B704700BF99
:10A5A000000000000000008000000000000000002B
:10A5B00010B19FED030B70479FED030B704700BF79
:10A5C000000000000000F0FF000000000000F07F2D
:10A5D00010B19FED030B70479FED030B704700BF59
:10A5E000000000000000F0FF000000000000F07F0D
:10A5F00008B51FF023FB9FED020B08BDAFF30080F1
:10A60000000000000000F87F08B504481AF090FE32
:10A61000BDE80840142025F092BB00BF00B5002023
:10A6200010B50020FFF7F0FF054C18B12168054870
:10A630001FF05BFB21680448BDE810401FF055BBCC
:10A6400030060120020007D2010007D210B5064CE7
:10A65000064821681FF049FB206806F0F7FBBDE8BB
:10A6600010400020FFF7D0BF30060120020007D2C3
:10A6700070B50F4B186823F098FF002816DD4FF4D3
:10A680007A734FF4004503FB00F4002140F2E730F9
:10A690004FF47A720023E4FB0501FEF725FBBDE8C9
:10A6A000704002460B4603481AF03CBE70BD00BF26
:10A6B0003006012000B5002010B51B4B1A78A2B15E
:10A6C0005A7892B1A8B91870184C5970206806F0E1
:10A6D000BDFB27F002FA70B10021206823F0D1FE03
:10A6E000C0B1BDE81040FFF7C3BF28B9187059705A
:10A6F00001E00029E8D010BD01221A700029F6D02F
:10A700005A700A4B186806F0C3FBBDE810400848B1
:10A710001AF00EBEFFF778FF0028ECD0216805483C
:10A72000BDE810401FF0E1BA80280120300601206A
:10A7300000B50020020007D210B504464FF0FF32EA
:10A740004FF0FF33074819F0D1FE074B5A78A24269
:10A7500003D021461878FFF7AFFFBDE8104001484D
:10A760001FF0D3BA18BB00208028012010B5044682
:10A77000006806F06BFB60694FF0FF324FF0FF336B
:10A7800019F0B4FEE368606943F00203E3601FF070
:10A79000BCFA60694FF0FF324FF0FF3319F0A6FEAC
:10A7A000E368606943F00103E3601FF0AEFA002341
:10A7B000084823610EF03EFB28B121680648BDE839
:10A7C00010401FF092BA054825F0A0FA2268044B09
:10A7D0001A6010BD45A80100020007D20F9D0300BA
:10A7E0003006012010B504464FF0FF324FF0FF3322
:10A7F000074819F07BFE074B1A78A24203D0204687
:10A800005978FFF759FFBDE8104001481FF07DBAA5
:10A8100018BB00208028012010B5094C206800F0EA
:10A82000A7F818B1BDE81040FFF710BF206800F08E
:10A830001FF90028F6D1BDE81040FFF7D3BF00BFD5
:10A8400030060120013908B504291FD8DFE801F0DE
:10A850000314181F1400104B186800F02FF810F1A3
:10A860003D0F04D018B1BDE80840FFF7EFBE01204E
:10A87000BDE80840FFF7B6BFBDE80840FFF7CCBF12
:10A88000054B186800F08AF80028ECD108BD024B8F
:10A89000186800F0EDF8F7E73006012010B5054C18
:10A8A000054821681FF021FA2068BDE8104006F035
:10A8B000CDBA00BF30060120020007D270B50024D7
:10A8C0000646A2B01822214608A8CDE90044CDE9E9
:10A8D000024428F073FD002E3DD0242221460FA80B
:10A8E0000E9428F06BFD2422214619A8189428F014
:10A8F00065FD1C491C4818AB0EAA17F0B7FFA04213
:10A9000003DC6FF00D0022B070BD012004AA0EA977
:10A9100020F044FC0128054602D06FF03C00F2E72D
:10A920000EA96846FEF722FA6846FEF727FA08AA3B
:10A930000146684621F091FC0028E2D0234603221C
:10A94000304609A905F0A2FD40B1084B099A2046FE
:10A950001A601D71D7E76FF01500D4E76FF0120091
:10A96000D1E700BF82540400AF5404003406012034
:10A9700010B550B1084C23792BB1214606F0FEF8F2
:10A9800030B100232371002010BD6FF01500FBE7EC
:10A990006FF00D00F8E700BF3406012070B5002409
:10A9A0000546A8B0242221460BA80A9428F006FDEB
:10A9B0001822214604A828F001FD002D4CD0214684
:10A9C000242215A8149428F0F9FC214624221FA85B
:10A9D0001E9428F0F3FC234923481EAB14AA17F059
:10A9E00045FF041E35DD02206A4614A920F0D6FB7F
:10A9F00001281FD114A90AA8FEF7B8F90AA8FEF782
:10AA0000BDF904AA01460AA821F027FC08B305AC49
:10AA1000002303222146284605F0A6F9F8B194E860
:10AA20000F00124E06F1080585E80F0001230020F3
:10AA300033760CE0012C08D002206A461EA920F0D3
:10AA4000ADFB012801D11EA9D5E76FF03C0028B06D
:10AA500070BD6FF00D00FAE76FF01500F7E76FF0CB
:10AA60001200F4E782540400AF54040034060120BD
:10AA700010B558B1084C237E33B104F1080105F03C
:10AA80001BFE30B100232376002010BD6FF01500AF
:10AA9000FBE76FF00D00F8E73406012010B58CB02D
:10AAA0001F4828F0D5F9002836D01E4C204628F043
:10AAB000CFF928B91C481FF09BFB00200CB010BD3B
:10AAC00001A91A481FF041F901A915481FF03DF9E5
:10AAD000174A1348114624F066F8A3683C21DB6846
:10AAE00020469847204602AA2A211FF02BF920462B
:10AAF00004AA2B211FF026F9204606AA2E211FF0BA
:10AB000021F920460AAA3D211FF01CF93E212046CA
:10AB100008AA1FF017F9D0E76FF01200CEE700BFC8
:10AB20001C3E0400643E0400BC540400343E040097
:10AB300040771B0070B52DED028B194C054623683C
:10AB4000B0EE408AF0EE608A632B82B024D868466B
:10AB500025F0D9F968B128F0F6FA4FF47A76A0FB1F
:10AB6000063206FB0122DB0B43EA4243D20BCDE95E
:10AB70000032302226680B4B294602FB0633202286
:10AB8000184628F082FC034680ED088BDDE90001C1
:10AB9000C3E90A010136266002B0BDEC028B70BD2C
:10ABA0005006012060C10020002301222DE9F04160
:10ABB0008CB002A8CDE90533CDE90A338DF8082021
:10ABC00003938DF810308DF81C2008938DF82430F5
:10ABD00025F027FC044678B91A4D1B4E1B4FDFF8B1
:10ABE00070803368A3420AD802A81FF0F6F800B9B3
:10ABF000306002A825F053FC0CB0BDE8F081D5E927
:10AC00000A232946CDE9002307A83A461FF0CFF8CA
:10AC1000024648B995ED080B414607A825F08BFC84
:10AC200028B107A825F03BFC01343035D9E707A946
:10AC300002A825F05BFC0028F3D107A825F0E0FB73
:10AC4000F2E700BF60C1002050060120F854040064
:10AC5000FD540400014B1870704700BF8328012089
:10AC6000014B1878704700BF832801200146014836
:10AC700028F049BBB4BD002008B525F055F920B136
:10AC8000BDE808401020FFF7F1BF1021BDE80840E3
:10AC9000014828F03BBB00BFB4BD002007B500222F
:10ACA000CDE900010121044828F034FB003818BF29
:10ACB000012003B05DF804FBB4BD002007B50022FD
:10ACC000CDE900010421044828F024FB003818BF16
:10ACD000012003B05DF804FBB4BD002007B50022DD
:10ACE000CDE900010821044828F014FB003818BF02
:10ACF000012003B05DF804FBB4BD002007B50022BD
:10AD0000CDE900011021044828F004FB003818BFE9
:10AD1000012003B05DF804FBB4BD002008B50B486A
:10AD20001AF006FB06210A4828F0F0FA0022094B27
:10AD3000D3E8EF1FC3E8E02F0028F9D111F070FC31
:10AD4000BDE808400820FFF791BF00BF30B50020E4
:10AD5000B4BD00206C06012008B50C4B994209D106
:10AD60004FF4004000211BF061FABDE808400120CB
:10AD7000FFF77CBF064B994207D10121054828F017
:10AD8000C5FABDE80840FFF7C9BF08BD010014F1CE
:10AD9000020014F1B4BD002070B50378013B0F2B05
:10ADA00018D8DFE803F008170F18272F37173B17BD
:10ADB00017231769172300F095F90220BDE87040AA
:10ADC000FFF754BF01222E4BD3E8EF1FC3E8E02F5B
:10ADD0000028F9D170BD00222A4B1A70284BD3E805
:10ADE000AF3F002BF6D00122274B1A60BDE8704020
:10ADF000FFF794BF25481AF09BFA1E22224B04202D
:10AE00001A60DBE7224B1B68002BE3D0BDE87040E3
:10AE10000830184701221B4B1A70DBE78469002CAD
:10AE2000D8D02578D5B960680028D3D0103000F08C
:10AE3000D7F910F1090F0FD00C300128CAD9012120
:10AE40006068103011F072F90028C3D16068BDE865
:10AE50007040103025F01ABD2946F1E7012DB9D117
:10AE600060680028B6D0283000F00CFA0028B1D075
:10AE7000BDE8704000F03CB9BDE870401EF0C3BFB3
:10AE80006C06012084280120D4B6002030B50020B3
:10AE9000680601202DE9F043022089B01EF0B8FFBA
:10AEA000012009F07DFA3D483D4B43603D4B036175
:10AEB00006F02EFC3C4825F039F81422002103A8A6
:10AEC00028F07CFA394B02931EF0A0FF384B049017
:10AED00002A8069311F032FB28B1032009B0BDE8A7
:10AEE000F0431EF095BF25F0BAFE10F1860F4BD04F
:10AEF0006D3049D04FF0FF384FF0FF3900272D4D0E
:10AF00004FF0FF314FF0FF30FFF7C8FE0821284611
:10AF100028F0FCF911F050FB10F10B0F044619D08A
:10AF2000F0B90A210246CDE90089284628F0F2F955
:10AF3000830715D5002200230421CDE900232846EC
:10AF4000224628F0E7F928B94FF0967200231A48F4
:10AF50001AF0E8F94FF0FF304FF0FF31FFF7BEFE77
:10AF6000164B4FF400461C684FF47A73394640F292
:10AF7000E7305C434FF47A720023E4FB0601FDF7EF
:10AF8000B3FE1BF053F9BBE7012009F0F7F94FF0CE
:10AF9000FF314FF0FF301BF049F9ABE754060120B9
:10AFA00059AD0100030014F179AC010099AD010025
:10AFB00007550400B4BD002030B50020D4B60020F1
:10AFC000F7B50F460446F8B10190124B5B6A192B96
:10AFD0001DD051B1142028F0A7F9064680B10546CE
:10AFE0000FCC0FC5236801962B600022002309486F
:10AFF00001A919F03FF928B117B1019828F08DF98E
:10B000006FF00B0003B0F0BD6FF01500FAE76FF0C2
:10B010001B00F7E744BC0020BFB5234F234D4FF082
:10B02000FF324FF0FF336946384619F0BFF9044646
:10B030000028F4D14FF0FF314FF0FF30FFF73EFE14
:10B04000009B1022214602A8019328F0B7F94FF483
:10B05000817301A8ADF8103011F0F6FA002818DA63
:10B0600021460098FFF7ACFF30B1009C204625F048
:10B0700016FA204628F051F92B680133052B2B6076
:10B08000CDDDFFF74BFE00214FF4A0201BF0CEF8E2
:10B09000C5E7009E304625F002FA304628F03DF91B
:10B0A0001EF0B7FE2C60BAE744BC002070060120F9
:10B0B00013B50B490DF1070225F04BF9044630B9E1
:10B0C0009DF80700FFF7C6FD204602B010BD10F145
:10B0D000230F14BF6FF022046FF00804F4E700BFE1
:10B0E000955504000022014B1A70704785280120F5
:10B0F0000023012210B594B00FA8CDE90333CDE9A8
:10B100000833CDE90D33CDE912338DF800200193DA
:10B110008DF808308DF8142006938DF81C308DF8CA
:10B1200028200B938DF830308DF83C2010938DF84B
:10B13000443025F04BF980B16FF00B04684625F0E0
:10B14000AEF905A825F0ABF90AA825F0A8F90FA8D3
:10B1500025F0A5F9204614B010BD0AA825F036F94F
:10B160000028E9D105A825F031F90028E4D1684686
:10B1700025F02CF904460028DED1FFF771FD2346A7
:10B18000024613490FA825F061FA04460028D5D1DC
:10B19000034610490FAA0AA825F078FA04460028A9
:10B1A000CCD103460C490AAA05A825F06FFA04463B
:10B1B0000028C3D103460949684605AA25F066FA66
:10B1C00004460028BAD1684625F060FB0446B5E77E
:10B1D00095550400A3550400AA550400B355040076
:10B1E00070B5054686B000283FD00378012B04D007
:10B1F0006FF02204204606B070BD4268002AF7D0E6
:10B200001D4A1278002A33D000261C4901AACDE934
:10B2100004668DF8043002968DF80C6025F0ADF8C8
:10B220001330E5D001A8FFF743FF10F1090F0446E2
:10B230000DD101A825F033F901A825F0C7F8FFF7D3
:10B240000FFD334602460E4901A825F0FFF9002301
:10B2500028460A4901AA25F019FA0028CAD001A8EF
:10B2600025F01DF96FF00B04C4E76FF01504C1E77A
:10B270006FF00A04BEE700BF85280120A355040033
:10B280009555040048B10121074A117002788A429D
:10B2900006D1436823B1FFF70BBF6FF0150070476D
:10B2A0006FF02200704700BF852801200278012A34
:10B2B00002D0022A04D07047044B1B682BB11847F8
:10B2C0004378022B01D01EF086BD70477406012022
:10B2D00030B505468FB00C4624F026FE0B4B0C48CB
:10B2E0001D600EF0F9F970B9012501A86A462946DA
:10B2F0008DF8005024F022FE01A88DF83450ADF8EE
:10B300002C400EF0FDF90FB030BD00BF74060120D7
:10B31000ADB2010010B5094C0A44914200D110BDF4
:10B3200011F8013B58400309E35C0001C0B24340FF
:10B330001809205C1B01DBB25840EEE7B955040048
:10B34000F0B5002421F00302184D194E194F0244A4
:10B35000904218D1002301F00300104482421FD113
:10B3600012484C405843124B4FEA70405843124B1E
:10B37000604080EA10405843104B80EA50305843F8
:10B3800080EA1040F0BD50F8043B6B434FEA734332
:10B39000734363404FEAF34303EB8303DC19D7E7BE
:10B3A00012F8015B45EA0323D8E700BF512D9ECC7C
:10B3B0009335871B646B54E66BCAEB8535AEB2C21E
:10B3C00070B589B30668012230461EF076FD01464D
:10B3D000044630461EF039FDC30708D41349AF2296
:10B3E00013481EF030FFAF2110481EF023FF214606
:10B3F00030461EF040FD25182946002230461EF03A
:10B4000024FD2D1AAC4206D00849B72208481EF088
:10B410001AFFB721E8E7214630461EF032FD2146EB
:10B42000BDE870401EF06EBE70BD00BFC95504007F
:10B43000EC5504002DE9F8430F4606681446B2683F
:10B440004B1EB2F5004F34BF042108213B4010D001
:10B45000C7F1000909EA0709494503F1FF3028BF90
:10B46000494618420CD11F46BCB900252846BDE804
:10B47000F8838F420FD82146BDE8F8431EF084BE02
:10B480002C492D484FF4A2721EF0DDFE4FF4A2713C
:10B4900028481EF0CFFE9946E6E7B2EBD40FE4D978
:10B4A000E319591A10461EF012FD014630461EF0EF
:10B4B00068FD80460028D8D0B36809EBC005B3F515
:10B4C000004F34BF042308231D4435447B1E1D4414
:10B4D000B5FBF7F57D43A5EB0905294630461EF07F
:10B4E000ECFC2C44073424F00704A41B80450746D9
:10B4F0004FEAE40408D20246414630461EF07BFD86
:10B50000414630461EF0BCFD394630461EF0B3FCC5
:10B510003844844208D23946304622461EF06BFD3C
:10B52000214630461EF0ACFD0122394630461EF061
:10B53000A8FC9BE7C9550400EC5504002DE9F74F22
:10B5400091461F460E460468009031B93A46494676
:10B5500003B0BDE8F04FFFF76DBF3FB9FFF730FF15
:10B560004FF00008404603B0BDE8F08F02F1FF3A0B
:10B570001AEA020F0AD04B494B4840F289121EF0DA
:10B5800062FE40F2891147481EF054FED4F808B01C
:10B59000BBEBD70FE4D920461EF08FFC01460546D1
:10B5A00020461EF068FCBBF5004F2CBF0822042289
:10B5B00002EBC5022244B31A8046F918584601939B
:10B5C0001EF085FC8346B9F1000F02D016EA0A0F7F
:10B5D00044D1C3450ED00FD2AB445A46294620462B
:10B5E0001EF009FD2946012220461EF04AFC59465C
:10B5F0001EF088FDB046B5E705EB080A012251466A
:10B6000020461EF022FCC30728D4514620461EF0D7
:10B6100032FC4044584521D3514620461EF09AFC46
:10B62000514620461EF027FCABEB080840450AD9DE
:10B6300005EB0B07514620463A461EF0DCFC394626
:10B6400020461EF01DFD5246294620461EF0FAFCFB
:10B650000122294620461EF014FCCBE73A46494613
:10B660000098FFF7E7FE804600283FF479AF2946AF
:10B6700020461EF000FCA368019AB3F5004F34BFCA
:10B6800004230823C2EBC002D21ABA42314628BFB3
:10B690003A46404627F06BFE31460098FFF790FE91
:10B6A00060E700BFC9550400EC550400B2F5802FD7
:10B6B0002DE9F0410CD2042A20D83D494FF4F9720B
:10B6C0003C481EF0C0FD4FF4F97139481EF0B2FD40
:10B6D0000823D21ACC1D114424F0070421F00701DD
:10B6E000091B17294FEAD1060AD8314940F2FB124B
:10B6F00030481EF0A8FD40F2FB11E6E70423E8E71E
:10B700000027046031463046A660E7601EF0E8FB83
:10B710000121421D804630461EF0D9FB9200D51D06
:10B72000ED082844B0423AD8B8F1FF3F3946A2F1BB
:10B73000100204F11000B8BF3A4627F03FFE2A4637
:10B74000394620461EF0B5FB3B463A463946204670
:10B750001EF086FBA6EB05082046394601221EF0A6
:10B7600090FB424629461EF0A4FB2B463A4629464A
:10B7700020461EF075FB314620461EF09AFB4346DC
:10B780003A46314620461EF06BFB314620460122E8
:10B790001EF077FB2946BDE8F0411EF071BC04495C
:10B7A0004FF4037203481EF04EFD4FF403718CE713
:10B7B000C9550400EC550400014B1B68184700BF35
:10B7C000D8B6002030B585B004460D4610220021C1
:10B7D000684627F0F3FD02238DF80230044B2A4619
:10B7E0002146684601931CF017FC05B030BD00BF30
:10B7F000B9B7010080B505460E46174698461AF0BF
:10B8000043FD034628F004FA0446DFF81890424648
:10B8100049F8003039463046A84754F8090001F08D
:10B82000EBFB00BF08000000032800B508D928F092
:10B83000EFF90922074B1A504FF0FF305DF804FB77
:10B840003022054B02FB0033D3E8AF3F002BEED094
:10B850000020F3E70C000000800601203023434362
:10B8600030B50D4908330B44D3E8AF2F92B1541EC5
:10B87000D3E8EF5F954204D1C3E8EC4FBCF1000F71
:10B88000F6D1F1D1012A05D13023584300230A18FB
:10B890000B50536030BD00BF7806012038B5044618
:10B8A0001546FFF7C1FF00280DDB30236343074A2D
:10B8B000D0184068086015B10C3313442B60302356
:10B8C0005C43105938BD0020FCE700BF780601201A
:10B8D00070B500254FF0FF334FF0FF3217481EF0D0
:10B8E000A3FC174BD3E8AF2F82B10135042D03F130
:10B8F0003003F7D128F08CF917224FF0FF35114BA8
:10B900001A500E481EF092FC284670BD30246C433D
:10B91000D3E8EF0F0130C3E8E10F0029F8D10A4E58
:10B92000331932515A6004F10C00304427F0EDFA1B
:10B9300004F12000304427F099FBE2E704BB00202B
:10B94000800601200C0000007806012030B4044677
:10B95000302510466C43084A151911516860EB6296
:10B9600040B1C36833B10C34131940F2051230BC36
:10B970001EF04BBC30BC704778060120044608B569
:10B98000EFF31183202383F31288BFF36F8F0AF044
:10B99000C3FB204601F0E6FA02481EF029FC1FF026
:10B9A00020FBFCE7045604002DE9F84340F26C73D9
:10B9B00044690569E1170135E41841F10001022DE0
:10B9C0008CBF00230123E41AC76861F1000100293C
:10B9D000064607F1FF374EDA6FF4C7704FF4C872AE
:10B9E0000023201861F10001FDF72EF9244B4FF0E0
:10B9F0003C0E03FB0044D6E900834FEAE37C994602
:10BA00006346022D02468CBF6FF002000920B66823
:10BA10000544C6FB0E93A9FB0EC60EFB036640F25F
:10BA20006D1E9920A3080EFB04333B446427454355
:10BA30000520B4FBF7F40235B5FBF0F51B1B114CE8
:10BA40001CEB080CA2FB042004FB01012B4446EB79
:10BA5000E87698180C4A41F1000380180B4A63F10C
:10BA60000003A0FB020102FB031110EB0C0041EBF1
:10BA70000601BDE8F8834FF4C87200232046B3E7FF
:10BA800070FEFFFFB13A02009405F5FF80510100FE
:10BA90002DE9F84F0446A38B08461907164612D421
:10BAA000022803F0070162D120461EF029FC88B16C
:10BAB0000138042800F22581DFE810F05900230145
:10BAC0007E00C800F50001280CBF43F0100143F0D0
:10BAD0002001A18304F114001AF0A6FD002800F053
:10BAE000AB8086F31188BFF36F8FBDE8F88F03F04A
:10BAF0000702501F01281ED80020062A2768C4E923
:10BB0000000014D13A4603E0E08B0130E083126874
:10BB1000002AF9D123F0070343F002022046A28352
:10BB20001EF0EEFB90B342F02002A2832EE023F041
:10BB300007039AB2F2E7042A33D123F007039AB23B
:10BB40002046A2831EF0DCFB10B142F02002A2834B
:10BB5000A38B03F00709894540F0DC80A18BCA065E
:10BB600040F1218121F01003A38301F00701D4F8F3
:10BB70001880A38BB8F1000FB9DA0022276823F0F0
:10BB80000703C4E9002243F00103A383A38B03F05E
:10BB90000709894540F0BF80002FDFD00025AA4665
:10BBA00040E0854940F21B1284481EF04CFB40F2F5
:10BBB0001B1181481EF03EFB41B17F494FF4AB722F
:10BBC0007E481EF040FB4FF4AB71F2E7236843B9A7
:10BBD000794940F2571279481EF035FB40F257116F
:10BBE000E7E723691D6845B973494FF4AD7273489F
:10BBF0001EF029FB4FF4AD71DBE70F4688464FF08E
:10BC00000609A38B23F0070343F006039BB2A3832B
:10BC1000A268002A40F08180002F40F08180002D32
:10BC20009CD0BA4643F0080304F1140B5846A38392
:10BC30001AF0FAFC002875D1614940F231125F48D0
:10BC40001EF001FB40F231115D48B3E7022908D034
:10BC5000594940F25D1259481EF0F5FA40F25D1163
:10BC6000A7E7E78B47B154494FF4AF7253481EF032
:10BC7000EAFA4FF4AF719CE723695D6845B94E4914
:10BC800040F261124D481EF0DEFA40F2611190E779
:10BC9000A38BB84623F0070343F004039BB24FF095
:10BCA0000409A383B4E7012908D043494FF4B272D1
:10BCB00042481EF0C8FA4FF4B2717AE7236843B9DC
:10BCC0003D4940F265123D481EF0BDFA40F2651153
:10BCD0006FE723699D6845B937494FF4B472374817
:10BCE0001EF0B1FA4FF4B47163E70027A38BB84696
:10BCF00023F0070343F005039BB24FF00509A3832C
:10BD000086E72D4940F26B122C481EF09CFA40F257
:10BD10006B114EE7002700257AE74FF0010A81E713
:10BD200092467FE786F31188BFF36F8FBAF1000F59
:10BD300016D147BB15B120462249A847EFF311861B
:10BD4000202383F31288BFF36F8F58461AF05EFCEE
:10BD500008BB1B49882219481EF075FA882173E731
:10BD6000A1680029E5D00E680029E2D043464A4682
:10BD70002046D1F804A0D0471EB1336831461E4694
:10BD8000F2E73346FAE7394643464A4620463F68DB
:10BD90001EF0E2FACDE758461AF05CFCA38B23F0C4
:10BDA0000803A383DAE68B067FF594AE21F0200327
:10BDB000A38301F0070177E62D560400EC5504003B
:10BDC00052560400C9BD0100F8B504460D4600F105
:10BDD0001406EFF31187202383F31288BFF36F8FCC
:10BDE00030461AF013FC40B909490A4888221EF06F
:10BDF0002AFA882106481EF01DFA30461AF02AFC5D
:10BE0000A5613A462046BDE8F8400121FFF740BE53
:10BE100052560400EC5504002DE9F04704460F4645
:10BE20001EF08AFA051E5DDB04F11409EFF3118A96
:10BE3000202383F31288BFF36F8F48461AF0E6FB86
:10BE4000804638B93349882233481EF0FCF98821EE
:10BE500030483CE048461AF0FDFB4FF6FF72E38B9A
:10BE6000A68B934206F007063FD0022E10D135462E
:10BE70000133E38348461AF0D7FB00283BD125491C
:10BE800040F2311224481EF0DEF940F23111DFE7B2
:10BE9000062E13D8DFE806F0092C12120904090057
:10BEA0006FF085054FF00008E4E700233B6063680E
:10BEB0007BB9C4E900777EB13546F3E717491648E8
:10BEC0004FF4E4721EF0BFF94FF4E47113481EF012
:10BED000B1F91F606760EEE7524602212046FFF786
:10BEE000D7FD35462846BDE8F0876FF00A05D9E74B
:10BEF0006FF00405D6E78AF31188BFF36F8FB8F1AE
:10BF0000000FEFD000233246394620461EF024FAB7
:10BF1000E8E700BF52560400EC5504002D5604001B
:10BF200008B54268034602F00302022A81600AD083
:10BF3000032A4FF0000103D0012A0AD1596006E01C
:10BF40001868596008BD186800225A6050B900206E
:10BF5000F8E70649064845221EF075F945210348D1
:10BF60001EF068F91BF07AF9F1E700BF7F56040074
:10BF7000EC5504002DE9F04F85B090F8368004466A
:10BF8000B8F1080F38BF4FF00808894608F10703D9
:10BF900003F4FC7302AFADEB030D02AB90F83C1061
:10BFA0001646184642467B6027F008FA4A46204665
:10BFB00079681EF0C2FAB0F1000A7ADB94F836B064
:10BFC0001FFA8AF158461EF005FA494605465846BA
:10BFD0001EF000FA0121814658461EF0FBF9A845E3
:10BFE00081441FFA89F908D23A493B484E221EF093
:10BFF0002AF94E2137481EF01DF904F10C084FF0C4
:10C00000FF324FF0FF33404618F070FA82460028A6
:10C010005CD1D4E9091248682A444A44824234D99E
:10C02000D346A27920463A601EF03EFC0146BBF1A1
:10C03000000F08BF8346206A814241D03A680AF166
:10C04000010052453ADCBBF1000F39D0082194F8C9
:10C0500036001EF0BFF9DBF804A0484428448245AE
:10C060002ED3A28E59460132204692B21EF0A3FA78
:10C070008246D8B9082194F83600C4F824B01EF0DE
:10C08000A9F9A38EA0620133A38600952046D4E9C6
:10C0900009127B681EF01BFA8246A0B9636A3360FE
:10C0A000A36A1D44B5604D447360A562404618F014
:10C0B000D3FA50460C37BD46BDE8F08F8246B1E753
:10C0C0006FF01B0AF2E76FF0040AEFE76FF0150A52
:10C0D000EFE700BFA5560400EC550400014B0360D8
:10C0E00000207047C844040070B5114B0D461C6811
:10C0F000DCB1104B196800238B4202DB6FF00100AA
:10C1000070BD224612F8106B864202D014460133ED
:10C11000F2E7E06810B96FF01200F1E726F098FE40
:10C120000028F8D000202C60EAE76FF00C00E7E769
:10C1300024B70020DC44040070B588B005460C46E6
:10C14000C0B269461646FFF7CFFF00281BDB0098F8
:10C15000C8B143682268029383680195CDE903362C
:10C160000023CDE906230593C5681EF06AFC6DB176
:10C170002846084901AA22F0E4FA079808B9059B65
:10C18000236008B070BD6FF01500FAE76FF0120081
:10C19000F7E700BF13AB03002DE9F3470D46DDE9D8
:10C1A0000A7891461E46044620B96FF00D0002B091
:10C1B000BDE8F0870029F8D0002AF6D000930023CC
:10C1C00001938B680846DB68984702688246B6FB95
:10C1D000F2F302FB13636262002BE6D16A46284643
:10C1E000144922F0AEFA019A002ADED007EB0803C8
:10C1F0009A42DAD3616AB7FBF1F301FB1373002BA8
:10C20000D3D1C4E90096E5602361A3606761B8F10A
:10C21000000F01D1A2EB07080C9BC4F81880E36162
:10C220004FF0FF3323629AF80530002084F828305D
:10C23000BDE700BF57AB030070B50D461646044678
:10C2400038B331B32022002127F0B8F82888112212
:10C25000022101F0F9FD0028E06005DA27F0D8FCA2
:10C260000D4B1858404270BD3246294601F05CFE25
:10C270000028E06802DA01F02FFEEFE70121A36851
:10C2800044F8330004EBC3020B4491800020A36008
:10C29000E9E76FF00D00E6E70C000000F0B504469A
:10C2A0009BB00F4615460021302202A827F086F8E1
:10C2B000002C00F0A180002D00F09E809DF8083039
:10C2C00023F03F0343F01B038DF8083026F03BFFBB
:10C2D0004B4A0026A0FB020302FB013110F580400F
:10C2E00041F10001C00B40EA41400023444AC90B20
:10C2F000FCF7AAFC41F2C6034FEA106C5A43030252
:10C300004CEA012C03F47F0343EA0C03C4E9040163
:10C3100043EA0063000A00F47F400343A26112BABB
:10C32000E0680C930D9230223346CDE9006602A9F5
:10C3300001F026FE002810DB314630220EA827F03F
:10C340003DF8A1683A4620461EF00AFFB04206DAE0
:10C3500027F05EFC2B4B185840421BB0F0BD42D07A
:10C36000E06830223346CDE900660EA901F06AFE8E
:10C370000028EDDB302839D1D4E90412149B1BBA14
:10C38000964208BF8B4202D06FF01500E5E7159B7F
:10C39000A2691BBA9342F7D19DF8383003F0070326
:10C3A000042BF1D19DF839301BB3189B199A1BBA95
:10C3B00012BA53EA0201E7D0AA60002293420DDAD2
:10C3C00011498B4202D8C5E90032DDE70F4A9B18BC
:10C3D00062EB02020020C5E90032BEE70B495B18A0
:10C3E00042F10002F6E76FF07300B6E76FF07900F4
:10C3F000B3E76FF00F00B0E76FF00D00ADE700BFDF
:10C4000040420F000C0000007F7EAA838081557C93
:10C410002DE9F0410F4B05461C680E461746ACB19E
:10C420004FF0FF324FF0FF330B4818F05FF86368AE
:10C430003246D3F8088029463B462046C04704468A
:10C44000054818F009F92046BDE8F0816FF00104B5
:10C45000F9E700BF3807012008BC00200023036073
:10C46000044B5A6812B9C3E9000070471060586065
:10C47000704700BF3C070120014B1860704700BFA8
:10C4800038070120002330B585B00546CDE90233D9
:10C4900001904FF0FF334FF0FF320B4818F026F8B1
:10C4A0000A4B1C684CB9284600F07CF80446064844
:10C4B00018F0D2F8204605B030BD636820461B68EE
:10C4C00001A998472468EDE708BC00203C0701203B
:10C4D0000022024BC3E90022704700BF3C07012045
:10C4E0000022024BC3E90022FFF7F2BF44070120FC
:10C4F0002DE9F74307460C4609B100230B600026DF
:10C50000234DDFF89C904D4520D9224922489422A2
:10C510001DF099FE94211F481DF08CFED5F8008077
:10C520003846414601AA1EF0D1FB50B116B954B9A4
:10C530002E4606E00022404631681EF0C7FB002868
:10C54000F5D11435DFE7019B2360F1E7E6D3134B08
:10C550001D68C5B155F8148C3846414601AA143DF2
:10C560001EF0B4FB50B116B954B92E4606E00022B5
:10C57000404631681EF0AAFB0028F5D16D69E8E756
:10C58000019B2360F1E7304603B0BDE8F08300BFB4
:10C5900068410400D3560400EC5504004407012010
:10C5A00090410400F8B5064600251C4C1C4FBC42C7
:10C5B0001BD91C491C48F4221DF045FEF4211948E2
:10C5C0001DF038FE2EB9E3685BB9284605461434E1
:10C5D000EDE70022314620681EF078FB0028F2D1FA
:10C5E000F3E79847002DF0D1F0E7EBD30F4B1C6831
:10C5F00094B1143C1EB9E3684BB96469F8E70022B2
:10C60000314620681EF062FB0028F4D1F5E7984718
:10C61000002D08BF0546F0E72846F8BD6841040034
:10C6200090410400D3560400EC5504004407012057
:10C6300038B50C4D4FF0FF334FF0FF320A4817F07A
:10C6400055FF2B783BB9FFF74BFF00F02BFA044660
:10C6500010B901232B700024034817F0FDFF20467A
:10C6600038BD00BF8628012008BC00202DE9F04F0E
:10C67000DFF8B0A08FB002939AF80C3006468946D6
:10C6800015460193002A46D0904620230593019B2E
:10C69000DAF8004096FBF3F75F431998394605AB8B
:10C6A00006AAA0470446002838D1059BF71BDA1BD1
:10C6B000424528BF4246009306AB1F44189B934651
:10C6C0002BB33846197826F044FE10B30123A0EBB3
:10C6D000070B5A4639464846039326F048FE009B0E
:10C6E000A8EB0B081F2B039B05D923B9D9445E4443
:10C6F000B8F1000FC9D1029AA5EB08051560189A88
:10C700000AB183F0010420460FB0BDE8F08F189BFA
:10C71000DFE72346DDE76FF01504F4E76FF004046C
:10C72000F1E700BF4C0701202DE9F04F8BB08246A6
:10C73000884615460193FCF721FBDFF8C09052466E
:10C7400099F80C700199B0FBF7F407FB1404A0EB07
:10C75000040B5B461498D9F80460B047019B5B4416
:10C7600001932CB122460AEB0B0102A826F0FFFD33
:10C770003D2204F128036B4403F8202C04F1010A44
:10C78000BAF11F0F01D9002410E005BBBAFBF7F482
:10C7900007FB14A44CB10AF108033C1B22462946AE
:10C7A0000DEB030026F00AFEA24401245346019932
:10C7B0001498D9F8046002AAB047C8B9D4B9019B4B
:10C7C000012453440193AA46002DEFD08246CAF1BA
:10C7D0002004AC4228BF2C460AF1080341462246F9
:10C7E0000DEB030026F0C3FDA0442D1BA244C7E7B8
:10C7F0006FF004000BB0BDE8F08F00BF4C070120C4
:10C8000010B5034B04469B6808469847001B10BDB3
:10C810004C0701202DE9F04780468A4691461D4687
:10C820006FF0150086B00E9E134F16B906B0BDE826
:10C83000F087102E334628BF10232946019348461F
:10C840003C6801AB02AAA0470028EFD1019B397BCD
:10C85000B3FBF1F201FB12320AB10B449B1A5146B1
:10C8600040467C6802AAA0470028DFD1019B1D44F6
:10C870009A44F61AD9E700BF4C07012010B5034CC3
:10C88000C4E90001A260237310BD00BF4C07012062
:10C8900030B5044685B010461D46CDE90212FFF7BB
:10C8A000AFFF044A01460095204602AB1EF032FA63
:10C8B00005B030BD9FAD03000A46012301491EF0BB
:10C8C000CEBA00BF91C801002DE9F04F05460F46D2
:10C8D00091469846BFB003B17AB10024284623465A
:10C8E000534905AACDE90579CDE907841EF0B7FAC9
:10C8F000089B012B00F0988017B96FF0150493E0A6
:10C90000414638461EF03BFA83466B7B9C42F4DA84
:10C9100005F108060DF1240A524630461FFA8BF144
:10C92000FFF728FB10F11C0F034667D16B7B013B1F
:10C93000A34213DD30461DF059FD824670B9286CC4
:10C940001EF0D9F82B6CCDE90EAA129330460EA931
:10C950001DF0EFFF20B130461EF005F80134D4E79A
:10C96000AB6A0E9A9A42F6D149210EAB03AA18A8D7
:10C970001EF024FA0028E9D1039BBDF844200133BE
:10C980009342E3D00DF14C0C0DF1380EBEE80F00D0
:10C99000ACE80F00DEF80030CCF80030304613A9C8
:10C9A0001DF0C7FFB8B13046BDF8441013AAFFF719
:10C9B000E1FA03460028C9D1BDF84420014600929F
:10C9C00013A80EAAFFF726FF0028BFD1304613A9EF
:10C9D0001DF02EFDBAE7492113AB04AA2BA81EF0C7
:10C9E000EDF90028DAD1DDE903239A42D6D12BA94B
:10C9F00018A826F0EFFC0028D0D1A7E700287FF484
:10CA00007CAF2A6C49460D9238464246CDF800A0CC
:10CA1000FFF78AFE431D044606D0514630461DF0FE
:10CA200007FD002C08BF044620463FB0BDE8F08F4C
:10CA3000DDAD0300012370B504460373837300F179
:10CA400008061EF082FA31461DF0F5FD0546B0B924
:10CA500030461DF060FD00280ADCE36A206CD3E953
:10CA600000121EF033F80028EBD06FF0040504E04C
:10CA7000044B20466360FFF7F1FC284670BD6FF061
:10CA80001505FAE7C844040090F83E30024A03490D
:10CA90000348FFF7F3BE00BF57AE030007AF030024
:10CAA0001BAF0300092337B500931EF04EFA694609
:10CAB0001A4AFFF741FB044610B110F10C0F0FD1D9
:10CAC000174D009B28466B73FFF7B4FF58B9154B01
:10CAD00013486B60FFF7D0FC1148FFF7D5FF002427
:10CAE000204603B030BD1EF030FA01A9C0B2FFF7F6
:10CAF000FBFA04460028F3D10198214682681DF014
:10CB0000E5FF044601981DF09CFF002CE8D1284663
:10CB1000FFF790FF04460028D9D0E1E75C07012029
:10CB2000DCB60020C844040008B504481DF060FBD2
:10CB3000BDE8084002481DF05BBB00BF055704007C
:10CB40003A57040030BFFFF7FDBF00BF2DE9F041A9
:10CB500005460B4EDFF83080324606EB0807CC1B4B
:10CB60002046084926F003FCA01942460021083C53
:10CB700026F024FCC5F8844007F10800BDE8F081E8
:10CB8000000000009041040008000000074A93687C
:10CB900093F90E10002907DB926993421FBF044AE4
:10CBA000536843F080535360704700BF082801204A
:10CBB00000ED00E0154B9A6A12F0007F9A6A14BFEC
:10CBC0001E201D2012F0807F9A6A18BF1F2012F4C9
:10CBD000801F9A6A18BF022012F4002F9A6A18BFA9
:10CBE000212012F4802F9A6A18BF222012F4003FED
:10CBF0009A6A18BF232012F4803F9A6A18BF242033
:10CC00006FEA02426FEA12429A62704700ED00E05A
:10CC100010B5194B0246986A9C6A10F4805F14BFE5
:10CC20001720162014F4006F9C6A18BF1820A40562
:10CC300009D5986B986A000404D51AB19A6A22F44F
:10CC400000429A6219200C4B9A6A12F4806F9A6A19
:10CC500018BF1A20D2050CD49B6A13F4005F18BFCA
:10CC60001C20054A936A43F47F43936200230B70B0
:10CC700010BD1B20F5E700BF00ED00E010B5244B10
:10CC80000246986A9C6A10F0100F14BF1120102001
:10CC900014F0080F9C6A18BF1220A40709D5586B1E
:10CCA000986A000604D51AB19A6A22F080029A6244
:10CCB0001320174B9A6A12F0010F9A6A18BF1420BA
:10CCC00012F0200F9A6A18BF1520D20602D49B6A70
:10CCD0009B070ED50E4B9B6ADC060AD50D490E4804
:10CCE00040F263121DF0AFFA40F2631109481DF0E3
:10CCF000A1FA074B9A6A920642BF5A6A22F400527E
:10CD00005A629A6A42F0FF029A6200230B7010BDC9
:10CD100000ED00E068570400EC55040070B5554B79
:10CD200005465B6800209CB0C3F3080380F31188BC
:10CD3000BFF36F8F02F07F40B0F17F4F0DD112F043
:10CD400001040AD1500603D4160703D4012603E0D8
:10CD5000500700D50D46002655B947494FF48B6260
:10CD600046481DF070FA4FF48B6143481DF062FA9B
:10CD70000022033B8DF80720032B30D8DFE803F0B7
:10CD8000026B6F563B4BDA6A12F0020227D1D96A66
:10CD9000002968DBDA6A520054D55A69A96942F45D
:10CDA00080725A61BFF34F8FBFF36F8F5A6931F8AA
:10CDB000021C22F480725A61BFF34F8FBFF36F8F52
:10CDC0004DF60272914209D09A6AD2B202B30120A2
:10CDD0000DF10701FFF752FF044600E02C689DF8B3
:10CDE00007309BB96822294602A826F0C0FA099BA1
:10CDF000002E3AD0C3F3080222B96FEA53236FEA38
:10CE000043230993204602A91EF0B5F81CB070BD5B
:10CE10009A6A12F47F4F05D001200DF10701FFF748
:10CE2000F7FED9E79B6AB3F5803F02D3FFF7C2FE56
:10CE3000D2E7114940F22A3210481DF004FA40F2BC
:10CE40002A3192E70C4940F22E320C481DF0FBF9D2
:10CE500040F22E3189E700200DF10701BAE70020EA
:10CE60000DF10701DBE71446B9E723F4FF7323F064
:10CE70000103C6E700ED00E068570400EC5504002C
:10CE8000064B5A6942F010025A615A6942F48062B4
:10CE90005A615A6922F008025A61704700ED00E0B9
:10CEA000EFF30880EFF3098101B57246FFF736FF13
:10CEB00001BD00BF08B540B91049114814221DF04A
:10CEC000C2F914210D481DF0B5F9EFF314835A0788
:10CED00012D500F1400280EC100A82EC108AF1EECB
:10CEE000102AC0F88020012223F0040380F8842057
:10CEF00083F31488BFF36F8F08BD00BF9A570400F7
:10CF0000EC550400002080F31488BFF36F8F0020DD
:10CF100080F30A8880F30B8813F018FB00200E4979
:10CF20000860BFF34F8F0D4880F3088800F03EF88B
:10CF3000202080F311880A484FF40061401880F3E4
:10CF40000988EFF314800221084380F31488BFF3AB
:10CF50006F8F00F04FF9000094ED00E0D8A8012099
:10CF600098970120BFF34F8F0549064BCA6802F41A
:10CF7000E0621343CB60BFF34F8F00BFFDE700BFFC
:10CF800000ED00E00400FA05002318460649D1F838
:10CF90009020C2F30722934200DB7047C1F898301B
:10CFA000C1F8A0000133F6E700ED00E010B572B65D
:10CFB000002484F31388FFF7E7FF23464FF0FF3088
:10CFC0000C4A03F120010133102B42F82100F8D163
:10CFD00000234FF0FF30074A03F160010133102BAB
:10CFE00042F82100F8D162B6BFF34F8FBFF36F8FC5
:10CFF00010BD00BF00E100E0084B9B6883420BD1ED
:10D00000EFF3058343B1064B5A6842F080525A60F1
:10D010005A6A22F400425A6219F03CB908280120E9
:10D0200000ED00E06FF00A01094A9368C3F88C1024
:10D030000849C3F888004B6843F080534B600023D5
:10D0400083F31188BFF36F8F9368D3F88C00704718
:10D050000828012000ED00E0114A936883F8D10010
:10D06000EFF31183202383F31288BFF36F8F4FF008
:10D070000061936920F0FF0093600A4A5160D3F881
:10D080008410094A1160002193F8D1201043D3F88D
:10D090008820C3F8881082F31188BFF36F8F704720
:10D0A0000828012000ED00E0A40701201D498A683E
:10D0B00082F8D1E04FF030001044EFF3098C80E8A3
:10D0C000F01F1EF0100F03D102F1900080EC108AC7
:10D0D00074467046FFF7C0FFA64612498A68864626
:10D0E0001EF0100F03D00023E1EE103A03E002F12E
:10D0F000900090EC108AEFF3148323F0040383F381
:10D100001488BFF36F8F02F1300090E8F01F8CF3AA
:10D11000098802F1000004B51DF058FFBDE8044085
:10D1200070470000082801201EF0040F0CBFEFF329
:10D130000880EFF30980816911F8021C0229FFD0F1
:10D1400001B51DF01EFF01BD40B2002807DB012321
:10D150004109034A00F01F00834042F82130704724
:10D1600000E100E040B200280CDB0122064943093F
:10D1700000F01F008240203341F82320BFF34F8F7F
:10D18000BFF36F8F704700BF00E100E0054B42091D
:10D1900053F82220012300F01F0003FA00F0104092
:10D1A000704700BF00E100E00131072908B508D948
:10D1B0000D490E4858221DF046F858210A481DF026
:10D1C00039F840B20028ACBF00F16040084B4FEA8C
:10D1D0004111C9B2ABBF00F5614000F00F0080F80B
:10D1E0000013195408BD00BFCA570400EC550400D1
:10D1F00014ED00E0144A08B5144B22F07F029A6047
:10D20000BFF34F8FBFF36F8FD3F8882022F47002E3
:10D21000C3F88820D3F8882042F4A002C3F88820FD
:10D220004FF04042C3F83422BFF34F8FBFF36F8FEC
:10D230000023E1EE103A16F06FFD19F013FA00F03A
:10D2400083F816F0A9FD00BF0080010000ED00E0AA
:10D2500042F8203C009B0D4942F81C3C019B21F008
:10D26000010142F8183C029B42F8081C42F8143CA9
:10D270004FF0807342F8043C0023C0F888304FF42C
:10D280003C43203A0265C0F8D0307047F5B7010042
:10D29000104B9B6883421AD1EFF30580B8B9EFF3C6
:10D2A0001181202282F31288BFF36F8F1A7B22F044
:10D2B00002021A73EFF3148323F0040383F3148838
:10D2C000BFF36F8F81F31188BFF36F8F70476FF0DB
:10D2D00015007047082801200E461546002300B5AA
:10D2E000E1EE103AEFF3148323F0040383F3148880
:10D2F000BFF36F8FBFF36F8F0C4BD0F88420986013
:10D300000B4B1A60436F83F30B882C4686F3098816
:10D310004FF00000074B984720464FF000014FF0B8
:10D3200000024FF00003044C204700BF08280120F2
:10D33000A4070120D5AF0300F5B701001022014B6F
:10D340001A61704700ED00E0002320210348C21855
:10D350000133412B82F80013F9D1704700E100E05E
:10D3600008B5EFF30583064A103B02EBC30152F800
:10D37000330049688847BDE80840FFF707BC00BF95
:10D380007C3E04001FB5094C094A23460121094887
:10D3900000F0FAF800230393074B0121E41A01A8D7
:10D3A0000193029400F00AF904B010BD00000420BB
:10D3B00000B50020C0450400D8BE002010B50C7A8E
:10D3C0000B6804F01F0223F01F031A43CB686409A3
:10D3D00023F01F03054943EA440343F00103C1F866
:10D3E0009800C1F89C20C1F8A03010BD00ED00E00D
:10D3F00010B5074BD3F89030C3F30723013B984295
:10D4000002D8FFF7DBFF10BD6FF01500FBE700BF90
:10D4100000ED00E02DE9F04F0F46144606464FF0B0
:10D4200000084D4D85B0B84580F29280D6F8049042
:10D43000B9F1000F36D0B9F11F0F40F2878019F013
:10D440001F0F40F08380D6F800A01AF01F0F7DD187
:10D4500050461DF0E2FD834609EB0A0001381DF03D
:10D46000DCFD834572D11BF1160F6FD05C456DDD7D
:10D47000C5F898B0D5F89C10C5F898B0D5F8A0308C
:10D4800021F01F0143F01F0AD6E900321A449942E5
:10D4900002F1FF391ED1CA4508D131465FFA8BF03F
:10D4A0001DF0C4FD08F101080C36BCE73146C5F893
:10D4B00098B0D5F89C3022F01F0203F01F031343ED
:10D4C000C5F89C30E0B21DF0B1FD10F1160F3DD053
:10D4D000441CE7E7C5F898B0D5F8A020013B23F03D
:10D4E0001F0302F01F021343CA453146E0B2C5F8DC
:10D4F000A030E8D01DF09AFD10F1160F26D0C5F827
:10D5000098B0D5F89C209DF808300AF1FF3A62F3F4
:10D5100004038DF80830D5F8A0309DF808205B088A
:10D5200063F347128DF80820D6E9003213440093C4
:10D5300023F01F035344A3EB0903013023F01F031F
:10D540006946C0B20393FFF753FFBEE76FF01504BF
:10D55000204605B0BDE8F08F00ED00E00522044B49
:10D56000C3F89420BFF34F8FBFF36F8F704700BF96
:10D5700000ED00E0BFF35F8F0022024BC3F8942060
:10D58000704700BF00ED00E010B5094C2278FFF7AE
:10D5900041FF207016300AD1064907484FF4B47293
:10D5A0001CF051FE4FF4B47102481CF043FE10BD54
:10D5B0008728012001580400EC5504002DE9F74F9D
:10D5C0002E4D8A4606464FF00008AB462C4FD045FC
:10D5D00002DB03B0BDE8F08FD6F80490B9F1000F7C
:10D5E00047D03168084601911DF017FD01990446A6
:10D5F00009EB010001381DF010FD84424FF01402C8
:10D60000204B10D002FB08F36FF015024BF80320FB
:10D610001D491E484FF4BC721CF015FE4FF4BC713E
:10D6200019481CF007FE14F1160F2C60F0D0197881
:10D63000A142EDDD02FB08B0C7F89840C7F898405A
:10D64000D7F89C4000F10801007B64F304000871E6
:10D65000D7F8A0000C79400860F347140C71D7F894
:10D660009C1021F01F016960D7F8A01021F01F0164
:10D67000296108F1010814350C36A8E7A807012034
:10D6800000ED00E08728012001580400EC5504005B
:10D690002DE9F0414E494F4CD1F890302568C3F345
:10D6A00007239D4286B00AD94B4940F29F124B484E
:10D6B0001CF0C9FD40F29F1147481CF0BBFD002043
:10D6C000FFF758FF464BC1F8C03085421AD1454C90
:10D6D00001A82570FEF702FD002506464FF041081F
:10D6E000414FAE4215D1002023783949D1F890201E
:10D6F000C2F30722934265DB0020FFF72FFF06B03D
:10D70000BDE8F081616801EB0011FFF757FE0130C1
:10D71000DBE7019A290102EB0513D3F80CC00CEAF0
:10D720000700B0F5001F23D0B0F5800F38D0B0F55A
:10D73000801F45D1586852589B68CDE902022122CA
:10D74000013B20F01F010B4423F01F038DF8102034
:10D750000593207802A9FFF74BFE00282DDA1E4919
:10D7600040F2C9121D481CF06EFD40F2C911A3E73A
:10D7700058689B685258013B20F01F010B4423F06E
:10D780001F031CF0010FCDE902028DF810800593F4
:10D79000DFD011496D2211481CF055FD6D218BE73A
:10D7A00058689B685258013B20F01F010B44CDE99B
:10D7B000020223F01F030222C8E7237801332370FB
:10D7C00001358EE7C1F89830C1F8A00001338DE72C
:10D7D00000ED00E0CC45040001580400EC550400C5
:10D7E000AAFF4400872801200000F0FF08B5064981
:10D7F000064821F00701C1F1005202F58022FDF731
:10D8000055FF002008BD00BFD7180220BC0701202B
:10D8100008B54FF0FF324FF0FF33074816F066FEB1
:10D8200040B1064906488D221CF00DFD8D210348AC
:10D830001CF000FD08BD00BF28B700203F580400C1
:10D84000EC550400014816F007BF00BF28B70020C0
:10D8500038B50546FFF7DCFF2A4608210748FDF7E3
:10D86000E9FD044628B925B126F0D2F90C22044B73
:10D870001A50FFF7E7FF204638BD00BFBC07012064
:10D880000C00000038B504460D46FFF7C1FF2146E5
:10D890002B4608220748FDF751FE044628B925B15A
:10D8A00026F0B6F90C22044B1A50FFF7CBFF2046A6
:10D8B00038BD00BFBC0701200C00000010B50446B5
:10D8C000FFF7A6FF21460348FDF77AFDBDE81040AB
:10D8D000FFF7B8BFBC070120012838B50C4609D0B6
:10D8E000042834D100230022C1E9002300238B60E7
:10D8F000002038BDEFF31185202383F31288BFF396
:10D900006F8F174818F082FE40B9164988221648D2
:10D910001CF099FC882113481CF08CFC104818F06E
:10D9200099FE124B0FCB84E80F000D4818F07CFED7
:10D9300040B90C4940F231120B481CF084FC40F213
:10D940003111E8E785F31188BFF36F8FD0E726F038
:10D950005FF91622064B1A504FF0FF30C9E700BF9F
:10D96000C807012052560400EC55040020D40020C2
:10D970000C00000001287FB50C4623D0042825D1D7
:10D9800000230022CDE900230023029325F0DBFBD6
:10D99000174DC30BC0F30E00A0FB0506009A43EA27
:10D9A00041439A18019B43EBD131C30B029843EAE0
:10D9B000464318440F4BC4E900219842A0600ED89A
:10D9C00000200AE06946FFF787FFDFE726F020F92D
:10D9D0001622094B1A504FF0FF3004B070BD0132CF
:10D9E00041F10001401BC4E90021A060E8E700BF4D
:10D9F00000CA9A3BFFC99A3B0C00000070B5416910
:10DA00000446867A0A4D59B1437ADB0706D434239B
:10DA100003FB0653DB6A1B689B689847002363611E
:10DA20003420214606FB0050BDE8704025F098BA2E
:10DA3000E0BD00203421827A064B01FB02331A6BD1
:10DA400093F82430801A1B3323F00303B0FBF3F068
:10DA5000704700BFE0BD002038B53424827A064B01
:10DA600004FB0233DB6AD3E901240C601568FFF77D
:10DA7000E1FF04FB005038BDE0BD002008B5437A4B
:10DA800043B10B495A220B481CF0DDFB5A210848D0
:10DA90001CF0D0FB436833B105495B2205481CF0FC
:10DAA000D2FB5B21F3E703824369C36008BD00BF7B
:10DAB00079580400EC5504002DE9F04F054685B077
:10DAC000684614469846039125F03FFBDDE9006760
:10DAD0003DB95D49EE225D481CF0B5FBEE215A4888
