:020000021000EC
:1080000060170220F5090200953904009109020069
:1080100091090200910902009109020091090200F0
:10802000000000000000000000000000190C020029
:1080300091090200000000009D0B0200910902005E
:10804000510E0200510E0200510E0200510E0200AC
:10805000510E0200510E0200510E0200510E02009C
:10806000510E0200510E0200510E0200510E02008C
:10807000510E0200510E0200510E0200510E02007C
:10808000510E0200510E0200510E0200510E02006C
:10809000510E0200510E0200510E0200510E02005C
:1080A000510E0200510E0200510E0200510E02004C
:1080B000510E0200510E0200510E0200510E02003C
:1080C000510E0200510E0200510E0200510E02002C
:1080D000510E0200510E0200510E0200510E02001C
:1080E000510E0200510E0200510E0200510E02000C
:1080F000510E0200510E0200510E0200510E0200FC
:10810000510E0200510E0200510E0200510E0200EB
:10811000510E0200510E0200510E0200510E0200DB
:10812000510E0200510E0200510E0200510E0200CB
:10813000510E0200510E0200510E0200510E0200BB
:10814000510E0200000000000000000000000000CE
:10815000000000000000000000000000000000001F
:10816000000000000000000000000000000000000F
:1081700000000000000000000000000000000000FF
:1081800000000000000000000000000000000000EF
:1081900000000000000000000000000000000000DF
:1081A00000000000000000000000000000000000CF
:1081B00000000000000000000000000000000000BF
:1081C00000000000000000000000000000000000AF
:1081D000000000000000000000000000000000009F
:1081E000000000000000000000000000000000008F
:1081F000000000000000000000000000000000007F
:10820000DEE61E284CBBCE8F025B00003C00000067
:108210005CFA030001000000008001000080010002
:10822000FFFF0291000000000000000000000000BD
:0C82300000000000000000000000000042
:1082400081F0004102E000BF83F0004330B54FEA07
:1082500041044FEA430594EA050F08BF90EA020F74
:108260001FBF54EA000C55EA020C7FEA645C7FEA07
:10827000655C00F0E2804FEA5454D4EB5555B8BF2A
:108280006D420CDD2C4480EA020281EA030382EA9B
:10829000000083EA010180EA020281EA0303362D2D
:1082A00088BF30BD11F0004F4FEA01314FF4801C00
:1082B0004CEA113102D0404261EB410113F0004F12
:1082C0004FEA03334CEA133302D0524263EB4303C9
:1082D00094EA050F00F0A780A4F10104D5F1200E67
:1082E0000DDB02FA0EFC22FA05F2801841F10001C2
:1082F00003FA0EF2801843FA05F359410EE0A5F196
:1083000020050EF1200E012A03FA0EFC28BF4CF0C6
:10831000020C43FA05F3C01851EBE37101F000457C
:1083200007D54FF0000EDCF1000C7EEB00006EEB89
:108330000101B1F5801F1BD3B1F5001F0CD3490813
:108340005FEA30004FEA3C0C04F101044FEA44526A
:1083500012F5800F80F09A80BCF1004F08BF5FEAF1
:10836000500C50F1000041EB045141EA050130BDD1
:108370005FEA4C0C404141EB0101013C28BFB1F5E3
:10838000801FE9D291F0000F04BF01460020B1FA2E
:1083900081F308BF2033A3F10B03B3F120020CDA01
:1083A0000C3208DD02F1140CC2F10C0201FA0CF0DF
:1083B00021FA02F10CE002F11402D8BFC2F1200C44
:1083C00001FA02F120FA0CFCDCBF41EA0C019040FA
:1083D000E41AA2BF01EB0451294330BD6FEA040443
:1083E0001F3C1CDA0C340EDC04F11404C4F120022E
:1083F00020FA04F001FA02F340EA030021FA04F340
:1084000045EA030130BDC4F10C04C4F1200220FA96
:1084100002F001FA04F340EA0300294630BD21FAD4
:1084200004F0294630BD94F0000F83F4801306BF9A
:1084300081F480110134013D4EE77FEA645C18BF8E
:108440007FEA655C29D094EA050F08BF90EA020F25
:1084500005D054EA000C04BF1946104630BD91EA1D
:10846000030F1EBF0021002030BD5FEA545C05D120
:108470004000494128BF41F0004130BD14F580045F
:108480003CBF01F5801130BD01F0004545F0FE41D3
:1084900041F470014FF0000030BD7FEA645C1ABF08
:1084A000194610467FEA655C1CBF0B46024650EA3F
:1084B000013406BF52EA033591EA030F41F400216B
:1084C00030BD00BF90F0000F04BF0021704730B5F1
:1084D0004FF4806404F132044FF000054FF00001C6
:1084E00050E700BF90F0000F04BF0021704730B587
:1084F0004FF4806404F1320410F0004548BF40425C
:108500004FF000013EE700BF42004FEAE2014FEAB0
:1085100031014FEA02701FBF12F07F4393F07F4F8B
:1085200081F06051704732F07F4208BF704793F08E
:108530007F4F04BF41F40021704730B54FF46074A1
:1085400001F0004521F000411CE700BF50EA0102A4
:1085500008BF704730B54FF000050AE050EA01024D
:1085600008BF704730B511F0004502D5404261EBBD
:1085700041014FF4806404F132045FEA915C3FF4FE
:10858000D8AE4FF003025FEADC0C18BF03325FEA9B
:10859000DC0C18BF033202EBDC02C2F1200300FA4C
:1085A00003FC20FA02F001FA03FE40EA0E0021FA71
:1085B00002F11444BDE600BF70B54FF0FF0C4CF45F
:1085C000E06C1CEA11541DBF1CEA135594EA0C0F11
:1085D00095EA0C0F00F0DEF82C4481EA030621EA4C
:1085E0004C5123EA4C5350EA013518BF52EA033587
:1085F00041F4801143F4801338D0A0FB02CE4FF039
:108600000005E1FB02E506F00042E0FB03E54FF068
:108610000006E1FB03569CF0000F18BF4EF0010E60
:10862000A4F1FF04B6F5007F64F5407404D25FEA5C
:108630004E0E6D4146EB060642EAC62141EA55510F
:108640004FEAC52040EA5E504FEACE2EB4F1FD0C51
:1086500088BFBCF5E06F1ED8BEF1004F08BF5FEACF
:10866000500E50F1000041EB045170BD06F0004681
:1086700046EA010140EA020081EA0301B4EB5C042E
:10868000C2BFD4EB0C0541EA045170BD41F4801126
:108690004FF0000E013C00F3AB8014F1360FDEBF4B
:1086A000002001F0004170BDC4F10004203C35DA27
:1086B0000C341BDC04F11404C4F1200500FA05F3AA
:1086C00020FA04F001FA05F240EA020001F000424B
:1086D00021F0004110EBD37021FA04F642EB0601C1
:1086E0005EEA430E08BF20EAD37070BDC4F10C04EB
:1086F000C4F1200500FA04F320FA05F001FA04F2AF
:1087000040EA020001F0004110EBD37041F100019A
:108710005EEA430E08BF20EAD37070BDC4F12005A5
:1087200000FA05F24EEA020E20FA04F301FA05F20D
:1087300043EA020321FA04F001F0004121FA04F2B5
:1087400020EA020000EBD3705EEA430E08BF20EA85
:10875000D37070BD94F0000F0FD101F000464000BF
:1087600041EB010111F4801F08BF013CF7D041EA41
:10877000060195F0000F18BF704703F00046520045
:1087800043EB030313F4801F08BF013DF7D043EA16
:108790000603704794EA0C0F0CEA135518BF95EACC
:1087A0000C0F0CD050EA410618BF52EA4306D1D153
:1087B00081EA030101F000414FF0000070BD50EA72
:1087C000410606BF1046194652EA430619D094EAFC
:1087D0000C0F02D150EA013613D195EA0C0F05D1E6
:1087E00052EA03361CBF104619460AD181EA03013A
:1087F00001F0004141F0FE4141F470014FF00000F2
:1088000070BD41F0FE4141F4780170BD70B54FF08C
:10881000FF0C4CF4E06C1CEA11541DBF1CEA13550C
:1088200094EA0C0F95EA0C0F00F0A7F8A4EB0504EE
:1088300081EA030E52EA03354FEA013100F08880E5
:108840004FEA03334FF0805545EA131343EA1263AE
:108850004FEA022245EA111545EA10654FEA002663
:108860000EF000419D4208BF964244F1FD0404F51C
:10887000407402D25B084FEA3202B61A65EB030578
:108880005B084FEA32024FF480104FF4002CB6EB35
:10889000020E75EB030E22BFB61A754640EA0C00B5
:1088A0005B084FEA3202B6EB020E75EB030E22BFF5
:1088B000B61A754640EA5C005B084FEA3202B6EB36
:1088C000020E75EB030E22BFB61A754640EA9C00F5
:1088D0005B084FEA3202B6EB020E75EB030E22BFC5
:1088E000B61A754640EADC0055EA060E18D04FEA83
:1088F000051545EA16754FEA06164FEAC30343EA23
:1089000052734FEAC2025FEA1C1CC0D111F4801FEF
:108910000BD141EA00014FF000004FF0004CB6E7E8
:1089200011F4801F04BF01430020B4F1FD0C88BF87
:10893000BCF5E06F3FF6AFAEB5EB030C04BFB6EB92
:10894000020C5FEA500C50F1000041EB045170BD85
:108950000EF0004E4EEA113114EB5C04C2BFD4EBB2
:108960000C0541EA045170BD41F480114FF0000E36
:10897000013C90E645EA060E8DE60CEA135594EAB2
:108980000C0F08BF95EA0C0F3FF43BAF94EA0C0FB5
:108990000AD150EA01347FF434AF95EA0C0F7FF42A
:1089A00025AF104619462CE795EA0C0F06D152EA7E
:1089B00003353FF4FDAE1046194622E750EA410662
:1089C00018BF52EA43067FF4C5AE50EA41047FF473
:1089D0000DAF52EA43057FF4EBAE12E74FF0FF3CD8
:1089E00006E000BF4FF0010C02E000BF4FF0010CA9
:1089F0004DF804CD4FEA410C7FEA6C5C4FEA430C22
:108A000018BF7FEA6C5C1BD001B050EA410C0CBF70
:108A100052EA430C91EA030F02BF90EA020F0020D2
:108A2000704710F1000F91EA030F58BF994208BF39
:108A300090422CBFD8176FEAE37040F001007047F6
:108A40004FEA410C7FEA6C5C02D150EA013C07D14D
:108A50004FEA430C7FEA6C5CD6D152EA033CD3D098
:108A60005DF8040B704700BF8446104662468C4692
:108A70001946634600E000BF01B5FFF7B7FF0028C5
:108A800048BF10F1000F01BD4DF808EDFFF7F4FFEE
:108A90000CBF012000205DF808FB00BF4DF808ED79
:108AA000FFF7EAFF34BF012000205DF808FB00BF9C
:108AB0004DF808EDFFF7E0FF94BF012000205DF8BE
:108AC00008FB00BF4DF808EDFFF7CEFF94BF012073
:108AD00000205DF808FB00BF4DF808EDFFF7C4FF6C
:108AE00034BF012000205DF808FB00BF4FEA410CB5
:108AF0007FEA6C5C02D150EA013C0AD14FEA430C98
:108B00007FEA6C5C02D152EA033C02D14FF00000D4
:108B100070474FF0010070474FEA410212F5001212
:108B200015D211D56FF47873B3EB625212D94FEAB4
:108B3000C12343F0004343EA505311F0004F23FA9E
:108B400002F018BF404270474FF00000704750EAF3
:108B5000013005D111F0004008BF6FF000407047B0
:108B60004FF00000704700BF4A0011D212F500120A
:108B700011D20DD56FF47873B3EB62520ED44FEA75
:108B8000C12343F0004343EA505323FA02F07047F5
:108B90004FF00000704750EA013002D14FF0FF3033
:108BA00070474FF0000070474FEA4102B2F1E043D6
:108BB00024BFB3F5001CDCF1FE5C0DD901F0004CC4
:108BC0004FEAC0024CEA5070B2F1004F40EB830014
:108BD00008BF20F00100704711F0804F21D113F140
:108BE0003872BCBF01F00040704741F480114FEA79
:108BF0005252C2F11802C2F1200C10FA0CF320FA02
:108C000002F018BF40F001004FEAC1234FEAD3231E
:108C100003FA0CFC40EA0C0023FA02F34FEA430388
:108C2000CCE77FEA625307D150EA01331EBF4FF011
:108C3000FE4040F44000704701F0004040F0FE402C
:108C400040F40000704700BF7BB972B90029BEBF75
:108C500000204FF0004106E008BF00281CBF6FF065
:108C600000414FF0FF3000F075B8ADF1080C6DE930
:108C700004CE002909DB002B1ADB00F09EF8DDF89A
:108C800004E0DDE9022304B07047404261EB41019A
:108C9000002B1BDB00F091F8DDF804E0DDE9022396
:108CA00004B0404261EB4101524263EB4303704721
:108CB000524263EB430300F080F8DDF804E0DDE9A5
:108CC000022304B0404261EB41017047524263EB22
:108CD000430300F072F8DDF804E0DDE9022304B09C
:108CE000524263EB4303704753B94AB9002908BFA6
:108CF00000281CBF4FF0FF314FF0FF3000F02AB8C2
:108D0000ADF1080C6DE904CE00F057F8DDF804E091
:108D1000DDE9022304B07047D0B500220B4B0646B4
:108D20000F46FFF749FCFFF71FFF0446FFF7CAFB9A
:108D30000022074BFFF740FC02460B4630463946FF
:108D4000FFF782FAFFF710FF2146D0BD0000F03D8B
:108D50000000F041704700BF10F8012B11F8013BF3
:108D6000012A28BF9A42F7D0D01A7047034611F85B
:108D7000012B03F8012B002AF9D17047034613F8A1
:108D8000012B002AFBD1181A0138704738B5002290
:108D9000002304460D46FFF781FE28B920462946E8
:108DA000BDE83840FFF7B8BF204605F10041FFF7A6
:108DB000B3FF404261EB410138BD2DE9F0478646E3
:108DC0008C460846089E154674461946002B40F00E
:108DD000C1808542B2FA82F245D94AB1C2F120037C
:108DE00000FA02FC954094402EFA03F343EA0C0C7F
:108DF0004FEA154EA8B2230CBCFBFEF80EFB18CCB4
:108E000008FB00F943EA0C43994528D9EB1808F10F
:108E1000FF3704D2994502D9A8F102072B44A3EBEE
:108E20000903A4B2B3FBFEFC0EFB1C330CFB00F0E9
:108E300044EA0344A04214D92C190CF1FF3304D2A4
:108E4000A04202D9ACF102032C44241A43EA0740A1
:108E50001EB1D440002334607360BDE8F0874746FC
:108E6000DDE76346F1E792BB431B01214FEA154E54
:108E7000AFB2200CB3FBFEFC0EFB1C330CFB07F85F
:108E800040EA0343984561D9EB180CF1FF3004D256
:108E9000984502D9ACF102002B44A3EB0803A4B21D
:108EA000B3FBFEFC0EFB1C330CFB07F744EA034448
:108EB000A7424DD92C190CF1FF3304D2A74202D995
:108EC000ACF102032C44E41B43EA0040C0E7C2F1CA
:108ED00020039540944020FA03F12EFA03F34FEA61
:108EE000154E9040AFB20343B1FBFEFC0EFB1C10CD
:108EF000190C0CFB07F841EA0041884522D9691892
:108F00000CF1FF3004D2884502D9ACF102002944AB
:108F1000A1EB08019BB2B1FBFEFC0EFB1C110CFB8C
:108F200007F743EA01439F420ED9EB180CF1FF31DA
:108F300004D29F4202D9ACF102012B44DB1B41EA6F
:108F4000004193E76046E3E76146F7E76046A4E740
:108F50006346B8E7834206D916B9002108467CE784
:108F6000C6E900E0F9E7B3FA83F78FB9834201D38A
:108F7000724508D8BEEB020460EB030301209C4657
:108F80001EB9002169E73846FAE7C6E9004CF8E760
:108F9000C7F1200CBB400EFA07F522FA0CF42EFAAA
:108FA0000CF1BA401C4320FA0CF3B8404FEA1449C4
:108FB00001431FFA84FEB3FBF9F809FB18300B0CD0
:108FC00008FB0EFA43EA00439A4540D9E31808F13A
:108FD000FF3004D29A4502D9A8F102002344A3EB42
:108FE0000A0389B2B3FBF9F809FB183308FB0EFE3C
:108FF00041EA03418E452CD9611808F1FF3304D2B0
:109000008E4502D9A8F10203214443EA0040A1EBB6
:109010000E01A0FB02984145CE46434602D306D13D
:109020004D4504D20138B9EB020E68EB0403002E63
:10903000A7D0B5EB0E0261EB030101FA0CFC22FA9A
:1090400007F3F9404CEA0303C6E9003199E74046CB
:10905000C5E74346D9E700002DE9F04F2DED048B1D
:10906000A3B0324B02AFD3F80034314A0321314868
:1090700028F055FC304812F05FFA4FF0FF314FF006
:10908000FF3001F0B1FF00219FED2C0A012018F004
:10909000C7FD032127482A4A28F043FC4FF4160055
:1090A000002101F0C1FF002835D10221254A2148C5
:1090B00028F037FC18F0C4F903202EF051FA224BA7
:1090C000224A2349032018F0FBF94FF4B4712148D8
:1090D00002F044FC5422002107F1280031F027FE61
:1090E000012402230021C7E90C431B4807F11003A8
:1090F00007F128022AF0CFFC07F1180A034668B1ED
:109100002146164A0B4828F00AFC0121144A094856
:1091100028F007FC4DE00321124AC8E73B692BBB4E
:109120002146114A034828F0FCFBEEE700500040BE
:1091300070D8040030BE04002719040000000000AD
:1091400083D80400B8D80400E1D30400DBD30400C2
:1091500095D3040081A801006DD3040011D9040047
:1091600050D90400F0D8040028D90400DB69B849BC
:109170005B680C804B6043F2163352464B802046AE
:10918000102304312AF081FC6C4688B002AAB14B4E
:10919000B148C2E9053A4FF400739383AF4B4FF4E3
:1091A000E65142F8103F28F0C5FBA54638692AF081
:1091B00070FC1122022101202AF08FFCA84B00280C
:1091C000186009DA32F092FBA64B01211B58A64A1F
:1091D000A1485B4228F0A3FB0321A44A9E4828F043
:1091E000A0FB0021A24806F0F1FA034620B10121BC
:1091F000A04A994828F093FB032600259FED908B09
:109200009FED919B4FF0FF324FF0FF339A48CDE92D
:10921000002300234FF4A02225F0DCFA974B1B78A3
:109220007BB12B46964A03218B4828F078FB2846D1
:10923000FFF758F96C1C41EC100B924801F00EFB43
:10924000254687ED048B87ED068B87ED0A8B52460A
:10925000384607F1080307F1100187ED008B87ED11
:10926000028B00F081F9002840F05981864897ED83
:10927000000B01F0F3FAD7E9008900224046494685
:10928000824BFFF729FC002800F02481804B1A78DC
:10929000002A40F05081012249461A704046FFF7EB
:1092A00083FC7C4900EE100A052018F0B9FCEB465F
:1092B0008AB002AC784B0022636184ED069B0023E8
:1092C00040464946FEF7C2FF22460623C4E908018C
:1092D0004FF4435142F8103F5F4828F02BFBDD4626
:1092E000D7E9000100220023FEF7B0FFE94688B06D
:1092F00002AC4FF0040BA046684BC4E90601636161
:1093000048F810BF42464FF40351534828F012FB6F
:109310006348CD4697ED020B01F0A0FAD7E90201B0
:10932000FFF7FAFB032103465E4A4B4828F0F7FAA1
:1093300097ED060B5C4801F091FAD7E9060100228F
:109340000023FEF783FF88B0584B4246C4E906016C
:1093500063614FF403514048C4F810B028F0EAFAB2
:10936000CD4697ED040B524801F078FAD7E9040195
:1093700000220023FEF76AFF88B04E4BC4E90601C5
:1093800042464FF4035134486361C4F810B028F0EA
:10939000D1FACD460136052E2BD107F1280000F079
:1093A00043F9002840F0C18097ED0A0B424801F0D4
:1093B00055FAD7E90A0100220023FEF747FF6C4661
:1093C00088B002AA3D4BC2E90601536104234FF461
:1093D0000351214842F8103F28F0ACFAA546384B1B
:1093E00003211B68374A1C4828F099FA002601F02F
:1093F000FDFC214825F04CFA0020002101F0F4FD8D
:1094000000287FF4FFAE28F0A8FA00283FF4FAAE57
:1094100015F026FE2C4A03210F4828F082FA4FF05F
:10942000FF314FF0FF3001F0DFFD0321274A0A48EA
:1094300028F077FA4FF4B471254802F08FFAE1E68C
:10944000000000000000F0BF0000000000003A40F3
:10945000645601203AD9040030BE04000300000124
:10946000A03C01200C0000006ED9040090D904003B
:1094700040C90020B2D9040088BE00208D560120CA
:10948000D7D90400EED90400331E050000003A408D
:109490008C560120F4D904000CDA04005ADA0400D6
:1094A00076DA040078DA0400E4D3040091DA0400E8
:1094B00068220500A7DA0400D3DA0400D7DA040032
:1094C000A43C012002DB04001DDB04003FDB0400A0
:1094D00081A801000022404649461C4BFFF7DEFAF6
:1094E00000283FF4FDAE1A4B1B78002B3FF4F8AE7A
:1094F0000022174BEB4688B01A7002AC154B0022C5
:109500006361404600234946FEF7A0FE224604233D
:10951000C4E906014FF4035142F8103FDCE6012193
:109520000D4A0E4828F0FDF934E701210C4A0B489A
:1095300028F0F7F953E7002240464946034BFFF76E
:10954000ADFA00283FF4CCAED2E700BF008038402F
:109550008C56012037DA0400B9DA040030BE04006A
:10956000E7DA0400000000002DE9F041642416460B
:109570000F461D46804628F0F2F9B0FBF4F303FBDA
:109580001400FEF79FFF0022234BFFF73FF9002254
:10959000224BFEF75BFEC8E9000128F0E0F9B0FBC2
:1095A000F4F303FB1400FEF78DFF00221A4BFFF7C4
:1095B0002DF900221A4BFEF749FEC7E9000128F0F9
:1095C000CEF9B0FBF4F303FB1400FEF77BFF00229F
:1095D000114BFFF71BF90022124BFEF737FEC6E9CD
:1095E000000128F0BCF9B0FBF4F303FB1400FEF714
:1095F00069FF0022084BFFF709F905A3D3E900230F
:10960000FEF724FEC5E900010020BDE8F08100BF9F
:10961000000000000017F140000044400000364008
:109620000000494000408F4010B5044628F097F9EB
:109630006423B0FBF3F202FB1300FEF743FF0022AA
:10964000074BFFF7E3F804A3D3E90023FEF7FEFD81
:10965000C4E90001002010BD9A99999999990D408B
:10966000000044400000000001282DE9F041884638
:1096700008D032F03BF91622374B1A504FF0FF302A
:10968000BDE8F0818A68354B9A42F2D831F0E8F9AA
:1096900005460F4631F0E4F9314CD8F80030D8F8DF
:1096A0000420A3FB043604FB0266D8F808209B18AC
:1096B00046EBE276EA0B42EA4742A2FB0421FF0BAB
:1096C0009B1AC0F30E0204FB0711A2FB04244FEA0D
:1096D000D23242EA444266EB0101981A61F100017C
:1096E0001BA3D3E90023FFF7AFFA06460D46144645
:1096F000EFF31187202383F31288BFF36F8F19488C
:1097000024F076FD40B918498822184828F0A2FBB9
:109710008821154828F095FB124824F08DFD144B44
:109720001048C3E900659C6024F070FD40B90E4903
:1097300040F231120D4828F08DFB40F23111E8E77C
:1097400087F31188BFF36F8F002099E7AFF3008094
:1097500000CA9A3B000000000C000000FFC99A3BC1
:1097600000CA9A3B743E012003E50400E3E30400D1
:10977000E0F80020000000002DE9F047054699467A
:109780000024282386B088469246CDE902432BF078
:1097900001FE284602A90DF0EBF90746002800F06B
:1097A000AF8083793A2B18D1042303992846049477
:1097B00005932BF03EFE284604A90DF0D9F918B107
:1097C00090F90030A34205DB6FF01505284606B07E
:1097D000BDE8F08728462BF0DDFDBB79112B58D072
:1097E000062B58D00020AB68002B4ED19FED487B54
:1097F000022295F824308DED007B02FB03013A2311
:10980000A86904310DF0A2F9044600287BD095F830
:109810002420296A2BF0F4FF061E31DBA3682046C2
:10982000DB68A36295F82C20A96A2BF0E9FF061EDD
:1098300026DBA06895F82C100C3008F0BBF8A06867
:1098400050F80C3F236295F8241008F0B3F895F80F
:109850002C3007F1180184F8243095F8243084F86E
:109860002C303B7EFF2B03D1A0692AF0E5FE014698
:10987000204607F108022CF00CFC70B16FF00406D2
:1098800020462BF01CFD3546A0E71A8A5B68104481
:10989000AAE73020AAE73C20A8E7414652462046E6
:1098A0002CF035FB01460028E8D1B8F1040F22D195
:1098B00099FA89F34246204604A904932BF0A0FFAD
:1098C000064620462BF01BFD0246002ED8D1294625
:1098D00020462BF08AFE05460028D1D120462BF0E9
:1098E00059FD3A2120462CF037FC20462AF089FB0E
:1098F0000028C5DB6AE7042220462BF062FEDFE782
:109900006FF0040562E76FF00B055FE7AFF30080CF
:1099100000800000000000002DE9F0412DED028BD9
:109920001F4605238AB00C4690460146029340B973
:109930005F49C0225F4828F08DFAC0215C4828F0BA
:1099400080FA34B95A49C1225A4828F083FAC12111
:10995000F4E705A812F01CFA30B15549C622554863
:1099600028F078FAC621E9E7012101AA05A82DF01F
:1099700040FB054658B1012103464F4A4F4828F0A5
:10998000D5FF28460AB0BDEC028BBDE8F081019BF3
:10999000B3B1042B1DD0052B0CBF0923FF2323706B
:1099A000032102AB03AA05A82DF02CFB064690B1BB
:1099B0000346434A0121414828F0B8FF3546E0E715
:1099C000DFED407A0023C4ED017A2370C4ED027A02
:1099D000D7E70723E3E7029B002BF1D003A940461A
:1099E000FFF7C4F90222314603A825F0EBFF2378E4
:1099F000C2B2092B08D0072B0FD02D498F222D483A
:109A000028F028FA8F2199E70F2A25D92849A4227E
:109A1000284828F01FFAA42190E70F2AF6D89FEDD6
:109A20002A8A2A4B33F81200E0B1FEF75BFD1EA331
:109A3000D3E90023FEF7C0FDFFF7B6F80523606009
:109A40000293042102AB03AA05A82DF0DBFA064617
:109A500050B11F4A0346ADE71E4B9FED1F8A33F8F6
:109A60001200E1E71D48E9E703A93846FFF77EF950
:109A70000222314603A825F0A5FFC2B20F2A08D959
:109A80000B4940F21B120B4828F0E4F940F21B117D
:109A900054E70132D2B207EE902AF8EEE77A67EE89
:109AA000887A93E7AFF300807B14AE47E17A2440D5
:109AB00097130500E3E30400CB13050050BF040037
:109AC000ED130500000000000AD7A33FECD004000E
:109AD00019140500CCD004000AD723400AD7A340AC
:109AE0002DE9F04706460C4692B0002900F0BF80F1
:109AF0000F68002F00F0BB808D68D1F8048005F15D
:109B00000409C1450AD80422AD49781931F0F9FA9F
:109B1000A8B90423F360A36804331DE06B1D9845C6
:109B200010D2454580F0A3807B5D7819222B24D18B
:109B30002146304612B0BDE8F0471DF0C1BD6B1D97
:109B400098450ED305229F49781931F0DAFA30B9D9
:109B50000123F360A36805330120A36088E0C145B9
:109B6000DFD804229849781931F0CBFA0028D8D1EF
:109B70000223F36001237361CDE72D2B03D0A3F102
:109B80003002092A55D800230DF1080C67464FF022
:109B9000010EA8EB0505DFF83882019310F8012BC0
:109BA000452A3ED82A2A10D9A2F12B01C9B20EFAB1
:109BB00001F111EA080F01D12E2A06D101333F2B02
:109BC0000CF8012B01D0AB42E8D1002548336B449F
:109BD000384601A903F8405C25F034FCDDF804A008
:109BE00059EC108BBA4542D073A3D3E90023404609
:109BF0004946FEF767FFB0B9002240464946734B1D
:109C0000FEF756FF90B940464946FEF785FF082308
:109C1000C6E906897061F360A368AAEB070A53449A
:109C20009AE7652AC9E76FF00040F0E74FF000407F
:109C3000EDE75B2B58D1D4F80C90B9F57A7F16D2AA
:109C400009F10103E3607B5D5B2B10D101352046F8
:109C5000A5602EF058FCA368984506D9FA5C5D2AE9
:109C600009D10027C4F80C9036E0013BA360002026
:109C700012B0BDE8F08700252F46013BA3602069A4
:109C80002EF0EDFCA8460546002800F0A5804FB355
:109C9000C8F80000C0F80480A36820460133A36020
:109CA0002EF031FC21462846FFF71AFF002800F06D
:109CB000938020462EF027FCD4E90123934280F0C4
:109CC0008E802268D35C2C2BD9D05D2B40F087800E
:109CD000E368013BE3607D602023C6E90273A3686B
:109CE000013339E70746D7E77B2BC0D1D4F80C9076
:109CF000B9F57A7FBBD209F10103E3607B5D7B2B71
:109D0000B5D101352046A5602EF0FDFBA36898452E
:109D1000ABD9FA5C7D2A03D10027C4F80C9047E048
:109D200000252F46A846013BA36020692EF097FC32
:109D3000A946054600284FD0002F4BD0C9F8000097
:109D4000C0F80490A36820460133A3602EF0DBFB2B
:109D5000214628461DF0B4FC00283DD020462EF0B8
:109D6000D2FB2B69C5F810802B62D4E90123934202
:109D700032D22268D25C3A2A2ED101332046A36027
:109D80002EF0C1FB21462846FFF7AAFE20B320464D
:109D90002EF0B9FBD4E90123934220D22268D35C90
:109DA0002C2BC2D07D2B1AD1E368013BE3607D6090
:109DB000402392E7AFF300800000C0FFFFFFDF41C8
:109DC000EB640500EA4D0500E03205000000E0C14B
:109DD000E57F00040746B5E7002F3FF448AF38465B
:109DE0001EF09AF843E700BFD0B5174B57EC106B45
:109DF00018682EF034FC044670B10823C0E90667E9
:109E0000C36039460EA3D3E900233046FEF75AFE5D
:109E100020B16FF0004363612046D0BD0022304680
:109E200039460A4BFEF744FE10B14FF00043F2E70B
:109E300030463946FEF770FE6061EDE7AFF3008013
:109E40000000C0FFFFFFDF410CBC00200000E0C1AC
:109E500008B502462EF01DFD10B192ED060B08BDAF
:109E60009FED010BFBE700BF000000000000F87F42
:109E70002DE9FF47804616460F46002900F0A280D4
:109E8000B1FA81F4341B002E04F10A04C0F2A2805E
:109E9000304627F011FB0444304627F013FBA4EBB7
:109EA000060905466946304627F034FBA9EB050351
:109EB0006A4640467D33394631F01FFAA642824653
:109EC0000D4600F38380B9F13F0F00F381804FF01E
:109ED000FF33A9F12000C9F1200103FA00F003FAD1
:109EE00009F223FA01F103FA09F3024328EA030312
:109EF0000A4327EA020213430CBF01200020002D71
:109F000000F08A80B5FA85F3E31A40F2FE7203F29C
:109F10003E43934200F38980002B23EAE376D4BFCB
:109F200001223246121BA2F23341A2F23447A2F2BE
:109F30005344C1F1200C2AFA01F325FA04F4C7F1C5
:109F4000200E05FA0CFC25FA01F105FA0EFE43EA93
:109F50000C03A2F2544CA2F2544223432AFA07F40F
:109F600025FA0CFC44EA0E0444EA0C04C7F1200C68
:109F700014F0010F54D0A8B14FF0FF3000FA02F2F4
:109F800000FA07F4144320FA0CF2B840144303F02B
:109F900001022AEA000A25EA04054AEA020A5AEA04
:109FA000050A3DD0013341F10002C2F3130253EA26
:109FB000020138D0184642EA065141EC100B04B0B9
:109FC000BDE8F087B0FA80F420345BE7012096E723
:109FD000002094E7C6F10009484627F073FA241AD6
:109FE000484627F06FFAA61B0546694648462E44A8
:109FF00027F002FB6A46404606F17C03394631F001
:10A000007CF982460D464046394627F06BFA814579
:10A010008CBF0020012072E7BAFA8AF3203373E77D
:10A02000C1F31302C6E70136C4E79FED010BC6E793
:10A03000000000000000F07F10B5084822F02EFF5D
:10A0400014202DF043F9044628B103460121044AA7
:10A05000044827F02EFC204610BD00BF00B50020AC
:10A0600022D10400E0C0040010B5064C0648216867
:10A0700027F01BFC20680AF055FEBDE810400020C8
:10A08000FFF7DABF803C0120020007D210B50020A4
:10A09000FFF7D2FF084C034640B101210748084AA8
:10A0A00027F007FC2168074827F0FFFB21680648D6
:10A0B000BDE8104027F0F9BB803C0120E0C004005F
:10A0C00042D10400020007D2010007D270B50F4B45
:10A0D00018682CF038F9002816DD4FF47A734FF425
:10A0E000004503FB00F4002140F2E7304FF47A72A0
:10A0F0000023E4FB0501FEF7F7FDBDE870400246D2
:10A100000B46034822F0C4BE70BD00BF803C012056
:10A1100000B5002010B51E4B1A78A2B15A7892B142
:10A12000A8B918701B4C597020680AF0FBFD2FF07D
:10A130005FF970B1002120682CF0ACF8C0B1BDE827
:10A140001040FFF7C3BF28B91870597001E000290B
:10A15000E8D010BD01221A700029F6D05A700D4BBC
:10A1600018680AF001FEBDE810400B4822F096BEC8
:10A17000FFF762FF03460028EBD001210748084A99
:10A1800027F097FB21680748BDE8104027F08DBBFA
:10A190008A560120803C012000B50020E0C0040068
:10A1A00042D10400020007D203460121014A0248BD
:10A1B00027F07FBB63D10400E0C0040008B52DF098
:10A1C0008BF8034620B10221034A044827F071FBB3
:10A1D000FFF77CFF002008BD7CD10400E0C0040034
:10A1E00010B515202DF072F8044618B9BDE81040DE
:10A1F000FFF7E4BF03460121024A034827F059FB59
:10A20000204610BD22D10400E0C0040010B5044671
:10A210004FF0FF324FF0FF33074821F01BFF074B91
:10A220005A78A24203D021461878FFF773FFBDE8A1
:10A230001040014821F0C4BF9CBF00208A56012075
:10A2400010B5044600680AF06DFD0121204627F094
:10A2500032FB0021204627F02EFB00230B48236110
:10A2600013F0ECFF034650B101210948094A27F0D9
:10A2700020FB21680848BDE8104027F016BB0748BE
:10A2800011F0D8FD2268064B1A6010BD41A30100F1
:10A29000E0C00400A2D10400020007D215A401000E
:10A2A000803C012010B504464FF0FF324FF0FF33E1
:10A2B000074821F0CFFE074B1A78A24203D0204670
:10A2C0005978FFF727FFBDE81040014821F078BF1B
:10A2D0009CBF00208A56012008B5094B186800F081
:10A2E00097F9034640B10121064A074827F0E1FAF1
:10A2F000BDE80840FFF7B8BEBDE80840FFF7D2BF91
:10A30000803C0120C4D10400E0C0040008B5094B22
:10A31000186800F0FDF8034640B10121064A0748DD
:10A3200027F0C7FABDE80840FFF79EBEBDE8084029
:10A33000FFF7D2BF803C0120E0D10400E0C0040060
:10A34000084608B5082937D8DFE801F03A05222683
:10A350002E2236363A001B4B186800F07FF810F1B9
:10A360003D0F034609D10221174A184828F0D5FAB3
:10A37000BDE808400120FFF795BF0028F8D0144A37
:10A380000121124827F095FABDE80840FFF76CBE9E
:10A39000BDE80840FFF7BABF0A4B186800F0CEF8D6
:10A3A000034668B10B4AEBE7064B186800F030F93A
:10A3B000034628B1084AE3E7BDE80840FFF7F4BECA
:10A3C00008BD00BF803C0120FCD10400E0C00400B7
:10A3D00021D204003AD20400C4D10400052808B5F3
:10A3E0000ED005D801280BD002280ED0002008E09E
:10A3F0005A28FBD10221054A054828F08EFAF5E7D4
:10A400000120BDE80840FFF701BF08BD53D204009A
:10A41000E0C0040003780B2B06D1017A022907D192
:10A42000044A054828F079BA13B9007AFFF7D6BF75
:10A43000704700BF87D20400E0C0040010B5054C8F
:10A440000548216827F031FA2068BDE810400AF07D
:10A4500069BC00BF803C0120020007D270B5002417
:10A460000646A2B01822214608A8CDE90044CDE94D
:10A47000024430F05CFC002E3DD0242221460FA87F
:10A480000E9430F054FC2422214619A8189430F080
:10A490004EFC1C491C4818AB0EAA1FF03DFFA04201
:10A4A00003DC6FF00D0022B070BD012004AA0EA9DC
:10A4B00029F0B4FB0128054602D06FF03C00F2E71A
:10A4C0000EA96846FEF752FC6846FEF757FC08AA3C
:10A4D000014668462AF0A9FB0028E2D02346032261
:10A4E000304609A909F07CFE40B1084B099A204684
:10A4F0001A601D71D7E76FF01500D4E76FF01200F6
:10A50000D1E700BFFED204002BD30400843C01201D
:10A5100010B550B1084C23792BB121460AF0AAF8A6
:10A5200030B100232371002010BD6FF01500FBE750
:10A530006FF00D00F8E700BF843C012070B50024E7
:10A540000546A8B0242221460BA80A9430F0EFFB60
:10A550001822214604A830F0EAFB002D4CD02146F9
:10A56000242215A8149430F0E2FB214624221FA8CF
:10A570001E9430F0DCFB234923481EAB14AA1FF0C5
:10A58000CBFE041E35DD02206A4614A929F046FBE5
:10A5900001281FD114A90AA8FEF7E8FB0AA8FEF7B4
:10A5A000EDFB04AA01460AA82AF03FFB08B305AC5C
:10A5B000002303222146284609F080FAF8B194E8E6
:10A5C0000F00124E06F1080585E80F000123002058
:10A5D00033760CE0012C08D002206A461EA929F02F
:10A5E0001DFB012801D11EA9D5E76FF03C0028B062
:10A5F00070BD6FF00D00FAE76FF01500F7E76FF030
:10A600001200F4E7FED204002BD30400843C0120A6
:10A6100010B558B1084C237E33B104F1080109F09C
:10A62000F5FE30B100232376002010BD6FF0150039
:10A63000FBE76FF00D00F8E7843C01202DE9F843BB
:10A6400000AF6D4688B06A464FF40078214B224E29
:10A650005361224BA2F81C8093614FF4E65942F8F3
:10A66000106F1F4C00234946204603F00FFC6A463A
:10A670001C4BA2F81C8053611B4B936142F8106F76
:10A6800000234946204603F001FCAD4641F2336306
:10A6900003212046154A28F049F978230321204652
:10A6A000134A28F043F98AB06A46124B5361124BA1
:10A6B0009361124BD361124B1362124B42F8103F5D
:10A6C000002320464FF4235103F0E0FB0020BD4659
:10A6D000BDE8F88347D304000300000154D304000D
:10A6E00058BF040060D304006DD304007FD304007E
:10A6F00088D3040095D30400DBD30400E1D3040025
:10A70000000201030400000210B5074C0321224699
:10A71000064827F006F92146BDE810409FED040ADF
:10A72000042017F07DBA00BF2DD4040030BE040011
:10A730000000000070B52DED028B82B00446684623
:10A74000B0EE408AF0EE608A13F04CFF034690B101
:10A750000121154A154827F0E2F830F081F94FF44D
:10A760007A75A0FB053205FB0122DB0B43EA42436D
:10A77000D20BCDE9003230220D4E0E4B356821460A
:10A7800002FB05332022184630F0CDFC034601358C
:10A7900080ED088BDDE900013560C3E90A0102B0F4
:10A7A000BDEC028B70BD00BF3CD4040030BE040081
:10A7B000A43C012010D40020F8B5144603460D46F1
:10A7C00000AF0321104A114827F0A9F8B4B1ADB188
:10A7D0006E468AB06A460E4BC2E90745C2E90534A7
:10A7E00040F2024393840B4B4FF43351074842F835
:10A7F000103F27F09FF8B546BD46F8BD0321064A35
:10A80000024827F08EF8F7E764D4040030BE040055
:10A810007ED404000500000197D4040070B50446FE
:10A82000154603210A4A0B481E4627F07AF8002CE9
:10A8300006DB324629462046BDE87040FFF7BCBF24
:10A840002346BDE870400321034A024827F067B859
:10A85000AED4040030BE0400C5D40400054B1B6810
:10A86000632B01D8FFF766BF0121034A034827F095
:10A8700058B800BFA43C0120EBD4040030BE040053
:10A880002DE9F04F97B00646D0E9020100AF002253
:10A890000023FDF7DBFC0022002380468946D6E931
:10A8A0000401FDF7D3FC0446B0690D46FDF72CFE0C
:10A8B00000220023FDF7CAFC824670788B4614F014
:10A8C0001BFCC7F804D08EB06A46334B106353614B
:10A8D00040F603039386314BC2E90689C2E9084575
:10A8E000C2E90AAB44F6C04142F8103F2C4827F0B9
:10A8F00021F82C48D7F804D096ED020BFFF7AEFFF5
:10A9000096ED040B2848FFF7A9FFB069FDF7FCFDA1
:10A9100041EC100B2548FFF7A1FF7078FDF7D2FD41
:10A9200041EC100B2248FFF799FF7378022B2FD1CF
:10A930000321204A1A4826F0F4FF7478022C27D10C
:10A940000021382207F1200030F0F1F9012387F8C7
:10A950002030D6E90223C7E90C23D6E90423C7E94E
:10A960000E23B36907F128003B6400233C73C7E959
:10A9700006333B613B7513F035FE07F1200107F10B
:10A980000C0016F00DFF18B907F10C0000F030FDB7
:10A990005C37BD46BDE8F08F02D504000900000118
:10A9A00030BE040043D5040047D504004BD5040055
:10A9B0004FD5040053D504002DE9F843164600AFE7
:10A9C00000220546884616F05DFE0446A8B16D4695
:10A9D0008AB06A46184BD661C2E90538174B4FF466
:10A9E00021511362164B174842F8103F26F0A2FF80
:10A9F000AD462046BD46BDE8F8832846D7E9082382
:10AA000016F0A4FE04460028F3D0E9468AB06A4650
:10AA10000D4BD661C2E90538084B4FF42151136242
:10AA2000074B084842F8103F26F084FF2846CD46E1
:10AA30002CF085FEDDE700BF81D504000002010394
:10AA40000400000230BE0400BCD504002DE9F04F24
:10AA50008FB0054602AF30B96FF015042046343789
:10AA6000BD46BDE8F08F03691BB1C368002B40F001
:10AA70004D8195F80080B8F1010F01D16E682EB9B3
:10AA80000121B64AB64826F04CFFE5E730462DF0E6
:10AA900015FF28B9B34A4146B14826F042FF10E0FD
:10AAA00030462DF0FFFD031E7B6012DC0221AE4A12
:10AAB000AB4826F036FF1DF0F3FA0646002840F0BA
:10AAC0008380AA4A0121A64826F02BFF6FF00B04D1
:10AAD000C4E7182130F0E5F8044608B9A44ADAE7DB
:10AAE000D6F808800026B8F1000F15D1182231469B
:10AAF0002046A04B30F067F91021304630F0D1F8F5
:10AB0000804600283CD101219B4A954826F009FF48
:10AB1000204630F0BBF8D4E77B68B342E6DD9749C6
:10AB200040462DF0C7FD9649834640462DF0C2FDB4
:10AB30009449824640462DF0BDFD814658462DF091
:10AB4000AFFED0B150462DF0A4FEB0B148462DF076
:10AB5000A0FE90B118237343DBF81010E218E15007
:10AB6000DAE906013A60FEF711F93A680136C2E9FE
:10AB70000401D9E90601C2E90201D8F80080B2E770
:10AB80006EB3D4E90423C0E900231DF095FAC8F898
:10AB9000080094ED020B21682DF002FE4FF0010A2F
:10ABA000A1464FF0010B5E451BDC1DF079FA06460D
:10ABB00000284BD0C34600239A455AD1404630F076
:10ABC00065F8204630F062F830462DF068FD044606
:10ABD00030461DF0A1F9002C7FD16B4A72E7B246D6
:10ABE000DEE70AF180500138010158F8012008EB36
:10ABF00000104368D9E90ACEBCEB02026EEB0303F6
:10AC0000B2F57A7F73F100030BDA99ED080BD9F8EE
:10AC1000181080682DF0C4FD0BF1010B09F1180923
:10AC2000C1E7103108EB010348F801C0C3F804E0A4
:10AC30007B601DF041FA7B680AF1010A986099ED8A
:10AC4000080BD9F818102DF0ABFDE5E701214F4AAC
:10AC5000434826F066FE08F10805B24503D1404698
:10AC600030F014F854E73301E8581DF055F9013677
:10AC7000F3E77B601DF020FA0BF1100B81467B6837
:10AC800098B90121424A364826F04BFE30461DF065
:10AC900043F908F108054FEA0913E85809F10109D9
:10ACA0001DF03AF9CA45F6D1D9E77B605BE90401AA
:10ACB000FDF754FC41EC100B314948462DF070FD76
:10ACC0005BF8082C334948462DF0F9FC49463046DC
:10ACD0002DF0F3FC7B6801336EE720462C61FEF714
:10ACE0004DF801236E4688B0E8602B7202AA2A4B09
:10ACF0004FF4E651C2E905344FF400739383274BB8
:10AD0000174842F8103F26F015FEB54622220021D2
:10AD100007F10E0030F00BF802233B73204B0126A5
:10AD20003B6132233B752B691E49BB61EB687E7327
:10AD3000FB611D4B1D4A3B620023009309681C48C0
:10AD400007F10C0304F046FC0446A8B30346314661
:10AD5000184A034826F0E3FD80E600BF02D604004F
:10AD600030BE040019D6040033D60400DFD6040038
:10AD700044D60400FB18040076D6040070D6040004
:10AD80001ADB0400FDDA040002D704009BD604009D
:10AD9000BAD60400D8D604001FD70400030000016F
:10ADA00054D30400A03C01201DA8010064560120DA
:10ADB00040C900203BD704002B696D4688B002AA29
:10ADC00007490848C2E905134FF400739383064B03
:10ADD0004FF4E65142F8103F26F0ACFDAD463DE69B
:10ADE00053D7040030BE0400030000012DE9F04FEA
:10ADF000002301248FB0032102AF4A4A4A48C7E921
:10AE00000533C7E90A33FB603B743B6287F82430A3
:10AE10003C723C7726F085FD07F108002CF051FCD0
:10AE2000034618BB04464FF000084FF000093F4DA1
:10AE3000DFF81CA1DFF81CB1DAF80030A3421ED8FD
:10AE400003213B4A384826F06CFD07F10800FFF764
:10AE5000FDFD0346002862D00121364A324826F023
:10AE60005EFD07F108002CF06AFC04E02146324A3E
:10AE70002D4826F054FD3437BD46BDE8F08FD5E9A6
:10AE80000A232946CDE9002307F11C005A46FFF7A3
:10AE900093FD034638B10121284A234826F03FFD9F
:10AEA00001343035C8E7024695ED080B244907F117
:10AEB0001C002CF09EFC42460646D5E908014B4694
:10AEC000FDF7C4F9C7F804D088B002AA1D4BC2E947
:10AED0000601536104234FF40351134842F8103F15
:10AEE00026F028FDD7F804D056B13346164A012182
:10AEF0000D4826F014FD07F11C002CF020FCCFE7D4
:10AF000007F11C0107F108002CF04EFC034608B1C4
:10AF10000E4AECE707F11C002CF0C2FBC0E7CAF8B0
:10AF200000009EE76FD7040030BE040010D400205C
:10AF30003ED8040050D8040089D70400AFD70400DD
:10AF4000FDDA0400D3D70400ECD7040015D80400C0
:10AF5000A43C012007F90400014B1870704700BFA2
:10AF60008D560120014B1878704700BF8D56012087
:10AF7000014601482FF07CBE9CC2002001460148DA
:10AF80002FF07DBE9CC2002010B50C4821F086FF3A
:10AF90000620FFF7F3FF0820FFF7EAFF18F040F95B
:10AFA000031E09DA13F1090F06D0BDE81040012194
:10AFB000034A044827F0BABC10BD00BF30B50020DA
:10AFC0006DDB040060BE040007B50022CDE900017E
:10AFD000012104482FF057FE003818BF012003B0AC
:10AFE0005DF804FB9CC2002007B50022CDE90001FA
:10AFF000042104482FF047FE003818BF012003B099
:10B000005DF804FB9CC2002007B50022CDE90001D9
:10B01000082104482FF037FE003818BF012003B084
:10B020005DF804FB9CC2002007B50022CDE90001B9
:10B03000102104482FF027FE003818BF012003B06C
:10B040005DF804FB9CC2002008B5164821F026FFDD
:10B050000620FFF793FF0022134BD3E8EF1FC3E84E
:10B06000E02F0028F9D10321104A114826F065FC91
:10B0700017F0CCFF10F10D0F034608D010F1800F30
:10B0800005D048B101210B4A094827F04FFCBDE823
:10B0900008400820FFF76CBF0321074A044826F048
:10B0A0004CFCF4E730B50020BC3C01208ADB0400F6
:10B0B00060BE0400A7DB0400E7DB040008B5032141
:10B0C000034A044826F039FCBDE80840FFF7BCBF3E
:10B0D00010DC040060BE040007B52CF040FD20B970
:10B0E00003B05DF804EBFFF7AFBF00220023082197
:10B0F000CDE9002305482FF0C6FD20B903B05DF867
:10B1000004EBFFF741BF03B05DF804FB9CC20020D5
:10B1100008B50321054A064826F00FFC0120FFF779
:10B120002DFFBDE80840FFF7D7BF00BF61DC04007A
:10B1300060BE040008B50D4B99420ED103210C4AA4
:10B140000C4826F0FAFB4FF40040002122F060FE8C
:10B15000BDE808400120FFF70BBF074B994203D120
:10B16000BDE80840FFF7D4BF08BD00BF010014F1DF
:10B170007CDC040060BE0400020014F108B5032169
:10B18000034A044826F0D9FBBDE80840FFF7A4BFF6
:10B1900099DC040060BE0400F8B5022026F0EEFB46
:10B1A00003215C4A5C4826F0C8FB01200DF0C6F87C
:10B1B00003215A4A584826F0C0FB5948594B43606E
:10B1C000594B03610AF096FA58482CF0B8F800F091
:10B1D000E9FC034670B1564A01214F4827F0A6FB0F
:10B1E0004D480121534A26F0A8FBBDE8F840032052
:10B1F00026F0C4BB17F0F2FE034608B14E4AEBE757
:10B2000019F020FD10F1860F03464ED14B4A022162
:10B21000414826F092FB01200DF07EF84FF0FF3000
:10B220004FF0FF3122F0F4FD454E3B4C32460321F6
:10B23000204626F082FB022026F0A0FB4FF0FF31D3
:10B240004FF0FF30FFF7C0FE032120463D4A26F0B5
:10B2500074FB03213C4A204626F06FFB0820FFF7D1
:10B260008DFE3A4818F088F8394D034650BB03214B
:10B27000384A204626F061FB26F089FB0220FFF7C2
:10B2800077FE354821F00AFE1E2304202B60FFF7CD
:10B290006FFE4FF0FF314FF0FF30FFF7B5FE032197
:10B2A00020462E4A26F049FB1AE010F16D0F01D11D
:10B2B0002B4AACE70028B7D001212A4A164827F0CC
:10B2C00035FBB1E710F10B0F05D102212046264ACC
:10B2D00026F033FBDDE701212046244A27F026FB38
:10B2E0002B6803212046224A27F020FB4FF47A7373
:10B2F0004FF4004740F2E73000212D684FF47A7296
:10B300005D430023E5FB0701FDF7EEFC22F080FD25
:10B310008CE700BFB7DC040060BE0400D0DC040092
:10B32000A83C012035B10100030014F13F190400CD
:10B33000F0DC04000CDD0400B2D9040032DD0400AE
:10B34000DCDD0400F9DD04000ADE0400DBD30400C8
:10B350002CB7002022DE040030B5002082DE04007D
:10B3600076DD04009FDD040039DE040058DE0400B1
:10B370009EDE0400F7B50F46044668B30190184BF3
:10B380005B6A192B08D117480221174A27F0C5FA22
:10B390006FF01B0003B0F0BD51B114202FF07DFC05
:10B3A0000646B0B105460FCC0FC5236801962B6049
:10B3B000002200230A4801A920F010FD0028E9D04E
:10B3C00001210A4A074827F0A8FA17B101982FF07F
:10B3D0005DFC6FF00B00DDE76FF01500DAE700BFF2
:10B3E000B4C0002068BF0400C9DE0400DFDE040032
:10B3F00038B501210546FFF7BDFF044648B10748AF
:10B400000121074A27F089FA28462CF098F92046AE
:10B4100038BD28462CF044F9F9E700BF68BF0400A6
:10B4200017DF040083B5284E284D294F4FF0FF3217
:10B430004FF0FF33304601A920F06CFD044630B1D7
:10B4400001210346234A244827F070FAEEE74FF023
:10B45000FF314FF0FF30FFF7C7FD2146019818F08C
:10B460002FFF031E22DA01211B483A4627F05EFA1D
:10B4700021460198FFF77EFF58B10121174A16486F
:10B4800027F04BFA019C20462CF059F920462FF06A
:10B49000FDFB2B680133052B2B60C7DDFFF7D4FDC7
:10B4A00000214FF4A02022F0B3FCBFE7DDF80480B8
:10B4B00040462CF044F940462FF0E8FB042026F0EB
:10B4C00062FA2C60B2E700BFB4C00020C03C01208B
:10B4D00072DF040033DF040068BF0400F8DF0400FB
:10B4E00070B50E4615461C46002814BF6422002283
:10B4F00000210F4826F03DFA002E14BF64220022DE
:10B5000001210B4826F035FA002D14BF64220022D9
:10B510000221074826F02DFA002C18BF6422BDE84E
:10B52000704008BF00220321014826F022BA00BF64
:10B5300098BA040010B40E4BD3E8EF2FC3E8E41F11
:10B54000002CF9D10B4BD3E8EF2FC3E8E10F002912
:10B55000F9D10022084BD3E8EF1FC3E8E02F002801
:10B56000F9D1022105485DF8044B2FF081BB00BFE3
:10B57000C83C012030B70020C43C0120ACC20020F0
:10B580002DE9F7434D482FF0EEF838B901214C4A28
:10B590004C4803B0BDE8F04327F0BFB902214A4848
:10B5A0002FF066FBDFF82081484E4FF0FF324FF05E
:10B5B000FF330221CDE90023404600222FF063FB38
:10B5C000DFF81491424FD9E8AF5FD7E8EF3F5A1E3A
:10B5D000C7E8E12F0029F8D1002B67D0002D65D0F6
:10B5E000D6E8EF4F631CC6E8E23F002AF8D139489D
:10B5F00023F04EF94FF0FF324FF0FF33EDB2CDE9BB
:10B600000023344840F6CD420023013D23F0E2F808
:10B61000032D49D8DFE805F002132E3A282294FBC7
:10B62000F2F302FB13430022132BCCBF01230023B0
:10B630001146D4BF01201046FFF752FFC3E7634213
:10B6400003F0030304F0030158BF594214F0030F41
:10B65000A1F10204A1F103050CBF01200020634207
:10B6600001F1FF3C63416A426A41DCF1000141EBB8
:10B670000C01E1E7142294FBF2F302FB13430E2BBF
:10B68000CCBF002301231A4619460BE00C2394FB80
:10B69000F3F203FB1244022CCDBF0122002201234E
:10B6A000002311461846C7E70023ECE70021404677
:10B6B0002FF0E1FA012026F061F976E798BA04004C
:10B6C00049E0040018BF0400ACC20020C43C0120C3
:10B6D00030B7002050BE0020C83C0120F8B5194A00
:10B6E000051E6E4600AF8AB0174B0EBF0A241346E4
:10B6F0001E246A46D36140F2013314491384144B6B
:10B70000C2E9051442F8103F00234FF413511148C9
:10B7100002F0BCFBB5460DB12BF0C3FD02F074FA8C
:10B720004FF47A7340F2E7305C434FF47A720023AF
:10B7300000EBC4300021FDF7D7FA22F069FB0120AD
:10B7400001F022FC85E004003AE2040093E00400EA
:10B750000400000130C1040008B50221034A044876
:10B7600027F0DBF86FF0080008BD00BFB4E004006C
:10B7700040C1040013B50B490DF107022BF039FF4E
:10B78000044630B99DF80700FFF7E6FB204602B0FB
:10B7900010BD233403D1FFF7DFFF0446F6E76FF057
:10B7A0002204F3E7D0E0040010B594B0344A3548E1
:10B7B000032127F0B2F8002301220FA8CDE90333BB
:10B7C000CDE90833CDE90D33CDE912338DF80020F2
:10B7D00001938DF808308DF8142006938DF81C30F5
:10B7E0008DF828200B938DF830308DF83C20109385
:10B7F0008DF844302BF03AFFB8B16FF00B04684677
:10B800002BF09DFF05A82BF09AFF0AA82BF097FFBD
:10B810000FA82BF094FF2CB1012123461A4A194896
:10B8200027F084F8204614B010BD0AA82BF01EFFA4
:10B830000028E2D105A82BF019FF0028DDD16846C9
:10B840002BF014FF04460028D7D1FFF78BFB2346CB
:10B8500002460E490FA82CF057F804460028CED116
:10B8600003460B4968460FAA2CF06EF804460028E0
:10B87000C5D10146684600F0AFF80446BFE700BFF7
:10B88000DEE0040040C10400FDE00400D0E004005C
:10B89000DB2A0500F0B5054687B0002841D00778BF
:10B8A000012F04D06FF02204204607B0F0BD43689A
:10B8B000002BF7D000261C4901AACDE904668DF8BB
:10B8C000047002968DF80C602BF0A7FE1330E9D0BF
:10B8D00001A8FFF74FFF10F1090F044613D101A88B
:10B8E0002BF02DFF01A82BF0C1FEFFF73BFB3346E9
:10B8F00002460E4901A82CF007F820B10C4A39463F
:10B900000C4827F00AF800232846074901AA2CF022
:10B910001BF80028C8D001A82BF011FF6FF00B0412
:10B92000C2E76FF01504BFE7DB2A0500D0E0040092
:10B9300025E1040040C104000278012A02D0022A55
:10B9400004D07047044B1B682BB118474378022B77
:10B9500001D0FFF713BC7047CC3C012070B58EB00E
:10B9600004460E462BF0E9FC20B90221144A154882
:10B9700026F0D3FF144B15481C6013F003FB04465C
:10B9800040B101210346124A0E4826F0CFFF20465F
:10B990000EB070BD01256A46294601A88DF80050F9
:10B9A00013F088FB01A88DF83450ADF82C6013F02B
:10B9B000FDFA04460028EAD0064A03462946E3E792
:10B9C00053E1040030BF0400CC3C012039B9010030
:10B9D0008FE10400C3E1040070B505460E462BF06C
:10B9E000D9FF044628462BF0AAFE64B928693EB167
:10B9F00018F066FF044628462BF07DFE204670BDF9
:10BA000018F058FFF6E701212346024A024826F0C3
:10BA10008DFFF3E7FCE1040048C1040030B50025C8
:10BA2000ADF5097D4FF4FE72294609A808952FF05F
:10BA30007EF94FF4007308ACCDE900350294032180
:10BA4000334A344826F069FF2046322301226946F2
:10BA500018F084FE10F10D0F044606D048B1012104
:10BA600003462D4A2B4826F061FF20460DF5097D3F
:10BA700030BD009B01936BB96FF00A04274D2B7802
:10BA8000002BF2D1FFF790FE044600283DD10123A0
:10BA90002B70EAE70146142203A82FF048F903A906
:10BAA00001A818F013FF031E07DA01211C4A1948E8
:10BAB00026F03CFF6FF00404E0E7DDD003A8FFF7B9
:10BAC000E9FE10F1090F044614D10321154A11486B
:10BAD00026F023FF012103A8FFF77EFF044600287C
:10BAE000CCD001210346104A0A4826F01FFF6FF010
:10BAF0000D04C3E710F10C0F05D101210B4A0548D5
:10BB000026F00BFFBAE72946E5E76FF00404ACE73F
:10BB100021E2040048C104003EE204008E560120E8
:10BB200061E2040089E20400BCE20400A0E2040037
:10BB300038B5124C124D00200021FFF755FA28B9F4
:10BB40004FF0FF304FF0FF31FFF74EFAFFF766FF7F
:10BB500010F10B0F0BD1782322460321284626F043
:10BB6000E5FE4FF47010002122F052F9E3E7743043
:10BB700001D1FFF703FB4FF4A020F4E7E8E2040053
:10BB800048C1040008B505480321054A26F0C5FE52
:10BB9000BDE808400020FFF7A1BD00BF00BF0400C2
:10BBA00020E3040010B50A4816F09CFD044658B97D
:10BBB000074816F0D9FD031E08DB072B04D003212C
:10BBC000044A054826F0B2FE204610BD1C46FBE79D
:10BBD00060B5002045E3040000BF040070B5114CBF
:10BBE000114D124E4FF0FF314FF0FF30FFF7FCF9CF
:10BBF000204616F0E1FD10F10B0F0BD178232A46F9
:10BC00000321304626F092FE4FF47010002122F0FE
:10BC1000FFF8E7E7023001D1FFF7B0FA4FF4A020B8
:10BC2000F4E700BF60B5002069E3040000BF040032
:10BC300010B5094C0A44914200D110BD11F8013BE6
:10BC400058400309E35C0001C0B243401809205C7E
:10BC50001B01DBB25840EEE7B0E30400F0B500246E
:10BC600021F00302184D194E194F0244904218D189
:10BC7000002301F00300104482421FD112484C40BF
:10BC80005843124B4FEA70405843124B604080EAD1
:10BC900010405843104B80EA5030584380EA10401F
:10BCA000F0BD50F8043B6B434FEA7343734363406A
:10BCB0004FEAF34303EB8303DC19D7E712F8015B88
:10BCC00045EA0323D8E700BF512D9ECC9335871B4F
:10BCD000646B54E66BCAEB8535AEB2C270B589B3FE
:10BCE00006680122304625F093FE014604463046A0
:10BCF00025F056FEC30708D41349AF22134826F097
:10BD0000A9F8AF21104826F09CF82146304625F0CE
:10BD10005DFE251829460022304625F041FE2D1AE9
:10BD2000AC4206D00849B722084826F093F8B7215C
:10BD3000E8E72146304625F04FFE2146BDE8704039
:10BD400025F08BBF70BD00BFC0E30400E3E3040037
:10BD50002DE9F8430F4606681446B2684B1EB2F54B
:10BD6000004F34BF042108213B4010D0C7F1000927
:10BD700009EA0709494503F1FF3028BF494618423F
:10BD80000CD11F46BCB900252846BDE8F8838F4278
:10BD90000FD82146BDE8F84325F0A1BF2C492D4816
:10BDA0004FF4A27226F056F84FF4A271284826F0FC
:10BDB00048F89946E6E7B2EBD40FE4D9E319591AEB
:10BDC000104625F02FFE0146304625F085FE8046C0
:10BDD0000028D8D0B36809EBC005B3F5004F34BFD5
:10BDE000042308231D4435447B1E1D44B5FBF7F591
:10BDF0007D43A5EB09052946304625F009FE2C4474
:10BE0000073424F00704A41B804507464FEAE404E6
:10BE100008D202464146304625F098FE414630465B
:10BE200025F0D9FE3946304625F0D0FD384484420D
:10BE300008D239463046224625F088FE2146304653
:10BE400025F0C9FE01223946304625F0C5FD9BE7A5
:10BE5000C0E30400E3E304002DE9F74F91461F46D9
:10BE60000E460468009031B93A46494603B0BDE831
:10BE7000F04FFFF76DBF3FB9FFF730FF4FF00008FD
:10BE8000404603B0BDE8F08F02F1FF3A1AEA020F14
:10BE90000AD04B494B4840F2891225F0DBFF40F2B3
:10BEA0008911474825F0CDFFD4F808B0BBEBD70F78
:10BEB000E4D9204625F0ACFD01460546204625F094
:10BEC00085FDBBF5004F2CBF0822042202EBC50202
:10BED0002244B31A8046F9185846019325F0A2FD72
:10BEE0008346B9F1000F02D016EA0A0F44D1C345C8
:10BEF0000ED00FD2AB445A462946204625F026FEE6
:10BF000029460122204625F067FD594625F0A5FE69
:10BF1000B046B5E705EB080A01225146204625F058
:10BF20003FFDC30728D45146204625F04FFD40442D
:10BF3000584521D35146204625F0B7FD51462046AD
:10BF400025F044FDABEB080840450AD905EB0B078B
:10BF5000514620463A4625F0F9FD3946204625F05F
:10BF60003AFE52462946204625F017FE0122294670
:10BF7000204625F031FDCBE73A4649460098FFF7C9
:10BF8000E7FE804600283FF479AF2946204625F099
:10BF90001DFDA368019AB3F5004F34BF04230823A5
:10BFA000C2EBC002D21ABA42314628BF3A464046D6
:10BFB0002EF096FE31460098FFF790FE60E700BF36
:10BFC000C0E30400E3E30400B2F5802F2DE9F04163
:10BFD0000CD2042A20D83D494FF4F9723C4825F090
:10BFE00039FF4FF4F971394825F02BFF0823D21A95
:10BFF000CC1D114424F0070421F00701091B172967
:10C000004FEAD1060AD8314940F2FB12304825F0F8
:10C0100021FF40F2FB11E6E70423E8E70027046074
:10C0200031463046A660E76025F005FD0121421D3E
:10C030008046304625F0F6FC9200D51DED082844D8
:10C04000B0423AD8B8F1FF3F3946A2F1100204F1EC
:10C050001000B8BF3A462EF06AFE2A4639462046FE
:10C0600025F0D2FC3B463A463946204625F0A3FC53
:10C07000A6EB050820463946012225F0ADFC4246D4
:10C08000294625F0C1FC2B463A462946204625F094
:10C0900092FC3146204625F0B7FC43463A463146ED
:10C0A000204625F088FC31462046012225F094FCEC
:10C0B0002946BDE8F04125F08EBD04494FF40372D6
:10C0C000034825F0C7FE4FF403718CE7C0E304007A
:10C0D000E3E304002DE9F04F91B0009302F0040374
:10C0E0000293C2F3C2030133840705460E46DDF80E
:10C0F00068900392059340F0E081041D30B1072958
:10C1000009D86FF01B0011B0BDE8F08F01F00706F1
:10C11000341DC6F10806009B4FF000084FF0040ADA
:10C12000591E4FF0FF3347460193C3465346CDF89F
:10C1300010800DB1009820600598002800F3D7808A
:10C140009B48009A824203D39A488242C0F0CF8033
:10C15000039AA4EB050E92074FEA9E0040F1DE80A1
:10C160004FF0000CCCE07A285DD84B280ED8472839
:10C1700059D829282DD8252852D054D820287AD00B
:10C180002338D0F1000B4BEB000B74E04C382E2819
:10C1900049D8DFE800F070484848484848484848CF
:10C1A00048484B484848484848484859484B4B59E4
:10C1B0005959704B6D487048184B18484883804B4C
:10C1C00048484B48800000204FF0000B4FF0040A15
:10C1D00038E001222A38C0B202FA00F010EA0E0F4D
:10C1E00049D110F0625C2FD110EA020B43D06046B7
:10C1F000013C5444B4FBFAF40AFB04F4002D60D073
:10C20000A3EB050CA444B4453FF67BAF002867D1EF
:10C21000042B48D159F8043B2360042304342AE05A
:10C22000019A013A01924FF0000B24E011F8010C41
:10C230006C2835D1002011F8023C83466C2BC5D107
:10C240004FF0080A5346D3E709F1070929F0070917
:10C25000073424F00704F9E802AB35B1069820440E
:10C26000B0423FF64EAFC4E900AB4FF0000B0834CC
:10C270004FF0080A534611F8010F002800F0A9807A
:10C28000BBF1000F7FF46FAF2528F4D14FF0010B05
:10C29000019B013301934FF0040AEBE7584693E703
:10C2A00000208346A4E7082B40F08A8009F10709A3
:10C2B00029F00709B9EC027B84ED007B08230834E0
:10C2C000D9E768B9042B02D109F10409A5E7082BC5
:10C2D00076D109F1070929F0070909F10809EDE705
:10C2E00005980138059059F8040B009021E7039A4E
:10C2F000900744D54FF0010CA4EB050E4FEA9E00C9
:10C30000BEF5007F1BD32C494FF41F722B4825F03C
:10C31000A1FD4FF41F71284825F093FD0F2F10D871
:10C32000002D38D007F140020DEB020C019A0CF8F9
:10C33000200C0CF8102C0498013004901EE00F2FF4
:10C3400008D91D4940F281221C4825F083FD40F2A6
:10C350008121E0E7D5B107F140020DEB020E019A11
:10C36000C0B20EF8200C0EF8102CBCF1000FE2D079
:10C3700060F07F000EF8200C08F101080137C5F1CC
:10C3800008024FF6DA7E0434069274E7BCF1000F1F
:10C3900001D00136F2E7029A0236002AEED1009867
:10C3A000CDE90631FCF7EAFCDDE906310644E5E7B4
:10C3B00000B90400706B0500FBE30400E3E3040034
:10C3C0003F4940F2C6223F4825F044FD40F2C621D5
:10C3D000A1E7631BB3F5806F08D3394940F2D2223D
:10C3E000384825F037FD40F2D22194E71DB9A6F177
:10C3F0000804E01887E6029A9B0828602B709DF8D5
:10C400001030C2B1EB7085F80280B8F1000F05D092
:10C41000002208A8C5F1010C97420ED14FF0000A86
:10C42000C5F101030DF1200901930DF1300B5745C2
:10C4300012D1601B67E66B70E5E710F8013B190647
:10C4400008D504EB0C0EB64503F07F033FF659AE5A
:10C4500004F8013B0132DFE7B8F1000F03D099F98E
:10C460000020002A17DB029BD3B11AF80B2004F836
:10C47000012B0022019B98182044B0423FF641AEA8
:10C4800099F80000009904F8010B204603922EF061
:10C4900027FC039A14440AF1010A09F10109C6E7CD
:10C4A00099F8002055F822300093029B009845F837
:10C4B0002230FCF763FC421CDCE76FF00D0022E643
:10C4C000FBE30400E3E304002DE9F04F97B000AF75
:10C4D00089460446D7F880B0FA623B6250B9A84951
:10C4E0004FF46672A74825F0B5FC4FF46671A44876
:10C4F00025F0A7FCCBF3C00390F802A0BB6141B9C3
:10C50000457800780AEB800020444D4517D8A0EB11
:10C510000409E378FB61BAF1000F02D01BF0010FB0
:10C5200016D1FB6953BBFB6A1BB1494620463A6AE8
:10C5300098474D4628465C37BD46BDE8F08F461CFF
:10C540003046FCF71BFC0130304409F10109DCE7FF
:10C55000626823787A62FA6A9900796104EB830150
:10C56000002A40F002810E464FF000084D4601EBD4
:10C570000A094E454CD101EB0A0610E01BF0020FF0
:10C58000D1D023789A007A61626804EB83017A62E1
:10C59000FA6A002A77D14D46904601EB0A061BF055
:10C5A000050F0CBF02230123FB62FB6906EB430A64
:10C5B0000BF00203BB625645BCD016F8021B16F8FE
:10C5C000013C54F82390704B994502D36F4B994529
:10C5D00036D3BB69002B40D0786A25F0E3FB0028F6
:10C5E0003BD0E9468AB06A46694B53617B6AC2E92F
:10C5F00006314FF400731384664B42F8103F00235A
:10C600004FF41251644801F041FC023DCD46D2E79F
:10C6100016F8013BF96254F82300FCF7AFFBD7F89A
:10C620008430F96A01304BB1D7F8883098453EBF65
:10C63000D7F8843023F8180008F10108054498E77A
:10C64000BB6923B1786A25F0ADFB0028C9D11BF086
:10C65000010F05D1FB6AED1AADE7BB6A002BAAD02A
:10C660004846FCF78BFBD7F8843053B1D7F88830B5
:10C6700098453FBFD7F88420431C22F8183008F1B2
:10C680000108054497E7BAF1000F74D01BF00406C7
:10C6900074D0D046002607F1480052463B61B9628B
:10C6A0002EF01EFBB96A3B6901EB0A02BA62FA6915
:10C6B000F9695200FA60BA6A02EB41023A610BF082
:10C6C0000202BA60BA6A39698A4267D162781BF09D
:10C6D000020F18BF00217A6208BF4FEA5801B21852
:10C6E0001BF0010FD2B240F0DE801BF0040F14BF2C
:10C6F00040460020BB616270A070E17020463A6A3B
:10C700007969FB6A9847051EFFF614AFBB6941467D
:10C7100023707B6A3A6A6370FB6984F802A0E37055
:10C7200007F14800FB6A9847B0F10008C0F2E980C1
:10C730007B69A9EB0A01C91AFB683A6AC91AD7E9E9
:10C740000A0398470028C0F2DE804FF0000BA8448F
:10C7500008EB000507F1380AB345C0F0A6800021B8
:10C760003A6A0846FB6A9847E4E656464FF00008E6
:10C7700007F1380091E75646D04695E7B04693E773
:10C78000FBE30400E3E3040000B90400706B050060
:10C7900029E404000400000150BE0400BA6A12F843
:10C7A000021B12F8015CBA6254F82500574A904205
:10C7B00002D3574A904217D3BA693AB1786A7B607C
:10C7C00025F0F0FA7B6800287FF47CAFBA68002A75
:10C7D00049D00F2E3DD94F4940F24C424E4825F0EA
:10C7E00039FB40F24C4182E6BA693AB1786A7B6023
:10C7F00025F0D8FA7B6800287FF464AF1BF0010FA6
:10C800000AD00F2E25D9434940F24242424825F032
:10C8100021FB40F242416AE61BF0040F3FF452AFA5
:10C82000B8F10F0F08D93B4940F245423A4825F08C
:10C8300011FB40F245415AE608F1280207F13000A9
:10C8400008F1010102EB000808F8105C5FFA81F8BA
:10C8500038E706F1280207F13000711C161806F8B7
:10C86000205CCEB22EE7B8F10F0F08D9294940F26B
:10C870004F42294825F0EEFA40F24F4137E608F1E1
:10C88000280207F1300C08F10100944407F1580226
:10C8900008F1020852FA80F00CF8101C5FFA88F8D0
:10C8A00000F8105C0EE7002024E71BF80A3054F86B
:10C8B000239087F83730D7F88430FBB133F81B80EA
:10C8C00001213A6AFB6A07F13700984700281ADB12
:10C8D0000544B8F1000F06D14846FCF74FFA00F1C5
:10C8E00001081FFA88F8414648463A6AFB6A9847A9
:10C8F000002808DB05440BF1010B2DE7D7F88480F5
:10C90000DEE7454616E6054614E600BF00B904001A
:10C91000706B0500FBE30400E3E30400014B1860C7
:10C92000704700BF34B7002080B505460E46174655
:10C93000984621F09BFA03462EF0D8FF0446DFF814
:10C940001890424649F8003039463046A84754F816
:10C95000090004F0C9F800BF0800000000B5162265
:10C960002EF0C4FF024B1A504FF0FF305DF804FB6D
:10C970000C0000000F2800B508D92EF0B7FF0922DF
:10C98000074B1A504FF0FF305DF804FB3022054B87
:10C9900002FB0033D3E8AF3F002BEED00020F3E7DB
:10C9A0000C00000040B700203023434330B50D4950
:10C9B00008330B44D3E8AF2F92B1541ED3E8EF5F96
:10C9C000954204D1C3E8EC4FBCF1000FF6D1F1D190
:10C9D000012A05D13023584300230A180B50536015
:10C9E00030BD00BF38B7002038B504461546FFF704
:10C9F000C1FF00280DDB30236343074AD01840688D
:10CA0000086015B10C3313442B6030235C4310597C
:10CA100038BD0020FCE700BF38B7002070B5002506
:10CA20004FF0FF334FF0FF32174825F004FA174B51
:10CA3000D3E8AF2F82B10135102D03F13003F7D1C8
:10CA40002EF054FF17224FF0FF35114B1A500E48AD
:10CA500025F0F3F9284670BD30246C43D3E8EF0F7E
:10CA60000130C3E8E10F0029F8D10A4E33193251E1
:10CA70005A6004F10C0030442DF0D2FE04F1200085
:10CA800030442DF07EFFE2E788BF002040B7002051
:10CA90000C00000038B7002030B4044630251046A2
:10CAA0006C43084A151911516860EB6240B1C368C4
:10CAB00033B10C34131940F2051230BC25F0AAB979
:10CAC00030BC704738B70020F8B50546FFF752FF75
:10CAD00000281ADB30246C430D4F04F10C063E4451
:10CAE0004FF0FF324FF0FF33304625F0A4F93B19E9
:10CAF0005B6838599B6898470446304625F09DF995
:10CB00002846FFF751FF2046F8BD4FF0FF34FAE703
:10CB100038B7002038B50D460446202200212EF0FB
:10CB200006F90022EB68E361AB68A3612B6823621E
:10CB30006B68A26263622A6923B1591E194208BF59
:10CB400042F0010222610122002104F12C002DF0AB
:10CB5000A4FE40B1044905482F2225F07BF92F217E
:10CB6000014825F06EF938BDDDE40400E3E304007C
:10CB70002DE9F04F002689B0CDE90123436A044630
:10CB80008B428846B2460596079652D34FF0200B4B
:10CB900000F11407EFF3118300938BF31288BFF3B6
:10CBA0006F8F3846DDF8009021F022FB40B94649EE
:10CBB0008822464825F04EF98821434825F041F95E
:10CBC000384621F039FB079A2AB13146204625F034
:10CBD00022FA0023079306A9204625F048F9069972
:10CBE000054641452ED32268236A204613F82210B9
:10CBF00003EB820A21F0030103F822102168424668
:10CC000025F059F9E3682060984216D0002538468F
:10CC100021F0FCFA40B389F31188BFF36F8F0599B7
:10CC200029B1A2690AB12046904700230593002D3F
:10CC3000B0D1504609B0BDE8F08F236943F0080336
:10CC40002361E3E718B1204625F04FF9DFE7DDE97E
:10CC5000013213432FD003912DF097FE039950BB5F
:10CC6000384621F0D3FA40B9174940F2311217483B
:10CC700025F0F0F840F231119FE7009B83F3118813
:10CC8000BFF36F8F04F12C00DDE901231FF05EFC80
:10CC90000546EFF311898BF31288BFF36F8F384687
:10CCA00021F0A6FA002882D0B5FA85F5384621F0A1
:10CCB000C3FA6D09ABE7204607AB05AA266825F045
:10CCC00033F90546A3E700BF03E50400E3E30400EE
:10CCD0002DE9F0410446C36908460D46984704F122
:10CCE00014060746EFF31188202383F31288BFF35D
:10CCF0006F8F304621F07CFA40B9164988221648D9
:10CD000025F0A8F88821134825F09BF8304621F03B
:10CD100093FA2B783A4643F001032B706168204662
:10CD200025F0C9F86060204625F090F9304621F0E2
:10CD30006DFA40B9074940F23112074825F08AF8E8
:10CD400040F23111DFE788F31188BFF36F8FBDE840
:10CD5000F08100BF03E50400E3E304002DE9F8439C
:10CD6000044600F11407EFF31188202383F312889F
:10CD7000BFF36F8F384621F03BFA054640B9304982
:10CD80008822304825F066F888212D4825F059F88A
:10CD9000384621F051FA2369A26813F0080F02D136
:10CDA00063689A4200D9636A9B1A002B3AD0216AC1
:10CDB00011F8223001EB820913F0030035D002286C
:10CDC00003D151F82260B60805D1D8071AD44846D5
:10CDD000E36998470646A1683246204625F06BF87D
:10CDE0003146A060204625F074F8384621F00EFA4E
:10CDF000E8B9134940F23112124825F02BF840F2FD
:10CE00003111C2E743F0020301F82230E3694846DA
:10CE1000A568984729460246204625F04CF800258B
:10CE2000A060E2E71D46A946DFE70546FBE788F379
:10CE30001188BFF36F8F002D95D14846BDE8F88368
:10CE400003E50400E3E304002DE9F0410446C3696F
:10CE500008460D46984704F114070646EFF311887B
:10CE6000202383F31288BFF36F8F384621F0C0F977
:10CE700040B923498822234824F0ECFF8821204828
:10CE800024F0DFFF384621F0D7F92B786FF3000349
:10CE90002B7023699B0705D5E268236A03EB8203A5
:10CEA0009D421DD12B786FF341032B70D4E90231E1
:10CEB000994204D13246204624F0FDFFA06031465D
:10CEC000204625F006F8384621F0A0F968B90C494B
:10CED00040F231120B4824F0BDFF40F23111CEE791
:10CEE0002B6866F39F032B60EDE788F31188BFF38F
:10CEF0006F8F04F12C00BDE8F0411FF0EDBA00BFC8
:10CF000003E50400E3E3040070B5044600F11405F2
:10CF1000EFF31186202383F31288BFF36F8F284627
:10CF200021F066F940B916498822164824F092FF8C
:10CF30008821134824F085FF284621F07DF92369D4
:10CF4000A06813F0080F02D1636898420ED9646A92
:10CF5000241A284621F05AF950B9094940F23112F1
:10CF6000084824F077FF40F23111E2E71C1AF0E79D
:10CF700086F31188BFF36F8F201E18BF012070BD8C
:10CF800003E50400E3E30400044608B5EFF311836E
:10CF9000202383F31288BFF36F8F0DF021F9204611
:10CFA00003F058FD024824F026FF26F023FDFCE79D
:10CFB00030E504002DE9F04300273C463D46DDF80E
:10CFC0001CE0DFF8288175451FD3E4BB0020146006
:10CFD000BDE8F0830136764533D013F806C0BCF1C6
:10CFE000200FF7D0AEEB0609B9F1010FA6EB05054E
:10CFF0000DD0BCF10D0F0AD103EB060999F8019091
:10D00000B9F10A0F6ED1751CDDE72E46E3E7BCF1DE
:10D010000A0FF8D02DB9BCF13D0F05D10137022F11
:10D020000DD96FF01500D3E71CF0800FF9D118F877
:10D030000C507F2DF5D03F2D01D8002FF1D10134B8
:10D04000E1E73546C1E74FF0060C04F00706E408B7
:10D050000CFB06F60CFB04F40736E41B04EBD604C9
:10D0600070B18C420CD80027014603263C46DFF8FD
:10D070007CE0DFF87C801D449D4205D10C1AA5E7B9
:10D080006FF00B001460A3E713F8019BA9F10A0CE1
:10D090005FFA8CFCBCF1160F04D848FA0CFC1CF0AB
:10D0A000010FE9D01EF809C00134BCF1400F08BFE0
:10D0B000013E0CF03F0C042C4CEA8717DCD17EB10A
:10D0C0003C0C012E0C7002D101310024D4E7022E59
:10D0D0004FEA17244C7016BF8F7002310331F4E70A
:10D0E0003446C9E7002DA2D09BE700BF59E50400F4
:10D0F000F6FFBFFF2DE9F84340F26C734469056900
:10D10000E1170135E41841F10001022D8CBF002325
:10D110000123E41AC76861F100010029064607F1FE
:10D12000FF374EDA6FF4C7704FF4C872002320182F
:10D1300061F10001FBF788FD244B4FF03C0E03FB2F
:10D140000044D6E900834FEAE37C99466346022D0A
:10D1500002468CBF6FF002000920B6680544C6FB8A
:10D160000E93A9FB0EC60EFB036640F26D1E9920BE
:10D17000A3080EFB04333B44642745430520B4FB5E
:10D18000F7F40235B5FBF0F51B1B114C1CEB080C3A
:10D19000A2FB042004FB01012B4446EBE87698181F
:10D1A0000C4A41F1000380180B4A63F10003A0FB15
:10D1B000020102FB031110EB0C0041EB0601BDE87C
:10D1C000F8834FF4C87200232046B3E770FEFFFFD8
:10D1D000B13A02009405F5FF805101002DE9F84FA6
:10D1E0000446A38B08461907164612D4022803F0FA
:10D1F000070162D1204624F086FF88B10138042857
:10D2000000F22581DFE810F0590023017E00C800FC
:10D21000F50001280CBF43F0100143F02001A18369
:10D2200004F1140020F0F2FF002800F0AB8086F338
:10D230001188BFF36F8FBDE8F88F03F00702501F0E
:10D2400001281ED80020062A2768C4E9000014D14E
:10D250003A4603E0E08B0130E0831268002AF9D1FE
:10D2600023F0070343F002022046A28324F04BFF81
:10D2700090B342F02002A2832EE023F007039AB27B
:10D28000F2E7042A33D123F007039AB22046A2839F
:10D2900024F039FF10B142F02002A283A38B03F0E7
:10D2A0000709894540F0DC80A18BCA0640F1218145
:10D2B00021F01003A38301F00701D4F81880A38B99
:10D2C000B8F1000FB9DA0022276823F00703C4E998
:10D2D000002243F00103A383A38B03F007098945D0
:10D2E00040F0BF80002FDFD00025AA4640E08549EE
:10D2F00040F21B12844824F0ADFD40F21B1181481E
:10D3000024F09FFD41B17F494FF4AB727E4824F079
:10D31000A1FD4FF4AB71F2E7236843B9794940F2BC
:10D320005712794824F096FD40F25711E7E7236938
:10D330001D6845B973494FF4AD72734824F08AFDF6
:10D340004FF4AD71DBE70F4688464FF00609A38B1B
:10D3500023F0070343F006039BB2A383A268002ACD
:10D3600040F08180002F40F08180002D9CD0BA4693
:10D3700043F0080304F1140B5846A38320F046FF42
:10D38000002875D1614940F231125F4824F062FDF6
:10D3900040F231115D48B3E7022908D0594940F203
:10D3A0005D12594824F056FD40F25D11A7E7E78B66
:10D3B00047B154494FF4AF72534824F04BFD4FF43A
:10D3C000AF719CE723695D6845B94E4940F261122F
:10D3D0004D4824F03FFD40F2611190E7A38BB84621
:10D3E00023F0070343F004039BB24FF00409A38327
:10D3F000B4E7012908D043494FF4B272424824F0FF
:10D4000029FD4FF4B2717AE7236843B93D4940F2F0
:10D4100065123D4824F01EFD40F265116FE7236957
:10D420009D6845B937494FF4B472374824F012FD6E
:10D430004FF4B47163E70027A38BB84623F00703CA
:10D4400043F005039BB24FF00509A38386E72D49FE
:10D4500040F26B122C4824F0FDFC40F26B114EE7B9
:10D46000002700257AE74FF0010A81E792467FE71F
:10D4700086F31188BFF36F8FBAF1000F16D147BB47
:10D4800015B120462249A847EFF31186202383F3E4
:10D490001288BFF36F8F584620F0AAFE08BB1B49C5
:10D4A0008822194824F0D6FC882173E7A168002956
:10D4B000E5D00E680029E2D043464A462046D1F81E
:10D4C00004A0D0471EB1336831461E46F2E733460A
:10D4D000FAE7394643464A4620463F6824F03FFE75
:10D4E000CDE7584620F0A8FEA38B23F00803A383C2
:10D4F000DAE68B067FF594AE21F02003A38301F0DA
:10D50000070177E6D9E50400E3E3040003E504003E
:10D5100015D50100F8B504460D4600F11406EFF3E9
:10D520001187202383F31288BFF36F8F304620F0DA
:10D530005FFE40B909490A48882224F08BFC882103
:10D54000064824F07EFC304620F076FEA5613A467F
:10D550002046BDE8F8400121FFF740BE03E5040086
:10D56000E3E304002DE9F04704460F4624F0E7FD0D
:10D57000051E5DDB04F11409EFF3118A202383F308
:10D580001288BFF36F8F484620F032FE804638B9CC
:10D5900033498822334824F05DFC882130483CE040
:10D5A000484620F049FE4FF6FF72E38BA68B93426C
:10D5B00006F007063FD0022E10D135460133E38333
:10D5C000484620F023FE00283BD1254940F2311285
:10D5D000244824F03FFC40F23111DFE7062E13D837
:10D5E000DFE806F0092C1212090409006FF0850526
:10D5F0004FF00008E4E700233B6063687BB9C4E9AF
:10D6000000777EB13546F3E7174916484FF4E472C8
:10D6100024F020FC4FF4E471134824F012FC1F6046
:10D620006760EEE7524602212046FFF7D7FD3546F8
:10D630002846BDE8F0876FF00A05D9E76FF00405CA
:10D64000D6E78AF31188BFF36F8FB8F1000FEFD0E0
:10D65000002332463946204624F081FDE8E700BF2A
:10D6600003E50400E3E30400D9E5040008B54268DB
:10D67000034602F00302022A81600AD0032A4FF017
:10D68000000103D0012A0AD1596006E018685960E8
:10D6900008BD186800225A6050B90020F8E7064912
:10D6A0000648452224F0D6FB4521034824F0C9FB57
:10D6B00021F0F0FBF1E700BFFEE50400E3E3040026
:10D6C0002DE9F04F85B090F836800446B8F1080F88
:10D6D00038BF4FF00808894608F1070303F4FC73CC
:10D6E00002AFADEB030D02AB90F83C1016461846A6
:10D6F00042467B602DF01BFB4A462046796824F0A9
:10D700001FFEB0F1000A7ADB94F836B01FFA8AF1F6
:10D71000584624F062FD49460546584624F05DFD12
:10D7200001218146584624F058FDA84581441FFA3E
:10D7300089F908D23A493B484E2224F08BFB4E210E
:10D74000374824F07EFB04F10C084FF0FF324FF015
:10D75000FF3340461EF07EFC824600285CD1D4E9AF
:10D76000091248682A444A44824234D9D346A279ED
:10D7700020463A6024F09BFF0146BBF1000F08BF32
:10D780008346206A814241D03A680AF1010052453D
:10D790003ADCBBF1000F39D0082194F8360024F0B0
:10D7A0001CFDDBF804A04844284482452ED3A28EF9
:10D7B00059460132204692B224F000FE8246D8B982
:10D7C000082194F83600C4F824B024F006FDA38E96
:10D7D000A0620133A38600952046D4E909127B6834
:10D7E00024F078FD8246A0B9636A3360A36A1D44C1
:10D7F000B5604D447360A56240461EF0E1FC5046A2
:10D800000C37BD46BDE8F08F8246B1E76FF01B0ACA
:10D81000F2E76FF0040AEFE76FF0150AEFE700BFD9
:10D8200024E60400E3E3040030B5002289B00F4988
:10D830000F482DF05CF9002200230024CDE90623D7
:10D840000E230C4DCDE903344FF400622846CDE998
:10D850000144094B094900941FF03CFC0849284643
:10D860002DF099F8204609B030BD00BFB1D90100B4
:10D87000C0F70020D0E600206DDC010040BB012095
:10D8800052E604002DE9F047044607464FF001092F
:10D89000DFF8508014B93846BDE8F08794FAA4F553
:10D8A000B5FA85F509FA05F32E0108EB05156FEABF
:10D8B000030A24EA03042B7B002BEBD058F8063034
:10D8C0001B694BB94644736804222846196807EA65
:10D8D0000A0700F0B7FADDE7284698470028D9D1B3
:10D8E000F0E700BF78C104002DE9F047DFF8BC90F5
:10D8F0002A4C8046A9EB04038F2B0F460AD92849EE
:10D9000040F23F12274824F0A5FA40F23F11244884
:10D9100024F097FA244824F07EFF064640B3002501
:10D920002846BDE8F087237B6BB12368DB680BB129
:10D930002046984723681B6993B9636804222046F0
:10D94000196800F07FFA013610344C4514D9144997
:10D950004FF4A672134824F07DFA4FF4A671D6E76F
:10D96000204698470028E8D00AFA06F31D43EAE764
:10D9700005464FF0010AE8E7D5D3B8F1000FCFD044
:10D98000002DCCD02846FFF77DFF0546002FF7D0AD
:10D9900000214FF4A47020F03BFAF1E778C10400B5
:10D9A0005AE60400E3E30400E43C012088C10400DB
:10D9B00001481EF091BD00BF0CC20020014B53F87E
:10D9C00020007047ACC4040008B5034608462BB1DC
:10D9D000044A136000F064FD002008BD6FF01500DC
:10D9E000FBE700BF38BA002010B5044C237813B908
:10D9F00003481EF071FD0123237010BD8F560120D6
:10DA00000CC2002010B50446094824F004FF3CB1C4
:10DA1000084BD3E8EF1F0139C3E8E21F002AF8D111
:10DA200005482DF070F8BDE8104004481EF054BDC4
:10DA3000DC3C0120E03C0120C0F700200CC20020AB
:10DA400000200146034BD3E8EF0FC3E8E21F002A92
:10DA5000F9D17047DC3C012070B5FFF7F1FF0546B6
:10DA60000D4C0E4EB44215D90D490E4840F2FF122E
:10DA700024F0F0F940F2FF11094824F0E2F963685C
:10DA80005B792BB123685B6813B129462046984720
:10DA90001034E7E7F3D370BD78C1040088C10400F7
:10DAA0005AE60400E3E3040010B5044C04492046A0
:10DAB000FFF730F8034B1C6010BD00BF08BE00200C
:10DAC00098C40400D43C012008B50023074A4FF451
:10DAD00000411370064A07481360074A1360FFF7B6
