:020000021000EC
:108000006017022059060200D5350400F50502006C
:10801000F5050200F5050200F5050200F505020070
:108020000000000000000000000000007D080200C9
:10803000F50502000000000001080200F50502003D
:10804000B50A0200B50A0200B50A0200B50A02002C
:10805000B50A0200B50A0200B50A0200B50A02001C
:10806000B50A0200B50A0200B50A0200B50A02000C
:10807000B50A0200B50A0200B50A0200B50A0200FC
:10808000B50A0200B50A0200B50A0200B50A0200EC
:10809000B50A0200B50A0200B50A0200B50A0200DC
:1080A000B50A0200B50A0200B50A0200B50A0200CC
:1080B000B50A0200B50A0200B50A0200B50A0200BC
:1080C000B50A0200B50A0200B50A0200B50A0200AC
:1080D000B50A0200B50A0200B50A0200B50A02009C
:1080E000B50A0200B50A0200B50A0200B50A02008C
:1080F000B50A0200B50A0200B50A0200B50A02007C
:10810000B50A0200B50A0200B50A0200B50A02006B
:10811000B50A0200B50A0200B50A0200B50A02005B
:10812000B50A0200B50A0200B50A0200B50A02004B
:10813000B50A0200B50A0200B50A0200B50A02003B
:10814000B50A02000000000000000000000000006E
:10815000000000000000000000000000000000001F
:10816000000000000000000000000000000000000F
:1081700000000000000000000000000000000000FF
:1081800000000000000000000000000000000000EF
:1081900000000000000000000000000000000000DF
:1081A00000000000000000000000000000000000CF
:1081B00000000000000000000000000000000000BF
:1081C00000000000000000000000000000000000AF
:1081D000000000000000000000000000000000009F
:1081E000000000000000000000000000000000008F
:1081F000000000000000000000000000000000007F
:10820000DEE61E284CBBCE8F025B00003C00000067
:1082100058F203000100000000800100008001000E
:10822000FFFF0291000000000000000000000000BD
:0C82300000000000000000000000000042
:1082400081F0004102E000BF83F0004330B54FEA07
:1082500041044FEA430594EA050F08BF90EA020F74
:108260001FBF54EA000C55EA020C7FEA645C7FEA07
:10827000655C00F0E2804FEA5454D4EB5555B8BF2A
:108280006D420CDD2C4480EA020281EA030382EA9B
:10829000000083EA010180EA020281EA0303362D2D
:1082A00088BF30BD11F0004F4FEA01314FF4801C00
:1082B0004CEA113102D0404261EB410113F0004F12
:1082C0004FEA03334CEA133302D0524263EB4303C9
:1082D00094EA050F00F0A780A4F10104D5F1200E67
:1082E0000DDB02FA0EFC22FA05F2801841F10001C2
:1082F00003FA0EF2801843FA05F359410EE0A5F196
:1083000020050EF1200E012A03FA0EFC28BF4CF0C6
:10831000020C43FA05F3C01851EBE37101F000457C
:1083200007D54FF0000EDCF1000C7EEB00006EEB89
:108330000101B1F5801F1BD3B1F5001F0CD3490813
:108340005FEA30004FEA3C0C04F101044FEA44526A
:1083500012F5800F80F09A80BCF1004F08BF5FEAF1
:10836000500C50F1000041EB045141EA050130BDD1
:108370005FEA4C0C404141EB0101013C28BFB1F5E3
:10838000801FE9D291F0000F04BF01460020B1FA2E
:1083900081F308BF2033A3F10B03B3F120020CDA01
:1083A0000C3208DD02F1140CC2F10C0201FA0CF0DF
:1083B00021FA02F10CE002F11402D8BFC2F1200C44
:1083C00001FA02F120FA0CFCDCBF41EA0C019040FA
:1083D000E41AA2BF01EB0451294330BD6FEA040443
:1083E0001F3C1CDA0C340EDC04F11404C4F120022E
:1083F00020FA04F001FA02F340EA030021FA04F340
:1084000045EA030130BDC4F10C04C4F1200220FA96
:1084100002F001FA04F340EA0300294630BD21FAD4
:1084200004F0294630BD94F0000F83F4801306BF9A
:1084300081F480110134013D4EE77FEA645C18BF8E
:108440007FEA655C29D094EA050F08BF90EA020F25
:1084500005D054EA000C04BF1946104630BD91EA1D
:10846000030F1EBF0021002030BD5FEA545C05D120
:108470004000494128BF41F0004130BD14F580045F
:108480003CBF01F5801130BD01F0004545F0FE41D3
:1084900041F470014FF0000030BD7FEA645C1ABF08
:1084A000194610467FEA655C1CBF0B46024650EA3F
:1084B000013406BF52EA033591EA030F41F400216B
:1084C00030BD00BF90F0000F04BF0021704730B5F1
:1084D0004FF4806404F132044FF000054FF00001C6
:1084E00050E700BF90F0000F04BF0021704730B587
:1084F0004FF4806404F1320410F0004548BF40425C
:108500004FF000013EE700BF42004FEAE2014FEAB0
:1085100031014FEA02701FBF12F07F4393F07F4F8B
:1085200081F06051704732F07F4208BF704793F08E
:108530007F4F04BF41F40021704730B54FF46074A1
:1085400001F0004521F000411CE700BF50EA0102A4
:1085500008BF704730B54FF000050AE050EA01024D
:1085600008BF704730B511F0004502D5404261EBBD
:1085700041014FF4806404F132045FEA915C3FF4FE
:10858000D8AE4FF003025FEADC0C18BF03325FEA9B
:10859000DC0C18BF033202EBDC02C2F1200300FA4C
:1085A00003FC20FA02F001FA03FE40EA0E0021FA71
:1085B00002F11444BDE600BF70B54FF0FF0C4CF45F
:1085C000E06C1CEA11541DBF1CEA135594EA0C0F11
:1085D00095EA0C0F00F0DEF82C4481EA030621EA4C
:1085E0004C5123EA4C5350EA013518BF52EA033587
:1085F00041F4801143F4801338D0A0FB02CE4FF039
:108600000005E1FB02E506F00042E0FB03E54FF068
:108610000006E1FB03569CF0000F18BF4EF0010E60
:10862000A4F1FF04B6F5007F64F5407404D25FEA5C
:108630004E0E6D4146EB060642EAC62141EA55510F
:108640004FEAC52040EA5E504FEACE2EB4F1FD0C51
:1086500088BFBCF5E06F1ED8BEF1004F08BF5FEACF
:10866000500E50F1000041EB045170BD06F0004681
:1086700046EA010140EA020081EA0301B4EB5C042E
:10868000C2BFD4EB0C0541EA045170BD41F4801126
:108690004FF0000E013C00F3AB8014F1360FDEBF4B
:1086A000002001F0004170BDC4F10004203C35DA27
:1086B0000C341BDC04F11404C4F1200500FA05F3AA
:1086C00020FA04F001FA05F240EA020001F000424B
:1086D00021F0004110EBD37021FA04F642EB0601C1
:1086E0005EEA430E08BF20EAD37070BDC4F10C04EB
:1086F000C4F1200500FA04F320FA05F001FA04F2AF
:1087000040EA020001F0004110EBD37041F100019A
:108710005EEA430E08BF20EAD37070BDC4F12005A5
:1087200000FA05F24EEA020E20FA04F301FA05F20D
:1087300043EA020321FA04F001F0004121FA04F2B5
:1087400020EA020000EBD3705EEA430E08BF20EA85
:10875000D37070BD94F0000F0FD101F000464000BF
:1087600041EB010111F4801F08BF013CF7D041EA41
:10877000060195F0000F18BF704703F00046520045
:1087800043EB030313F4801F08BF013DF7D043EA16
:108790000603704794EA0C0F0CEA135518BF95EACC
:1087A0000C0F0CD050EA410618BF52EA4306D1D153
:1087B00081EA030101F000414FF0000070BD50EA72
:1087C000410606BF1046194652EA430619D094EAFC
:1087D0000C0F02D150EA013613D195EA0C0F05D1E6
:1087E00052EA03361CBF104619460AD181EA03013A
:1087F00001F0004141F0FE4141F470014FF00000F2
:1088000070BD41F0FE4141F4780170BD70B54FF08C
:10881000FF0C4CF4E06C1CEA11541DBF1CEA13550C
:1088200094EA0C0F95EA0C0F00F0A7F8A4EB0504EE
:1088300081EA030E52EA03354FEA013100F08880E5
:108840004FEA03334FF0805545EA131343EA1263AE
:108850004FEA022245EA111545EA10654FEA002663
:108860000EF000419D4208BF964244F1FD0404F51C
:10887000407402D25B084FEA3202B61A65EB030578
:108880005B084FEA32024FF480104FF4002CB6EB35
:10889000020E75EB030E22BFB61A754640EA0C00B5
:1088A0005B084FEA3202B6EB020E75EB030E22BFF5
:1088B000B61A754640EA5C005B084FEA3202B6EB36
:1088C000020E75EB030E22BFB61A754640EA9C00F5
:1088D0005B084FEA3202B6EB020E75EB030E22BFC5
:1088E000B61A754640EADC0055EA060E18D04FEA83
:1088F000051545EA16754FEA06164FEAC30343EA23
:1089000052734FEAC2025FEA1C1CC0D111F4801FEF
:108910000BD141EA00014FF000004FF0004CB6E7E8
:1089200011F4801F04BF01430020B4F1FD0C88BF87
:10893000BCF5E06F3FF6AFAEB5EB030C04BFB6EB92
:10894000020C5FEA500C50F1000041EB045170BD85
:108950000EF0004E4EEA113114EB5C04C2BFD4EBB2
:108960000C0541EA045170BD41F480114FF0000E36
:10897000013C90E645EA060E8DE60CEA135594EAB2
:108980000C0F08BF95EA0C0F3FF43BAF94EA0C0FB5
:108990000AD150EA01347FF434AF95EA0C0F7FF42A
:1089A00025AF104619462CE795EA0C0F06D152EA7E
:1089B00003353FF4FDAE1046194622E750EA410662
:1089C00018BF52EA43067FF4C5AE50EA41047FF473
:1089D0000DAF52EA43057FF4EBAE12E74FF0FF3CD8
:1089E00006E000BF4FF0010C02E000BF4FF0010CA9
:1089F0004DF804CD4FEA410C7FEA6C5C4FEA430C22
:108A000018BF7FEA6C5C1BD001B050EA410C0CBF70
:108A100052EA430C91EA030F02BF90EA020F0020D2
:108A2000704710F1000F91EA030F58BF994208BF39
:108A300090422CBFD8176FEAE37040F001007047F6
:108A40004FEA410C7FEA6C5C02D150EA013C07D14D
:108A50004FEA430C7FEA6C5CD6D152EA033CD3D098
:108A60005DF8040B704700BF8446104662468C4692
:108A70001946634600E000BF01B5FFF7B7FF0028C5
:108A800048BF10F1000F01BD4DF808EDFFF7F4FFEE
:108A90000CBF012000205DF808FB00BF4DF808ED79
:108AA000FFF7EAFF34BF012000205DF808FB00BF9C
:108AB0004DF808EDFFF7E0FF94BF012000205DF8BE
:108AC00008FB00BF4DF808EDFFF7CEFF94BF012073
:108AD00000205DF808FB00BF4DF808EDFFF7C4FF6C
:108AE00034BF012000205DF808FB00BF4FEA410CB5
:108AF0007FEA6C5C02D150EA013C0AD14FEA430C98
:108B00007FEA6C5C02D152EA033C02D14FF00000D4
:108B100070474FF0010070474FEA410212F5001212
:108B200015D211D56FF47873B3EB625212D94FEAB4
:108B3000C12343F0004343EA505311F0004F23FA9E
:108B400002F018BF404270474FF00000704750EAF3
:108B5000013005D111F0004008BF6FF000407047B0
:108B60004FF00000704700BF4FEA4102B2F1E0430E
:108B700024BFB3F5001CDCF1FE5C0DD901F0004C04
:108B80004FEAC0024CEA5070B2F1004F40EB830054
:108B900008BF20F00100704711F0804F21D113F180
:108BA0003872BCBF01F00040704741F480114FEAB9
:108BB0005252C2F11802C2F1200C10FA0CF320FA42
:108BC00002F018BF40F001004FEAC1234FEAD3235F
:108BD00003FA0CFC40EA0C0023FA02F34FEA4303C9
:108BE000CCE77FEA625307D150EA01331EBF4FF052
:108BF000FE4040F44000704701F0004040F0FE406D
:108C000040F40000704700BF7BB972B90029BEBFB5
:108C100000204FF0004106E008BF00281CBF6FF0A5
:108C200000414FF0FF3000F057B8ADF1080C6DE98E
:108C300004CE002909DB002B1ADB00F069F8DDF80F
:108C400004E0DDE9022304B07047404261EB4101DA
:108C5000002B1BDB00F05CF8DDF804E0DDE902230B
:108C600004B0404261EB4101524263EB4303704761
:108C7000524263EB430300F04BF8DDF804E0DDE91A
:108C8000022304B0404261EB41017047524263EB62
:108C9000430300F03DF8DDF804E0DDE9022304B011
:108CA000524263EB4303704753B94AB9002908BFE6
:108CB00000281CBF4FF0FF314FF0FF3000F00CB820
:108CC000ADF1080C6DE904CE00F022F8DDF804E007
:108CD000DDE9022304B07047704700BF10F8012B94
:108CE00011F8013B012A28BF9A42F7D0D01A7047E9
:108CF000034611F8012B03F8012B002AF9D1704724
:108D0000034613F8012B002AFBD1181A01387047CB
:108D10002DE9F04786468C460846089E154674465F
:108D20001946002B40F0C1808542B2FA82F245D943
:108D30004AB1C2F1200300FA02FC954094402EFA99
:108D400003F343EA0C0C4FEA154EA8B2230CBCFB0C
:108D5000FEF80EFB18CC08FB00F943EA0C439945DA
:108D600028D9EB1808F1FF3704D2994502D9A8F1A8
:108D700002072B44A3EB0903A4B2B3FBFEFC0EFBDA
:108D80001C330CFB00F044EA0344A04214D92C1914
:108D90000CF1FF3304D2A04202D9ACF102032C44FF
:108DA000241A43EA07401EB1D440002334607360A4
:108DB000BDE8F0874746DDE76346F1E792BB431B1A
:108DC00001214FEA154EAFB2200CB3FBFEFC0EFBA7
:108DD0001C330CFB07F840EA0343984561D9EB18B4
:108DE0000CF1FF3004D2984502D9ACF102002B44BB
:108DF000A3EB0803A4B2B3FBFEFC0EFB1C330CFB7D
:108E000007F744EA0344A7424DD92C190CF1FF336C
:108E100004D2A74202D9ACF102032C44E41B43EA7A
:108E20000040C0E7C2F120039540944020FA03F1CE
:108E30002EFA03F34FEA154E9040AFB20343B1FB55
:108E4000FEFC0EFB1C10190C0CFB07F841EA00415C
:108E5000884522D969180CF1FF3004D2884502D91F
:108E6000ACF102002944A1EB08019BB2B1FBFEFC6E
:108E70000EFB1C110CFB07F743EA01439F420ED97E
:108E8000EB180CF1FF3104D29F4202D9ACF1020180
:108E90002B44DB1B41EA004193E76046E3E7614670
:108EA000F7E76046A4E76346B8E7834206D916B9F8
:108EB000002108467CE7C6E900E0F9E7B3FA83F74A
:108EC0008FB9834201D3724508D8BEEB020460EB30
:108ED000030301209C461EB9002169E73846FAE7E2
:108EE000C6E9004CF8E7C7F1200CBB400EFA07F5C5
:108EF00022FA0CF42EFA0CF1BA401C4320FA0CF3BF
:108F0000B8404FEA144901431FFA84FEB3FBF9F855
:108F100009FB18300B0C08FB0EFA43EA00439A4594
:108F200040D9E31808F1FF3004D29A4502D9A8F1DC
:108F300002002344A3EB0A0389B2B3FBF9F809FB4F
:108F4000183308FB0EFE41EA03418E452CD9611807
:108F500008F1FF3304D28E4502D9A8F1020321445F
:108F600043EA0040A1EB0E01A0FB02984145CE462A
:108F7000434602D306D14D4504D20138B9EB020E67
:108F800068EB0403002EA7D0B5EB0E0261EB0301E2
:108F900001FA0CFC22FA07F3F9404CEA0303C6E994
:108FA000003199E74046C5E74346D9E70000000095
:108FB0002DE9F04F2DED048BA3B0324B02AFD3F867
:108FC0000034314A0321314828F0C9FA304812F000
:108FD000E5F84FF0FF314FF0FF3001F037FE002190
:108FE0009FED2C0A012018F04DFC032127482A4A46
:108FF00028F0B7FA4FF41600002101F047FE0028D0
:1090000035D10221254A214828F0ABFA18F04AF858
:1090100003202EF0C5F8224B224A2349032018F0E2
:1090200081F84FF4B471214802F0CAFA54220021A9
:1090300007F1280031F098FC012402230021C7E940
:109040000C431B4807F1100307F128022AF043FBE9
:1090500007F1180A034668B12146164A0B4828F062
:109060007EFA0121144A094828F07BFA4DE00321D9
:10907000124AC8E73B692BBB2146114A034828F036
:1090800070FAEEE70050004065D0040040B70400DD
:10909000671504000000000078D00400ADD0040083
:1090A0000BCD040005CD0400BFCC0400B5A7010022
:1090B00097CC040006D1040045D10400E5D004009B
:1090C0001DD10400DB69B8495B680C804B6043F23A
:1090D000163352464B802046102304312AF0F5FA0D
:1090E0006C4688B002AAB14BB148C2E9053A4FF4C8
:1090F00000739383AF4B4FF4E65142F8103F28F0D2
:1091000039FAA54638692AF0E4FA11220221012031
:109110002AF003FBA84B0028186009DA32F06EF839
:10912000A64B01211B58A64AA1485B4228F017FA1A
:109130000321A44A9E4828F014FA0021A24806F010
:1091400077F9034620B10121A04A994828F007FA8F
:10915000032600259FED908B9FED919B4FF0FF32F2
:109160004FF0FF339A48CDE9002300234FF4A022AB
:1091700025F062F9974B1B787BB12B46964A032169
:109180008B4828F0ECF92846FFF7ACF96C1C41EC51
:10919000100B924801F088FB254687ED048B87ED84
:1091A000068B87ED0A8B5246384607F1080307F114
:1091B000100187ED008B87ED028B00F081F900280C
:1091C00040F05981864897ED000B01F06DFBD7E91F
:1091D0000089002240464946824BFFF77DFC00286B
:1091E00000F02481804B1A78002A40F0508101223F
:1091F00049461A704046FFF7B7FC7C4900EE100A5A
:10920000052018F03FFBEB468AB002AC784B0022F9
:10921000636184ED069B002340464946FFF716F83C
:1092200022460623C4E908014FF4435142F8103F97
:109230005F4828F09FF9DD46D7E9000100220023AE
:10924000FFF704F8E94688B002AC4FF0040BA046E3
:10925000684BC4E90601636148F810BF42464FF409
:109260000351534828F086F96348CD4697ED020B29
:1092700001F01AFBD7E90201FFF74EFC0321034678
:109280005E4A4B4828F06BF997ED060B5C4801F0FD
:109290000BFBD7E9060100220023FEF7D7FF88B0B9
:1092A000584B4246C4E9060163614FF403514048FC
:1092B000C4F810B028F05EF9CD4697ED040B524883
:1092C00001F0F2FAD7E9040100220023FEF7BEFF05
:1092D00088B04E4BC4E9060142464FF4035134486E
:1092E0006361C4F810B028F045F9CD460136052E6B
:1092F0002BD107F1280000F043F9002840F0C1808D
:1093000097ED0A0B424801F0CFFAD7E90A01002293
:109310000023FEF79BFF6C4688B002AA3D4BC2E9D2
:109320000601536104234FF40351214842F8103FD2
:1093300028F020F9A546384B03211B68374A1C4802
:1093400028F00DF9002601F083FB214825F0D2F822
:109350000020002101F07AFC00287FF4FFAE28F005
:109360001CF900283FF4FAAE15F0ACFC2C4A03219E
:109370000F4828F0F6F84FF0FF314FF0FF3001F0C2
:1093800065FC0321274A0A4828F0EBF84FF4B47132
:10939000254802F015F9E1E6000000000000F0BFEA
:1093A0000000000000003A40645601202FD1040064
:1093B00040B7040003000001A03C01200C000000A5
:1093C00063D1040085D1040040C90020A7D1040066
:1093D00088BE00208D560120CCD10400E3D10400CA
:1093E000E9D1040000003A408C560120EED104007F
:1093F00006D2040054D2040070D2040079D20400D2
:1094000092D204009CD20400B2D20400B8D204006C
:10941000E4D20400EAD20400A43C012015D30400E5
:1094200030D3040052D30400B5A701000022404607
:1094300049461C4BFFF732FB00283FF4FDAE1A4BA8
:109440001B78002B3FF4F8AE0022174BEB4688B098
:109450001A7002AC154B0022636140460023494656
:10946000FEF7F4FE22460423C4E906014FF403513B
:1094700042F8103FDCE601210D4A0E4828F071F851
:1094800034E701210C4A0B4828F06BF853E700221F
:1094900040464946034BFFF701FB00283FF4CCAEA2
:1094A000D2E700BF008038408C56012031D2040042
:1094B000CAD2040040B70400FAD204000000000041
:1094C0002DE9F041642416460F461D46804628F0DB
:1094D00066F8B0FBF4F303FB1400FEF7F3FF002281
:1094E000234BFFF793F90022224BFEF7AFFEC8E9AA
:1094F000000128F054F8B0FBF4F303FB1400FEF76E
:10950000E1FF00221A4BFFF781F900221A4BFEF708
:109510009DFEC7E9000128F042F8B0FBF4F303FB1D
:109520001400FEF7CFFF0022114BFFF76FF9002266
:10953000124BFEF78BFEC6E9000128F030F8B0FBB5
:10954000F4F303FB1400FEF7BDFF0022084BFFF706
:109550005DF905A3D3E90023FEF778FEC5E9000114
:109560000020BDE8F08100BF000000000017F140BE
:1095700000004440000036400000494000408F4059
:1095800010B5044628F00BF86423B0FBF3F202FB9D
:109590001300FEF797FF0022074BFFF737F904A3EC
:1095A000D3E90023FEF752FEC4E90001002010BDFC
:1095B0009A99999999990D40000044400000000043
:1095C00001282DE9F041884608D031F017FE162217
:1095D000374B1A504FF0FF30BDE8F0818A68354BA9
:1095E0009A42F2D831F059F805460F4631F055F855
:1095F000314CD8F80030D8F80420A3FB043604FB23
:109600000266D8F808209B1846EBE276EA0B42EA9D
:109610004742A2FB0421FF0B9B1AC0F30E0204FB7E
:109620000711A2FB04244FEAD23242EA444266EB1D
:109630000101981A61F100011BA3D3E90023FFF790
:10964000E3FA06460D461446EFF31187202383F311
:109650001288BFF36F8F194824F0FCFB40B91849FA
:109660008822184828F016FA8821154828F009FAA7
:10967000124824F013FC144B1048C3E900659C60A9
:1096800024F0F6FB40B90E4940F231120D4828F0A3
:1096900001FA40F23111E8E787F31188BFF36F8FC9
:1096A000002099E7AFF3008000CA9A3B0000000059
:1096B0000C000000FFC99A3B00CA9A3B743E01208F
:1096C00016DD0400F6DB0400E0F8002000000000D6
:1096D0002DE9F047054699460024282386B08846A0
:1096E0009246CDE902432BF075FC284602A90DF005
:1096F00071F80746002800F0AF8083793A2B18D123
:10970000042303992846049405932BF0B2FC2846C1
:1097100004A90DF05FF818B190F90030A34205DB01
:109720006FF01505284606B0BDE8F08728462BF0F7
:1097300051FCBB79112B58D0062B58D00020AB68B8
:10974000002B4ED19FED487B022295F824308DED01
:10975000007B02FB03013A23A86904310DF028F8CD
:10976000044600287BD095F82420296A2BF068FE57
:10977000061E31DBA3682046DB68A36295F82C2027
:10978000A96A2BF05DFE061E26DBA06895F82C105A
:109790000C3007F041FFA06850F80C3F236295F8A9
:1097A000241007F039FF95F82C3007F1180184F8E0
:1097B000243095F8243084F82C303B7EFF2B03D1E5
:1097C000A0692AF059FD0146204607F108022CF055
:1097D00080FA70B16FF0040620462BF090FB3546FE
:1097E000A0E71A8A5B681044AAE73020AAE73C2069
:1097F000A8E74146524620462CF0A9F90146002828
:10980000E8D1B8F1040F22D199FA89F342462046F3
:1098100004A904932BF014FE064620462BF08FFB80
:109820000246002ED8D1294620462BF0FEFC0546E4
:109830000028D1D120462BF0CDFB3A2120462CF038
:10984000ABFA20462AF0FDF90028C5DB6AE70422BE
:1098500020462BF0D6FCDFE76FF0040562E76FF0DF
:109860000B055FE7AFF30080008000000000000000
:109870002DE9F0412DED028B1F4605238AB00C46E1
:1098800090460146029340B95F49C0225F4828F0E4
:1098900001F9C0215C4828F0F4F834B95A49C122D2
:1098A0005A4828F0F7F8C121F4E705A812F0A2F809
:1098B00030B15549C622554828F0ECF8C621E9E7F1
:1098C000012101AA05A82DF0B4F9054658B10121DE
:1098D00003464F4A4F4828F049FE28460AB0BDECDF
:1098E000028BBDE8F081019BB3B1042B1DD0052B89
:1098F0000CBF0923FF232370032102AB03AA05A891
:109900002DF0A0F9064690B10346434A0121414893
:1099100028F02CFE3546E0E7DFED407A0023C4ED69
:10992000017A2370C4ED027AD7E70723E3E7029BAD
:10993000002BF1D003A94046FFF7DAF902223146A5
:1099400003A825F071FE2378C2B2092B08D0072B9B
:109950000FD02D498F222D4828F09CF88F2199E7B0
:109960000F2A25D92849A422284828F093F8A421B1
:1099700090E70F2AF6D89FED2A8A2A4B33F8120077
:10998000E0B1FEF7AFFD1EA3D3E90023FEF714FEFE
:10999000FFF7EAF8052360600293042102AB03AAF3
:1099A00005A82DF04FF9064650B11F4A0346ADE712
:1099B0001E4B9FED1F8A33F81200E1E71D48E9E7CF
:1099C00003A93846FFF794F90222314603A825F08F
:1099D0002BFEC2B20F2A08D90B4940F21B120B48CA
:1099E00028F058F840F21B1154E70132D2B207EECA
:1099F000902AF8EEE77A67EE887A93E7AFF3008073
:109A00007B14AE47E17A2440AA0B0500F6DB040084
:109A1000DE0B050060B80400000C0500000000002B
:109A20000AD7A33FFCC904002C0C0500DCC90400C4
:109A30000AD723400AD7A3402DE9F04706460C4633
:109A400092B0002900F0BF800F68002F00F0BB80AB
:109A50008D68D1F8048005F10409C1450AD80422B3
:109A6000AD49781930F0D5FFA8B90423F360A36895
:109A700004331DE06B1D984510D2454580F0A3804E
:109A80007B5D7819222B24D12146304612B0BDE8E7
:109A9000F0471DF047BC6B1D98450ED305229F492A
:109AA000781930F0B6FF30B90123F360A3680533AD
:109AB0000120A36088E0C145DFD8042298497819C5
:109AC00030F0A7FF0028D8D10223F360012373618F
:109AD000CDE72D2B03D0A3F13002092A55D800235E
:109AE0000DF1080C67464FF0010EA8EB0505DFF8F5
:109AF0003882019310F8012B452A3ED82A2A10D922
:109B0000A2F12B01C9B20EFA01F111EA080F01D13D
:109B10002E2A06D101333F2B0CF8012B01D0AB428A
:109B2000E8D1002548336B44384601A903F8405C6E
:109B300025F0BAFADDF804A059EC108BBA4542D0F2
:109B400073A3D3E9002340464946FEF7BBFFB0B9F3
:109B5000002240464946734BFEF7AAFF90B94046A3
:109B60004946FEF7D9FF0823C6E906897061F3600C
:109B7000A368AAEB070A53449AE7652AC9E76FF07E
:109B80000040F0E74FF00040EDE75B2B58D1D4F8F0
:109B90000C90B9F57A7F16D209F10103E3607B5D81
:109BA0005B2B10D101352046A5602EF0CCFAA368BE
:109BB000984506D9FA5C5D2A09D10027C4F80C90B3
:109BC00036E0013BA360002012B0BDE8F08700251D
:109BD0002F46013BA36020692EF061FBA846054695
:109BE000002800F0A5804FB3C8F80000C0F804803A
:109BF000A36820460133A3602EF0A5FA214628462B
:109C0000FFF71AFF002800F0938020462EF09BFA01
:109C1000D4E90123934280F08E802268D35C2C2B00
:109C2000D9D05D2B40F08780E368013BE3607D6025
:109C30002023C6E90273A368013339E70746D7E753
:109C40007B2BC0D1D4F80C90B9F57A7FBBD209F147
:109C50000103E3607B5D7B2BB5D101352046A56018
:109C60002EF071FAA3689845ABD9FA5C7D2A03D12E
:109C70000027C4F80C9047E000252F46A846013B7A
:109C8000A36020692EF00BFBA946054600284FD0A3
:109C9000002F4BD0C9F80000C0F80490A3682046FC
:109CA0000133A3602EF04FFA214628461DF03AFBFF
:109CB00000283DD020462EF046FA2B69C5F81080CA
:109CC0002B62D4E90123934232D22268D25C3A2A31
:109CD0002ED101332046A3602EF035FA21462846C6
:109CE000FFF7AAFE20B320462EF02DFAD4E9012377
:109CF000934220D22268D35C2C2BC2D07D2B1AD168
:109D0000E368013BE3607D60402392E7AFF30080AE
:109D10000000C0FFFFFFDF41E65C0500E5450500F0
:109D2000F92A05000000E0C1E57F00040746B5E719
:109D3000002F3FF448AF38461DF020FF43E700BF37
:109D4000D0B5174B57EC106B18682EF0A8FA0446E4
:109D500070B10823C0E90667C36039460EA3D3E992
:109D600000233046FEF7AEFE20B16FF00043636182
:109D70002046D0BD0022304639460A4BFEF798FEF9
:109D800010B14FF00043F2E730463946FEF7C4FE0B
:109D90006061EDE7AFF300800000C0FFFFFFDF412F
:109DA0000CBC00200000E0C108B502462EF08EFB7E
:109DB00010B192ED060B08BD9FED010BFBE700BF54
:109DC000000000000000F87F2DE9FF47804616469E
:109DD0000F46002900F0A280B1FA81F4341B002E56
:109DE00004F10A04C0F2A280304627F097F9044437
:109DF000304627F099F9A4EB060905466946304636
:109E000027F0BAF9A9EB05036A4640467D33394687
:109E100030F0FBFEA64282460D4600F38380B9F186
:109E20003F0F00F381804FF0FF33A9F12000C9F10B
:109E3000200103FA00F003FA09F223FA01F103FA10
:109E400009F3024328EA03030A4327EA0202134301
:109E50000CBF01200020002D00F08A80B5FA85F3A8
:109E6000E31A40F2FE7203F23E43934200F389800C
:109E7000002B23EAE376D4BF01223246121BA2F262
:109E80003341A2F23447A2F25344C1F1200C2AFA22
:109E900001F325FA04F4C7F1200E05FA0CFC25FAAB
:109EA00001F105FA0EFE43EA0C03A2F2544CA2F2B1
:109EB000544223432AFA07F425FA0CFC44EA0E0420
:109EC00044EA0C04C7F1200C14F0010F54D0A8B1DF
:109ED0004FF0FF3000FA02F200FA07F4144320FAC0
:109EE0000CF2B840144303F001022AEA000A25EA02
:109EF00004054AEA020A5AEA050A3DD0013341F153
:109F00000002C2F3130253EA020138D0184642EAB3
:109F1000065141EC100B04B0BDE8F087B0FA80F4B4
:109F200020345BE7012096E7002094E7C6F10009A2
:109F3000484627F0F9F8241A484627F0F5F8A61BFA
:109F40000546694648462E4427F088F96A46404649
:109F500006F17C03394630F058FE82460D464046F5
:109F6000394627F0F1F881458CBF0020012072E7C7
:109F7000BAFA8AF3203373E7C1F31302C6E7013656
:109F8000C4E79FED010BC6E7000000000000F07F72
:109F900010B5084822F0B4FD14202CF0B7FF044699
:109FA00028B103460121044A044827F0B4FA2046A8
:109FB00010BD00BF00B5002032CA0400F0B9040093
:109FC00010B5064C0648216827F0A1FA20680AF06F
:109FD000DBFCBDE810400020FFF7DABF803C012029
:109FE000020007D210B50020FFF7D2FF084C03464D
:109FF00040B101210748084A27F08DFA2168074837
:10A0000027F085FA21680648BDE8104027F07FBA9E
:10A01000803C0120F0B9040052CA0400020007D2BB
:10A02000010007D270B50F4B18682BF0ACFF002869
:10A0300016DD4FF47A734FF4004503FB00F4002162
:10A0400040F2E7304FF47A720023E4FB0501FEF79B
:10A050002BFEBDE8704002460B46034822F04ABD85
:10A0600070BD00BF803C012000B5002010B51E4B24
:10A070001A78A2B15A7892B1A8B918701B4C5970CD
:10A0800020680AF081FC2EF0D0FF70B1002120681A
:10A090002BF020FFC0B1BDE81040FFF7C3BF28B9C7
:10A0A0001870597001E00029E8D010BD01221A7023
:10A0B0000029F6D05A700D4B18680AF087FCBDE8ED
:10A0C00010400B4822F01CBDFFF762FF034600283A
:10A0D000EBD001210748084A27F01DFA21680748FC
:10A0E000BDE8104027F013BA8A560120803C0120B9
:10A0F00000B50020F0B9040052CA0400020007D2E3
:10A1000003460121014A024827F005BA73CA040038
:10A11000F0B9040008B52CF0FFFE034620B102217F
:10A12000034A044827F0F7F9FFF77CFF002008BD39
:10A130008CCA0400F0B9040010B515202CF0E6FE1E
:10A14000044618B9BDE81040FFF7E4BF03460121FB
:10A15000024A034827F0DFF9204610BD32CA040046
:10A16000F0B9040010B504464FF0FF324FF0FF3352
:10A17000074821F0A1FD074B5A78A24203D021469F
:10A180001878FFF773FFBDE81040014821F04ABE80
:10A190009CBF00208A56012010B5044600680AF0D2
:10A1A000F3FB0121204627F0B8F90021204627F0D3
:10A1B000B4F900230B48236113F072FE034650B13B
:10A1C00001210948094A27F0A6F921680848BDE895
:10A1D000104027F09CB9074811F05EFC2268064B3E
:10A1E0001A6010BD99A20100F0B90400B2CA0400BF
:10A1F000020007D26DA30100803C012010B5044687
:10A200004FF0FF324FF0FF33074821F055FD074B69
:10A210001A78A24203D020465978FFF727FFBDE8FD
:10A220001040014821F0FEBD9CBF00208A5601204D
:10A2300008B5094B186800F097F9034640B10121B1
:10A24000064A074827F067F9BDE80840FFF7B8BE9F
:10A25000BDE80840FFF7D2BF803C0120D4CA04000B
:10A26000F0B9040008B5094B186800F0FDF8034682
:10A2700040B10121064A074827F04DF9BDE80840E2
:10A28000FFF79EBEBDE80840FFF7D2BF803C01202B
:10A29000F0CA0400F0B90400084608B5082937D808
:10A2A000DFE801F03A0522262E2236363A001B4B13
:10A2B000186800F07FF810F13D0F034609D1022124
:10A2C000174A184828F049F9BDE808400120FFF76F
:10A2D00095BF0028F8D0144A0121124827F01BF935
:10A2E000BDE80840FFF76CBEBDE80840FFF7BABF05
:10A2F0000A4B186800F0CEF8034668B10B4AEBE74A
:10A30000064B186800F030F9034628B1084AE3E725
:10A31000BDE80840FFF7F4BE08BD00BF803C012047
:10A320000CCB0400F0B9040031CB04004ACB04008C
:10A33000D4CA0400052808B50ED005D801280BD0D2
:10A3400002280ED0002008E05A28FBD10221054A3D
:10A35000054828F002F9F5E70120BDE80840FFF7BD
:10A3600001BF08BD63CB0400F0B9040003780B2BD8
:10A3700006D1017A022907D1044A054828F0EDB830
:10A3800013B9007AFFF7D6BF704700BF97CB040020
:10A39000F0B9040010B5054C0548216827F0B7F85E
:10A3A0002068BDE810400AF0EFBA00BF803C0120F1
:10A3B000020007D270B500240646A2B0182221463A
:10A3C00008A8CDE90044CDE9024430F0CDFA002ED2
:10A3D0003DD0242221460FA80E9430F0C5FA242245
:10A3E000214619A8189430F0BFFA1C491C4818AB34
:10A3F0000EAA1FF0C3FDA04203DC6FF00D0022B0D7
:10A4000070BD012004AA0EA929F028FA01280546EA
:10A4100002D06FF03C00F2E70EA96846FEF768FC38
:10A420006846FEF76DFC08AA014668462AF01DFA48
:10A430000028E2D023460322304609A909F002FD94
:10A4400040B1084B099A20461A601D71D7E76FF09A
:10A450001500D4E76FF01200D1E700BF0ECC040066
:10A460003BCC0400843C012010B550B1084C23794A
:10A470002BB1214609F030FF30B1002323710020B9
:10A4800010BD6FF01500FBE76FF00D00F8E700BF9F
:10A49000843C012070B500240546A8B02422214642
:10A4A0000BA80A9430F060FA1822214604A830F074
:10A4B0005BFA002D4CD02146242215A8149430F0CC
:10A4C00053FA214624221FA81E9430F04DFA234946
:10A4D00023481EAB14AA1FF051FD041E35DD0220D7
:10A4E0006A4614A929F0BAF901281FD114A90AA8AB
:10A4F000FEF7FEFB0AA8FEF703FC04AA01460AA821
:10A500002AF0B3F908B305AC0023032221462846FC
:10A5100009F006F9F8B194E80F00124E06F10805AB
:10A5200085E80F000123002033760CE0012C08D0D1
:10A5300002206A461EA929F091F9012801D11EA91D
:10A54000D5E76FF03C0028B070BD6FF00D00FAE762
:10A550006FF01500F7E76FF01200F4E70ECC04007F
:10A560003BCC0400843C012010B558B1084C237E3C
:10A5700033B104F1080109F07BFD30B100232376EB
:10A58000002010BD6FF01500FBE76FF00D00F8E73D
:10A59000843C01202DE9F84300AF6D4688B06A463F
:10A5A0004FF40078214B224E5361224BA2F81C80BD
:10A5B00093614FF4E65942F8106F1F4C002349464F
:10A5C000204603F095FA6A461C4BA2F81C805361A2
:10A5D0001B4B936142F8106F00234946204603F05D
:10A5E00087FAAD4641F2336303212046154A27F02E
:10A5F000BDFF782303212046134A27F0B7FF8AB016
:10A600006A46124B5361124B9361124BD361124B4A
:10A610001362124B42F8103F002320464FF423519F
:10A6200003F066FA0020BD46BDE8F88357CC04006D
:10A630000300000164CC040068B804008ACC040064
:10A6400097CC0400A9CC0400B2CC0400BFCC040019
:10A6500005CD04000BCD040000020103040000023C
:10A6600010B5074C03212246064826F07AFF214602
:10A67000BDE810409FED040A042017F003B900BFA5
:10A6800057CD040040B704000000000070B52DED68
:10A69000028B82B004466846B0EE408AF0EE608AD3
:10A6A00013F0D2FD034690B10121154A154826F05A
:10A6B00056FF2FF0F2FF4FF47A75A0FB053205FB31
:10A6C0000122DB0B43EA4243D20BCDE900323022B8
:10A6D0000D4E0E4B3568214602FB053320221846ED
:10A6E00030F0A9F90346013580ED088BDDE9000162
:10A6F0003560C3E90A0102B0BDEC028B70BD00BF3A
:10A7000066CD040040B70400A43C012010D4002012
:10A71000F8B5144603460D4600AF0321104A114810
:10A7200026F01DFFB4B1ADB16E468AB06A460E4B3D
:10A73000C2E90745C2E9053440F2024393840B4B5A
:10A740004FF43351074842F8103F26F013FFB54647
:10A75000BD46F8BD0321064A024826F002FFF7E78E
:10A760008ECD040040B70400A8CD04000500000110
:10A77000C1CD040070B50446154603210A4A0B48B2
:10A780001E4626F0EEFE002C06DB32462946204609
:10A79000BDE87040FFF7BCBF2346BDE87040032111
:10A7A000034A024826F0DBBED8CD040040B70400BF
:10A7B000EFCD04002DE9F04F97B00646D0E9020135
:10A7C00000AF00220023FDF741FD00220023804658
:10A7D0008946D6E90401FDF739FD0446B0690D4606
:10A7E000FDF792FE00220023FDF730FD82467078CF
:10A7F0008B4614F0B3FAC7F804D08EB06A46264BE5
:10A800001063536140F603039386244BC2E9068923
:10A81000C2E90845C2E90AAB44F6C04142F8103F1C
:10A820001F4826F0A7FE7378D7F804D0022B2FD14B
:10A8300003211C4A1A4826F094FE7478022C27D172
:10A840000021382207F1200030F08EF8012387F82C
:10A850002030D6E90223C7E90C23D6E90423C7E94F
:10A860000E23B36907F128003B6400233C73C7E95A
:10A8700006333B613B7513F0E7FC07F1200107F15C
:10A880000C0016F0BFFD18B907F10C0000F0E2FB58
:10A890005C37BD46BDE8F08F15CE0400090000010D
:10A8A00040B7040056CE0400054B1B68632B01D84B
:10A8B000FFF7ECBE0121034A034826F052BE00BF59
:10A8C000A43C012084CE040040B704002DE9F843E5
:10A8D000164600AF00220546884616F005FD0446E0
:10A8E000A8B16D468AB06A46184BD661C2E90538F0
:10A8F000174B4FF421511362164B174842F8103F83
:10A9000026F038FEAD462046BD46BDE8F883284611
:10A91000D7E9082316F04CFD04460028F3D0E94699
:10A920008AB06A460D4BD661C2E90538084B4FF430
:10A9300021511362074B084842F8103F26F01AFED7
:10A940002846CD462CF01BFDDDE700BF9BCE040062
:10A95000000201030400000240B70400D6CE040048
:10A960002DE9F0418CB0044602AF002854D00369B1
:10A970000BB1C3687BB92378012B4DD160680028E7
:10A980004AD02DF0ACFC002849D02061FEF7B8F980
:10A990000223E060237222220021B81D2FF0E4FF81
:10A9A00002233B7132233B7323694FF001083B6163
:10A9B000E3681C4E7B611C4B1C49BB61002387F87C
:10A9C0000580BE6000931A4A09681A483B1D04F0CE
:10A9D00033FC054650B103464146174A174826F056
:10A9E000BEFD28462837BD46BDE8F08123696C4688
:10A9F0008AB002AA12491362124B51615362124982
:10AA0000124BC2E906160D484FF4435142F8103F6D
:10AA100026F0B0FDA546E4E76FF01505E1E76FF01D
:10AA20000B05DEE764CC040075A70100A03C012003
:10AA30006456012040C900201CCF040040B7040028
:10AA400034CF04000002010397CC0400050000028B
:10AA50002DE9F04F002301248FB0032102AF4A4AB1
:10AA60004A48C7E90533C7E90A33FB603B743B62D8
:10AA700087F824303C723C7726F073FD07F108001C
:10AA80002CF03FFC034618BB04464FF000084FF083
:10AA900000093F4DDFF81CA1DFF81CB1DAF80030E7
:10AAA000A3421ED803213B4A384826F05AFD07F13D
:10AAB0000800FFF755FF0346002862D00121364AFF
:10AAC000324826F04CFD07F108002CF058FC04E059
:10AAD0002146324A2D4826F042FD3437BD46BDE8B6
:10AAE000F08FD5E90A232946CDE9002307F11C00A0
:10AAF0005A46FFF7EBFE034638B10121284A2348A6
:10AB000026F02DFD01343035C8E7024695ED080BDF
:10AB1000244907F11C002CF08CFC42460646D5E97E
:10AB200008014B46FDF792FBC7F804D088B002AA93
:10AB30001D4BC2E90601536104234FF4035113482E
:10AB400042F8103F26F016FDD7F804D056B1334630
:10AB5000164A01210D4826F002FD07F11C002CF0D9
:10AB60000EFCCFE707F11C0107F108002CF03CFCBC
:10AB7000034608B10E4AECE707F11C002CF0B0FBCD
:10AB8000C0E7CAF800009EE764CF040040B70400A5
:10AB900010D4002033D0040045D004007ECF040040
:10ABA000A4CF040010D30400C8CF0400E1CF0400F8
:10ABB0000AD00400A43C01201AF10400014B1870D3
:10ABC000704700BF8D560120014B1878704700BFB9
:10ABD0008D560120014601482FF067BE9CC200201F
:10ABE000014601482FF068BE9CC2002010B50C48F9
:10ABF00021F086FF0620FFF7F3FF0820FFF7EAFFAA
:10AC000018F040F9031E09DA13F1090F06D0BDE868
:10AC100010400121034A044827F0A8BC10BD00BF22
:10AC200030B5002080D3040070B7040007B50022BF
:10AC3000CDE90001012104482FF042FE003818BF81
:10AC4000012003B05DF804FB9CC2002007B5002280
:10AC5000CDE90001042104482FF032FE003818BF6E
:10AC6000012003B05DF804FB9CC2002007B5002260
:10AC7000CDE90001082104482FF022FE003818BF5A
:10AC8000012003B05DF804FB9CC2002007B5002240
:10AC9000CDE90001102104482FF012FE003818BF42
:10ACA000012003B05DF804FB9CC2002008B51648E3
:10ACB00021F026FF0620FFF793FF0022134BD3E875
:10ACC000EF1FC3E8E02F0028F9D10321104A1148F3
:10ACD00026F053FC17F0CCFF10F10D0F034608D0FF
:10ACE00010F1800F05D048B101210B4A094827F027
:10ACF0003DFCBDE808400820FFF76CBF0321074A70
:10AD0000044826F03AFCF4E730B50020BC3C0120B2
:10AD10009DD3040070B70400BAD30400FAD3040032
:10AD200008B50321034A044826F027FCBDE8084083
:10AD3000FFF7BCBF23D4040070B7040007B52CF0A4
:10AD40002EFD20B903B05DF804EBFFF7AFBF002282
:10AD500000230821CDE9002305482FF0B1FD20B9DB
:10AD600003B05DF804EBFFF741BF03B05DF804FBEF
:10AD70009CC2002008B50321054A064826F0FDFBC9
:10AD80000120FFF72DFFBDE80840FFF7D7BF00BF48
:10AD900074D4040070B7040008B50D4B99420ED16D
:10ADA00003210C4A0C4826F0E8FB4FF40040002138
:10ADB00022F060FEBDE808400120FFF70BBF074B03
:10ADC000994203D1BDE80840FFF7D4BF08BD00BFDA
:10ADD000010014F18FD4040070B70400020014F1D4
:10ADE00008B50321034A044826F0C7FBBDE8084024
:10ADF000FFF7A4BFACD4040070B70400F8B502207C
:10AE000026F0DCFB03215C4A5C4826F0B6FB0120FF
:10AE10000DF0C6F803215A4A584826F0AEFB5948AF
:10AE2000594B4360594B03610AF096FA58482CF08D
:10AE3000A6F800F0E9FC034670B1564A01214F48DC
:10AE400027F094FB4D480121534A26F096FBBDE8BC
:10AE5000F840032026F0B2BB17F0F2FE034608B11B
:10AE60004E4AEBE719F020FD10F1860F03464ED154
:10AE70004B4A0221414826F080FB01200DF07EF86C
:10AE80004FF0FF304FF0FF3122F0F4FD454E3B4CC8
:10AE900032460321204626F070FB022026F08EFB6E
:10AEA0004FF0FF314FF0FF30FFF7C0FE0321204687
:10AEB0003D4A26F062FB03213C4A204626F05DFB1A
:10AEC0000820FFF78DFE3A4818F088F8394D034600
:10AED00050BB0321384A204626F04FFB26F077FB73
:10AEE0000220FFF777FE354821F00AFE1E230420DA
:10AEF0002B60FFF76FFE4FF0FF314FF0FF30FFF791
:10AF0000B5FE032120462E4A26F037FB1AE010F149
:10AF10006D0F01D12B4AACE70028B7D001212A4A96
:10AF2000164827F023FBB1E710F10B0F05D10221E2
:10AF30002046264A26F021FBDDE701212046244A4F
:10AF400027F014FB2B6803212046224A27F00EFB32
:10AF50004FF47A734FF4004740F2E73000212D6838
:10AF60004FF47A725D430023E5FB0701FDF79CFE79
:10AF700022F080FD8CE700BFCAD4040070B7040043
:10AF8000E3D40400A83C012099AD0100030014F1B2
:10AF90007F15040003D504001FD50400A7D10400C9
:10AFA00045D50400EFD504000CD604001DD60400DE
:10AFB00005CD04002CB7002035D6040030B50020A4
:10AFC00095D6040089D50400B2D504004CD60400FF
:10AFD0006BD60400B1D60400F7B50F46044668B33B
:10AFE0000190184B5B6A192B08D117480221174AA8
:10AFF00027F0B3FA6FF01B0003B0F0BD51B114207D
:10B000002FF068FC0646B0B105460FCC0FC523688B
:10B0100001962B60002200230A4801A920F010FDB0
:10B020000028E9D001210A4A074827F096FA17B10B
:10B0300001982FF048FC6FF00B00DDE76FF0150072
:10B04000DAE700BFB4C0002078B80400DCD6040002
:10B05000F2D6040038B501210546FFF7BDFF0446CE
:10B0600048B107480121074A27F077FA28462CF013
:10B0700086F9204638BD28462CF032F9F9E700BFA2
:10B0800078B804002AD7040083B5284E284D294FEC
:10B090004FF0FF324FF0FF33304601A920F06CFD36
:10B0A000044630B101210346234A244827F05EFAC2
:10B0B000EEE74FF0FF314FF0FF30FFF7C7FD2146BD
:10B0C000019818F02FFF031E22DA01211B483A468F
:10B0D00027F04CFA21460198FFF77EFF58B1012175
:10B0E000174A164827F039FA019C20462CF047F9F8
:10B0F00020462FF0E8FB2B680133052B2B60C7DDC2
:10B10000FFF7D4FD00214FF4A02022F0B3FCBFE7ED
:10B11000DDF8048040462CF032F940462FF0D3FB96
:10B12000042026F050FA2C60B2E700BFB4C0002023
:10B13000C03C012085D7040046D7040078B804003D
:10B140000BD8040070B50E4615461C46002814BFE7
:10B150006422002200210F4826F02BFA002E14BF93
:10B160006422002201210B4826F023FA002D14BF8F
:10B17000642200220221074826F01BFA002C18BF87
:10B180006422BDE8704008BF00220321014826F078
:10B1900010BA00BFA8B3040010B40E4BD3E8EF2FD1
:10B1A000C3E8E41F002CF9D10B4BD3E8EF2FC3E821
:10B1B000E10F0029F9D10022084BD3E8EF1FC3E8C3
:10B1C000E02F0028F9D1022105485DF8044B2FF04B
:10B1D0006CBB00BFC83C012030B70020C43C01203C
:10B1E000ACC200202DE9F7434D482FF0D9F838B90B
:10B1F00001214C4A4C4803B0BDE8F04327F0ADB9FB
:10B2000002214A482FF051FBDFF82081484E4FF0D1
:10B21000FF324FF0FF330221CDE9002340460022E8
:10B220002FF04EFBDFF81491424FD9E8AF5FD7E81B
:10B23000EF3F5A1EC7E8E12F0029F8D1002B67D055
:10B24000002D65D0D6E8EF4F631CC6E8E23F002A28
:10B25000F8D1394823F04EF94FF0FF324FF0FF3369
:10B26000EDB2CDE90023344840F6CD420023013D44
:10B2700023F0E2F8032D49D8DFE805F002132E3A57
:10B28000282294FBF2F302FB13430022132BCCBFC2
:10B29000012300231146D4BF01201046FFF752FFBF
:10B2A000C3E7634203F0030304F0030158BF5942AC
:10B2B00014F0030FA1F10204A1F103050CBF01205A
:10B2C0000020634201F1FF3C63416A426A41DCF1C4
:10B2D000000141EB0C01E1E7142294FBF2F302FBC5
:10B2E00013430E2BCCBF002301231A4619460BE053
:10B2F0000C2394FBF3F203FB1244022CCDBF01227A
:10B3000000220123002311461846C7E70023ECE77B
:10B31000002140462FF0CCFA012026F04FF976E7C5
:10B32000A8B304005CD8040028B80400ACC2002014
:10B33000C43C012030B7002050BE0020C83C012092
:10B34000F8B5194A051E6E4600AF8AB0174B0EBFFE
:10B350000A2413461E246A46D36140F2013314497D
:10B360001384144BC2E9051442F8103F00234FF434
:10B370001351114802F0BCFBB5460DB12BF0B1FDE5
:10B3800002F074FA4FF47A7340F2E7305C434FF402
:10B390007A72002300EBC4300021FDF785FC22F017
:10B3A00069FB012001F022FC98D804004DDA04006A
:10B3B000A6D804000400000140BA040008B5022128
:10B3C000034A044827F0C9F86FF0080008BD00BF21
:10B3D000C7D8040050BA040013B50B490DF1070299
:10B3E0002BF027FF044630B99DF80700FFF7E6FB76
:10B3F000204602B010BD233403D1FFF7DFFF04461F
:10B40000F6E76FF02204F3E7E3D8040010B594B038
:10B41000344A3548032127F0A0F8002301220FA861
:10B42000CDE90333CDE90833CDE90D33CDE912334E
:10B430008DF8002001938DF808308DF814200693C4
:10B440008DF81C308DF828200B938DF830308DF856
:10B450003C2010938DF844302BF028FFB8B16FF0EA
:10B460000B0468462BF08BFF05A82BF088FF0AA879
:10B470002BF085FF0FA82BF082FF2CB10121234672
:10B480001A4A194827F072F8204614B010BD0AA8CD
:10B490002BF00CFF0028E2D105A82BF007FF0028B5
:10B4A000DDD168462BF002FF04460028D7D1FFF714
:10B4B0008BFB234602460E490FA82CF045F80446A4
:10B4C0000028CED103460B4968460FAA2CF05CF841
:10B4D00004460028C5D10146684600F0AFF804468E
:10B4E000BFE700BFF1D8040050BA040010D904002F
:10B4F000E3D80400EE220500F0B5054687B0002829
:10B5000041D00778012F04D06FF02204204607B005
:10B51000F0BD4368002BF7D000261C4901AACDE9F5
:10B5200004668DF8047002968DF80C602BF095FE81
:10B530001330E9D001A8FFF74FFF10F1090F0446BF
:10B5400013D101A82BF01BFF01A82BF0AFFEFFF7D2
:10B550003BFB334602460E4901A82BF0F5FF20B114
:10B560000C4A39460C4826F0F8FF002328460749C4
:10B5700001AA2CF009F80028C8D001A82BF0FFFE82
:10B580006FF00B04C2E76FF01504BFE7EE22050071
:10B59000E3D8040038D9040050BA04000278012A24
:10B5A00002D0022A04D07047044B1B682BB1184705
:10B5B0004378022B01D0FFF713BC7047CC3C01202D
:10B5C00070B58EB004460E462BF0D7FC20B9022190
:10B5D000144A154826F0C1FF144B15481C6013F09F
:10B5E00003FB044640B101210346124A0E4826F0EF
:10B5F000BDFF20460EB070BD01256A46294601A850
:10B600008DF8005013F088FB01A88DF83450ADF888
:10B610002C6013F0FDFA04460028EAD0064A0346DF
:10B620002946E3E766D9040040B80400CC3C012079
:10B630009DB50100A2D90400D6D9040070B5054615
:10B640000E462BF0C7FF044628462BF098FE64B93F
:10B6500028693EB118F066FF044628462BF06BFEC1
:10B66000204670BD18F058FFF6E701212346024A34
:10B67000024826F07BFFF3E70FDA040058BA040013
:10B6800030B50025ADF5097D4FF4FE72294609A8B5
:10B6900008952FF069F94FF4007308ACCDE9003537
:10B6A00002940321334A344826F057FF20463223C0
:10B6B0000122694618F084FE10F10D0F044606D0F1
:10B6C00048B1012103462D4A2B4826F04FFF204662
:10B6D0000DF5097D30BD009B01936BB96FF00A0435
:10B6E000274D2B78002BF2D1FFF790FE044600285F
:10B6F0003DD101232B70EAE70146142203A82FF065
:10B7000033F903A901A818F013FF031E07DA01217A
:10B710001C4A194826F02AFF6FF00404E0E7DDD048
:10B7200003A8FFF7E9FE10F1090F044614D1032125
:10B73000154A114826F011FF012103A8FFF77EFFEB
:10B7400004460028CCD001210346104A0A4826F0BE
:10B750000DFF6FF00D04C3E710F10C0F05D10121AF
:10B760000B4A054826F0F9FEBAE72946E5E76FF0EF
:10B770000404ACE734DA040058BA040051DA0400D7
:10B780008E56012074DA04009CDA0400CFDA04003B
:10B79000B3DA040038B5124C124D00200021FFF737
:10B7A00055FA28B94FF0FF304FF0FF31FFF74EFA4E
:10B7B000FFF766FF10F10B0F0BD178232246032110
:10B7C000284626F0D3FE4FF47010002122F052F9E3
:10B7D000E3E7743001D1FFF703FB4FF4A020F4E757
:10B7E000FBDA040058BA040008B505480321054AED
:10B7F00026F0B3FEBDE808400020FFF7A1BD00BF62
:10B8000010B8040033DB040010B50A4816F09CFDA4
:10B81000044658B9074816F0D9FD031E08DB072B6C
:10B8200004D00321044A054826F0A0FE204610BD9E
:10B830001C46FBE760B5002058DB040010B804008C
:10B8400070B5114C114D124E4FF0FF314FF0FF30DB
:10B85000FFF7FCF9204616F0E1FD10F10B0F0BD1BC
:10B8600078232A460321304626F080FE4FF47010DC
:10B87000002122F0FFF8E7E7023001D1FFF7B0FA2C
:10B880004FF4A020F4E700BF60B500207CDB04008B
:10B8900010B8040010B5094C0A44914200D110BD03
:10B8A00011F8013B58400309E35C0001C0B243407A
:10B8B0001809205C1B01DBB25840EEE7C3DB040033
:10B8C000F0B5002421F00302184D194E194F02441F
:10B8D000904218D1002301F00300104482421FD18E
:10B8E00012484C405843124B4FEA70405843124B99
:10B8F000604080EA10405843104B80EA5030584373
:10B9000080EA1040F0BD50F8043B6B434FEA7343AC
:10B91000734363404FEAF34303EB8303DC19D7E738
:10B9200012F8015B45EA0323D8E700BF512D9ECCF6
:10B930009335871B646B54E66BCAEB8535AEB2C298
:10B9400070B589B306680122304625F081FE0146B4
:10B950000446304625F044FEC30708D41349AF22FD
:10B96000134826F097F8AF21104826F08AF82146B0
:10B97000304625F04BFE251829460022304625F09A
:10B980002FFE2D1AAC4206D00849B722084826F0EF
:10B9900081F8B721E8E72146304625F03DFE2146F3
:10B9A000BDE8704025F079BF70BD00BFD3DB040057
:10B9B000F6DB04002DE9F8430F4606681446B2682A
:10B9C0004B1EB2F5004F34BF042108213B4010D07C
:10B9D000C7F1000909EA0709494503F1FF3028BF0B
:10B9E000494618420CD11F46BCB900252846BDE87F
:10B9F000F8838F420FD82146BDE8F84325F08FBF6A
:10BA00002C492D484FF4A27226F044F84FF4A2714D
:10BA1000284826F036F89946E6E7B2EBD40FE4D989
:10BA2000E319591A104625F01DFE0146304625F04F
:10BA300073FE80460028D8D0B36809EBC005B3F583
:10BA4000004F34BF042308231D4435447B1E1D448E
:10BA5000B5FBF7F57D43A5EB09052946304625F0F2
:10BA6000F7FD2C44073424F00704A41B8045074647
:10BA70004FEAE40408D202464146304625F086FEED
:10BA80004146304625F0C7FE3946304625F0BEFD1A
:10BA90003844844208D239463046224625F076FEA4
:10BAA0002146304625F0B7FE01223946304625F0C2
:10BAB000B3FD9BE7D3DB0400F6DB04002DE9F74F71
:10BAC00091461F460E460468009031B93A464946F1
:10BAD00003B0BDE8F04FFFF76DBF3FB9FFF730FF90
:10BAE0004FF00008404603B0BDE8F08F02F1FF3A86
:10BAF0001AEA020F0AD04B494B4840F2891225F04E
:10BB0000C9FF40F28911474825F0BBFFD4F808B0BF
:10BB1000BBEBD70FE4D9204625F09AFD0146054638
:10BB2000204625F073FDBBF5004F2CBF08220422F0
:10BB300002EBC5022244B31A8046F9185846019315
:10BB400025F090FD8346B9F1000F02D016EA0A0FE6
:10BB500044D1C3450ED00FD2AB445A4629462046A5
:10BB600025F014FE29460122204625F055FD5946B0
:10BB700025F093FEB046B5E705EB080A01225146D1
:10BB8000204625F02DFDC30728D45146204625F038
:10BB90003DFD4044584521D35146204625F0A5FDA2
:10BBA0005146204625F032FDABEB080840450AD946
:10BBB00005EB0B07514620463A4625F0E7FD39468E
:10BBC000204625F028FE52462946204625F005FE4F
:10BBD00001222946204625F01FFDCBE73A4649467B
:10BBE0000098FFF7E7FE804600283FF479AF29462A
:10BBF000204625F00BFDA368019AB3F5004F34BF32
:10BC000004230823C2EBC002D21ABA42314628BF2D
:10BC10003A4640462EF081FE31460098FFF790FEEE
:10BC200060E700BFD3DB0400F6DB0400B2F5802F31
:10BC30002DE9F0410CD2042A20D83D494FF4F97285
:10BC40003C4825F027FF4FF4F971394825F019FFDA
:10BC50000823D21ACC1D114424F0070421F0070157
:10BC6000091B17294FEAD1060AD8314940F2FB12C5
:10BC7000304825F00FFF40F2FB11E6E70423E8E728
:10BC80000027046031463046A660E76025F0F3FCEB
:10BC90000121421D8046304625F0E4FC9200D51D6E
:10BCA000ED082844B0423AD8B8F1FF3F3946A2F136
:10BCB000100204F11000B8BF3A462EF055FE2A4695
:10BCC0003946204625F0C0FC3B463A4639462046D8
:10BCD00025F091FCA6EB050820463946012225F007
:10BCE0009BFC4246294625F0AFFC2B463A462946A6
:10BCF000204625F080FC3146204625F0A5FC434631
:10BD00003A463146204625F076FC3146204601224F
:10BD100025F082FC2946BDE8F04125F07CBD0449B0
:10BD20004FF40372034825F0B5FE4FF403718CE71E
:10BD3000D3DB0400F6DB04002DE9F04F91B0009353
:10BD400002F004030293C2F3C203013384070546E1
:10BD50000E46DDF868900392059340F0E081041DE3
:10BD600030B1072909D86FF01B0011B0BDE8F08F82
:10BD700001F00706341DC6F10806009B4FF00008CD
:10BD80004FF0040A591E4FF0FF3347460193C34654
:10BD90005346CDF810800DB100982060059800281A
:10BDA00000F3D7809B48009A824203D39A4882428C
:10BDB000C0F0CF80039AA4EB050E92074FEA9E00D5
:10BDC00040F1DE804FF0000CCCE07A285DD84B28A3
:10BDD0000ED8472859D829282DD8252852D054D8EC
:10BDE00020287AD02338D0F1000B4BEB000B74E005
:10BDF0004C382E2849D8DFE800F0704848484848B9
:10BE00004848484848484B4848484848484848599E
:10BE1000484B4B595959704B6D487048184B18484E
:10BE20004883804B48484B48800000204FF0000B6F
:10BE30004FF0040A38E001222A38C0B202FA00F0BA
:10BE400010EA0E0F49D110F0625C2FD110EA020BFC
:10BE500043D06046013C5444B4FBFAF40AFB04F4BA
:10BE6000002D60D0A3EB050CA444B4453FF67BAF96
:10BE7000002867D1042B48D159F8043B23600423E0
:10BE800004342AE0019A013A01924FF0000B24E0B9
:10BE900011F8010C6C2835D1002011F8023C8346C2
:10BEA0006C2BC5D14FF0080A5346D3E709F10709B7
:10BEB00029F00709073424F00704F9E802AB35B18B
:10BEC00006982044B0423FF64EAFC4E900AB4FF0B5
:10BED000000B08344FF0080A534611F8010F0028F0
:10BEE00000F0A980BBF1000F7FF46FAF2528F4D1DB
:10BEF0004FF0010B019B013301934FF0040AEBE774
:10BF0000584693E700208346A4E7082B40F08A8038
:10BF100009F1070929F00709B9EC027B84ED007BE0
:10BF200008230834D9E768B9042B02D109F10409C0
:10BF3000A5E7082B76D109F1070929F0070909F1CE
:10BF40000809EDE705980138059059F8040B0090B1
:10BF500021E7039A900744D54FF0010CA4EB050E9E
:10BF60004FEA9E00BEF5007F1BD32C494FF41F7291
:10BF70002B4825F08FFD4FF41F71284825F081FDD7
:10BF80000F2F10D8002D38D007F140020DEB020C16
:10BF9000019A0CF8200C0CF8102C04980130049035
:10BFA0001EE00F2F08D91D4940F281221C4825F0C0
:10BFB00071FD40F28121E0E7D5B107F140020DEBC0
:10BFC000020E019AC0B20EF8200C0EF8102CBCF133
:10BFD000000FE2D060F07F000EF8200C08F101089D
:10BFE0000137C5F108024FF6DA7E0434069274E791
:10BFF000BCF1000F01D00136F2E7029A0236002AA6
:10C00000EED10098CDE90631FCF77AFEDDE9063184
:10C010000644E5E710B204006C6305000EDC040082
:10C02000F6DB04003F4940F2C6223F4825F032FDCE
:10C0300040F2C621A1E7631BB3F5806F08D33949ED
:10C0400040F2D222384825F025FD40F2D22194E773
:10C050001DB9A6F10804E01887E6029A9B0828603B
:10C060002B709DF81030C2B1EB7085F80280B8F1EA
:10C07000000F05D0002208A8C5F1010C97420ED18F
:10C080004FF0000AC5F101030DF1200901930DF1F4
:10C09000300B574512D1601B67E66B70E5E710F86F
:10C0A000013B190608D504EB0C0EB64503F07F03DF
:10C0B0003FF659AE04F8013B0132DFE7B8F1000F5B
:10C0C00003D099F90020002A17DB029BD3B11AF89C
:10C0D0000B2004F8012B0022019B98182044B04249
:10C0E0003FF641AE99F80000009904F8010B204694
:10C0F00003922EF012FC039A14440AF1010A09F18A
:10C100000109C6E799F8002055F822300093029BF8
:10C11000009845F82230FCF7F3FD421CDCE76FF095
:10C120000D0022E60EDC0400F6DB04002DE9F04FE2
:10C1300097B000AF89460446D7F880B0FA623B62F8
:10C1400050B9A8494FF46672A74825F0A3FC4FF4F4
:10C150006671A44825F095FCCBF3C00390F802A0CB
:10C16000BB6141B9457800780AEB800020444D4519
:10C1700017D8A0EB0409E378FB61BAF1000F02D0F5
:10C180001BF0010F16D1FB6953BBFB6A1BB149467B
:10C1900020463A6A98474D4628465C37BD46BDE87A
:10C1A000F08F461C3046FCF7ABFD0130304409F1FE
:10C1B0000109DCE7626823787A62FA6A990079619A
:10C1C00004EB8301002A40F002810E464FF0000884
:10C1D0004D4601EB0A094E454CD101EB0A0610E031
:10C1E0001BF0020FD1D023789A007A61626804EBC9
:10C1F00083017A62FA6A002A77D14D46904601EBB4
:10C200000A061BF0050F0CBF02230123FB62FB692A
:10C2100006EB430A0BF00203BB625645BCD016F88E
:10C22000021B16F8013C54F82390704B994502D339
:10C230006F4B994536D3BB69002B40D0786A25F007
:10C24000D1FB00283BD0E9468AB06A46694B53616E
:10C250007B6AC2E906314FF400731384664B42F8DF
:10C26000103F00234FF41251644801F041FC023D9D
:10C27000CD46D2E716F8013BF96254F82300FCF7EB
:10C280003FFDD7F88430F96A01304BB1D7F88830D8
:10C2900098453EBFD7F8843023F8180008F101080C
:10C2A000054498E7BB6923B1786A25F09BFB002819
:10C2B000C9D11BF0010F05D1FB6AED1AADE7BB6ACE
:10C2C000002BAAD04846FCF71BFDD7F8843053B1A9
:10C2D000D7F8883098453FBFD7F88420431C22F810
:10C2E000183008F10108054497E7BAF1000F74D03F
:10C2F0001BF0040674D0D046002607F148005246D1
:10C300003B61B9622EF009FBB96A3B6901EB0A0295
:10C31000BA62FA69F9695200FA60BA6A02EB41023C
:10C320003A610BF00202BA60BA6A39698A4267D18F
:10C3300062781BF0020F18BF00217A6208BF4FEA33
:10C340005801B2181BF0010FD2B240F0DE801BF092
:10C35000040F14BF40460020BB616270A070E17002
:10C3600020463A6A7969FB6A9847051EFFF614AFC2
:10C37000BB69414623707B6A3A6A6370FB6984F843
:10C3800002A0E37007F14800FB6A9847B0F100088B
:10C39000C0F2E9807B69A9EB0A01C91AFB683A6A15
:10C3A000C91AD7E90A0398470028C0F2DE804FF087
:10C3B000000BA84408EB000507F1380AB345C0F0AC
:10C3C000A68000213A6A0846FB6A9847E4E656468A
:10C3D0004FF0000807F1380091E75646D04695E740
:10C3E000B04693E70EDC0400F6DB040010B2040054
:10C3F0006C6305003CDC04000400000160B704002D
:10C40000BA6A12F8021B12F8015CBA6254F82500ED
:10C41000574A904202D3574A904217D3BA693AB169
:10C42000786A7B6025F0DEFA7B6800287FF47CAFB9
:10C43000BA68002A49D00F2E3DD94F4940F24C42EC
:10C440004E4825F027FB40F24C4182E6BA693AB1EA
:10C45000786A7B6025F0C6FA7B6800287FF464AFB9
:10C460001BF0010F0AD00F2E25D9434940F242425A
:10C47000424825F00FFB40F242416AE61BF0040FF0
:10C480003FF452AFB8F10F0F08D93B4940F2454293
:10C490003A4825F0FFFA40F245415AE608F12802F1
:10C4A00007F1300008F1010102EB000808F8105C08
:10C4B0005FFA81F838E706F1280207F13000711CB5
:10C4C000161806F8205CCEB22EE7B8F10F0F08D987
:10C4D000294940F24F42294825F0DCFA40F24F4109
:10C4E00037E608F1280207F1300C08F10100944406
:10C4F00007F1580208F1020852FA80F00CF8101CFB
:10C500005FFA88F800F8105C0EE7002024E71BF8BB
:10C510000A3054F8239087F83730D7F88430FBB1CD
:10C5200033F81B8001213A6AFB6A07F1370098470C
:10C5300000281ADB0544B8F1000F06D14846FCF785
:10C54000DFFB00F101081FFA88F8414648463A6AC5
:10C55000FB6A9847002808DB05440BF1010B2DE727
:10C56000D7F88480DEE7454616E6054614E600BFA8
:10C5700010B204006C6305000EDC0400F6DB04005E
:10C58000014B1860704700BF34B7002080B50546E6
:10C590000E461746984621F09BFA03462EF02EFED3
:10C5A0000446DFF81890424649F8003039463046D4
:10C5B000A84754F8090004F0C9F800BF08000000BB
:10C5C00000B516222EF01AFE024B1A504FF0FF3023
:10C5D0005DF804FB0C0000000F2800B508D92EF010
:10C5E0000DFE0922074B1A504FF0FF305DF804FB97
:10C5F0003022054B02FB0033D3E8AF3F002BEED0D7
:10C600000020F3E70C00000040B700203023434334
:10C6100030B50D4908330B44D3E8AF2F92B1541E07
:10C62000D3E8EF5F954204D1C3E8EC4FBCF1000FB3
:10C63000F6D1F1D1012A05D13023584300230A183D
:10C640000B50536030BD00BF38B7002038B50446EA
:10C650001546FFF7C1FF00280DDB30236343074A6F
:10C66000D0184068086015B10C3313442B60302398
:10C670005C43105938BD0020FCE700BF38B70020EC
:10C6800070B500254FF0FF334FF0FF32174825F00B
:10C69000F2F9174BD3E8AF2F82B10135102D03F11A
:10C6A0003003F7D12EF0AAFD17224FF0FF35114BC2
:10C6B0001A500E4825F0E1F9284670BD30246C432D
:10C6C000D3E8EF0F0130C3E8E10F0029F8D10A4E9B
:10C6D000331932515A6004F10C0030442DF0BDFE84
:10C6E00004F1200030442DF069FFE2E788BF00200C
:10C6F00040B700200C00000038B7002030B40446DA
:10C70000302510466C43084A151911516860EB62D8
:10C7100040B1C36833B10C34131940F2051230BC78
:10C7200025F098B930BC704738B70020F8B50546F9
:10C73000FFF752FF00281ADB30246C430D4F04F141
:10C740000C063E444FF0FF324FF0FF33304625F0E9
:10C7500092F93B195B6838599B6898470446304604
:10C7600025F08BF92846FFF751FF2046F8BD4FF022
:10C77000FF34FAE738B7002038B50D4604462022CA
:10C7800000212EF0F1F80022EB68E361AB68A361B1
:10C790002B6823626B68A26263622A6923B1591E07
:10C7A000194208BF42F0010222610122002104F176
:10C7B0002C002DF08FFE40B1044905482F2225F0B2
:10C7C00069F92F21014825F05CF938BDF0DC04003F
:10C7D000F6DB04002DE9F04F002689B0CDE90123F6
:10C7E000436A04468B428846B2460596079652D362
:10C7F0004FF0200B00F11407EFF3118300938BF33C
:10C800001288BFF36F8F3846DDF8009021F022FBCD
:10C8100040B946498822464825F03CF988214348DA
:10C8200025F02FF9384621F039FB079A2AB1314615
:10C83000204625F010FA0023079306A9204625F08C
:10C8400036F90699054641452ED32268236A2046CB
:10C8500013F8221003EB820A21F0030103F82210DF
:10C860002168424625F047F9E3682060984216D0D7
:10C870000025384621F0FCFA40B389F31188BFF354
:10C880006F8F059929B1A2690AB12046904700230C
:10C890000593002DB0D1504609B0BDE8F08F236953
:10C8A00043F008032361E3E718B1204625F03DF982
:10C8B000DFE7DDE9013213432FD003912DF082FE33
:10C8C000039950BB384621F0D3FA40B9174940F2DA
:10C8D0003112174825F0DEF840F231119FE7009B36
:10C8E00083F31188BFF36F8F04F12C00DDE901237E
:10C8F0001FF05EFC0546EFF311898BF31288BFF33E
:10C900006F8F384621F0A6FA002882D0B5FA85F557
:10C91000384621F0C3FA6D09ABE7204607AB05AAFC
:10C92000266825F021F90546A3E700BF16DD0400BF
:10C93000F6DB04002DE9F0410446C36908460D46C4
:10C94000984704F114060746EFF31188202383F378
:10C950001288BFF36F8F304621F07CFA40B9164938
:10C960008822164825F096F88821134825F089F882
:10C97000304621F093FA2B783A4643F001032B70AE
:10C980006168204625F0B7F86060204625F07EF902
:10C99000304621F06DFA40B9074940F2311207489C
:10C9A00025F078F840F23111DFE788F31188BFF302
:10C9B0006F8FBDE8F08100BF16DD0400F6DB0400D8
:10C9C0002DE9F843044600F11407EFF31188202302
:10C9D00083F31288BFF36F8F384621F03BFA054688
:10C9E00040B930498822304825F054F888212D4834
:10C9F00025F047F8384621F051FA2369A26813F070
:10CA0000080F02D163689A4200D9636A9B1A002B0F
:10CA10003AD0216A11F8223001EB820913F00300A9
:10CA200035D0022803D151F82260B60805D1D807C5
:10CA30001AD44846E36998470646A168324620461C
:10CA400025F059F83146A060204625F062F83846B6
:10CA500021F00EFAE8B9134940F23112124825F0DC
:10CA600019F840F23111C2E743F0020301F8223015
:10CA7000E3694846A568984729460246204625F0BE
:10CA80003AF80025A060E2E71D46A946DFE7054623
:10CA9000FBE788F31188BFF36F8F002D95D14846CF
:10CAA000BDE8F88316DD0400F6DB04002DE9F04153
:10CAB0000446C36908460D46984704F11407064624
:10CAC000EFF31188202383F31288BFF36F8F38466A
:10CAD00021F0C0F940B923498822234824F0DAFF25
:10CAE0008821204824F0CDFF384621F0D7F92B7853
:10CAF0006FF300032B7023699B0705D5E268236A57
:10CB000003EB82039D421DD12B786FF341032B7001
:10CB1000D4E90231994204D13246204624F0EBFF99
:10CB2000A0603146204624F0F4FF384621F0A0F9F9
:10CB300068B90C4940F231120B4824F0ABFF40F2C7
:10CB40003111CEE72B6866F39F032B60EDE788F386
:10CB50001188BFF36F8F04F12C00BDE8F0411FF086
:10CB6000EDBA00BF16DD0400F6DB040070B5044624
:10CB700000F11405EFF31186202383F31288BFF32D
:10CB80006F8F284621F066F940B916498822164869
:10CB900024F080FF8821134824F073FF284621F0F9
:10CBA0007DF92369A06813F0080F02D163689842E9
:10CBB0000ED9646A241A284621F05AF950B9094955
:10CBC00040F23112084824F065FF40F23111E2E7EB
:10CBD0001C1AF0E786F31188BFF36F8F201E18BF71
:10CBE000012070BD16DD0400F6DB0400044608B524
:10CBF000EFF31183202383F31288BFF36F8F0DF0BF
:10CC000021F9204603F058FD024824F014FF26F0D5
:10CC100011FDFCE743DD04002DE9F04300273C460D
:10CC20003D46DDF81CE0DFF8288175451FD3E4BBE5
:10CC300000201460BDE8F0830136764533D013F848
:10CC400006C0BCF1200FF7D0AEEB0609B9F1010F19
:10CC5000A6EB05050DD0BCF10D0F0AD103EB0609BB
:10CC600099F80190B9F10A0F6ED1751CDDE72E46D7
:10CC7000E3E7BCF10A0FF8D02DB9BCF13D0F05D1A7
:10CC80000137022F0DD96FF01500D3E71CF0800F8C
:10CC9000F9D118F80C507F2DF5D03F2D01D8002F79
:10CCA000F1D10134E1E73546C1E74FF0060C04F05D
:10CCB0000706E4080CFB06F60CFB04F40736E41B3D
:10CCC00004EBD60470B18C420CD800270146032631
:10CCD0003C46DFF87CE0DFF87C801D449D4205D1B6
:10CCE0000C1AA5E76FF00B001460A3E713F8019B83
:10CCF000A9F10A0C5FFA8CFCBCF1160F04D848FAB3
:10CD00000CFC1CF0010FE9D01EF809C00134BCF185
:10CD1000400F08BF013E0CF03F0C042C4CEA871773
:10CD2000DCD17EB13C0C012E0C7002D1013100240B
:10CD3000D4E7022E4FEA17244C7016BF8F700231D1
:10CD40000331F4E73446C9E7002DA2D09BE700BFCA
:10CD50006CDD0400F6FFBFFF2DE9F84340F26C7371
:10CD600044690569E1170135E41841F10001022D1C
:10CD70008CBF00230123E41AC76861F10001002978
:10CD8000064607F1FF374EDA6FF4C7704FF4C872EA
:10CD90000023201861F10001FBF736FF244B4FF010
:10CDA0003C0E03FB0044D6E900834FEAE37C99463E
:10CDB0006346022D02468CBF6FF002000920B66860
:10CDC0000544C6FB0E93A9FB0EC60EFB036640F29C
:10CDD0006D1E9920A3080EFB04333B446427454392
:10CDE0000520B4FBF7F40235B5FBF0F51B1B114C25
:10CDF0001CEB080CA2FB042004FB01012B4446EBB6
:10CE0000E87698180C4A41F1000380180B4A63F148
:10CE10000003A0FB020102FB031110EB0C0041EB2D
:10CE20000601BDE8F8834FF4C87200232046B3E73B
:10CE300070FEFFFFB13A02009405F5FF805101003A
:10CE40002DE9F84F0446A38B08461907164612D45D
:10CE5000022803F0070162D1204624F074FF88B154
:10CE60000138042800F22581DFE810F05900230181
:10CE70007E00C800F50001280CBF43F0100143F00C
:10CE80002001A18304F1140020F0F2FF002800F03B
:10CE9000AB8086F31188BFF36F8FBDE8F88F03F086
:10CEA0000702501F01281ED80020062A2768C4E95F
:10CEB000000014D13A4603E0E08B0130E0831268B1
:10CEC000002AF9D123F0070343F002022046A2838F
:10CED00024F039FF90B342F02002A2832EE023F029
:10CEE00007039AB2F2E7042A33D123F007039AB278
:10CEF0002046A28324F027FF10B142F02002A28333
:10CF0000A38B03F00709894540F0DC80A18BCA069A
:10CF100040F1218121F01003A38301F00701D4F82F
:10CF20001880A38BB8F1000FB9DA0022276823F02C
:10CF30000703C4E9002243F00103A383A38B03F09A
:10CF40000709894540F0BF80002FDFD00025AA46A1
:10CF500040E0854940F21B12844824F09BFD40F2DA
:10CF60001B11814824F08DFD41B17F494FF4AB7214
:10CF70007E4824F08FFD4FF4AB71F2E7236843B98C
:10CF8000794940F25712794824F084FD40F2571154
:10CF9000E7E723691D6845B973494FF4AD727348DB
:10CFA00024F078FD4FF4AD71DBE70F4688464FF073
:10CFB0000609A38B23F0070343F006039BB2A38368
:10CFC000A268002A40F08180002F40F08180002D6F
:10CFD0009CD0BA4643F0080304F1140B5846A383CF
:10CFE00020F046FF002875D1614940F231125F48B8
:10CFF00024F050FD40F231115D48B3E7022908D01A
:10D00000594940F25D12594824F044FD40F25D1147
:10D01000A7E7E78B47B154494FF4AF72534824F068
:10D0200039FD4FF4AF719CE723695D6845B94E49FE
:10D0300040F261124D4824F02DFD40F2611190E75D
:10D04000A38BB84623F0070343F004039BB24FF0D1
:10D050000409A383B4E7012908D043494FF4B2720D
:10D06000424824F017FD4FF4B2717AE7236843B9C0
:10D070003D4940F265123D4824F00CFD40F2651137
:10D080006FE723699D6845B937494FF4B472374853
:10D0900024F000FD4FF4B47163E70027A38BB8467A
:10D0A00023F0070343F005039BB24FF00509A38368
:10D0B00086E72D4940F26B122C4824F0EBFC40F23D
:10D0C0006B114EE7002700257AE74FF0010A81E750
:10D0D00092467FE786F31188BFF36F8FBAF1000F96
:10D0E00016D147BB15B120462249A847EFF3118658
:10D0F000202383F31288BFF36F8F584620F0AAFED7
:10D1000008BB1B498822194824F0C4FC882173E716
:10D11000A1680029E5D00E680029E2D043464A46BE
:10D120002046D1F804A0D0471EB1336831461E46D0
:10D13000F2E73346FAE7394643464A4620463F6817
:10D1400024F02DFECDE7584620F0A8FEA38B23F057
:10D150000803A383DAE68B067FF594AE21F0200363
:10D16000A38301F0070177E6ECDD0400F6DB0400A1
:10D1700016DD040079D10100F8B504460D4600F132
:10D180001406EFF31187202383F31288BFF36F8F08
:10D19000304620F05FFE40B909490A48882224F051
:10D1A00079FC8821064824F06CFC304620F076FE9D
:10D1B000A5613A462046BDE8F8400121FFF740BE90
:10D1C00016DD0400F6DB04002DE9F04704460F46A7
:10D1D00024F0D5FD051E5DDB04F11409EFF3118A7F
:10D1E000202383F31288BFF36F8F484620F032FE6E
:10D1F000804638B933498822334824F04BFC8821D3
:10D2000030483CE0484620F049FE4FF6FF72E38B81
:10D21000A68B934206F007063FD0022E10D135466A
:10D220000133E383484620F023FE00283BD1254903
:10D2300040F23112244824F02DFC40F23111DFE796
:10D24000062E13D8DFE806F0092C12120904090093
:10D250006FF085054FF00008E4E700233B6063684A
:10D260007BB9C4E900777EB13546F3E71749164824
:10D270004FF4E47224F00EFC4FF4E471134824F0F0
:10D2800000FC1F606760EEE7524602212046FFF770
:10D29000D7FD35462846BDE8F0876FF00A05D9E787
:10D2A0006FF00405D6E78AF31188BFF36F8FB8F1EA
:10D2B000000FEFD0002332463946204624F06FFDA0
:10D2C000E8E700BF16DD0400F6DB0400ECDD040037
:10D2D00008B54268034602F00302022A81600AD0C0
:10D2E000032A4FF0000103D0012A0AD1596006E059
:10D2F0001868596008BD186800225A6050B90020AB
:10D30000F8E706490648452224F0C4FB45210348B6
:10D3100024F0B7FB21F0F0FBF1E700BF11DE0400C1
:10D32000F6DB04002DE9F04F85B090F83680044616
:10D33000B8F1080F38BF4FF00808894608F1070315
:10D3400003F4FC7302AFADEB030D02AB90F83C109D
:10D350001646184642467B602DF006FB4A4620469C
:10D36000796824F00DFEB0F1000A7ADB94F836B04B
:10D370001FFA8AF1584624F050FD494605465846A2
:10D3800024F04BFD01218146584624F046FDA84576
:10D3900081441FFA89F908D23A493B484E2224F0C9
:10D3A00079FB4E21374824F06CFB04F10C084FF058
:10D3B000FF324FF0FF3340461EF07EFC82460028CD
:10D3C0005CD1D4E9091248682A444A44824234D9DB
:10D3D000D346A27920463A6024F089FF0146BBF18A
:10D3E000000F08BF8346206A814241D03A680AF1A3
:10D3F000010052453ADCBBF1000F39D0082194F806
:10D40000360024F00AFDDBF804A048442844824595
:10D410002ED3A28E59460132204692B224F0EEFD60
:10D420008246D8B9082194F83600C4F824B024F014
:10D43000F4FCA38EA0620133A38600952046D4E9B4
:10D4400009127B6824F066FD8246A0B9636A3360E6
:10D45000A36A1D44B5604D447360A56240461EF04A
:10D46000E1FC50460C37BD46BDE8F08F8246B1E77F
:10D470006FF01B0AF2E76FF0040AEFE76FF0150A8E
:10D48000EFE700BF37DE0400F6DB040030B5002212
:10D4900089B00F490F482DF047F9002200230024DE
:10D4A000CDE906230E230C4DCDE903344FF4006281
:10D4B0002846CDE90144094B094900941FF03CFC82
:10D4C000084928462DF084F8204609B030BD00BF39
:10D4D00015D60100C0F70020D0E60020D1D8010009
:10D4E00040BB012065DE04002DE9F04704460746F5
:10D4F0004FF00109DFF8508014B93846BDE8F087D5
:10D5000094FAA4F5B5FA85F509FA05F32E0108EBAE
:10D5100005156FEA030A24EA03042B7B002BEBD0EA
:10D5200058F806301B694BB94644736804222846F4
:10D53000196807EA0A0700F0B7FADDE728469847B6
:10D540000028D9D1F0E700BF88BA04002DE9F047E0
:10D55000DFF8BC902A4C8046A9EB04038F2B0F46C2
:10D560000AD9284940F23F12274824F093FA40F2A2
:10D570003F11244824F085FA244824F06CFF064625
:10D5800040B300252846BDE8F087237B6BB12368B4
:10D59000DB680BB12046984723681B6993B9636821
:10D5A00004222046196800F07FFA013610344C45F9
:10D5B00014D914494FF4A672134824F06BFA4FF4AF
:10D5C000A671D6E7204698470028E8D00AFA06F365
:10D5D0001D43EAE705464FF0010AE8E7D5D3B8F165
:10D5E000000FCFD0002DCCD02846FFF77DFF054699
:10D5F000002FF7D000214FF4A47020F03BFAF1E7A0
:10D6000088BA04006DDE0400F6DB0400E43C01206F
:10D6100098BA040001481EF091BD00BF0CC2002062
:10D62000014B53F820007047BCBD040008B5034609
:10D6300008462BB1044A136000F064FD002008BDC9
:10D640006FF01500FBE700BF38BA002010B5044C9E
:10D65000237813B903481EF071FD0123237010BD18
:10D660008F5601200CC2002010B50446094824F052
:10D67000F2FE3CB1084BD3E8EF1F0139C3E8E21FCB
:10D68000002AF8D105482DF05BF8BDE810400448A9
:10D690001EF054BDDC3C0120E03C0120C0F700201E
:10D6A0000CC2002000200146034BD3E8EF0FC3E873
:10D6B000E21F002AF9D17047DC3C012070B5FFF76A
:10D6C000F1FF05460D4C0E4EB44215D90D490E48DA
:10D6D00040F2FF1224F0DEF940F2FF11094824F075
:10D6E000D0F963685B792BB123685B6813B1294675
:10D6F000204698471034E7E7F3D370BD88BA04009A
:10D7000098BA04006DDE0400F6DB040010B5044C8A
:10D7100004492046FFF730F8034B1C6010BD00BFE2
:10D7200008BE0020A8BD0400D43C012008B5002399
:10D73000074A4FF400411370064A07481360074A2E
:10D740001360FFF773FFBDE80840FFF7DFBF00BFBE
:10D7500090560120DC3C012053240400E03C0120D1
:10D760000146002200230148FFF734B808BE00201C
:10D770000148FFF725B900BF08BE0020024B014653
:10D780001868FFF793B900BFD43C01200148FFF7A8
:10D79000EDB900BF08BE002070B52C4B18780028EA
:10D7A00053D0FFF7E5FF054620B3294BD3E8EF1F21
:10D7B0000139C3E8E21F002AF8D1264C264EB442B4
:10D7C00014D92649264840F2F31224F063F940F2B6
:10D7D000F311224824F055F963685B7923B123687B
:10D7E000294620461B6898471034E8E7F4D32846BA
:10D7F000FFF7C4FF1B4B1C4C1B68002B19DD2CF0E2
:10D800004CFF4FF47A72A0FB020302FB0131C30B01
:10D8100043EA4143D4E900209B1A40F2E9324FEA3F
:10D82000D13161EB0001934271F1000101D3FFF7A7
:10D8300045FFD4E9003213F57A7342F10002C4E9DE
:10D840000032BDE87040FFF7A1BF70BD8F560120C8
:10D85000E03C012088BA040098BA04006DDE0400A0
:10D86000F6DB0400DC3C0120B8F7002070B5134D56
:10D87000297809BB0120FFF769FE114C114EB44213
:10D8800013D9114911484FF4DC7224F003F94FF415
:10D89000DC710D4824F0F5F863685B791BB12368EF
:10D8A00020469B6898471034E9E7F5D3FFF774FFEB
:10D8B0000028FBD101232B7070BD00BF90560120C2
:10D8C00088BA040098BA04006DDE0400F6DB040098
:10D8D0002DE9F0472D4B2E4FFB1A1B090AD12D497C
:10D8E00040F292322C4824F0D5F840F29231294887
:10D8F00024F0C7F800210846FFF728FE044650B37D
:10D9000040F267684FF000092DF078FC234B244A61
:10D910001B58136033B1234B1B68092B02DD2248CF
:10D920001EF00CFC0025DFF880A044B12046FFF774
:10D93000DBFD044618B94FF0FF384FF0FF39FFF711
:10D940002BFF064628B95DB942464B4650461EF0AD
:10D950002FFC3546E9E74FF0FF384FF0FF39D3E7AA
:10D960000A4D08E0F0D22B689B691BB100222846C3
:10D97000114698471035BD42F4D9064940F2863227
:10D98000054824F087F840F28631B0E788BA0400F1
:10D9900098BA04006DDE0400F6DB04000800000005
:10D9A000D83C0120E03C01200CC2002013B52648E1
:10D9B00024F051FD254B1B785BB3EFF3118420233A
:10D9C00083F31288BFF36F8F214820F043FA40B9E8
:10D9D00020498822204824F05DF888211D4824F041
:10D9E00050F81B4820F05AFAFFF7D6FE184820F0EE
:10D9F0003FFA40B9174940F23112174824F04AF86B
:10DA000040F23111EAE784F31188BFF36F8F02B05F
:10DA100010BD124B1B68002BF9D050B90022002317
:10DA20000F48CDE900234FF40042002320F004FD0D
:10DA3000EDE70928EBD10A482CF082FE094802B034
:10DA4000BDE810401EF07ABBE03C0120905601205A
:10DA5000D03C012016DD0400F6DB0400D83C012098
:10DA6000C0F700200CC2002010B5064B04461B680E
:10DA700098472146A0600448FEF75CFFBDE81040CF
:10DA8000FFF794BF38BA002008BE0020044A054BB7
:10DA90009B1AB1EBD30F34BF52F83100002070470E
:10DAA00038B7040088BA04000E4B10B5C31A1B1116
:10DAB0000133DBB240B90C490C48DF2223F0EAFF06
:10DAC000DF21094823F0DDFF4468237143689A7120
:10DAD00001224368196043685A71BDE81040FFF79E
