:020000021000EC
:10800000A0D4012099D9010025C6030035D901006B
:1080100035D9010035D9010035D9010035D9010024
:10802000000000000000000000000000BDDB0100B7
:1080300035D901000000000041DB010035D9010005
:10804000F5DD0100F5DD0100F5DD0100F5DD0100E4
:10805000F5DD0100F5DD0100F5DD0100F5DD0100D4
:10806000F5DD0100F5DD0100F5DD0100F5DD0100C4
:10807000F5DD0100F5DD0100F5DD0100F5DD0100B4
:10808000F5DD0100F5DD0100F5DD0100F5DD0100A4
:10809000F5DD0100F5DD0100F5DD0100F5DD010094
:1080A000F5DD0100F5DD0100F5DD0100F5DD010084
:1080B000F5DD0100F5DD0100F5DD0100F5DD010074
:1080C000F5DD0100F5DD0100F5DD0100F5DD010064
:1080D000F5DD0100F5DD0100F5DD0100F5DD010054
:1080E000F5DD0100F5DD0100F5DD0100F5DD010044
:1080F000F5DD0100F5DD0100F5DD0100F5DD010034
:10810000F5DD0100F5DD0100F5DD0100F5DD010023
:10811000F5DD0100F5DD0100F5DD0100F5DD010013
:10812000F5DD0100F5DD0100F5DD0100F5DD010003
:10813000F5DD0100F5DD0100F5DD0100F5DD0100F3
:10814000F5DD01000000000000000000000000005C
:10815000000000000000000000000000000000001F
:10816000000000000000000000000000000000000F
:1081700000000000000000000000000000000000FF
:1081800000000000000000000000000000000000EF
:1081900000000000000000000000000000000000DF
:1081A00000000000000000000000000000000000CF
:1081B00000000000000000000000000000000000BF
:1081C00000000000000000000000000000000000AF
:1081D000000000000000000000000000000000009F
:1081E000000000000000000000000000000000008F
:1081F000000000000000000000000000000000007F
:10820000DEE61E284CBBCE8F025B00003C00000067
:10821000181F030001000000008001000080010021
:10822000FFFF0291000000000000000000000000BD
:0C82300000000000000000000000000042
:1082400081F0004102E000BF83F0004330B54FEA07
:1082500041044FEA430594EA050F08BF90EA020F74
:108260001FBF54EA000C55EA020C7FEA645C7FEA07
:10827000655C00F0E2804FEA5454D4EB5555B8BF2A
:108280006D420CDD2C4480EA020281EA030382EA9B
:10829000000083EA010180EA020281EA0303362D2D
:1082A00088BF30BD11F0004F4FEA01314FF4801C00
:1082B0004CEA113102D0404261EB410113F0004F12
:1082C0004FEA03334CEA133302D0524263EB4303C9
:1082D00094EA050F00F0A780A4F10104D5F1200E67
:1082E0000DDB02FA0EFC22FA05F2801841F10001C2
:1082F00003FA0EF2801843FA05F359410EE0A5F196
:1083000020050EF1200E012A03FA0EFC28BF4CF0C6
:10831000020C43FA05F3C01851EBE37101F000457C
:1083200007D54FF0000EDCF1000C7EEB00006EEB89
:108330000101B1F5801F1BD3B1F5001F0CD3490813
:108340005FEA30004FEA3C0C04F101044FEA44526A
:1083500012F5800F80F09A80BCF1004F08BF5FEAF1
:10836000500C50F1000041EB045141EA050130BDD1
:108370005FEA4C0C404141EB0101013C28BFB1F5E3
:10838000801FE9D291F0000F04BF01460020B1FA2E
:1083900081F308BF2033A3F10B03B3F120020CDA01
:1083A0000C3208DD02F1140CC2F10C0201FA0CF0DF
:1083B00021FA02F10CE002F11402D8BFC2F1200C44
:1083C00001FA02F120FA0CFCDCBF41EA0C019040FA
:1083D000E41AA2BF01EB0451294330BD6FEA040443
:1083E0001F3C1CDA0C340EDC04F11404C4F120022E
:1083F00020FA04F001FA02F340EA030021FA04F340
:1084000045EA030130BDC4F10C04C4F1200220FA96
:1084100002F001FA04F340EA0300294630BD21FAD4
:1084200004F0294630BD94F0000F83F4801306BF9A
:1084300081F480110134013D4EE77FEA645C18BF8E
:108440007FEA655C29D094EA050F08BF90EA020F25
:1084500005D054EA000C04BF1946104630BD91EA1D
:10846000030F1EBF0021002030BD5FEA545C05D120
:108470004000494128BF41F0004130BD14F580045F
:108480003CBF01F5801130BD01F0004545F0FE41D3
:1084900041F470014FF0000030BD7FEA645C1ABF08
:1084A000194610467FEA655C1CBF0B46024650EA3F
:1084B000013406BF52EA033591EA030F41F400216B
:1084C00030BD00BF90F0000F04BF0021704730B5F1
:1084D0004FF4806404F132044FF000054FF00001C6
:1084E00050E700BF90F0000F04BF0021704730B587
:1084F0004FF4806404F1320410F0004548BF40425C
:108500004FF000013EE700BF42004FEAE2014FEAB0
:1085100031014FEA02701FBF12F07F4393F07F4F8B
:1085200081F06051704732F07F4208BF704793F08E
:108530007F4F04BF41F40021704730B54FF46074A1
:1085400001F0004521F000411CE700BF50EA0102A4
:1085500008BF704730B54FF000050AE050EA01024D
:1085600008BF704730B511F0004502D5404261EBBD
:1085700041014FF4806404F132045FEA915C3FF4FE
:10858000D8AE4FF003025FEADC0C18BF03325FEA9B
:10859000DC0C18BF033202EBDC02C2F1200300FA4C
:1085A00003FC20FA02F001FA03FE40EA0E0021FA71
:1085B00002F11444BDE600BF70B54FF0FF0C4CF45F
:1085C000E06C1CEA11541DBF1CEA135594EA0C0F11
:1085D00095EA0C0F00F0DEF82C4481EA030621EA4C
:1085E0004C5123EA4C5350EA013518BF52EA033587
:1085F00041F4801143F4801338D0A0FB02CE4FF039
:108600000005E1FB02E506F00042E0FB03E54FF068
:108610000006E1FB03569CF0000F18BF4EF0010E60
:10862000A4F1FF04B6F5007F64F5407404D25FEA5C
:108630004E0E6D4146EB060642EAC62141EA55510F
:108640004FEAC52040EA5E504FEACE2EB4F1FD0C51
:1086500088BFBCF5E06F1ED8BEF1004F08BF5FEACF
:10866000500E50F1000041EB045170BD06F0004681
:1086700046EA010140EA020081EA0301B4EB5C042E
:10868000C2BFD4EB0C0541EA045170BD41F4801126
:108690004FF0000E013C00F3AB8014F1360FDEBF4B
:1086A000002001F0004170BDC4F10004203C35DA27
:1086B0000C341BDC04F11404C4F1200500FA05F3AA
:1086C00020FA04F001FA05F240EA020001F000424B
:1086D00021F0004110EBD37021FA04F642EB0601C1
:1086E0005EEA430E08BF20EAD37070BDC4F10C04EB
:1086F000C4F1200500FA04F320FA05F001FA04F2AF
:1087000040EA020001F0004110EBD37041F100019A
:108710005EEA430E08BF20EAD37070BDC4F12005A5
:1087200000FA05F24EEA020E20FA04F301FA05F20D
:1087300043EA020321FA04F001F0004121FA04F2B5
:1087400020EA020000EBD3705EEA430E08BF20EA85
:10875000D37070BD94F0000F0FD101F000464000BF
:1087600041EB010111F4801F08BF013CF7D041EA41
:10877000060195F0000F18BF704703F00046520045
:1087800043EB030313F4801F08BF013DF7D043EA16
:108790000603704794EA0C0F0CEA135518BF95EACC
:1087A0000C0F0CD050EA410618BF52EA4306D1D153
:1087B00081EA030101F000414FF0000070BD50EA72
:1087C000410606BF1046194652EA430619D094EAFC
:1087D0000C0F02D150EA013613D195EA0C0F05D1E6
:1087E00052EA03361CBF104619460AD181EA03013A
:1087F00001F0004141F0FE4141F470014FF00000F2
:1088000070BD41F0FE4141F4780170BD70B54FF08C
:10881000FF0C4CF4E06C1CEA11541DBF1CEA13550C
:1088200094EA0C0F95EA0C0F00F0A7F8A4EB0504EE
:1088300081EA030E52EA03354FEA013100F08880E5
:108840004FEA03334FF0805545EA131343EA1263AE
:108850004FEA022245EA111545EA10654FEA002663
:108860000EF000419D4208BF964244F1FD0404F51C
:10887000407402D25B084FEA3202B61A65EB030578
:108880005B084FEA32024FF480104FF4002CB6EB35
:10889000020E75EB030E22BFB61A754640EA0C00B5
:1088A0005B084FEA3202B6EB020E75EB030E22BFF5
:1088B000B61A754640EA5C005B084FEA3202B6EB36
:1088C000020E75EB030E22BFB61A754640EA9C00F5
:1088D0005B084FEA3202B6EB020E75EB030E22BFC5
:1088E000B61A754640EADC0055EA060E18D04FEA83
:1088F000051545EA16754FEA06164FEAC30343EA23
:1089000052734FEAC2025FEA1C1CC0D111F4801FEF
:108910000BD141EA00014FF000004FF0004CB6E7E8
:1089200011F4801F04BF01430020B4F1FD0C88BF87
:10893000BCF5E06F3FF6AFAEB5EB030C04BFB6EB92
:10894000020C5FEA500C50F1000041EB045170BD85
:108950000EF0004E4EEA113114EB5C04C2BFD4EBB2
:108960000C0541EA045170BD41F480114FF0000E36
:10897000013C90E645EA060E8DE60CEA135594EAB2
:108980000C0F08BF95EA0C0F3FF43BAF94EA0C0FB5
:108990000AD150EA01347FF434AF95EA0C0F7FF42A
:1089A00025AF104619462CE795EA0C0F06D152EA7E
:1089B00003353FF4FDAE1046194622E750EA410662
:1089C00018BF52EA43067FF4C5AE50EA41047FF473
:1089D0000DAF52EA43057FF4EBAE12E74FF0FF3CD8
:1089E00006E000BF4FF0010C02E000BF4FF0010CA9
:1089F0004DF804CD4FEA410C7FEA6C5C4FEA430C22
:108A000018BF7FEA6C5C1BD001B050EA410C0CBF70
:108A100052EA430C91EA030F02BF90EA020F0020D2
:108A2000704710F1000F91EA030F58BF994208BF39
:108A300090422CBFD8176FEAE37040F001007047F6
:108A40004FEA410C7FEA6C5C02D150EA013C07D14D
:108A50004FEA430C7FEA6C5CD6D152EA033CD3D098
:108A60005DF8040B704700BF8446104662468C4692
:108A70001946634600E000BF01B5FFF7B7FF0028C5
:108A800048BF10F1000F01BD4DF808EDFFF7F4FFEE
:108A90000CBF012000205DF808FB00BF4DF808ED79
:108AA000FFF7EAFF34BF012000205DF808FB00BF9C
:108AB0004DF808EDFFF7E0FF94BF012000205DF8BE
:108AC00008FB00BF4DF808EDFFF7CEFF94BF012073
:108AD00000205DF808FB00BF4DF808EDFFF7C4FF6C
:108AE00034BF012000205DF808FB00BF4FEA410CB5
:108AF0007FEA6C5C02D150EA013C0AD14FEA430C98
:108B00007FEA6C5C02D152EA033C02D14FF00000D4
:108B100070474FF0010070474FEA410212F5001212
:108B200015D211D56FF47873B3EB625212D94FEAB4
:108B3000C12343F0004343EA505311F0004F23FA9E
:108B400002F018BF404270474FF00000704750EAF3
:108B5000013005D111F0004008BF6FF000407047B0
:108B60004FF00000704700BF4A0011D212F500120A
:108B700011D20DD56FF47873B3EB62520ED44FEA75
:108B8000C12343F0004343EA505323FA02F07047F5
:108B90004FF00000704750EA013002D14FF0FF3033
:108BA00070474FF0000070474FEA4102B2F1E043D6
:108BB00024BFB3F5001CDCF1FE5C0DD901F0004CC4
:108BC0004FEAC0024CEA5070B2F1004F40EB830014
:108BD00008BF20F00100704711F0804F21D113F140
:108BE0003872BCBF01F00040704741F480114FEA79
:108BF0005252C2F11802C2F1200C10FA0CF320FA02
:108C000002F018BF40F001004FEAC1234FEAD3231E
:108C100003FA0CFC40EA0C0023FA02F34FEA430388
:108C2000CCE77FEA625307D150EA01331EBF4FF011
:108C3000FE4040F44000704701F0004040F0FE402C
:108C400040F40000704700BF7BB972B90029BEBF75
:108C500000204FF0004106E008BF00281CBF6FF065
:108C600000414FF0FF3000F057B8ADF1080C6DE94E
:108C700004CE002909DB002B1ADB00F069F8DDF8CF
:108C800004E0DDE9022304B07047404261EB41019A
:108C9000002B1BDB00F05CF8DDF804E0DDE90223CB
:108CA00004B0404261EB4101524263EB4303704721
:108CB000524263EB430300F04BF8DDF804E0DDE9DA
:108CC000022304B0404261EB41017047524263EB22
:108CD000430300F03DF8DDF804E0DDE9022304B0D1
:108CE000524263EB4303704753B94AB9002908BFA6
:108CF00000281CBF4FF0FF314FF0FF3000F00CB8E0
:108D0000ADF1080C6DE904CE00F022F8DDF804E0C6
:108D1000DDE9022304B07047704700BF10F8012B53
:108D200011F8013B012A28BF9A42F7D0D01A7047A8
:108D3000034611F8012B03F8012B002AF9D17047E3
:108D4000034613F8012B002AFBD1181A013870478B
:108D50002DE9F04786468C460846089E154674461F
:108D60001946002B40F0C1808542B2FA82F245D903
:108D70004AB1C2F1200300FA02FC954094402EFA59
:108D800003F343EA0C0C4FEA154EA8B2230CBCFBCC
:108D9000FEF80EFB18CC08FB00F943EA0C4399459A
:108DA00028D9EB1808F1FF3704D2994502D9A8F168
:108DB00002072B44A3EB0903A4B2B3FBFEFC0EFB9A
:108DC0001C330CFB00F044EA0344A04214D92C19D4
:108DD0000CF1FF3304D2A04202D9ACF102032C44BF
:108DE000241A43EA07401EB1D44000233460736064
:108DF000BDE8F0874746DDE76346F1E792BB431BDA
:108E000001214FEA154EAFB2200CB3FBFEFC0EFB66
:108E10001C330CFB07F840EA0343984561D9EB1873
:108E20000CF1FF3004D2984502D9ACF102002B447A
:108E3000A3EB0803A4B2B3FBFEFC0EFB1C330CFB3C
:108E400007F744EA0344A7424DD92C190CF1FF332C
:108E500004D2A74202D9ACF102032C44E41B43EA3A
:108E60000040C0E7C2F120039540944020FA03F18E
:108E70002EFA03F34FEA154E9040AFB20343B1FB15
:108E8000FEFC0EFB1C10190C0CFB07F841EA00411C
:108E9000884522D969180CF1FF3004D2884502D9DF
:108EA000ACF102002944A1EB08019BB2B1FBFEFC2E
:108EB0000EFB1C110CFB07F743EA01439F420ED93E
:108EC000EB180CF1FF3104D29F4202D9ACF1020140
:108ED0002B44DB1B41EA004193E76046E3E7614630
:108EE000F7E76046A4E76346B8E7834206D916B9B8
:108EF000002108467CE7C6E900E0F9E7B3FA83F70A
:108F00008FB9834201D3724508D8BEEB020460EBEF
:108F1000030301209C461EB9002169E73846FAE7A1
:108F2000C6E9004CF8E7C7F1200CBB400EFA07F584
:108F300022FA0CF42EFA0CF1BA401C4320FA0CF37E
:108F4000B8404FEA144901431FFA84FEB3FBF9F815
:108F500009FB18300B0C08FB0EFA43EA00439A4554
:108F600040D9E31808F1FF3004D29A4502D9A8F19C
:108F700002002344A3EB0A0389B2B3FBF9F809FB0F
:108F8000183308FB0EFE41EA03418E452CD96118C7
:108F900008F1FF3304D28E4502D9A8F1020321441F
:108FA00043EA0040A1EB0E01A0FB02984145CE46EA
:108FB000434602D306D14D4504D20138B9EB020E27
:108FC00068EB0403002EA7D0B5EB0E0261EB0301A2
:108FD00001FA0CFC22FA07F3F9404CEA0303C6E954
:108FE000003199E74046C5E74346D9E70000000055
:108FF000D0B504464068FFF775FA09A3D3E900230A
:10900000FFF704FC064620680F46FFF76BFA02469E
:109010000B4630463946FFF719F941EC100BD0BD2D
:109020000000000080842E4101282DE9F04188468F
:1090300008D02CF029FB1622374B1A504FF0FF3086
:10904000BDE8F0818A68354B9A42F2D82BF096FD44
:1090500005460F462BF092FD314CD8F80030D8F879
:109060000420A3FB043604FB0266D8F808209B18F2
:1090700046EBE276EA0B42EA4742A2FB0421FF0BF1
:109080009B1AC0F30E0204FB0711A2FB04244FEA53
:10909000D23242EA444266EB0101981A61F10001C2
:1090A0001BA3D3E90023FFF7CFFD06460D46144668
:1090B000EFF31187202383F31288BFF36F8F1948D2
:1090C0001DF052FD40B918498822184821F03AFC99
:1090D0008821154821F02DFC12481DF069FD144B24
:1090E0001048C3E900659C601DF04CFD40B90E4975
:1090F00040F231120D4821F025FC40F23111E8E731
:1091000087F31188BFF36F8F002099E7AFF30080DA
:1091100000CA9A3B000000000C000000FFC99A3B07
:1091200000CA9A3B501B0120C86F0400E26E040085
:1091300018D70020000000002DE9F04705469946A9
:109140000024282386B088469246CDE9024324F0C5
:10915000B6FF284602A925F003FA0746002800F0CA
:10916000AF8083793A2B18D10423039928460494BD
:10917000059324F0F3FF284604A925F0F1F918B16E
:1091800090F90030A34205DB6FF01505284606B0C4
:10919000BDE8F087284624F092FFBB79112B58D008
:1091A000062B58D00020AB68002B4ED19FED487B9A
:1091B000022295F824308DED007B02FB03013A2357
:1091C000A86904310AF04EFA044600287BD095F8CD
:1091D0002420296A25F0A9F9061E31DBA368204660
:1091E000DB68A36295F82C20A96A25F09EF9061E7B
:1091F00026DBA06895F82C100C3005F065FBA06804
:1092000050F80C3F236295F8241005F05DFB95F8AB
:109210002C3007F1180184F8243095F8243084F8B4
:109220002C303B7EFF2B03D1A06924F05AF8014675
:10923000204607F1080225F077FE70B16FF00406B2
:10924000204624F0D1FE3546A0E71A8A5B68104418
:10925000AAE73020AAE73C20A8E74146524620462C
:1092600025F078FD01460028E8D1B8F1040F22D19D
:1092700099FA89F34246204604A9049325F055F94A
:109280000646204624F0D0FE0246002ED8D12946BC
:10929000204625F03FF805460028D1D1204624F08D
:1092A0000EFF3A21204625F0A2FE204623F0FEFCC8
:1092B0000028C5DB6AE70422204625F017F8DFE71F
:1092C0006FF0040562E76FF00B055FE7AFF3008016
:1092D00000800000000000002DE9F0412DED028B20
:1092E0001F4605238AB00C4690460146029340B9BA
:1092F0005749C022574821F025FBC021544821F08E
:1093000018FB34B95249C122524821F01BFBC1213C
:10931000F4E705A80EF07CFD30B14D49C6224D485A
:1093200021F010FBC621E9E7012101AA05A827F0D9
:10933000E9F90546002831D1019B3BB3042B33D01A
:10934000052B0CBF0923FF232370032102AB03AAC3
:1093500005A827F0E0F90646002872D1029BABB1C0
:1093600003A94046FFF7E4FC0222314603A81EF0A1
:10937000E5FF2378C2B2092B18D0072B1FD0344940
:109380008F22344821F0DEFA8F21B7E7DFED327A01
:109390000023C4ED017A2370C4ED027A28460AB096
:1093A000BDEC028BBDE8F0810723CDE70F2A37D94A
:1093B0002749A422274821F0C5FAA4219EE70F2AB5
:1093C000F6D89FED268A264B33F8120070B3FFF7CC
:1093D00089F81DA3D3E90023FFF7EEF8FFF7E4FBBC
:1093E000052360600293042102AB03AA05A827F0BD
:1093F00092F9064628BB03A93846FFF799FC0222DA
:10940000314603A81EF09AFFC3B20F2B10D91049A2
:1094100040F21B120F4821F095FA40F21B116DE744
:10942000104B9FED118A33F81200CFE70F48D7E7B2
:109430000133DBB207EE903AF8EEE77A67EE887A0E
:10944000AAE73546AAE700BF7B14AE47E17A24407D
:10945000137B0400E26E0400000000000AD7A33F63
:10946000506D0400306D04000AD723400AD7A34092
:109470002DE9F04706460C4692B0002900F0BF8067
:109480000F68002F00F0BB808D68D1F8048005F1D3
:109490000409C1450AD80422AD4978192BF0FEFC15
:1094A000A8B90423F360A36804331DE06B1D98453D
:1094B00010D2454580F0A3807B5D7819222B24D102
:1094C0002146304612B0BDE8F04716F09FBD6B1D37
:1094D00098450ED305229F4978192BF0DFFC30B94F
:1094E0000123F360A36805330120A36088E0C14530
:1094F000DFD80422984978192BF0D0FC0028D8D165
:109500000223F36001237361CDE72D2B03D0A3F178
:109510003002092A55D800230DF1080C67464FF098
:10952000010EA8EB0505DFF83882019310F8012B36
:10953000452A3ED82A2A10D9A2F12B01C9B20EFA27
:1095400001F111EA080F01D12E2A06D101333F2B78
:109550000CF8012B01D0AB42E8D1002548336B4415
:10956000384601A903F8405C1EF028FCDDF804A091
:1095700059EC108BBA4542D073A3D3E9002340467F
:109580004946FFF79FFAB0B9002240464946734B5F
:10959000FFF78EFA90B940464946FFF7BDFA082317
:1095A000C6E906897061F360A368AAEB070A534411
:1095B0009AE7652AC9E76FF00040F0E74FF00040F6
:1095C000EDE75B2B58D1D4F80C90B9F57A7F16D221
:1095D00009F10103E3607B5D5B2B10D1013520466F
:1095E000A56029F02DF8A368984506D9FA5C5D2A94
:1095F00009D10027C4F80C9036E0013BA36000209D
:1096000012B0BDE8F08700252F46013BA36020691A
:1096100029F0C2F8A8460546002800F0A5804FB3FF
:10962000C8F80000C0F80480A36820460133A36096
:1096300029F006F821462846FFF71AFF002800F017
:109640009380204628F0FCFFD4E90123934280F068
:109650008E802268D35C2C2BD9D05D2B40F0878084
:10966000E368013BE3607D602023C6E90273A368E1
:10967000013339E70746D7E77B2BC0D1D4F80C90EC
:10968000B9F57A7FBBD209F10103E3607B5D7B2BE7
:10969000B5D101352046A56028F0D2FFA3689845D2
:1096A000ABD9FA5C7D2A03D10027C4F80C9047E0BF
:1096B00000252F46A846013BA360206929F06CF8DD
:1096C000A946054600284FD0002F4BD0C9F800000E
:1096D000C0F80490A36820460133A36028F0B0FFCF
:1096E0002146284616F092FC00283DD0204628F05E
:1096F000A7FF2B69C5F810802B62D4E901239342A0
:1097000032D22268D25C3A2A2ED101332046A3609D
:1097100028F096FF21462846FFF7AAFE20B32046F0
:1097200028F08EFFD4E90123934220D22268D35C33
:109730002C2BC2D07D2B1AD1E368013BE3607D6006
:10974000402392E7AFF300800000C0FFFFFFDF413E
:10975000308C0400B0890400738404000000E0C170
:10976000E57F00040746B5E7002F3FF448AF3846D1
:1097700017F078F843E700BFD0B5174B57EC106BE4
:10978000186829F009F8044670B10823C0E9066793
:10979000C36039460EA3D3E900233046FFF792F9A0
:1097A00020B16FF0004363612046D0BD00223046F7
:1097B00039460A4BFFF77CF910B14FF00043F2E74E
:1097C00030463946FFF7A8F96061EDE7AFF3008056
:1097D0000000C0FFFFFFDF4170BB00200000E0C1C0
:1097E00008B5024629F0EFF810B192ED060B08BD5E
:1097F0009FED010BFBE700BF000000000000F87FB9
:109800002DE9FF47804616460F46002900F0A2804A
:10981000B1FA81F4341B002E04F10A04C0F2A280D4
:10982000304620F005FB0444304620F007FBA4EB53
:10983000060905466946304620F028FBA9EB0503DA
:109840006A4640467D3339462BF024FCA6428246C8
:109850000D4600F38380B9F13F0F00F381804FF094
:10986000FF33A9F12000C9F1200103FA00F003FA47
:1098700009F223FA01F103FA09F3024328EA030388
:109880000A4327EA020213430CBF01200020002DE7
:1098900000F08A80B5FA85F3E31A40F2FE7203F213
:1098A0003E43934200F38980002B23EAE376D4BF42
:1098B00001223246121BA2F23341A2F23447A2F235
:1098C0005344C1F1200C2AFA01F325FA04F4C7F13C
:1098D000200E05FA0CFC25FA01F105FA0EFE43EA0A
:1098E0000C03A2F2544CA2F2544223432AFA07F486
:1098F00025FA0CFC44EA0E0444EA0C04C7F1200CDF
:1099000014F0010F54D0A8B14FF0FF3000FA02F26A
:1099100000FA07F4144320FA0CF2B840144303F0A1
:1099200001022AEA000A25EA04054AEA020A5AEA7A
:10993000050A3DD0013341F10002C2F3130253EA9C
:10994000020138D0184642EA065141EC100B04B02F
:10995000BDE8F087B0FA80F420345BE7012096E799
:10996000002094E7C6F10009484620F067FA241A5F
:10997000484620F063FAA61B0546694648462E4431
:1099800020F0F6FA6A46404606F17C0339462BF091
:1099900081FB82460D464046394620F05FFA8145FC
:1099A0008CBF0020012072E7BAFA8AF3203373E7F4
:1099B000C1F31302C6E70136C4E79FED010BC6E70A
:1099C000000000000000F07F2DE9FF4755EC104B30
:1099D00025F00042B049EE0F8A4236D9AF498A429B
:1099E00018D82046294696A3D3E90023FFF774F838
:1099F000074620BB2046294693A3D3E90023FFF75F
:109A00004DF8002800F0A280384604B0BDE8F047C9
:109A100000F006BBC5F313032246234307D02B46B1
:109A200020462946FEF712FC04460D4602E0002EB1
:109A300040F0038145EC104B04B0BDE8F0870020F6
:109A400004B0BDE8F04700F0FBBA954B9A4240F2F3
:109A5000A980944B9A4279D8934B20462946F70027
:109A600003EBC603C6F1010AD3E90023FEF7ECFBC2
:109A70008E4B804689463B44AAEB060A93ED007B59
:109A80008DED007BDDE9002340464946FEF7DCFB17
:109A900004460D4622462B4620462946FEF78CFDFD
:109AA00006460F466AA3D3E90023FEF785FD6AA3A5
:109AB000D3E90023FEF7C8FB32463B46FEF77CFDA8
:109AC00067A3D3E90023FEF7C1FB32463B46FEF70E
:109AD00073FD65A3D3E90023FEF7B6FB32463B4690
:109AE000FEF76AFD62A3D3E90023FEF7AFFB32461F
:109AF0003B46FEF761FD02460B4620462946FEF72F
:109B0000A3FB02460B4606460F4620462946FEF7B3
:109B100053FDCDE90201BAF1000F5CD100224FF0F4
:109B2000804330463946FEF78FFB02460B46DDE99F
:109B30000201FEF76BFE22462B46FEF785FB02462E
:109B40000B4600205A49FEF77FFB6DE7594B204634
:109B5000294603EBC60648A3D3E90023FEF72CFDF4
:109B6000D6E90023FEF772FBFEF7D6FF8246FEF72A
:109B7000B9FC06460F4642A3D3E90023FEF71CFDBD
:109B800002460B4620462946FEF75EFB8046894684
:109B9000304639463CA3D3E90023FEF70DFDCDE95D
:109BA00000016FE7444B9A4210D82046294638A35B
:109BB000D3E90023FEF74AFB00223D4BFEF78CFF62
:109BC00038B100223A4B204629462BE74FF0000AD5
:109BD00060E782465EE732463B4600204FF0804118
:109BE000FEF732FB02460B46DDE90201FEF70EFEF0
:109BF00002460B46DDE90001FEF726FB42464B46D6
:109C0000FEF722FB0B46024629490020FEF71CFB0B
:109C10000B466FF47F7106468A4503DB344603EB3F
:109C20000A5507E70AF57A7A3046002203EB0A5113
:109C30004FF0B873FEF7C0FCF6E600240025F9E605
:109C4000EF39FAFE422E864051302DD5104987C09B
:109C5000D0A4BE726937663EF16BD2C541BDBB3E32
:109C60002CDE25AF6A56113F93BDBE166CC1663F10
:109C70003E5555555555C53FFE822B654715F73F57
:109C80000000E0FE422EE63F763C7935EF39EA3DB2
:109C90009C7500883CE4377E412E8640FFFFEF7FB5
:109CA000422ED63FB1A2F03F885F0400785F0400E7
:109CB0000000F03F985F0400FFFFEF3D0000000050
:109CC00051EC100BB1F5801F2DE9F04F0D4687B018
:109CD00023DA21F00043034305D1012007B0BDE89A
:109CE000F04F00F0BDB9002904DA07B0BDE8F04F2D
:109CF00000F0C6B9C64B0022FEF75EFC6FF03503DC
:109D00000D46C44A95420ADD02460B46FEF79EFA0E
:109D100041EC100B07B0BDE8F08F0023F1E72C15E4
:109D2000C5F31305A4F2FF341C4405F5152303F60F
:109D3000647303F4801383F07F5204EB1354B64B27
:109D400082F4401242EA05010022FEF77DFAAB1CC4
:109D500082468B46C3F313030022022B53DC0023FD
:109D6000FEF792FED0B1002C00F020812046FEF7D5
:109D7000B9FB06460F4690A3D3E90023FEF71CFC6F
:109D800004460D46304639468DA3D3E90023FEF73D
:109D900013FC02460B4620462946B7E78AA3D3E9BF
:109DA000002350465946FEF707FC02460B460020AA
:109DB0009A49FEF749FA06460F4652465B46504618
:109DC0005946FEF7F9FB02460B4630463946FEF788
:109DD000F3FB06460F4614B932463B46A0E0204648
:109DE000FEF780FB8046894673A3D3E90023FEF784
:109DF000E3FB04460D464046494671A3D3E90023E0
:109E0000FEF7DAFBA5E04FF08043A5F5C226FEF78A
:109E10001DFA02460B4650465946C5F5D725FEF7B2
:109E2000F5FCA6F27A465135CDE9000120463543CE
:109E3000FEF758FBDDE90023CDE902011046194683
:109E4000FEF7BAFB02460B46CDE90423FEF7B4FB4E
:109E5000804689465EA3D3E90023FEF7ADFB5EA3EF
:109E6000D3E90023FEF7F2F942464B46FEF7A4FB86
:109E70005BA3D3E90023FEF7E9F942464B46FEF720
:109E80009BFB59A3D3E90023FEF7E0F9DDE90423A6
:109E9000FEF792FB56A3D3E90023CDE90401404627
:109EA0004946FEF789FB54A3D3E90023FEF7CEF918
:109EB00042464B46FEF780FB51A3D3E90023FEF751
:109EC000C5F942464B46FEF777FB02460B46DDE9F5
:109ED0000401FEF7BBF9002D8046894648DD0022CB
:109EE0004E4B50465946FEF767FB52465B46FEF71F
:109EF00063FB02460B4606460F4640464946FEF7C0
:109F0000A5F9DDE90023FEF757FB8046894664B9D1
:109F100002460B4630463946FEF796F902460B4696
:109F200050465946FEF790F9F2E623A3D3E9002301
:109F3000DDE90201FEF740FB04460D4620A3D3E90C
:109F40000023DDE90201FEF737FB42464B46FEF7F0
:109F50007DF902460B4630463946FEF775F9524602
:109F60005B46FEF771F902460B4620462946D9E7C3
:109F700002460B4650465946FEF766F9DDE90023D6
:109F8000FEF71AFB06460F46002C3FF425AF0AA346
:109F9000D3E90023DDE90201FEF70EFB04460D467E
:109FA00007A3D3E90023DDE9020129E79FED160BA2
:109FB000B0E600BFAFF300800000E0FE422EE63FB7
:109FC000763C7935EF39EA3D555555555555D53FD0
:109FD00044523EDF12F1C23FDE03CB966446C73FD8
:109FE000599322942449D23F935555555555E53FF1
:109FF0009FC678D0099AC33FAF788E1DC571CC3FFC
:10A0000004FA97999999D93F0000000000000000D8
:10A0100000005043FFFFEF7F0000F03F0000E03FF3
:10A0200010B19FED030B70479FED030B704700BF0E
:10A0300000000000000000800000000000000000A0
:10A0400010B19FED030B70479FED030B704700BFEE
:10A05000000000000000F0FF000000000000F07FA2
:10A0600010B19FED030B70479FED030B704700BFCE
:10A07000000000000000F0FF000000000000F07F82
:10A0800008B520F0F3F89FED020B08BDAFF3008098
:10A09000000000000000F87F08B504481BF0F6FB44
:10A0A000BDE80840142026F09EBC00BF00B500208B
:10A0B00010B50020FFF7F0FF054C18B121680548E6
:10A0C00020F085F921680448BDE8104020F07FB9F0
:10A0D000B0190120020007D2010007D210B5064CCA
:10A0E0000648216820F073F9206807F0A5FCBDE858
:10A0F00010400020FFF7D0BFB0190120020007D2A6
:10A1000070B50F4B186825F0A4F8002816DD4FF441
:10A110007A734FF4004503FB00F4002140F2E7306E
:10A120004FF47A720023E4FB0501FEF7DDFDBDE884
:10A13000704002460B4603481BF0A2BB70BD00BF37
:10A14000B019012000B5002010B51B4B1A78A2B140
:10A150005A7892B1A8B91870184C5970206807F055
:10A160006BFC29F0D5F970B10021206824F0DDFFE7
:10A17000C0B1BDE81040FFF7C3BF28B918705970CF
:10A1800001E00029E8D010BD01221A700029F6D0A4
:10A190005A700A4B186807F071FCBDE81040084877
:10A1A0001BF074BBFFF778FF0028ECD0216805484E
:10A1B000BDE8104020F00BB95A340120B01901203D
:10A1C00000B50020020007D210B504464FF0FF3260
:10A1D0004FF0FF3307481AF035FC074B5A78A2427C
:10A1E00003D021461878FFF7AFFFBDE810400148C3
:10A1F00020F0FDB86CBE00205A34012010B5044692
:10A20000006807F019FC60694FF0FF324FF0FF3330
:10A210001AF018FCE368606943F00203E36020F081
:10A22000E6F860694FF0FF324FF0FF331AF00AFC96
:10A23000E368606943F00103E36020F0D8F800238D
:10A24000084823610FF0A6FB28B121680648BDE845
:10A25000104020F0BCB8054826F0ACFB2268044B47
:10A260001A6010BDD5A20100020007D2F3A30300BB
:10A27000B019012010B504464FF0FF324FF0FF3304
:10A2800007481AF0DFFB074B1A78A24203D020469A
:10A290005978FFF759FFBDE81040014820F0A7B8F2
:10A2A0006CBE00205A34012010B5094C206800F023
:10A2B000A7F818B1BDE81040FFF710BF206800F004
:10A2C0001FF90028F6D1BDE81040FFF7D3BF00BF4B
:10A2D000B0190120013908B504291FD8DFE801F0C1
:10A2E0000314181F1400104B186800F02FF810F119
:10A2F0003D0F04D018B1BDE80840FFF7EFBE0120C4
:10A30000BDE80840FFF7B6BFBDE80840FFF7CCBF87
:10A31000054B186800F08AF80028ECD108BD024B04
:10A32000186800F0EDF8F7E7B019012010B5054CFA
:10A330000548216820F04BF82068BDE8104007F080
:10A340007BBB00BFB0190120020007D270B500240A
:10A350000646A2B01822214608A8CDE90044CDE95E
:10A3600002442AF046FD002E3DD0242221460FA8AB
:10A370000E942AF03EFD2422214619A818942AF0B2
:10A3800038FD1C491C4818AB0EAA18F01BFDA04252
:10A3900003DC6FF00D0022B070BD012004AA0EA9ED
:10A3A00022F075FA0128054602D06FF03C00F2E772
:10A3B0000EA96846FEF7BCFC6846FEF7C1FC08AA79
:10A3C0000146684623F0C6FA0028E2D0234603225D
:10A3D000304609A906F050FE40B1084B099A2046C4
:10A3E0001A601D71D7E76FF01500D4E76FF0120007
:10A3F000D1E700BF866D0400B36D0400B4190120DD
:10A4000010B550B1084C23792BB1214607F0ACF9B7
:10A4100030B100232371002010BD6FF01500FBE761
:10A420006FF00D00F8E700BFB419012070B50024EB
:10A430000546A8B0242221460BA80A942AF0D9FC8C
:10A440001822214604A82AF0D4FC002D4CD0214625
:10A45000242215A814942AF0CCFC214624221FA8FB
:10A460001E942AF0C6FC234923481EAB14AA18F0F8
:10A47000A9FC041E35DD02206A4614A922F007FA61
:10A4800001281FD114A90AA8FEF752FC0AA8FEF75A
:10A4900057FC04AA01460AA823F05CFA08B305ACED
:10A4A000002303222146284606F054FAF8B194E826
:10A4B0000F00124E06F1080585E80F000123002069
:10A4C00033760CE0012C08D002206A461EA922F047
:10A4D000DEF9012801D11EA9D5E76FF03C0028B0B4
:10A4E00070BD6FF00D00FAE76FF01500F7E76FF041
:10A4F0001200F4E7866D0400B36D0400B419012066
:10A5000010B558B1084C237E33B104F1080106F0B0
:10A51000C9FE30B100232376002010BD6FF0150076
:10A52000FBE76FF00D00F8E7B419012010B58CB00F
:10A530001D482AF0A8F9002832D01C4C20462AF0E9
:10A54000A2F950B301A91A481FF071FF01A91648DA
:10A550001FF06DFF174A1448114625F078F9A368DB
:10A560003C21DB68204698472A21204602AA1FF09A
:10A570005BFF2B21204604AA1FF056FF2E21204608
:10A5800006AA1FF051FF3D2120460AAA1FF04CFFEA
:10A590003E21204608AA1FF047FF00200CB010BD46
:10A5A0006FF01200FAE700BFB4580400FC58040032
:10A5B000CC58040040771B00CA0707D5C30705D550
:10A5C0009FED030A0420034912F014B9704700BF3D
:10A5D00000000000F76D04002DE9F04100250E4653
:10A5E000AAB004210446CDE9015506A800951746F6
:10A5F00028F0C3FB711C06A828F037FF30B90023F0
:10A600001846309A13602AB0BDE8F081324B03211E
:10A6100006A8059328F029FF0028F0D0042205A9F8
:10A6200006A828F019FF2D498046142206A828F014
:10A6300013FF00EA08005FFA80F8032106A828F05B
:10A640001CFFB8F1000FDAD00028D8D01834AE4281
:10A6500008D1314606A828F010FF0028CFD0069B6D
:10A66000DB1BCEE7032106A828F0FFFE0028C6D09A
:10A670000422A4F1180106A828F0EEFE0028BED09E
:10A68000A4F1140106A828F005FF0028B7D0A4F112
:10A69000100106A828F0FEFE0028B0D0A4F10C019D
:10A6A00006A828F0F7FE0028A9D0A4F1080106A802
:10A6B00028F0F0FE0028A2D0214606A828F0B3FE1C
:10A6C00000289CD0032106A828F0D7FE20340028BB
:10A6D00095D00135BBE700BF4E414D455D380120A7
:10A6E0002DE9F04F234D87B02B688246222B59EC81
:10A6F000108B57EC116B8DED002B8DED023B36D896
:10A7000004A826F043FA68B12AF038FA4FF47A72B6
:10A71000A0FB020302FB0131C00B40EA4140C90B20
:10A72000CDE90401D5F800B0134C042204EB4B141E
:10A73000514620462AF0C4FB49464046FEF734FA0B
:10A74000394660603046FEF72FFAA060DDE900016F
:10A75000FEF72AFAE060DDE90201FEF725FADDE9FD
:10A760000423C4E906230BF1010320612B6007B029
:10A77000BDE8F08FD8190120D0D1002030B52DEDE3
:10A78000028B044695B04078FDF79CFE41EC180B17
:10A79000A069FDF7B9FEB0EE483AF0EE683A41EC38
:10A7A000120B94ED041B94ED020B1748FFF798FF72
:10A7B0006578022D24D10021382206A82AF019FB41
:10A7C00001238DF81830D4E90223CDE90A23D4E916
:10A7D0000423CDE90C23A36908A80E9300238DF868
:10A7E0000450CDE9043302938DF80C3026F0CEF9F5
:10A7F00006A901A811F0D4FE10B901A81FF031FE7E
:10A8000015B0BDEC028B30BD066E040030B5184C9F
:10A810008DB0184D184900944FF480632A4609689A
:10A820001648FFF7D9FE00B3222200210DF10E00D9
:10A830002AF0DFFA02238DF80C3001238DF80D3059
:10A840000F4B104904933C238DF8143023680E4AB3
:10A8500007930E4B0E48089300230093096803AB3F
:10A86000069502F031F90DB030BD6FF01500FAE732
:10A87000D01901205D340120D8190120D0D1002049
:10A880000B6E0400D41901202834012039A40300E0
:10A8900000C7002008B5FFF7B9FF0022014B1A607E
:10A8A00008BD00BFD81901200021F0B597B03C22A7
:10A8B00007A806912AF09DFA4021174A06A818F029
:10A8C000BBF9044610BB222106A82AF0BDFA00B34A
:10A8D00002AF3D46CDE90244CDE90444431C00F1FA
:10A8E00009022E4618685968083303C69342354654
:10A8F000F7D11868142130609A889B790748B28094
:10A90000B371074A074B00971DF0E4F9204617B0D2
:10A91000F0BD6FF01504F9E7176E04005D380120F3
:10A92000286E0400216E04002DE9F0435E4BA9B0AF
:10A930005E48D3F800340DF03DF84FF0FF314FF092
:10A94000FF3000F0F7F89FED5A0A0021012011F0C6
:10A9500051FF00214FF4160000F00CF911F0B2FC89
:10A96000032026F05AFA534B534A5449032011F05E
:10A97000E9FC4AF6C001524800F0AAFB542200212B
:10A9800012A82AF036FA012402230021CDE914434B
:10A990004C480CAB12AA21F0B7FE90B90C9B83B1C6
:10A9A000DB6949495B680C804B6043F216332046F3
:10A9B0004B800EAA1023043121F0A0FE0C9821F048
:10A9C000A1FE11220221012021F0C0FE3F4B0021F7
:10A9D00018603F4802F04EF90326FFF765FF4FF07D
:10A9E000FF384FF0FF3900243A4F3B4D4FF47012BF
:10A9F00000233846CDE900891CF0A8FB04AB08AA67
:10AA000006A902A8CDE90245CDE90445CDE90645F0
:10AA1000CDE90845CDE90A45CDE90C45CDE90E451E
:10AA2000CDE9124500F03CFA50B99DED043B9DED97
:10AA3000082B9DED061B9DED020B2848FFF750FEED
:10AA40000136072E14D112AB0EAA0CA90AA800F0E9
:10AA5000E5F950B99DED123B9DED022B9DED0C1BD0
:10AA60009DED0A0B1E48FFF73BFEFFF713FF002684
:10AA700038461CF0C9FB0020002100F05BF80028DC
:10AA8000B4D11FF0E8FC0028B0D00FF023FD4FF048
:10AA9000FF314FF0FF3000F04DF84AF6C001084892
:10AAA00000F016FBA2E700BF00500040B9A501006E
:10AAB000000000002D6E0400326E0400386E0400A9
:10AAC0007DA701007E6E040028340120D4190120E6
:10AAD00000C7002058BD00200000F0BF906E0400A9
:10AAE000956E0400014B1870704700BF5C34012064
:10AAF000014B1878704700BF5C34012001460148C3
:10AB00002AF01CB954C10020014601482AF019B9A5
:10AB100054C1002007B50022CDE9000101210448FD
:10AB20002AF013F9003818BF012003B05DF804FBC8
:10AB300054C1002007B50022CDE9000104210448DA
:10AB40002AF003F9003818BF012003B05DF804FBB8
:10AB500054C1002007B50022CDE9000108210448B6
:10AB60002AF0F3F8003818BF012003B05DF804FBA9
:10AB700054C1002007B50022CDE90001102104488E
:10AB80002AF0E3F8003818BF012003B05DF804FB99
:10AB900054C1002008B50A481AF078FE0620FFF7D5
:10ABA000B3FF0022074BD3E8EF1FC3E8E02F0028D4
:10ABB000F9D112F0D3FCBDE808400820FFF79EBF92
:10ABC00030B50020F019012007B526F01EFC20B991
:10ABD00003B05DF804EBFFF7DDBF0022002308217E
:10ABE000CDE900230A482AF0B0F868B909481AF0FC
:10ABF0004DFE0620FFF788FF0820FFF77FFF03B018
:10AC00005DF804EB12F02CBD03B05DF804FB00BF4F
:10AC100054C1002030B5002008B50C4B994209D131
:10AC20004FF4004000211BF0AFFDBDE808400120BB
:10AC3000FFF764BF064B994206D10120FFF764FF7E
:10AC4000BDE80840FFF7C0BF08BD00BF010014F118
:10AC5000020014F1F8B502201FF019FC012009F0E0
:10AC6000C9FE3048304B4360304B036107F046FB70
:10AC70002F4825F09EFF00F0A1FA20B1BDE8F84072
:10AC800003201FF004BC12F051FC0028F6D127F07D
:10AC900034F810F1860F25D06D3023D0254E264D87
:10ACA000264F4FF0FF314FF0FF30FFF733FF082002
:10ACB000FFF72AFF304612F00DFDE8B91FF004FC43
:10ACC0000220FFF71BFF38461AF0E0FD1E23042088
:10ACD0002B60FFF713FF4FF0FF314FF0FF30FFF70E
:10ACE00039FF0BE0012009F073FE4FF0FF314FF008
:10ACF000FF301BF049FDD1E70B30ECD04FF47A73F5
:10AD00004FF4004C40F2E73000212C684FF47A7287
:10AD10005C430023E4FB0C01FDF7E6FF1BF034FD70
:10AD2000BFE700BFDC19012019AC0100030014F1DA
:10AD30003BA40300326E04002CB7002030B5002085
:10AD4000F7B50F460446F8B10190124B5B6A192B18
:10AD50001DD051B114202AF002F8064680B10546F4
:10AD60000FCC0FC5236801962B60002200230948F1
:10AD700001A919F02BFD28B117B1019829F0E8FFBE
:10AD80006FF00B0003B0F0BD6FF01500FAE76FF045
:10AD90001B00F7E784BF002083B51E4D1E4F4FF008
:10ADA000FF324FF0FF33384601A919F0ABFD0446DE
:10ADB0000028F4D14FF0FF314FF0FF30FFF7BAFE1B
:10ADC0002146019813F0F2F9002818DA214601987B
:10ADD000FFF7B6FF30B1019C204626F0F2F820467E
:10ADE00029F0B6FF2B680133052B2B60D7DDFFF769
:10ADF000D1FE00214FF4A0201BF0C6FCCFE7019E3E
:10AE0000304626F0DEF8304629F0A2FF1FF040FB66
:10AE10002C60C4E7F419012084BF0020F7B51D465B
:10AE2000002304461D480F461646CDE900331FF0A7
:10AE30002AFB20B16FF03C04204603B0F0BD6A4607
:10AE40002A2116481FF01CFB0028F3D16846FEF7A4
:10AE5000CFF86A4684ED000B2B2110481FF010FB41
:10AE600004460028E6D16846FEF7C2F86A462E215D
:10AE700087ED000B09481FF003FB6846FEF7B8F8A2
:10AE80006A4686ED000B3D2104481FF0F9FA68463A
:10AE9000FEF7AEF885ED000BCEE700BFFC580400CE
:10AEA0002DE9F3411D46002380461C480F461646F7
:10AEB000CDE900331FF0E7FA044658BB6A460D217E
:10AEC00016481FF0DDFA6846FEF792F86A46102130
:10AED00088ED000B11481FF0D3FA6846FEF788F89A
:10AEE0006A460E2187ED000B0C481FF0C9FA684630
:10AEF000FEF77EF86A4686ED000B1E2107481FF01C
:10AF0000BFFA6846FEF774F885ED000B204602B0E4
:10AF1000BDE8F0816FF03C04F8E700BFE45804009E
:10AF200013B50B490DF1070225F0BFFF044630B9F8
:10AF30009DF80700FFF7D6FD204602B010BD10F1C6
:10AF4000230F14BF6FF022046FF00804F4E700BF72
:10AF50009A6E04000023012210B594B00FA8CDE929
:10AF60000333CDE90833CDE90D33CDE912338DF844
:10AF7000002001938DF808308DF8142006938DF889
:10AF80001C308DF828200B938DF830308DF83C2044
:10AF900010938DF8443025F0C5FF80B16FF00B049D
:10AFA000684626F00EF805A826F00BF80AA826F049
:10AFB00008F80FA826F005F8204614B010BD0AA81E
:10AFC00025F0B0FF0028E9D105A825F0ABFF002847
:10AFD000E4D1684625F0A6FF04460028DED1FFF73D
:10AFE00087FD234602460B490FA826F0AAF804461F
:10AFF0000028D5D10346084968460FAA26F0C1F8B3
:10B0000004460028CCD1014668461FF05EFA04468B
:10B01000C6E700BF9A6E0400A86E040070B505462E
:10B0200086B000283BD00378012B04D06FF02204B7
:10B03000204606B070BD4268002AF7D000261949A4
:10B0400001AACDE904668DF8043002968DF80C60F3
:10B0500025F03FFF1330E9D001A8FFF761FF10F1A1
:10B06000090F04460DD101A825F0ABFF01A825F07A
:10B0700059FFFFF73DFD334602460B4901A826F074
:10B0800060F800232846074901AA26F07AF800282C
:10B09000CED001A825F095FF6FF00B04C8E76FF044
:10B0A0001504C5E7A86E04009A6E04000278012A10
:10B0B00002D0022A04D07047044B1B682BB11847FA
:10B0C0004378022B01D01FF0CAB97047F81901204C
:10B0D00030B505468FB00C4625F069FD0B4B0C488A
:10B0E0001D600FF0AFF970B9012501A86A46294625
:10B0F0008DF8005025F092FD01A88DF83450ADF880
:10B100002C400FF0B3F90FB030BD00BFF81901208B
:10B11000ADB0010030B50024ADF5097D4FF4FE72ED
:10B12000214609A8089429F064FE4FF4007308AD85
:10B13000CDE900340122322369462846029513F0F6
:10B14000BDF910F10D0F0DD060B9009B019363B9EB
:10B150006FF00A00184C237823B9FFF7FBFE38BBC9
:10B16000012323700DF5097D30BD0146142203A88B
:10B1700029F03FFE03A901A826F0A2FC002814DB59
:10B18000E6D003A8FFF74AFF10F1090F0BD010F12A
:10B190000C0FDFD0214603A81FF097F9002818BF35
:10B1A0006FF00D00D6E70121F5E76FF00400D1E75D
:10B1B0006FF00400D6E700BF7138012008B50548DC
:10B1C00011F086FE20B9034811F0B2FE00EAE070EB
:10B1D00008BD00BF60B50020D0B500270D4C0E4E55
:10B1E0004FF0FF314FF0FF30FFF7A4FC204611F085
:10B1F000C7FE10F10B0F04D1304639461BF0C4FADC
:10B20000EEE7023001D11FF02AF94FF4A02000210F
:10B21000F4E700BF60B500200000605410B5094C91
:10B220000A44914200D110BD11F8013B5840030976
:10B23000E35C0001C0B243401809205C1B01DBB293
:10B240005840EEE7AF6E0400F0B5002421F0030291
:10B25000184D194E194F0244904218D1002301F0A5
:10B260000300104482421FD112484C405843124BF5
:10B270004FEA70405843124B604080EA10405843F8
:10B28000104B80EA5030584380EA1040F0BD50F82F
:10B29000043B6B434FEA7343734363404FEAF3430A
:10B2A00003EB8303DC19D7E712F8015B45EA0323BC
:10B2B000D8E700BF512D9ECC9335871B646B54E6B5
:10B2C0006BCAEB8535AEB2C270B589B30668012290
:10B2D00030461FF06DF90146044630461FF030F944
:10B2E000C30708D41349AF2213481FF02BFBAF212B
:10B2F00010481FF01EFB214630461FF037F9251875
:10B300002946002230461FF01BF92D1AAC4206D008
:10B310000849B72208481FF015FBB721E8E7214686
:10B3200030461FF029F92146BDE870401FF065BA8C
:10B3300070BD00BFBF6E0400E26E04002DE9F8434B
:10B340000F4606681446B2684B1EB2F5004F34BF74
:10B35000042108213B4010D0C7F1000909EA070980
:10B36000494503F1FF3028BF494618420CD11F461A
:10B37000BCB900252846BDE8F8838F420FD8214686
:10B38000BDE8F8431FF07BBA2C492D484FF4A27258
:10B390001FF0D8FA4FF4A27128481FF0CAFA994654
:10B3A000E6E7B2EBD40FE4D9E319591A10461FF0BF
:10B3B00009F9014630461FF05FF980460028D8D0D1
:10B3C000B36809EBC005B3F5004F34BF042308236D
:10B3D0001D4435447B1E1D44B5FBF7F57D43A5EBAD
:10B3E0000905294630461FF0E3F82C44073424F0C1
:10B3F0000704A41B804507464FEAE40408D202462E
:10B40000414630461FF072F9414630461FF0B3F90D
:10B41000394630461FF0AAF83844844208D23946EB
:10B42000304622461FF062F9214630461FF0A3F94C
:10B430000122394630461FF09FF89BE7BF6E04009B
:10B44000E26E04002DE9F74F91461F460E46046850
:10B45000009031B93A46494603B0BDE8F04FFFF7D6
:10B460006DBF3FB9FFF730FF4FF00008404603B013
:10B47000BDE8F08F02F1FF3A1AEA020F0AD04B49F9
:10B480004B4840F289121FF05DFA40F2891147489B
:10B490001FF04FFAD4F808B0BBEBD70FE4D9204621
:10B4A0001FF086F80146054620461FF05FF8BBF501
:10B4B000004F2CBF0822042202EBC5022244B31A1B
:10B4C0008046F918584601931FF07CF88346B9F17D
:10B4D000000F02D016EA0A0F44D1C3450ED00FD296
:10B4E000AB445A46294620461FF000F9294601225E
:10B4F00020461FF041F859461FF07FF9B046B5E7E6
:10B5000005EB080A0122514620461FF019F8C3072F
:10B5100028D4514620461FF029F84044584521D3ED
:10B52000514620461FF091F8514620461FF01EF864
:10B53000ABEB080840450AD905EB0B0751462046FE
:10B540003A461FF0D3F8394620461FF014F9524608
:10B55000294620461FF0F1F80122294620461FF017
:10B560000BF8CBE73A4649460098FFF7E7FE8046DE
:10B5700000283FF479AF294620461EF0F7FFA36864
:10B58000019AB3F5004F34BF04230823C2EBC00275
:10B59000D21ABA42314628BF3A46404629F002FC48
:10B5A00031460098FFF790FE60E700BFBF6E0400D1
:10B5B000E26E0400B2F5802F2DE9F0410CD2042A8E
:10B5C00020D83D494FF4F9723C481FF0BBF94FF4C5
:10B5D000F97139481FF0ADF90823D21ACC1D114476
:10B5E00024F0070421F00701091B17294FEAD106AF
:10B5F0000AD8314940F2FB1230481FF0A3F940F25B
:10B60000FB11E6E70423E8E70027046031463046F3
:10B61000A660E7601EF0DFFF0121421D8046304634
:10B620001EF0D0FF9200D51DED082844B0423AD854
:10B63000B8F1FF3F3946A2F1100204F11000B8BF83
:10B640003A4629F0D6FB2A46394620461EF0ACFF82
:10B650003B463A46394620461EF07DFFA6EB0508DC
:10B660002046394601221EF087FF424629461EF039
:10B670009BFF2B463A46294620461EF06CFF31467A
:10B6800020461EF091FF43463A46314620461EF0C2
:10B6900062FF3146204601221EF06EFF2946BDE8BA
:10B6A000F0411FF068B804494FF4037203481FF0DB
:10B6B00049F94FF403718CE7BF6E0400E26E040099
:10B6C000014B1B68184700BF30B7002030B585B06C
:10B6D00004460D4610220021684629F08AFB022309
:10B6E0008DF80230044B2A462146684601931CF02F
:10B6F000ABFF05B030BD00BFC1B6010080B5054647
:10B700000E46174698461BF06DF8034629F0BCFF1D
:10B710000446DFF81890424649F800303946304672
:10B72000A84754F8090002F0B1F900BF0800000072
:10B7300000B5162229F0A8FF024B1A504FF0FF3037
:10B740005DF804FB0C0000000F2800B508D929F0B3
:10B750009BFF0922074B1A504FF0FF305DF804FBA6
:10B760003022054B02FB0033D3E8AF3F002BEED075
:10B770000020F3E70C0000003CB7002030234343D7
:10B7800030B50D4908330B44D3E8AF2F92B1541EA6
:10B79000D3E8EF5F954204D1C3E8EC4FBCF1000F52
:10B7A000F6D1F1D1012A05D13023584300230A18DC
:10B7B0000B50536030BD00BF34B7002038B504468D
:10B7C0001546FFF7C1FF00280DDB30236343074A0E
:10B7D000D0184068086015B10C3313442B60302337
:10B7E0005C43105938BD0020FCE700BF34B700208F
:10B7F00070B500254FF0FF334FF0FF3217481FF0B0
:10B8000092F8174BD3E8AF2F82B10135102D03F119
:10B810003003F7D129F038FF17224FF0FF35114BD5
:10B820001A500E481FF081F8284670BD30246C4332
:10B83000D3E8EF0F0130C3E8E10F0029F8D10A4E39
:10B84000331932515A6004F10C00304429F078F871
:10B8500004F12000304429F024F9E2E758BE00202A
:10B860003CB700200C00000034B7002030B4044680
:10B87000302510466C43084A151911516860EB6277
:10B8800040B1C36833B10C34131940F2051230BC17
:10B890001FF038B830BC704734B70020F8B5054603
:10B8A000FFF752FF00281ADB30246C430D4F04F1E0
:10B8B0000C063E444FF0FF324FF0FF3330461FF08E
:10B8C00032F83B195B6838599B6898470446304604
:10B8D0001FF02BF82846FFF751FF2046F8BD4FF028
:10B8E000FF34FAE734B70020044608B5EFF31183BC
:10B8F000202383F31288BFF36F8F0AF037FF2046AF
:10B9000002F07AF802481EF0EEFF20F0B7FEFCE7E6
:10B91000FA6E04002DE9F04300273C463D46DDF871
:10B920001CE0DFF8288175451FD3E4BB00201460BC
:10B93000BDE8F0830136764533D013F806C0BCF17C
:10B94000200FF7D0AEEB0609B9F1010FA6EB050504
:10B950000DD0BCF10D0F0AD103EB060999F8019047
:10B96000B9F10A0F6ED1751CDDE72E46E3E7BCF195
:10B970000A0FF8D02DB9BCF13D0F05D10137022FC8
:10B980000DD96FF01500D3E71CF0800FF9D118F82E
:10B990000C507F2DF5D03F2D01D8002FF1D101346F
:10B9A000E1E73546C1E74FF0060C04F00706E4086E
:10B9B0000CFB06F60CFB04F40736E41B04EBD60480
:10B9C00070B18C420CD80027014603263C46DFF8B4
:10B9D0007CE0DFF87C801D449D4205D10C1AA5E770
:10B9E0006FF00B001460A3E713F8019BA9F10A0C98
:10B9F0005FFA8CFCBCF1160F04D848FA0CFC1CF062
:10BA0000010FE9D01EF809C00134BCF1400F08BF96
:10BA1000013E0CF03F0C042C4CEA8717DCD17EB1C0
:10BA20003C0C012E0C7002D101310024D4E7022E0F
:10BA30004FEA17244C7016BF8F7002310331F4E7C0
:10BA40003446C9E7002DA2D09BE700BF236F040056
:10BA5000F6FFBFFF2DE9F84340F26C7344690569B6
:10BA6000E1170135E41841F10001022D8CBF0023DC
:10BA70000123E41AC76861F100010029064607F1B5
:10BA8000FF374EDA6FF4C7704FF4C87200232018E6
:10BA900061F10001FDF7D8F8244B4FF03C0E03FB99
:10BAA0000044D6E900834FEAE37C99466346022DC1
:10BAB00002468CBF6FF002000920B6680544C6FB41
:10BAC0000E93A9FB0EC60EFB036640F26D1E992075
:10BAD000A3080EFB04333B44642745430520B4FB15
:10BAE000F7F40235B5FBF0F51B1B114C1CEB080CF1
:10BAF000A2FB042004FB01012B4446EBE8769818D6
:10BB00000C4A41F1000380180B4A63F10003A0FBCB
:10BB1000020102FB031110EB0C0041EB0601BDE832
:10BB2000F8834FF4C87200232046B3E770FEFFFF8E
:10BB3000B13A02009405F5FF805101002DE9F84F5C
:10BB40000446A38B08461907164612D4022803F0B0
:10BB5000070162D120461EF052FF88B10138042847
:10BB600000F22581DFE810F0590023017E00C800B3
:10BB7000F50001280CBF43F0100143F02001A18320
:10BB800004F114001AF0FEFF002800F0AB8086F3E9
:10BB90001188BFF36F8FBDE8F88F03F00702501FC5
:10BBA00001281ED80020062A2768C4E9000014D105
:10BBB0003A4603E0E08B0130E0831268002AF9D1B5
:10BBC00023F0070343F002022046A2831EF017FF72
:10BBD00090B342F02002A2832EE023F007039AB232
:10BBE000F2E7042A33D123F007039AB22046A28356
:10BBF0001EF005FF10B142F02002A283A38B03F0D8
:10BC00000709894540F0DC80A18BCA0640F12181FB
:10BC100021F01003A38301F00701D4F81880A38B4F
:10BC2000B8F1000FB9DA0022276823F00703C4E94E
:10BC3000002243F00103A383A38B03F00709894586
:10BC400040F0BF80002FDFD00025AA4640E08549A4
:10BC500040F21B1284481EF075FE40F21B11814811
:10BC60001EF067FE41B17F494FF4AB727E481EF073
:10BC700069FE4FF4AB71F2E7236843B9794940F2AA
:10BC8000571279481EF05EFE40F25711E7E723692C
:10BC90001D6845B973494FF4AD7273481EF052FEEA
:10BCA0004FF4AD71DBE70F4688464FF00609A38BD2
:10BCB00023F0070343F006039BB2A383A268002A84
:10BCC00040F08180002F40F08180002D9CD0BA464A
:10BCD00043F0080304F1140B5846A3831AF052FFF3
:10BCE000002875D1614940F231125F481EF02AFEEA
:10BCF00040F231115D48B3E7022908D0594940F2BA
:10BD00005D1259481EF01EFE40F25D11A7E7E78B59
:10BD100047B154494FF4AF7253481EF013FE4FF42D
:10BD2000AF719CE723695D6845B94E4940F26112E5
:10BD30004D481EF007FE40F2611190E7A38BB84614
:10BD400023F0070343F004039BB24FF00409A383DD
:10BD5000B4E7012908D043494FF4B27242481EF0BB
:10BD6000F1FD4FF4B2717AE7236843B93D4940F2DF
:10BD700065123D481EF0E6FD40F265116FE723694C
:10BD80009D6845B937494FF4B47237481EF0DAFD63
:10BD90004FF4B47163E70027A38BB84623F0070381
:10BDA00043F005039BB24FF00509A38386E72D49B5
:10BDB00040F26B122C481EF0C5FD40F26B114EE7AD
:10BDC000002700257AE74FF0010A81E792467FE7D6
:10BDD00086F31188BFF36F8FBAF1000F16D147BBFE
:10BDE00015B120462249A847EFF31186202383F39B
:10BDF0001288BFF36F8F58461AF0B6FE08BB1B4976
:10BE0000882219481EF09EFD882173E7A168002949
:10BE1000E5D00E680029E2D043464A462046D1F8D4
:10BE200004A0D0471EB1336831461E46F2E73346C0
:10BE3000FAE7394643464A4620463F681EF00BFE65
:10BE4000CDE758461AF0B4FEA38B23F00803A38372
:10BE5000DAE68B067FF594AE21F02003A38301F090
:10BE6000070177E6A36F0400E26E0400C86F0400C8
:10BE700075BE0100F8B504460D4600F11406EFF357
:10BE80001187202383F31288BFF36F8F30461AF097
:10BE90006BFE40B909490A4888221EF053FD8821EB
:10BEA00006481EF046FD30461AF082FEA5613A466D
:10BEB0002046BDE8F8400121FFF740BEC86F0400EE
:10BEC000E26E04002DE9F04704460F461EF0B3FD74
:10BED000051E5DDB04F11409EFF3118A202383F3BF
:10BEE0001288BFF36F8F48461AF03EFE804638B97D
:10BEF0003349882233481EF025FD882130483CE034
:10BF000048461AF055FE4FF6FF72E38BA68B93421C
:10BF100006F007063FD0022E10D135460133E383E9
:10BF200048461AF02FFE00283BD1254940F2311235
:10BF300024481EF007FD40F23111DFE7062E13D82A
:10BF4000DFE806F0092C1212090409006FF08505DC
:10BF50004FF00008E4E700233B6063687BB9C4E965
:10BF600000777EB13546F3E7174916484FF4E4727F
:10BF70001EF0E8FC4FF4E47113481EF0DAFC1F6079
:10BF80006760EEE7524602212046FFF7D7FD3546AF
:10BF90002846BDE8F0876FF00A05D9E76FF0040581
:10BFA000D6E78AF31188BFF36F8FB8F1000FEFD097
:10BFB00000233246394620461EF04DFDE8E700BF1B
:10BFC000C86F0400E26E0400A36F040008B5426865
:10BFD000034602F00302022A81600AD0032A4FF0CE
:10BFE000000103D0012A0AD1596006E0186859609F
:10BFF00008BD186800225A6050B90020F8E70649C9
:10C00000064845221EF09EFC452103481EF091FC87
:10C010001BF0FCFBF1E700BFF56F0400E26E0400CB
:10C020002DE9F04F85B090F836800446B8F1080F3E
:10C0300038BF4FF00808894608F1070303F4FC7382
:10C0400002AFADEB030D02AB90F83C10164618465C
:10C0500042467B6028F0CDFE4A46204679681EF0B5
:10C06000EBFDB0F1000A7ADB94F836B01FFA8AF1E2
:10C0700058461EF02EFD4946054658461EF029FD3D
:10C080000121814658461EF024FDA84581441FFA2F
:10C0900089F908D23A493B484E221EF053FC4E2102
:10C0A00037481EF046FC04F10C084FF0FF324FF009
:10C0B000FF33404618F0C6FC824600285CD1D4E924
:10C0C000091248682A444A44824234D9D346A279A4
:10C0D00020463A601EF067FF0146BBF1000F08BF23
:10C0E0008346206A814241D03A680AF101005245F4
:10C0F0003ADCBBF1000F39D0082194F836001EF06D
:10C10000E8FCDBF804A04844284482452ED3A28EE4
:10C1100059460132204692B21EF0CCFD8246D8B973
:10C12000082194F83600C4F824B01EF0D2FCA38E87
:10C13000A0620133A38600952046D4E909127B68EA
:10C140001EF044FD8246A0B9636A3360A36A1D44B1
:10C15000B5604D447360A562404618F029FD504615
:10C160000C37BD46BDE8F08F8246B1E76FF01B0A81
:10C17000F2E76FF0040AEFE76FF0150AEFE700BF90
:10C180001B700400E26E0400014B03600020704746
:10C19000B85F040070B5114B0D461C68DCB1104B44
:10C1A000196800238B4202DB6FF0010070BD22464C
:10C1B00012F8106B864202D014460133F2E7E068B1
:10C1C00010B96FF01200F1E728F05DFB0028F8D0FD
:10C1D00000202C60EAE76FF00C00E7E788BA002047
:10C1E000CC5F040070B588B005460C46C0B2694605
:10C1F0001646FFF7CFFF00281BDB0098C8B1436845
:10C200002268029383680195CDE903360023CDE9C6
:10C2100006230593C5681EF093FF6DB128460849B3
:10C2200001AA23F0E2F8079808B9059B236008B03B
:10C2300070BD6FF01500FAE76FF01200F7E700BF6E
:10C2400011B203002DE9F3470D46DDE90A78914666
:10C250001E46044620B96FF00D0002B0BDE8F0871D
:10C260000029F8D0002AF6D00093002301938B68B0
:10C270000846DB68984702688246B6FBF2F302FB89
:10C2800013636262002BE6D16A462846144923F004
:10C29000ACF8019A002ADED007EB08039A42DAD301
:10C2A000616AB7FBF1F301FB1373002BD3D1C4E92F
:10C2B0000096E5602361A3606761B8F1000F01D1CA
:10C2C000A2EB07080C9BC4F81880E3614FF0FF3322
:10C2D00023629AF80530002084F82830BDE700BFBB
:10C2E00055B2030010B5034C0821204620F05EFA39
:10C2F000204610BD7238012018B3006808B340789A
:10C30000A5281DD8872805D85F281AD013D8072854
:10C310000AD8704700F178020A4BD2B2D34013F02A
:10C32000010F08BF00207047A0F14003DBB2062BCD
:10C3300028BF00207047A0F18003DBB2072BF7E78E
:10C3400000207047B340203FF8B50F46044615461D
:10C35000002140221E4628F04CFD38461FF0B2FC5A
:10C360002A462346A08405F1180152F8040B8A429C
:10C3700043F8040BF9D104F13005DEB196E807006B
:10C3800085E807003B68A362BB88A38528F0F6FB1D
:10C390004FF47A72A0FB020302FB0131C00B40EAAA
:10C3A0004140C90BC4E9060194F83830002084F8F4
:10C3B0002E30F8BD014B93E80700E1E734BA0020C6
:10C3C00007B504210DEB010020F0F0F9019A024BB2
:10C3D0001A8003B05DF804FB40340120024B18883A
:10C3E000421C1A80704700BF403401200346034AB4
:10C3F00007CA83E807001846704700BF34BA002018
:10C4000013B51C46049B63B9CDE9003302F0A6FBCB
:10C41000002804DA29F038F9044B1858404202B0D9
:10C4200010BDCDE900430023F0E700BF0C00000081
:10C430002DE9F04FA7B04FF0FF324FF0FF33B64871
:10C4400018F07CFD1822002110A828F0D2FCB34B74
:10C4500000261D4605930296B14B1B689E421CDBCD
:10C460004FF4FA72029910A820F0F3F900283FDA8D
:10C4700029F00AF9AB4B1B58002BDCDC0024A84B3D
:10C480001B689C42D7DA059B53F8040B05931FF0F9
:10C49000A4FE0028D6D10134F1E728681FF09DFEE4
:10C4A000D5F80080074604B208F698001FF0C9FED0
:10C4B00020B908F515601FF0C4FEA8B144F00403CC
:10C4C0002A6826A81168029A00EBC20222F8543C9E
:10C4D0004FF0000322F8523C029B42F8581C0133F3
:10C4E000029301360435B7E7002FFAD00123E7E7BE
:10C4F000C4D000230DF1400A0493029B049A934296
:10C50000BCD0874BDAF8005019680023059A8B429B
:10C5100005DB049B0AF1080A01330493EDE752F8A6
:10C52000044B2068854200F0AF820133EFE716AD7F
:10C5300006F1300CBCE80F000FC5BCE80F000FC5BA
:10C54000BCE80F000FC59CE80F0085E80F00F37BE7
:10C5500006F130054BB96FF0730130461FF092FEC3
:10C560004FF00003F3730023ACE2336D002BF2D0E5
:10C5700028461FF0FFFC0028EDD0336A0BB1B368EA
:10C58000736206F170010123324620461FF042FD1E
:10C59000011EE2DBE369B6F898200093D6F8941008
:10C5A0002068231DFFF72CFF011E12DC11F10B0F79
:10C5B00040F0BA800DF1580CBCE80F000FC5BCE884
:10C5C0000F000FC5BCE80F000FC59CE80F0085E801
:10C5D0000F00B836B04540F0698238461FF018FEAB
:10C5E000BAF80630DD077ED5A34604F264464FF460
:10C5F00086620021304628F0FCFBE3695BF8040BFF
:10C60000002B40F09580CDE9003340234FF4866243
:10C61000314602F0D9FA002805460CDC00F097807C
:10C6200029F032F83F4B1B58002BC3F1000500F3F3
:10C63000858000F08E80B5F5866FA8464FF0000328
:10C6400028BF4FF48668314600931FFA88F20CA881
:10C650001FF011FA002870DBA845ACBF4FF00008AE
:10C660004FF0010804F1200306934FF0FF324FF022
:10C67000FF3306981FF0CAFD0CA81FF008FB064602
:10C680000CA8FFF739FE03900CA81FF01BFB0DF15F
:10C690002E0107460CA81FF060FB032E09905CD109
:10C6A00094F8A7381BB1B4F8A438BB4253D094F81F
:10C6B0005F39ABB1B4F85C39BB4211D10125B82365
:10C6C0005D4305F698006FF0670120441FF0DAFD26
:10C6D0004FF00003254485F8A7380023C5F8E83853
:10C6E00006981FF095FDBAF80630180704D56FF0CC
:10C6F000040120461FF0E8FDBAF80630D90604D53B
:10C700006FF0040120461FF0DFFDBAF806309A06EC
:10C710007FF5FFAE15E000BF1CC00020001A01200D
:10C72000FC1901200C00000000293FF452AF14E76F
:10C7300004F11C03CDE900B367E705460B353FF470
:10C74000E8AE6FF0040120461FF0BEFDE1E6804632
:10C7500088E7984686E70025B1E7BDF82E3083BB11
:10C76000022E2ED1039B63BB94F8A7381BB1B4F8FB
:10C77000A438BB4223D094F85F39002BB0D0B4F872
:10C780005C39BB42ACD1012528F0F8F9B82303FB92
:10C7900005424FF47A75A0FB053005FB0101DB0B68
:10C7A00043EA4143C2F8E03841F27073C2F8E83816
:10C7B0000023C90BC2F8E41882F8F63890E7039D0D
:10C7C000E2E716A90CA81FF069FA94F8A738814689
:10C7D00023B904F698001FF0D6FC60B994F8A63887
:10C7E0004BB1994507D104F698054A46284616A943
:10C7F00028F00BFBE0B194F85F393BB194F85E3957
:10C800005BB920460CA91FF005FD69E704F515602A
:10C810001FF0B9FC0028F1D0F3E79945F1D104F5F8
:10C8200015654A46284616A928F0EFFA0028E8D1EF
:10C830000123FC2104F608220CA81FF0E4F90028CB
:10C8400042D0039B812B3CD100232A46204605F190
:10C8500070011FF0DFFB061E2EDB05F19407FC21A3
:10C860003846B4F80A3A04F60C221FF017F8061EF0
:10C8700022DB38461FF00BFA88B916AB05F16002CF
:10C8800005F1300807CA83E807005A463946404692
:10C89000FFF75AFD061E0FDB40461FF06BFBE369F6
:10C8A000B5F898200093D5F894105B462068FFF700
:10C8B000A7FD061EBFF614AF314628461FF0E2FC66
:10C8C0009FE0012384F8CC3A8EB1D5F8B0309F4276
:10C8D0003FF406AF95F80F90C5F8B070B9F1000FAE
:10C8E0001CD195F8AC30002B3FF4FAAE89E70096E6
:10C8F0004FF4866304F134020CA916A81FF0E9F97D
:10C90000061ED9DBE369BDF85C20009316995B46EF
:10C910002068FFF775FD061ED7DACDE72B6D1BB13A
:10C9200005F130001FF058FB17210CA81FF07DFA0D
:10C93000002816DCB8F1000F5FD12B6AD5F88420EF
:10C94000C5F80880002B5AD046466A6A9A42AA6007
:10C9500028D1D5F88430002B40F09280002E50DA98
:10C96000AAE7B8F1000F46D180F00807C7F3C00767
:10C97000000907D10022062105F114001FF00DFA6D
:10C980000023AB6005F1140841460CA81FF066FABD
:10C99000414606460CA81FF0DFFA2B6A002BD4D1C3
:10C9A000002FD6D1BDF82E30B3F5806F28BF4FF4DD
:10C9B0008063ADF82E30D5F8843053BB00232A466F
:10C9C000204605F170011FF025FB061EFFF674AF2F
:10C9D00016AB05F1600205F1300707CA83E80700CE
:10C9E0005A46384605F19401FFF7AEFC061EFFF6E5
:10C9F00063AF384651E70027BAE70027BAE7002AB5
:10CA000040D195F8AC30002B7FF46AAEEB732B6508
:10CA100066E6C8464FF0000905F1100307930123AD
:10CA20000798D0E8EF1FC0E8E23F002AF9D108914B
:10CA3000A1B9D5F89030BDF90C00CDE90093099A61
:10CA4000A968BDF82E30D5F88470B847DDE9070134
:10CA5000D0E8EF3FC0E8E21F002AF9D1EB7B002BC2
:10CA60003FF47CAFB8F1000F3FF478AFAB68BDF88E
:10CA70002E201344AB60B9F1000F7FF46FAF9DE738
:10CA8000C846C9E74646C7E7BAF806305B077FF5F0
:10CA9000A7AD04F120074FF0FF324FF0FF333846C7
:10CAA0001FF0B4FB04F6980604F6082830461FF081
:10CAB000C8FB00283FF48DAD96F87130002B7FF451
:10CAC00036ADF373336584E52DE9F74F0F46144611
:10CAD0009A460546002800F0C5800029C0F2C280B1
:10CAE000002B00F0BF805B68002B00F0BB8000F1E2
:10CAF00020094FF0FF334FF0FF3248461FF086FB0E
:10CB000095F8A7388BB195F85F392BB905F51566FF
:10CB100030461FF038FB78B96FF00A0448461FF022
:10CB200077FB204603B0BDE8F08F05F69806304647
:10CB30001FF029FB0028E6D02B68BB4205D0284611
:10CB40001FF061FA002840F08880002C77D005F1B2
:10CB5000040818222146404628F057F970B12846AB
:10CB60001FF051FA002878D104F1180354F8042B6F
:10CB70009C4248F8042BF9D11823EB6130461FF092
:10CB800037FA00233246514628461FF043FA041E66
:10CB900051DB95F8CC3A06F1940863B1FC2140468C
:10CBA000B5F80A3A05F60C221EF078FE041E42DBA8
:10CBB000002385F8CC3A2F6006F170030AF12402B5
:10CBC0005AF8041B924543F8041BF9D10123F3736F
:10CBD000264806F1300B05F1040A18F075F95246A3
:10CBE000414658460C9BFFF7AFFB041E23DB404633
:10CBF0001FF04DF8012808BF0023584608BF86F8EB
:10CC00005E301FF0B7F940461FF0EAF986F8AC0035
:10CC1000EB6938460093B6F898205346D6F894103E
:10CC2000FFF7EEFB00281BDA28F02EFD104B1C58F6
:10CC3000002C15DD644230461FF0DAF96EE7EB692F
:10CC4000002B9BD028461FF0DEF930B91822214670
:10CC5000281D28F0CEF8EC6190E76FF07704EAE742
:10CC600000245BE76FF015045BE700BF1CC00020E9
:10CC70000C00000038B50446F8B1114D4FF0FF33F9
:10CC80004FF0FF320F481FF0C1FA2B68022B05DD71
:10CC90000C481FF0BDFA6FF01B0038BD04F12000F6
:10CCA00027F04EFE2B68084A064842F8234001331D
:10CCB0002B601FF0ADFA0020EFE76FF01500ECE7F6
:10CCC000FC19012008BE0020001A012070B50D4695
:10CCD0001646044638B331B32022002128F089F8E3
:10CCE00028881122022101F09DFE0028E06005DA6B
:10CCF00028F0CAFC0D4B1858404270BD32462946F8
:10CD000001F000FF0028E06802DA01F0D3FEEFE74F
:10CD10000121A36844F8330004EBC3020B44918063
:10CD20000020A360E9E76FF00D00E6E70C000000CB
:10CD3000F0B504469BB00F4615460021302202A8EC
:10CD400028F057F8002C00F0A180002D00F09E8004
:10CD50009DF8083023F03F0343F01B038DF80830A3
:10CD600027F00CFF4B4A0026A0FB020302FB013117
:10CD700010F5804041F10001C00B40EA4140002322
:10CD8000444AC90BFBF760FF41F2C6034FEA106C3F
:10CD90005A4303024CEA012C03F47F0343EA0C03D9
:10CDA000C4E9040143EA0063000A00F47F4003433E
:10CDB000A26112BAE0680C930D9230223346CDE99D
:10CDC000006602A901F0CAFE002810DB31463022BD
:10CDD0000EA828F00EF8A1683A4620461FF039FD4B
:10CDE000B04206DA28F050FC2B4B185840421BB0DA
:10CDF000F0BD42D0E06830223346CDE900660EA98E
:10CE000001F0E2FE0028EDDB302839D1D4E904122C
:10CE1000149B1BBA964208BF8B4202D06FF01500DC
:10CE2000E5E7159BA2691BBA9342F7D19DF838300C
:10CE300003F00703042BF1D19DF839301BB3189B85
:10CE4000199A1BBA12BA53EA0201E7D0AA6000226B
:10CE500093420DDA11498B4202D8C5E90032DDE771
:10CE60000F4A9B1862EB02020020C5E90032BEE7C0
:10CE70000B495B1842F10002F6E76FF07300B6E76A
:10CE80006FF07900B3E76FF00F00B0E76FF00D00BF
:10CE9000ADE700BF40420F000C0000007F7EAA8378
:10CEA0008081557C2DE9F0410F4B05461C680E46EC
:10CEB0001746ACB14FF0FF324FF0FF330B4817F07D
:10CEC000C1FD63683246D3F8088029463B462046B8
:10CED000C0470446054817F06BFE2046BDE8F081C8
:10CEE0006FF00104F9E700BF0C1A01205CBF0020BD
:10CEF00000230360044B5A6812B9C3E9000070476D
:10CF000010605860704700BF101A0120014B186074
:10CF1000704700BF0C1A0120002330B585B00546CC
:10CF2000CDE9023301904FF0FF334FF0FF320B4851
:10CF300017F088FD0A4B1C684CB9284600F07CF8B5
:10CF40000446064817F034FE204605B030BD63683D
:10CF500020461B6801A998472468EDE75CBF0020C4
:10CF6000101A01200022024BC3E90022704700BFC3
:10CF7000101A01200022024BC3E90022FFF7F2BF82
:10CF8000181A01202DE9F74307460C4609B1002382
:10CF90000B600026234DDFF89C904D4520D9224997
:10CFA000224894221DF0CEFC94211F481DF0C1FCA4
:10CFB000D5F800803846414601AA1FF0D4F950B197
:10CFC00016B954B92E4606E00022404631681FF0DB
:10CFD000CAF90028F5D11435DFE7019B2360F1E79A
:10CFE000E6D3134B1D68C5B155F8148C384641463D
:10CFF00001AA143D1FF0B7F950B116B954B92E4625
:10D0000006E00022404631681FF0ADF90028F5D156
:10D010006D69E8E7019B2360F1E7304603B0BDE8A6
:10D02000F08300BF605C040061700400E26E0400E5
:10D03000181A0120745C0400F8B5064600251C4C43
:10D040001C4FBC421BD91C491C48F4221DF07AFC21
:10D05000F42119481DF06DFC2EB9E3685BB9284630
:10D0600005461434EDE70022314620681FF07BF9B5
:10D070000028F2D1F3E79847002DF0D1F0E7EBD389
:10D080000F4B1C6894B1143C1EB9E3684BB964693A
:10D09000F8E70022314620681FF065F90028F4D136
:10D0A000F5E79847002D08BF0546F0E72846F8BD8C
:10D0B000605C0400745C040061700400E26E0400B3
:10D0C000181A012038B50C4D4FF0FF334FF0FF32E6
:10D0D0000A4817F0B7FC2B783BB9FFF74BFF00F07D
:10D0E0002BFA044610B901232B700024034817F0D3
:10D0F0005FFD204638BD00BF7A3801205CBF0020AC
:10D100002DE9F04FDFF8B0A08FB002939AF80C3001
:10D110000646894615460193002A46D090462023AC
:10D120000593019BDAF8004096FBF3F75F431998EB
:10D13000394605AB06AAA0470446002838D1059B0E
:10D14000F71BDA1B424528BF4246009306AB1F443B
:10D15000189B93462BB33846197827F015FE10B369
:10D160000123A0EB070B5A4639464846039327F0A4
:10D1700019FE009BA8EB0B081F2B039B05D923B9B5
:10D18000D9445E44B8F1000FC9D1029AA5EB080555
:10D190001560189A0AB183F0010420460FB0BDE86B
:10D1A000F08F189BDFE72346DDE76FF01504F4E707
:10D1B0006FF00404F1E700BF201A01202DE9F04FC1
:10D1C0008BB08246884615460193FBF7B9FDDFF820
:10D1D000C090524699F80C700199B0FBF7F407FB28
:10D1E0001404A0EB040B5B461498D9F80460B04714
:10D1F000019B5B4401932CB122460AEB0B0102A870
:10D2000027F0D0FD3D2204F128036B4403F8202CC5
:10D2100004F1010ABAF11F0F01D9002410E005BB87
:10D22000BAFBF7F407FB14A44CB10AF108033C1B4A
:10D23000224629460DEB030027F0DBFDA244012422
:10D24000534601991498D9F8046002AAB047C8B9A6
:10D25000D4B9019B012453440193AA46002DEFD079
:10D260008246CAF12004AC4228BF2C460AF10803CA
:10D27000414622460DEB030027F094FDA0442D1BF0
:10D28000A244C7E76FF004000BB0BDE8F08F00BF09
:10D29000201A012010B5034B04469B6808469847A6
:10D2A000001B10BD201A01202DE9F04780468A4658
:10D2B00091461D466FF0150086B00E9E134F16B9AD
:10D2C00006B0BDE8F087102E334628BF102329464C
:10D2D000019348463C6801AB02AAA0470028EFD161
:10D2E000019B397BB3FBF1F201FB12320AB10B4413
:10D2F0009B1A514640467C6802AAA0470028DFD10D
:10D30000019B1D449A44F61AD9E700BF201A012058
:10D3100010B5034CC4E90001A260237310BD00BF27
:10D32000201A012030B5044685B010461D46CDE9CF
:10D330000212FFF7AFFF044A01460095204602ABF8
:10D340001FF035F805B030BD39C403000A4601238B
:10D3500001491FF0D1B800BF25D301002DE9F04FDE
:10D3600005460F4691469846BFB003B17AB10024F6
:10D3700028462346534905AACDE90579CDE9078416
:10D380001FF0BAF8089B012B00F0988017B96FF0D6
:10D39000150493E0414638461FF03EF883466B7B08
:10D3A0009C42F4DA05F108060DF1240A5246304693
:10D3B0001FFA8BF1FEF734FE10F11C0F034667D104
:10D3C0006B7B013BA34213DD30461DF08EFB824692
:10D3D00070B9286C1DF00EFF2B6CCDE90EAA1293CC
:10D3E00030460EA91DF024FE20B130461DF03AFE55
:10D3F0000134D4E7AB6A0E9A9A42F6D149210EABBA
:10D4000003AA18A81FF027F80028E9D1039BBDF84C
:10D41000442001339342E3D00DF14C0C0DF1380E52
:10D42000BEE80F00ACE80F00DEF80030CCF80030AA
:10D43000304613A91DF0FCFDB8B13046BDF84410CC
:10D4400013AAFEF7EDFD03460028C9D1BDF844201C
:10D450000146009213A80EAAFFF726FF0028BFD1AD
:10D46000304613A91DF063FBBAE7492113AB04AAA8
:10D470002BA81EF0F0FF0028DAD1DDE903239A4241
:10D48000D6D12BA918A827F0C0FC0028D0D1A7E737
:10D4900000287FF47CAF2A6C49460D9238464246FC
:10D4A000CDF800A0FFF78AFE431D044606D0514682
:10D4B00030461DF03CFB002C08BF044620463FB020
:10D4C000BDE8F08F77C40300012370B504460373F1
:10D4D000837300F108061FF085F831461DF02AFC21
:10D4E0000546B0B930461DF095FB00280ADCE36A1A
:10D4F000206CD3E900121DF068FE0028EBD06FF01D
:10D50000040504E0044B20466360FFF7F1FC284665
:10D5100070BD6FF01505FAE7B85F040090F83E3073
:10D52000024A03490348FFF7F3BE00BFF1C40300FA
:10D53000A1C50300B5C50300092337B500931FF04B
:10D5400051F869461A4AFEF74DFE044610B110F133
:10D550000C0F0FD1174D009B28466B73FFF7B4FFDC
:10D5600058B9154B13486B60FFF7D0FC1148FFF713
:10D57000D5FF0024204603B030BD1FF033F801A9C9
:10D58000C0B2FEF707FE04460028F3D101982146F9
:10D5900082681DF01AFE044601981DF0D1FD002C92
:10D5A000E8D12846FFF790FF04460028D9D0E1E7EC
:10D5B000301A012040BA0020B85F040008B50448C2
:10D5C0001DF091F9BDE8084002481DF08CB900BF7C
:10D5D00093700400C870040030BFFFF7FDBF00BFA8
:10D5E0002DE9F04105460B4EDFF83080324606EB60
:10D5F0000807CC1B2046084927F0D4FBA019424657
:10D600000021083C27F0F5FBC5F8844007F108002D
:10D61000BDE8F08100000000745C04000800000018
:10D62000074A936893F90E10002907DB9269934229
:10D630001FBF044A536843F080535360704700BFD4
:10D64000C833012000ED00E0154B9A6A12F0007F0C
:10D650009A6A14BF1E201D2012F0807F9A6A18BF9C
:10D660001F2012F4801F9A6A18BF022012F4002FA4
:10D670009A6A18BF212012F4802F9A6A18BF2220BC
:10D6800012F4003F9A6A18BF232012F4803F9A6A6E
:10D6900018BF24206FEA02426FEA12429A62704772
:10D6A00000ED00E010B5194B0246986A9C6A10F430
:10D6B000805F14BF1720162014F4006F9C6A18BFF7
:10D6C0001820A40509D5986B986A000404D51AB1EE
:10D6D0009A6A22F400429A6219200C4B9A6A12F458
:10D6E000806F9A6A18BF1A20D2050CD49B6A13F473
:10D6F000005F18BF1C20054A936A43F47F4393627E
:10D7000000230B7010BD1B20F5E700BF00ED00E00B
:10D7100010B5244B0246986A9C6A10F0100F14BF93
:10D720001120102014F0080F9C6A18BF1220A407C3
:10D7300009D5586B986A000604D51AB19A6A22F086
:10D7400080029A621320174B9A6A12F0010F9A6AAC
:10D7500018BF142012F0200F9A6A18BF1520D206A5
:10D7600002D49B6A9B070ED50E4B9B6ADC060AD53A
:10D770000D490E4840F263121DF0E4F840F26311C7
:10D7800009481DF0D6F8074B9A6A920642BF5A6ABA
:10D7900022F400525A629A6A42F0FF029A6200230F
:10D7A0000B7010BD00ED00E0F6700400E26E0400A6
:10D7B00070B5554B05465B6800209CB0C3F3080369
:10D7C00080F31188BFF36F8F02F07F40B0F17F4F7D
:10D7D0000DD112F001040AD1500603D4160703D468
:10D7E000012603E0500700D50D46002655B94749EC
:10D7F0004FF48B6246481DF0A5F84FF48B61434807
:10D800001DF097F80022033B8DF80720032B30D83A
:10D81000DFE803F0026B6F563B4BDA6A12F002024C
:10D8200027D1D96A002968DBDA6A520054D55A69CF
:10D83000A96942F480725A61BFF34F8FBFF36F8FB3
:10D840005A6931F8021C22F480725A61BFF34F8F7B
:10D85000BFF36F8F4DF60272914209D09A6AD2B22D
:10D8600002B301200DF10701FFF752FF044600E06B
:10D870002C689DF807309BB96822294602A827F03A
:10D8800091FA099B002E3AD0C3F3080222B96FEA3D
:10D8900053236FEA43230993204602A91EF0B8FEE2
:10D8A0001CB070BD9A6A12F47F4F05D001200DF1B3
:10D8B0000701FFF7F7FED9E79B6AB3F5803F02D374
:10D8C000FFF7C2FED2E7114940F22A3210481DF09C
:10D8D00039F840F22A3192E70C4940F22E320C48D6
:10D8E0001DF030F840F22E3189E700200DF10701DC
:10D8F000BAE700200DF10701DBE71446B9E723F48E
:10D90000FF7323F00103C6E700ED00E0F6700400AA
:10D91000E26E0400064B5A6942F010025A615A69DD
:10D9200042F480625A615A6922F008025A617047D3
:10D9300000ED00E0EFF30880EFF3098101B57246D6
:10D94000FFF736FF01BD00BF08B540B910491148C7
:10D9500014221CF0F7FF14210D481CF0EAFFEFF32E
:10D9600014835A0712D500F1400280EC100A82ECB1
:10D97000108AF1EE102AC0F88020012223F004035F
:10D9800080F8842083F31488BFF36F8F08BD00BF35
:10D9900028710400E26E0400002080F31488BFF3B5
:10D9A0006F8F002080F30A8880F30B8813F04AF809
:10D9B00000200E490860BFF34F8F0D4880F30888A0
:10D9C00000F03EF8202080F311880A484FF40061EF
:10D9D000401880F30988EFF314800221084380F394
:10D9E0001488BFF36F8F00F04FF9000094ED00E052
:10D9F000A0D4012060C30120BFF34F8F0549064B1F
:10DA0000CA6802F4E0621343CB60BFF34F8F00BFDC
:10DA1000FDE700BF00ED00E00400FA050023184612
:10DA20000649D1F89020C2F30722934200DB7047E9
:10DA3000C1F89830C1F8A0000133F6E700ED00E02E
:10DA400010B572B6002484F31388FFF7E7FF23466E
:10DA50004FF0FF300C4A03F120010133102B42F844
:10DA60002100F8D100234FF0FF30074A03F1600195
:10DA70000133102B42F82100F8D162B6BFF34F8F6B
:10DA8000BFF36F8F10BD00BF00E100E0084B9B6843
:10DA900083420BD1EFF3058343B1064B5A6842F042
:10DAA00080525A605A6A22F400425A6218F0A0BEAC
:10DAB000C833012000ED00E06FF00A01094A9368C5
:10DAC000C3F8A0100849C3F89C004B6843F080538A
:10DAD0004B60002383F31188BFF36F8F9368D3F8F3
