:020000021000EC
:1080000090E20120FD0102005F2D040099010200B1
:1080100099010200990102009901020099010200F0
:108020000000000000000000000000002104020029
:108030009901020000000000A5030200990102005E
:1080400059060200590602005906020059060200AC
:10805000590602005906020059060200590602009C
:10806000590602005906020059060200590602008C
:10807000590602005906020059060200590602007C
:10808000590602005906020059060200590602006C
:10809000590602005906020059060200590602005C
:1080A000590602005906020059060200590602004C
:1080B000590602005906020059060200590602003C
:1080C000590602005906020059060200590602002C
:1080D000590602005906020059060200590602001C
:1080E000590602005906020059060200590602000C
:1080F00059060200590602005906020059060200FC
:1081000059060200590602005906020059060200EB
:1081100059060200590602005906020059060200DB
:1081200059060200590602005906020059060200CB
:1081300059060200590602005906020059060200BB
:1081400059060200000000000000000000000000CE
:10815000000000000000000000000000000000001F
:10816000000000000000000000000000000000000F
:1081700000000000000000000000000000000000FF
:1081800000000000000000000000000000000000EF
:1081900000000000000000000000000000000000DF
:1081A00000000000000000000000000000000000CF
:1081B00000000000000000000000000000000000BF
:1081C00000000000000000000000000000000000AF
:1081D000000000000000000000000000000000009F
:1081E000000000000000000000000000000000008F
:1081F000000000000000000000000000000000007F
:10820000DEE61E284CBBCE8F025B00003C00000067
:10821000D4E20300010000000080010000800100A2
:10822000FFFF0291000000000000000000000000BD
:0C82300000000000000000000000000042
:1082400081F0004102E000BF83F0004330B54FEA07
:1082500041044FEA430594EA050F08BF90EA020F74
:108260001FBF54EA000C55EA020C7FEA645C7FEA07
:10827000655C00F0E2804FEA5454D4EB5555B8BF2A
:108280006D420CDD2C4480EA020281EA030382EA9B
:10829000000083EA010180EA020281EA0303362D2D
:1082A00088BF30BD11F0004F4FEA01314FF4801C00
:1082B0004CEA113102D0404261EB410113F0004F12
:1082C0004FEA03334CEA133302D0524263EB4303C9
:1082D00094EA050F00F0A780A4F10104D5F1200E67
:1082E0000DDB02FA0EFC22FA05F2801841F10001C2
:1082F00003FA0EF2801843FA05F359410EE0A5F196
:1083000020050EF1200E012A03FA0EFC28BF4CF0C6
:10831000020C43FA05F3C01851EBE37101F000457C
:1083200007D54FF0000EDCF1000C7EEB00006EEB89
:108330000101B1F5801F1BD3B1F5001F0CD3490813
:108340005FEA30004FEA3C0C04F101044FEA44526A
:1083500012F5800F80F09A80BCF1004F08BF5FEAF1
:10836000500C50F1000041EB045141EA050130BDD1
:108370005FEA4C0C404141EB0101013C28BFB1F5E3
:10838000801FE9D291F0000F04BF01460020B1FA2E
:1083900081F308BF2033A3F10B03B3F120020CDA01
:1083A0000C3208DD02F1140CC2F10C0201FA0CF0DF
:1083B00021FA02F10CE002F11402D8BFC2F1200C44
:1083C00001FA02F120FA0CFCDCBF41EA0C019040FA
:1083D000E41AA2BF01EB0451294330BD6FEA040443
:1083E0001F3C1CDA0C340EDC04F11404C4F120022E
:1083F00020FA04F001FA02F340EA030021FA04F340
:1084000045EA030130BDC4F10C04C4F1200220FA96
:1084100002F001FA04F340EA0300294630BD21FAD4
:1084200004F0294630BD94F0000F83F4801306BF9A
:1084300081F480110134013D4EE77FEA645C18BF8E
:108440007FEA655C29D094EA050F08BF90EA020F25
:1084500005D054EA000C04BF1946104630BD91EA1D
:10846000030F1EBF0021002030BD5FEA545C05D120
:108470004000494128BF41F0004130BD14F580045F
:108480003CBF01F5801130BD01F0004545F0FE41D3
:1084900041F470014FF0000030BD7FEA645C1ABF08
:1084A000194610467FEA655C1CBF0B46024650EA3F
:1084B000013406BF52EA033591EA030F41F400216B
:1084C00030BD00BF90F0000F04BF0021704730B5F1
:1084D0004FF4806404F132044FF000054FF00001C6
:1084E00050E700BF90F0000F04BF0021704730B587
:1084F0004FF4806404F1320410F0004548BF40425C
:108500004FF000013EE700BF42004FEAE2014FEAB0
:1085100031014FEA02701FBF12F07F4393F07F4F8B
:1085200081F06051704732F07F4208BF704793F08E
:108530007F4F04BF41F40021704730B54FF46074A1
:1085400001F0004521F000411CE700BF50EA0102A4
:1085500008BF704730B54FF000050AE050EA01024D
:1085600008BF704730B511F0004502D5404261EBBD
:1085700041014FF4806404F132045FEA915C3FF4FE
:10858000D8AE4FF003025FEADC0C18BF03325FEA9B
:10859000DC0C18BF033202EBDC02C2F1200300FA4C
:1085A00003FC20FA02F001FA03FE40EA0E0021FA71
:1085B00002F11444BDE600BF70B54FF0FF0C4CF45F
:1085C000E06C1CEA11541DBF1CEA135594EA0C0F11
:1085D00095EA0C0F00F0DEF82C4481EA030621EA4C
:1085E0004C5123EA4C5350EA013518BF52EA033587
:1085F00041F4801143F4801338D0A0FB02CE4FF039
:108600000005E1FB02E506F00042E0FB03E54FF068
:108610000006E1FB03569CF0000F18BF4EF0010E60
:10862000A4F1FF04B6F5007F64F5407404D25FEA5C
:108630004E0E6D4146EB060642EAC62141EA55510F
:108640004FEAC52040EA5E504FEACE2EB4F1FD0C51
:1086500088BFBCF5E06F1ED8BEF1004F08BF5FEACF
:10866000500E50F1000041EB045170BD06F0004681
:1086700046EA010140EA020081EA0301B4EB5C042E
:10868000C2BFD4EB0C0541EA045170BD41F4801126
:108690004FF0000E013C00F3AB8014F1360FDEBF4B
:1086A000002001F0004170BDC4F10004203C35DA27
:1086B0000C341BDC04F11404C4F1200500FA05F3AA
:1086C00020FA04F001FA05F240EA020001F000424B
:1086D00021F0004110EBD37021FA04F642EB0601C1
:1086E0005EEA430E08BF20EAD37070BDC4F10C04EB
:1086F000C4F1200500FA04F320FA05F001FA04F2AF
:1087000040EA020001F0004110EBD37041F100019A
:108710005EEA430E08BF20EAD37070BDC4F12005A5
:1087200000FA05F24EEA020E20FA04F301FA05F20D
:1087300043EA020321FA04F001F0004121FA04F2B5
:1087400020EA020000EBD3705EEA430E08BF20EA85
:10875000D37070BD94F0000F0FD101F000464000BF
:1087600041EB010111F4801F08BF013CF7D041EA41
:10877000060195F0000F18BF704703F00046520045
:1087800043EB030313F4801F08BF013DF7D043EA16
:108790000603704794EA0C0F0CEA135518BF95EACC
:1087A0000C0F0CD050EA410618BF52EA4306D1D153
:1087B00081EA030101F000414FF0000070BD50EA72
:1087C000410606BF1046194652EA430619D094EAFC
:1087D0000C0F02D150EA013613D195EA0C0F05D1E6
:1087E00052EA03361CBF104619460AD181EA03013A
:1087F00001F0004141F0FE4141F470014FF00000F2
:1088000070BD41F0FE4141F4780170BD70B54FF08C
:10881000FF0C4CF4E06C1CEA11541DBF1CEA13550C
:1088200094EA0C0F95EA0C0F00F0A7F8A4EB0504EE
:1088300081EA030E52EA03354FEA013100F08880E5
:108840004FEA03334FF0805545EA131343EA1263AE
:108850004FEA022245EA111545EA10654FEA002663
:108860000EF000419D4208BF964244F1FD0404F51C
:10887000407402D25B084FEA3202B61A65EB030578
:108880005B084FEA32024FF480104FF4002CB6EB35
:10889000020E75EB030E22BFB61A754640EA0C00B5
:1088A0005B084FEA3202B6EB020E75EB030E22BFF5
:1088B000B61A754640EA5C005B084FEA3202B6EB36
:1088C000020E75EB030E22BFB61A754640EA9C00F5
:1088D0005B084FEA3202B6EB020E75EB030E22BFC5
:1088E000B61A754640EADC0055EA060E18D04FEA83
:1088F000051545EA16754FEA06164FEAC30343EA23
:1089000052734FEAC2025FEA1C1CC0D111F4801FEF
:108910000BD141EA00014FF000004FF0004CB6E7E8
:1089200011F4801F04BF01430020B4F1FD0C88BF87
:10893000BCF5E06F3FF6AFAEB5EB030C04BFB6EB92
:10894000020C5FEA500C50F1000041EB045170BD85
:108950000EF0004E4EEA113114EB5C04C2BFD4EBB2
:108960000C0541EA045170BD41F480114FF0000E36
:10897000013C90E645EA060E8DE60CEA135594EAB2
:108980000C0F08BF95EA0C0F3FF43BAF94EA0C0FB5
:108990000AD150EA01347FF434AF95EA0C0F7FF42A
:1089A00025AF104619462CE795EA0C0F06D152EA7E
:1089B00003353FF4FDAE1046194622E750EA410662
:1089C00018BF52EA43067FF4C5AE50EA41047FF473
:1089D0000DAF52EA43057FF4EBAE12E74FF0FF3CD8
:1089E00006E000BF4FF0010C02E000BF4FF0010CA9
:1089F0004DF804CD4FEA410C7FEA6C5C4FEA430C22
:108A000018BF7FEA6C5C1BD001B050EA410C0CBF70
:108A100052EA430C91EA030F02BF90EA020F0020D2
:108A2000704710F1000F91EA030F58BF994208BF39
:108A300090422CBFD8176FEAE37040F001007047F6
:108A40004FEA410C7FEA6C5C02D150EA013C07D14D
:108A50004FEA430C7FEA6C5CD6D152EA033CD3D098
:108A60005DF8040B704700BF8446104662468C4692
:108A70001946634600E000BF01B5FFF7B7FF0028C5
:108A800048BF10F1000F01BD4DF808EDFFF7F4FFEE
:108A90000CBF012000205DF808FB00BF4DF808ED79
:108AA000FFF7EAFF34BF012000205DF808FB00BF9C
:108AB0004DF808EDFFF7E0FF94BF012000205DF8BE
:108AC00008FB00BF4DF808EDFFF7CEFF94BF012073
:108AD00000205DF808FB00BF4DF808EDFFF7C4FF6C
:108AE00034BF012000205DF808FB00BF4FEA410CB5
:108AF0007FEA6C5C02D150EA013C0AD14FEA430C98
:108B00007FEA6C5C02D152EA033C02D14FF00000D4
:108B100070474FF0010070474FEA410212F5001212
:108B200015D211D56FF47873B3EB625212D94FEAB4
:108B3000C12343F0004343EA505311F0004F23FA9E
:108B400002F018BF404270474FF00000704750EAF3
:108B5000013005D111F0004008BF6FF000407047B0
:108B60004FF00000704700BF4A0011D212F500120A
:108B700011D20DD56FF47873B3EB62520ED44FEA75
:108B8000C12343F0004343EA505323FA02F07047F5
:108B90004FF00000704750EA013002D14FF0FF3033
:108BA00070474FF0000070474FEA4102B2F1E043D6
:108BB00024BFB3F5001CDCF1FE5C0DD901F0004CC4
:108BC0004FEAC0024CEA5070B2F1004F40EB830014
:108BD00008BF20F00100704711F0804F21D113F140
:108BE0003872BCBF01F00040704741F480114FEA79
:108BF0005252C2F11802C2F1200C10FA0CF320FA02
:108C000002F018BF40F001004FEAC1234FEAD3231E
:108C100003FA0CFC40EA0C0023FA02F34FEA430388
:108C2000CCE77FEA625307D150EA01331EBF4FF011
:108C3000FE4040F44000704701F0004040F0FE402C
:108C400040F40000704700BF7BB972B90029BEBF75
:108C500000204FF0004106E008BF00281CBF6FF065
:108C600000414FF0FF3000F075B8ADF1080C6DE930
:108C700004CE002909DB002B1ADB00F09EF8DDF89A
:108C800004E0DDE9022304B07047404261EB41019A
:108C9000002B1BDB00F091F8DDF804E0DDE9022396
:108CA00004B0404261EB4101524263EB4303704721
:108CB000524263EB430300F080F8DDF804E0DDE9A5
:108CC000022304B0404261EB41017047524263EB22
:108CD000430300F072F8DDF804E0DDE9022304B09C
:108CE000524263EB4303704753B94AB9002908BFA6
:108CF00000281CBF4FF0FF314FF0FF3000F02AB8C2
:108D0000ADF1080C6DE904CE00F057F8DDF804E091
:108D1000DDE9022304B07047D0B500220B4B0646B4
:108D20000F46FFF749FCFFF71FFF0446FFF7CAFB9A
:108D30000022074BFFF740FC02460B4630463946FF
:108D4000FFF782FAFFF710FF2146D0BD0000F03D8B
:108D50000000F041704700BF10F8012B11F8013BF3
:108D6000012A28BF9A42F7D0D01A7047034611F85B
:108D7000012B03F8012B002AF9D17047034613F8A1
:108D8000012B002AFBD1181A0138704738B5002290
:108D9000002304460D46FFF781FE28B920462946E8
:108DA000BDE83840FFF7B8BF204605F10041FFF7A6
:108DB000B3FF404261EB410138BD2DE9F0478646E3
:108DC0008C460846089E154674461946002B40F00E
:108DD000C1808542B2FA82F245D94AB1C2F120037C
:108DE00000FA02FC954094402EFA03F343EA0C0C7F
:108DF0004FEA154EA8B2230CBCFBFEF80EFB18CCB4
:108E000008FB00F943EA0C43994528D9EB1808F10F
:108E1000FF3704D2994502D9A8F102072B44A3EBEE
:108E20000903A4B2B3FBFEFC0EFB1C330CFB00F0E9
:108E300044EA0344A04214D92C190CF1FF3304D2A4
:108E4000A04202D9ACF102032C44241A43EA0740A1
:108E50001EB1D440002334607360BDE8F0874746FC
:108E6000DDE76346F1E792BB431B01214FEA154E54
:108E7000AFB2200CB3FBFEFC0EFB1C330CFB07F85F
:108E800040EA0343984561D9EB180CF1FF3004D256
:108E9000984502D9ACF102002B44A3EB0803A4B21D
:108EA000B3FBFEFC0EFB1C330CFB07F744EA034448
:108EB000A7424DD92C190CF1FF3304D2A74202D995
:108EC000ACF102032C44E41B43EA0040C0E7C2F1CA
:108ED00020039540944020FA03F12EFA03F34FEA61
:108EE000154E9040AFB20343B1FBFEFC0EFB1C10CD
:108EF000190C0CFB07F841EA0041884522D9691892
:108F00000CF1FF3004D2884502D9ACF102002944AB
:108F1000A1EB08019BB2B1FBFEFC0EFB1C110CFB8C
:108F200007F743EA01439F420ED9EB180CF1FF31DA
:108F300004D29F4202D9ACF102012B44DB1B41EA6F
:108F4000004193E76046E3E76146F7E76046A4E740
:108F50006346B8E7834206D916B9002108467CE784
:108F6000C6E900E0F9E7B3FA83F78FB9834201D38A
:108F7000724508D8BEEB020460EB030301209C4657
:108F80001EB9002169E73846FAE7C6E9004CF8E760
:108F9000C7F1200CBB400EFA07F522FA0CF42EFAAA
:108FA0000CF1BA401C4320FA0CF3B8404FEA1449C4
:108FB00001431FFA84FEB3FBF9F809FB18300B0CD0
:108FC00008FB0EFA43EA00439A4540D9E31808F13A
:108FD000FF3004D29A4502D9A8F102002344A3EB42
:108FE0000A0389B2B3FBF9F809FB183308FB0EFE3C
:108FF00041EA03418E452CD9611808F1FF3304D2B0
:109000008E4502D9A8F10203214443EA0040A1EBB6
:109010000E01A0FB02984145CE46434602D306D13D
:109020004D4504D20138B9EB020E68EB0403002E63
:10903000A7D0B5EB0E0261EB030101FA0CFC22FA9A
:1090400007F3F9404CEA0303C6E9003199E74046CB
:10905000C5E74346D9E700002DE9F04F2DED048B1D
:109060008DB0BF4802AF02F0C3FC4FF0FF314FF0AC
:10907000FF3002F08DFC00219FEDBA0A012019F0AB
:1090800047FB0321B848B94A28F029FC4FF41600E1
:10909000002102F09DFC002840F019810221B44A11
:1090A000B14828F01CFC18F03DFE03202EF083FB95
:1090B000B04BB14AB149032018F074FE4FF4E1619E
:1090C000AF4803F02BFA42F20F7600259FEDA08BFC
:1090D0009FEDA19BDFF80CA34FF0FF324FF0FF3361
:1090E0005046CDE9002300234FF4701225F048FBD1
:1090F000A44B1B787BB12B46A34A03219A4828F046
:10910000ECFB2846FFF7EEF96C1C41EC100B9F4876
:1091100002F0FAFA2546384607F1080307F118026B
:1091200007F1100187ED008B87ED028B87ED048B33
:1091300087ED068B87ED088B00F096F9002840F04C
:10914000EE80934897ED000B02F0DEFAD7E9008934
:109150000022404649468F4BFFF7BEFC002800F036
:10916000B9808D4B1A78002A40F0E58001224946EB
:109170001A704046FFF718FD884900EE100A0520D6
:1091800019F0C6FAEB468AB002AC854B0022636147
:1091900084ED069B002340464946FFF757F82246D8
:1091A0000623C4E908014FF4435142F8103F6E48CA
:1091B00028F097FBDD46D7E9000100220023FFF7E6
:1091C00045F8E94688B002AC4FF0040BA046754B59
:1091D000C4E90601636148F810BF42464FF40351E9
:1091E000614828F07EFB7048CD4697ED020B02F0F7
:1091F0008BFAD7E90201FFF78FFC032103466B4A84
:10920000594828F06AFB97ED060B694802F07CFA92
:10921000D7E9060100220023FFF718F888B0654B54
:109220004246C4E9060163614FF403514E48C4F855
:1092300010B028F056FBCD4697ED040B5E4802F0C7
:1092400063FAD7E9040100220023FEF7FFFF88B08C
:109250005A4BC4E9060142464FF403514248636148
:10926000C4F810B028F03DFBCD460136042E2ADDAF
:1092700007F1200000F0B8F8002856D197ED080B50
:109280004F4802F041FAD7E9080100220023FEF717
:10929000DDFF6C4688B002AA4A4BC2E90601536161
:1092A00004234FF40351304842F8103F28F019FBD3
:1092B000A546454B03211B68444A2B4828F00DFB6B
:1092C000002602F07BFA504625F0B8FA04E70321A5
:1092D0003F4AE5E60022404649463E4BFFF7DEFBAB
:1092E00000283FF468AF2C4B1B78002B3FF463AF92
:1092F0000022294BEB4688B01A7002AC364B002294
:109300006361404600234946FEF7A0FF224604233E
:10931000C4E906014FF4035142F8103F47E7012129
:109320002E4A114828F0DBFA9FE701212C4A0E480B
:1093300028F0D5FABDE7002240464946254BFFF705
:10934000ADFB00283FF437AFD2E700BFAFF300809A
:10935000000000000000F0BF0000000000003E40E0
:10936000B5B4010000000000A8B10400DECF040085
:1093700013D00400AACC0400A4CC04005ECC0400EA
:1093800015B60100D33C01206CD0040083D004004A
:1093900089D0040000003E40D23C01208ED0040061
:1093A000A6D00400F4D0040010D1040019D10400A8
:1093B00032D104003CD1040052D1040058D1040041
:1093C00084D104008AD10400301A0120B5D10400F0
:1093D0004BD0040000803C40D1D004006AD104008E
:1093E0009AD10400E8BA00200023F7B505461A48D0
:1093F000CDE9003328F07DFA024640B117491848FC
:1094000028F07BFA6FF03C04204603B0F0BD6A46BA
:109410002A21114828F06AFA044610B1024611497F
:10942000EDE70198FFF75EF809A3D3E90023FFF702
:10943000EDF9064600980F46FFF754F802460B4632
:1094400030463946FEF702FFC5E90001DCE700BF00
:109450000000000080842E4174AE0400E1D70400B7
:10946000B0B4040028D804002DE9F3471D460023BA
:1094700082464D480F461646CDE9003328F039FAAA
:10948000044650B102464949494828F036FA6FF07F
:109490003C04204602B0BDE8F0876A460D214248F0
:1094A00028F024FA024618B14249414828F025FA2A
:1094B0000198FFF717F83AA3D3E90023FFF7A6F9BD
:1094C000804600988946FFF70DF802460B46404655
:1094D0004946FEF7BBFE6A46CAE900011021324840
:1094E00028F004FA024618B13349314828F005FA49
:1094F0000198FEF7F7FF2AA3D3E90023FFF786F9C7
:10950000804600988946FEF7EDFF02460B4640462E
:109510004946FEF79BFE6A46C7E900010E21224834
:1095200028F0E4F9024618B12449214828F0E5F969
:109530000198FEF7D7FF1AA3D3E90023FFF766F9D6
:10954000804600988946FEF7CDFF02460B4640460E
:109550004946FEF77BFE6A46C6E900011E21124815
:1095600028F0C4F9024618B11549114828F0C5F988
:109570000198FEF7B7FF0AA3D3E90023FFF746F9E6
:10958000064600980F46FEF7ADFF02460B463046F2
:109590003946FEF75BFEC5E900017AE7AFF30080CC
:1095A0000000000080842E4160AE0400E1D704007A
:1095B000B0B4040003D8040049D804006BD80400F8
:1095C0008DD804000000000001282DE9F0418846F4
:1095D00008D031F00BFB1622374B1A504FF0FF30FA
:1095E000BDE8F0818A68354B9A42F2D830F06CFDC4
:1095F00005460F4630F068FD314CD8F80030D8F8F9
:109600000420A3FB043604FB0266D8F808209B184C
:1096100046EBE276EA0B42EA4742A2FB0421FF0B4B
:109620009B1AC0F30E0204FB0711A2FB04244FEAAD
:10963000D23242EA444266EB0101981A61F100011C
:109640001BA3D3E90023FFF7FFFA06460D46144695
:10965000EFF31187202383F31288BFF36F8F19482C
:1096600024F09CFD40B918498822184828F0B3FB23
:109670008821154828F0A6FB124824F0B3FD144BAE
:109680001048C3E900659C6024F096FD40B90E497E
:1096900040F231120D4828F09EFB40F23111E8E70C
:1096A00087F31188BFF36F8F002099E7AFF3008035
:1096B00000CA9A3B000000000C000000FFC99A3B62
:1096C00000CA9A3B001C01201ADC0400FADA0400EC
:1096D00008E70020000000002DE9F0470546994604
:1096E0000024282386B088469246CDE902432BF019
:1096F00006F8284602A90CF093FD0746002800F062
:10970000AF8083793A2B18D1042303992846049417
:1097100005932BF043F8284604A90CF081FD18B1FD
:1097200090F90030A34205DB6FF01505284606B01E
:10973000BDE8F08728462AF0E2FFBB79112B58D00C
:10974000062B58D00020AB68002B4ED19FED487BF4
:10975000022295F824308DED007B02FB03013A23B1
:10976000A86904310CF04AFD044600287BD095F826
:109770002420296A2BF0F9F9061E31DBA368204664
:10978000DB68A36295F82C20A96A2BF0EEF9061E7F
:1097900026DBA06895F82C100C3007F091FCA0682F
:1097A00050F80C3F236295F8241007F089FC95F8D7
:1097B0002C3007F1180184F8243095F8243084F80F
:1097C0002C303B7EFF2B03D1A0692AF0EAF801463A
:1097D000204607F108022BF011FE70B16FF004066D
:1097E00020462AF021FF3546A0E71A8A5B6810441C
:1097F000AAE73020AAE73C20A8E741465246204687
:109800002BF03AFD01460028E8D1B8F1040F22D12F
:1098100099FA89F34246204604A904932BF0A5F94E
:10982000064620462AF020FF0246002ED8D12946BF
:1098300020462BF08FF805460028D1D120462AF08B
:109840005EFF3A2120462BF03CFE204629F08EFD9B
:109850000028C5DB6AE7042220462BF067F8DFE723
:109860006FF0040562E76FF00B055FE7AFF3008070
:1098700000800000000000002DE9F0412DED028B7A
:109880001F4605238AB00C4690460146029340B914
:109890005F49C0225F4828F09EFAC0215C4828F04A
:1098A00091FA34B95A49C1225A4828F094FAC12190
:1098B000F4E705A812F066FB30B15549C6225548B9
:1098C00028F089FAC621E9E7012101AA05A82DF0AF
:1098D000DFFC054658B1012103464F4A4F4828F0A6
:1098E000E6FF28460AB0BDEC028BBDE8F081019B83
:1098F000B3B1042B1DD0052B0CBF0923FF2323700C
:10990000032102AB03AA05A82DF0CBFC064690B1BB
:109910000346434A0121414828F0C9FF3546E0E7A4
:10992000DFED407A0023C4ED017A2370C4ED027AA2
:10993000D7E70723E3E7029B002BF1D003A94046BA
:10994000FFF714FA0222314603A825F0A7FF237877
:10995000C2B2092B08D0072B0FD02D498F222D48DA
:1099600028F039FA8F2199E70F2A25D92849A4220E
:10997000284828F030FAA42190E70F2AF6D89FED66
:109980002A8A2A4B33F81200E0B1FEF7ABFD1EA382
:10999000D3E90023FEF710FEFFF706F90523606008
:1099A0000293042102AB03AA05A82DF07AFC064617
:1099B00050B11F4A0346ADE71E4B9FED1F8A33F897
:1099C0001200E1E71D48E9E703A93846FFF7CEF9A1
:1099D0000222314603A825F061FFC2B20F2A08D93E
:1099E0000B4940F21B120B4828F0F5F940F21B110D
:1099F00054E70132D2B207EE902AF8EEE77A67EE2A
:109A0000887A93E7AFF300807B14AE47E17A244075
:109A1000C0040500FADA0400F4040500C0B2040032
:109A200016050500000000000AD7A33F60C9040026
:109A30004205050040C904000AD723400AD7A340C5
:109A40002DE9F04F8FB081468B461E46019253B9E7
:109A50006B496C4840F2D71228F0BDF940F2D7119B
:109A6000674828F0AFF9831F012B00F2C1801EF078
:109A70003FFA654907462EF04CFE644982462EF0B7
:109A800048FE634904462EF044FE624905462046DE
:109A90002EF03FFE804605B140B938461EF058F919
:109AA0006FF00B0420460FB0BDE8F08FB9F1060F40
:109AB000594B38D11A787ABB012228461A7052497C
:109AC000564A2DF098FD5649814628462DF0AEFDA8
:109AD0005449814420462DF0A9FD53498144404614
:109AE0002DF0A4FD5149814428462DF09FFD504999
:109AF00000EB090520462DF099FD4E49054420460E
:109B00002DF094FD4419002C64D038461EF020F945
:109B1000002070603060C5E7002438461EF018F958
:109B200074602046F6E7002228461A70CDE902222A
:109B30003549414A2DF05FFD9FED2F0B81463A4993
:109B400040462DF066FD3649814428462EF0E1FD61
:109B5000054604A81AF096F8049A324920462DF0DA
:109B60004AFD089A354900EB090828462DF043FDC7
:109B7000069A8044324928462DF03DFD8044BBF1D1
:109B8000000F0ED02F4950462EF0C3FD20492EF075
:109B9000C0FD23492EF0BDFD069A29492DF02BFD6D
:109BA000804418F02DFE8DF8080018F08BF902A9FA
:109BB0000390204616F0F8FB019B4BB1224B204648
:109BC000196817F02FF9044610B110F1130F9CD14A
:109BD000444698E738462EF0C6FC054638461EF047
:109BE000B7F87560002D9CD02846FFF7C7F891E7BD
:109BF0006FF0850456E700BF0000000000C09240EF
:109C0000B61F0500FADA040083D904007AD90400EB
:109C1000382205003E4305009D650120F62205001F
:109C2000402205001D220500FC240500811B0500C3
:109C30000625050014250500472205004E220500D3
:109C40009E210500F023050090290120000000005E
:109C50002DE9F04F2DED028B044600259FEDA28BE0
:109C600087B002AF4FF0FF324FF0FF3304F6882089
:109C700022F044FC04F580564FF0FF324FF0FF33E2
:109C800020462EF064F996F8A68A20462EF061F957
:109C9000B8F1010F09D120461BF082FD0028E1D167
:109CA000022120462EF06BF94546DFF864929FE1D1
:109CB000D4F85439062B02D0B3F5817F05D1204664
:109CC0001CF08CF8002840F0A48140F6FB0A4FF00D
:109CD000000BD4F82C39534536D98549854840F2D4
:109CE000533228F078F840F25331814828F06AF86E
:109CF00020461BF029FE002840F0928120462EF0DD
:109D000055F9002840F07E81454620462EF04EF958
:109D100040B196F8A53A002B00F08481042120463A
:109D20002EF02DF94FF0FF324FF0FF3320462EF08A
:109D30000EF996F8A66A20462EF00BF9042E91D162
:109D400020461BF0F1FC8DE7D4F85439062B02D0E5
:109D5000B3F5817F72D16069421C00F0618187EDAB
:109D6000008BC7F808B010231422009301213B4652
:109D700007F062FC0346002837D030F037FF5E4B17
:109D800002211B585D4A5E482EF0DDF863690133FD
:109D900000F04681D4F82C39C3B930F027FFDFF842
:109DA00058A15AF80030742B4ED14FF0FF332046A3
:109DB0004FF0FF322EF0CBF8D4F85439204623F47C
:109DC0008073112B44D12EF0C4F897E794F85839DA
:109DD000002BE2D020461BF037FB0028DDD003210A
:109DE000484A47482EF0B1F81AE16069D4F82C5976
:109DF000C5F50F6204F13001CDE9003329440C327E
:109E000007F0E4FA431C012B054646D86369013389
:109E100000F00681D4F82C393BB194F8583923B1BD
:109E200020461BF011FB0028D9D10135B5D04A4698
:109E3000022133482EF089F8682515E00121324AC5
:109E40002F482EF082F8A1E70B2BAED0682502E058
:109E50002EF07FF8742530F0C9FE01215AF8003049
:109E60002A4A27482EF06FF8294620461BF0C8FAE8
:109E7000002840F0D5804FF0FF324FF0FF332046EE
:109E80002EF065F820461BF05FFD054620462EF0BB
:109E900060F8002D3FF432AFC2E0D4F85439062BFD
:109EA00002D0B3F5817F1BD1294620461CF000F873
:109EB000051E0FDD94F858392BB140F6FB03D4F89A
:109EC0002C299A4226D820462EF070F800287FF4DC
:109ED00000AFA5E01ED0694220461BF091FA9FE03A
:109EE0006FF04C05F7E700BF1E0000000000000007
:109EF00024410500FADA04000C0000006E4305005E
:109F000030B20400A543050095430500C943050090
:109F1000E3430500D4F83019D4F83439002936D099
:109F2000EA468AB002AA4048D161C2E9050364202A
:109F30004343B3FBF1F31362052342F8103F0023C0
:109F40004FF42351394804F0C5FBD54620461BF099
:109F50007BFA30B10321364A34482DF0F6FF4FF03A
:109F6000FF35D4F83429D4F830399A4215D1032179
:109F7000304A2E482DF0E9FF0023C7E90033BB60CB
:109F8000022338463B70D6F8A03A984748E00321B0
:109F9000294A26482DF0D7FFD8E7D4F8542994F859
:109FA0005939062A02D0B2F5817F18D1002B3FF42F
:109FB000A5AE00234FF0FF32204684F859394FF008
:109FC000FF332DF0C4FF20461BF0BEFC05462046A3
:109FD0002DF0BFFF002D3FF491AE75217CE713B14A
:109FE0000135E6D11CE06B1C1AD0B5FA85F56D0978
:109FF00020462DF0DBFF804600283FF486AE002D82
:10A000003FF463AE0023C4F82C396369002BBFF61C
:10A010004FAE682120461BF0F3F900283FF468AEEC
:10A02000002572E603217AE6FB43050030B2040006
:10A03000A54305003F370500194405000000000056
:10A040002DE9F04706460C4692B0002900F0BF808B
:10A050000F68002F00F0BB808D68D1F8048005F1F7
:10A060000409C1450AD80422AD49781930F0E8F94D
:10A07000A8B90423F360A36804331DE06B1D984561
:10A0800010D2454580F0A3807B5D7819222B24D126
:10A090002146304612B0BDE8F0471DF02DBA6B1DC9
:10A0A00098450ED305229F49781930F0C9F930B987
:10A0B0000123F360A36805330120A36088E0C14554
:10A0C000DFD804229849781930F0BAF90028D8D19D
:10A0D0000223F36001237361CDE72D2B03D0A3F19D
:10A0E0003002092A55D800230DF1080C67464FF0BD
:10A0F000010EA8EB0505DFF83882019310F8012B5B
:10A10000452A3ED82A2A10D9A2F12B01C9B20EFA4B
:10A1100001F111EA080F01D12E2A06D101333F2B9C
:10A120000CF8012B01D0AB42E8D1002548336B4439
:10A13000384601A903F8405C25F0F0F8DDF804A0EA
:10A1400059EC108BBA4542D073A3D3E900234046A3
:10A150004946FEF7B7FCB0B9002240464946734B6A
:10A16000FEF7A6FC90B940464946FEF7D5FC082309
:10A17000C6E906897061F360A368AAEB070A534435
:10A180009AE7652AC9E76FF00040F0E74FF000401A
:10A19000EDE75B2B58D1D4F80C90B9F57A7F16D245
:10A1A00009F10103E3607B5D5B2B10D10135204693
:10A1B000A5602EF004F9A368984506D9FA5C5D2ADB
:10A1C00009D10027C4F80C9036E0013BA3600020C1
:10A1D00012B0BDE8F08700252F46013BA36020693F
:10A1E0002EF0A1F9A8460546002800F0A5804FB33F
:10A1F000C8F80000C0F80480A36820460133A360BB
:10A200002EF0DDF821462846FFF71AFF002800F05F
:10A21000938020462EF0D3F8D4E90123934280F0B6
:10A220008E802268D35C2C2BD9D05D2B40F08780A8
:10A23000E368013BE3607D602023C6E90273A36805
:10A24000013339E70746D7E77B2BC0D1D4F80C9010
:10A25000B9F57A7FBBD209F10103E3607B5D7B2B0B
:10A26000B5D101352046A5602EF0A9F8A368984520
:10A27000ABD9FA5C7D2A03D10027C4F80C9047E0E3
:10A2800000252F46A846013BA36020692EF04BF91C
:10A29000A946054600284FD0002F4BD0C9F8000032
:10A2A000C0F80490A36820460133A3602EF087F81D
:10A2B000214628461DF020F900283DD020462EF0EA
:10A2C0007EF82B69C5F810802B62D4E901239342F4
:10A2D00032D22268D25C3A2A2ED101332046A360C2
:10A2E0002EF06DF821462846FFF7AAFE20B320463F
:10A2F0002EF065F8D4E90123934220D22268D35C82
:10A300002C2BC2D07D2B1AD1E368013BE3607D602A
:10A31000402392E7AFF300800000C0FFFFFFDF4162
:10A32000665105007D510500835105000000E0C124
:10A33000E57F00040746B5E7002F3FF448AF3846F5
:10A340001DF006FD43E700BFD0B5174B57EC106B6F
:10A3500018682EF0E8F8044670B10823C0E90667D3
:10A36000C36039460EA3D3E900233046FEF7AAFBAB
:10A3700020B16FF0004363612046D0BD002230461B
:10A3800039460A4BFEF794FB10B14FF00043F2E759
:10A3900030463946FEF7C0FB6061EDE7AFF3008061
:10A3A0000000C0FFFFFFDF4158B800200000E0C1FF
:10A3B00008B502462EF0D4F910B192ED060B08BD97
:10A3C0009FED010BFBE700BF000000000000F87FDD
:10A3D0002DE9FF47804616460F46002900F0A2806F
:10A3E000B1FA81F4341B002E04F10A04C0F2A280F9
:10A3F000304626F0CDFF0444304626F0CFFFA4EBD4
:10A40000060905466946304626F0F0FFA9EB05032C
:10A410006A4640467D33394630F0EFF8A642824620
:10A420000D4600F38380B9F13F0F00F381804FF0B8
:10A43000FF33A9F12000C9F1200103FA00F003FA6B
:10A4400009F223FA01F103FA09F3024328EA0303AC
:10A450000A4327EA020213430CBF01200020002D0B
:10A4600000F08A80B5FA85F3E31A40F2FE7203F237
:10A470003E43934200F38980002B23EAE376D4BF66
:10A4800001223246121BA2F23341A2F23447A2F259
:10A490005344C1F1200C2AFA01F325FA04F4C7F160
:10A4A000200E05FA0CFC25FA01F105FA0EFE43EA2E
:10A4B0000C03A2F2544CA2F2544223432AFA07F4AA
:10A4C00025FA0CFC44EA0E0444EA0C04C7F1200C03
:10A4D00014F0010F54D0A8B14FF0FF3000FA02F28F
:10A4E00000FA07F4144320FA0CF2B840144303F0C6
:10A4F00001022AEA000A25EA04054AEA020A5AEA9F
:10A50000050A3DD0013341F10002C2F3130253EAC0
:10A51000020138D0184642EA065141EC100B04B053
:10A52000BDE8F087B0FA80F420345BE7012096E7BD
:10A53000002094E7C6F10009484626F02FFF241AB0
:10A54000484626F02BFFA61B0546694648462E4482
:10A5500026F0BEFF6A46404606F17C03394630F0DD
:10A560004CF882460D464046394626F027FF814585
:10A570008CBF0020012072E7BAFA8AF3203373E718
:10A58000C1F31302C6E70136C4E79FED010BC6E72E
:10A59000000000000000F07F2DE9FF4755EC104B54
:10A5A00025F00042B049EE0F8A4236D9AF498A42BF
:10A5B00018D82046294696A3D3E90023FEF78CFA43
:10A5C000074620BB2046294693A3D3E90023FEF784
:10A5D00065FA002800F0A280384604B0BDE8F047D4
:10A5E00000F006BBC5F313032246234307D02B46D6
:10A5F00020462946FDF72AFE04460D4602E0002EBD
:10A6000040F0038145EC104B04B0BDE8F08700201A
:10A6100004B0BDE8F04700F0FBBA954B9A4240F217
:10A62000A980944B9A4279D8934B20462946F7004B
:10A6300003EBC603C6F1010AD3E90023FDF704FECC
:10A640008E4B804689463B44AAEB060A93ED007B7D
:10A650008DED007BDDE9002340464946FDF7F4FD22
:10A6600004460D4622462B4620462946FDF7A4FF08
:10A6700006460F466AA3D3E90023FDF79DFF6AA3B0
:10A68000D3E90023FDF7E0FD32463B46FDF794FF9A
:10A6900067A3D3E90023FDF7D9FD32463B46FDF71A
:10A6A0008BFF65A3D3E90023FDF7CEFD32463B4681
:10A6B000FDF782FF62A3D3E90023FDF7C7FD324611
:10A6C0003B46FDF779FF02460B4620462946FDF73B
:10A6D000BBFD02460B4606460F4620462946FDF7BF
:10A6E0006BFFCDE90201BAF1000F5CD100224FF0FF
:10A6F000804330463946FDF7A7FD02460B46DDE9AB
:10A700000201FEF783F822462B46FDF79DFD024627
:10A710000B4600205A49FDF797FD6DE7594B20463F
:10A72000294603EBC60648A3D3E90023FDF744FFFF
:10A73000D6E90023FDF78AFDFEF7EEF98246FDF724
:10A74000D1FE06460F4642A3D3E90023FDF734FFAE
:10A7500002460B4620462946FDF776FD804689468F
:10A76000304639463CA3D3E90023FDF725FFCDE968
:10A7700000016FE7444B9A4210D82046294638A37F
:10A78000D3E90023FDF762FD00223D4BFEF7A4F95B
:10A7900038B100223A4B204629462BE74FF0000AF9
:10A7A00060E782465EE732463B4600204FF080413C
:10A7B000FDF74AFD02460B46DDE90201FEF726F8E9
:10A7C00002460B46DDE90001FDF73EFD42464B46E1
:10A7D000FDF73AFD0B46024629490020FDF734FDFE
:10A7E0000B466FF47F7106468A4503DB344603EB64
:10A7F0000A5507E70AF57A7A3046002203EB0A5138
:10A800004FF0B873FDF7D8FEF6E600240025F9E610
:10A81000EF39FAFE422E864051302DD5104987C0BF
:10A82000D0A4BE726937663EF16BD2C541BDBB3E56
:10A830002CDE25AF6A56113F93BDBE166CC1663F34
:10A840003E5555555555C53FFE822B654715F73F7B
:10A850000000E0FE422EE63F763C7935EF39EA3DD6
:10A860009C7500883CE4377E412E8640FFFFEF7FD9
:10A87000422ED63FB1A2F03F18B8040008B8040039
:10A880000000F03F28B80400FFFFEF3D000000008B
:10A8900051EC100BB1F5801F2DE9F04F0D4687B03C
:10A8A00023DA21F00043034305D1012007B0BDE8BE
:10A8B000F04F00F0BDB9002904DA07B0BDE8F04F51
:10A8C00000F0C6B9C64B0022FDF776FE6FF03503E7
:10A8D0000D46C44A95420ADD02460B46FDF7B6FC1A
:10A8E00041EC100B07B0BDE8F08F0023F1E72C1509
:10A8F000C5F31305A4F2FF341C4405F5152303F634
:10A90000647303F4801383F07F5204EB1354B64B4B
:10A9100082F4401242EA05010022FDF795FCAB1CCF
:10A9200082468B46C3F313030022022B53DC002321
:10A93000FEF7AAF8D0B1002C00F020812046FDF7E8
:10A94000D1FD06460F4690A3D3E90023FDF734FE60
:10A9500004460D46304639468DA3D3E90023FDF762
:10A960002BFE02460B4620462946B7E78AA3D3E9C9
:10A97000002350465946FDF71FFE02460B460020B5
:10A980009A49FDF761FC06460F4652465B46504623
:10A990005946FDF711FE02460B4630463946FDF793
:10A9A0000BFE06460F4614B932463B46A0E0204651
:10A9B000FDF798FD8046894673A3D3E90023FDF790
:10A9C000FBFD04460D464046494671A3D3E90023EA
:10A9D000FDF7F2FDA5E04FF08043A5F5C226FDF797
:10A9E00035FC02460B4650465946C5F5D725FDF7BE
:10A9F0000DFFA6F27A465135CDE9000120463543D8
:10AA0000FDF770FDDDE90023CDE90201104619468E
:10AA1000FDF7D2FD02460B46CDE90423FDF7CCFD40
:10AA2000804689465EA3D3E90023FDF7C5FD5EA3FA
:10AA3000D3E90023FDF70AFC42464B46FDF7BCFD77
:10AA40005BA3D3E90023FDF701FC42464B46FDF72B
:10AA5000B3FD59A3D3E90023FDF7F8FBDDE9042397
:10AA6000FDF7AAFD56A3D3E90023CDE90401404632
:10AA70004946FDF7A1FD54A3D3E90023FDF7E6FB0A
:10AA800042464B46FDF798FD51A3D3E90023FDF75D
:10AA9000DDFB42464B46FDF78FFD02460B46DDE9E6
:10AAA0000401FDF7D3FB002D8046894648DD0022D6
:10AAB0004E4B50465946FDF77FFD52465B46FDF72B
:10AAC0007BFD02460B4606460F4640464946FDF7CB
:10AAD000BDFBDDE90023FDF76FFD8046894664B9C3
:10AAE00002460B4630463946FDF7AEFB02460B46A2
:10AAF00050465946FDF7A8FBF2E623A3D3E900230D
:10AB0000DDE90201FDF758FD04460D4620A3D3E917
:10AB10000023DDE90201FDF74FFD42464B46FDF7FC
:10AB200095FB02460B4630463946FDF78DFB5246F3
:10AB30005B46FDF789FB02460B4620462946D9E7CE
:10AB400002460B4650465946FDF77EFBDDE90023E1
:10AB5000FDF732FD06460F46002C3FF425AF0AA351
:10AB6000D3E90023DDE90201FDF726FD04460D4689
:10AB700007A3D3E90023DDE9020129E79FED160BC6
:10AB8000B0E600BFAFF300800000E0FE422EE63FDB
:10AB9000763C7935EF39EA3D555555555555D53FF4
:10ABA00044523EDF12F1C23FDE03CB966446C73FFC
:10ABB000599322942449D23F935555555555E53F15
:10ABC0009FC678D0099AC33FAF788E1DC571CC3F20
:10ABD00004FA97999999D93F0000000000000000FD
:10ABE00000005043FFFFEF7F0000F03F0000E03F18
:10ABF00010B19FED030B70479FED030B704700BF33
:10AC000000000000000000800000000000000000C4
:10AC100010B19FED030B70479FED030B704700BF12
:10AC2000000000000000F0FF000000000000F07FC6
:10AC300010B19FED030B70479FED030B704700BFF2
:10AC4000000000000000F0FF000000000000F07FA6
:10AC500008B526F0BBFD9FED020B08BDAFF30080E9
:10AC6000000000000000F87F10B5084822F0ECF862
:10AC700014202CF07AFC044628B103460121044A32
:10AC8000044826F0FEFD204610BD00BF00B50020A0
:10AC900096C9040070B4040010B5064C064821683B
:10ACA00026F0EBFD206809F095FBBDE81040002080
:10ACB000FFF7DABF101A0120020007D210B50020FA
:10ACC000FFF7D2FF084C034640B101210748084A6C
:10ACD00026F0D7FD2168074826F0CFFD21680648F9
:10ACE000BDE8104026F0C9BD101A012070B4040060
:10ACF000B6C90400020007D2010007D270B50F4B9D
:10AD000018682AF0F9FF002816DD4FF47A734FF423
:10AD1000004503FB00F4002140F2E7304FF47A7263
:10AD20000023E4FB0501FDF7DFFFBDE870400246AC
:10AD30000B46034822F082B870BD00BF101A0120F4
:10AD400000B5002010B51E4B1A78A2B15A7892B106
:10AD5000A8B918701B4C5970206809F03BFB2DF006
:10AD60007BFE70B1002120682AF06DFFC0B1BDE804
:10AD70001040FFF7C3BF28B91870597001E00029CF
:10AD8000E8D010BD01221A700029F6D05A700D4B80
:10AD9000186809F041FBBDE810400B4822F054B898
:10ADA000FFF762FF03460028EBD001210748084A5D
:10ADB00026F067FD21680748BDE8104026F05DBD1C
:10ADC000D03C0120101A012000B5002070B404000E
:10ADD000B6C90400020007D203460121014A024815
:10ADE00026F04FBDD7C9040070B4040008B52CF09C
:10ADF000C2FB034620B10221034A044826F041FD6C
:10AE0000FFF77CFF002008BDF0C9040070B4040007
:10AE100010B515202CF0A9FB044618B9BDE8104068
:10AE2000FFF7E4BF03460121024A034826F029FD4B
:10AE3000204610BD96C9040070B4040010B5044645
:10AE40004FF0FF324FF0FF33074821F0DBF8074B9C
:10AE50005A78A24203D021461878FFF773FFBDE865
:10AE60001040014821F084B9E8BB0020D03C01200B
:10AE700010B50446006809F0ADFA0121204626F01D
:10AE800002FD0021204626F0FEFC00230B48236132
:10AE900013F0BCFA034650B101210948094A26F0D3
:10AEA000F0FC21680848BDE8104026F0E6BC0748E1
:10AEB00011F0BAF82268064B1A6010BD71AF01009C
:10AEC00070B4040016CA0400020007D245B00100A5
:10AED000101A012010B504464FF0FF324FF0FF3337
:10AEE000074821F08FF8074B1A78A24203D020467A
:10AEF0005978FFF727FFBDE81040014821F038B925
:10AF0000E8BB0020D03C012008B5094B186800F0D0
:10AF100097F9034640B10121064A074826F0B1FCE3
:10AF2000BDE80840FFF7B8BEBDE80840FFF7D2BF54
:10AF3000101A012038CA040070B4040008B5094B87
:10AF4000186800F0FDF8034640B10121064A0748A1
:10AF500026F097FCBDE80840FFF79EBEBDE808401C
:10AF6000FFF7D2BF101A012054CA040070B40400C5
:10AF7000084608B5082937D8DFE801F03A05222647
:10AF80002E2236363A001B4B186800F07FF810F17D
:10AF90003D0F034609D10221174A184827F07EFCCD
:10AFA000BDE808400120FFF795BF0028F8D0144AFB
:10AFB0000121124826F065FCBDE80840FFF76CBE91
:10AFC000BDE80840FFF7BABF0A4B186800F0CEF89A
:10AFD000034668B10B4AEBE7064B186800F030F9FE
:10AFE000034628B1084AE3E7BDE80840FFF7F4BE8E
:10AFF00008BD00BF101A012070CA040070B404001C
:10B0000095CA0400AECA040038CA0400052808B571
:10B010000ED005D801280BD002280ED0002008E061
:10B020005A28FBD10221054A054827F037FCF5E7ED
:10B030000120BDE80840FFF701BF08BDC7CA0400F2
:10B0400070B4040003780B2B06D1017A022907D1D2
:10B05000044A054827F022BC13B9007AFFF7D6BF8F
:10B06000704700BFFBCA040070B4040010B5054C63
:10B070000548216826F001FC2068BDE8104009F071
:10B08000A9B900BF101A0120020007D270B5002430
:10B090000646A2B01822214608A8CDE90044CDE911
:10B0A00002442FF078F9002E3DD0242221460FA82B
:10B0B0000E942FF070F92422214619A818942FF02D
:10B0C0006AF91C491C4818AB0EAA1FF0FDF8A042F3
:10B0D00003DC6FF00D0022B070BD012004AA0EA9A0
:10B0E00027F055FF0128054602D06FF03C00F2E73B
:10B0F0000EA96846FDF73AFE6846FDF73FFE08AA2E
:10B100000146684628F046FF0028E2D02346032285
:10B11000304609A908F0BCFB40B1084B099A20460B
:10B120001A601D71D7E76FF01500D4E76FF01200B9
:10B13000D1E700BF72CB04009FCB0400141A01209A
:10B1400010B550B1084C23792BB1214608F0EAFD27
:10B1500030B100232371002010BD6FF01500FBE714
:10B160006FF00D00F8E700BF141A012070B500243D
:10B170000546A8B0242221460BA80A942FF00BF90B
:10B180001822214604A82FF006F9002D4CD02146A4
:10B19000242215A814942FF0FEF8214624221FA87B
:10B1A0001E942FF0F8F8234923481EAB14AA1FF071
:10B1B0008BF8041E35DD02206A4614A927F0E7FE4D
:10B1C00001281FD114A90AA8FDF7D0FD0AA8FDF790
:10B1D000D5FD04AA01460AA828F0DCFE08B305AC98
:10B1E000002303222146284607F0C0FFF8B194E867
:10B1F0000F00124E06F1080585E80F00012300201C
:10B2000033760CE0012C08D002206A461EA927F0F4
:10B21000BEFE012801D11EA9D5E76FF03C0028B081
:10B2200070BD6FF00D00FAE76FF01500F7E76FF0F3
:10B230001200F4E772CB04009FCB0400141A012023
:10B2400010B558B1084C237E33B104F1080108F061
:10B2500035FC30B100232376002010BD6FF01500BF
:10B26000FBE76FF00D00F8E7141A0120F0B58FB07E
:10B2700002AF5A482EF0ABFD48B959480121594A4E
:10B2800027F00CFB6FF012003437BD46F0BD564C72
:10B2900020462EF09CFD20B9544826F071FD002078
:10B2A000F2E75348391D26F013FB7B68514A03210E
:10B2B0004B4827F0FCFA4948391D26F009FB7B680A
:10B2C00003214D4A464827F0F2FA4C4A43481146BA
:10B2D0002BF046F8A3683C21DB68204698472046BF
:10B2E00007F108022A2126F0F0FA204607F11002A1
:10B2F0002B2126F0EAFA204607F118022E2126F02B
:10B30000E4FA204607F128023D2126F0DEFA07F193
:10B3100020023E21204626F0D8FAD7E902324FF427
:10B320007A7192FBF1F2032100922D48344A27F002
:10B33000C8FA3A697B69002A4DDB3249324831EA62
:10B34000230128BF01466420002B6E46B8BF5B4234
:10B350008AB0B3FBF0F302AC002AB8BF5242C4E992
:10B3600007234FF400732546A3842848284BC4E9DB
:10B37000050145F8103F00232A464FF43351184881
:10B3800003F0A8F9D7E9063242F21071B54692FBF4
:10B39000F1F20321009212481E4A27F092FABB6A8A
:10B3A0003A6A032100920E481B4A27F08AFA8AB0B3
:10B3B0001A4B63611A4BA3611A4BE3611A4B236268
:10B3C0001A4B236100232A464FF42351044803F00B
:10B3D00081F9B54663E70C49B5E700BF10AE04003C
:10B3E000C8B20400BBCB040074AE0400DACB040086
:10B3F00024AE0400F5CB040007CC040040771B000A
:10B4000019CC04002B450500412C050025CC040077
:10B410000500000133CC04003FCC04005ECC0400E6
:10B42000A4CC0400AACC0400000201030400000222
:10B4300070B52DED028B82B004466846B0EE408AAE
:10B44000F0EE608A13F0B6F9034690B10121154A77
:10B45000154826F042FA2EF037FE4FF47A75A0FB1D
:10B46000053205FB0122DB0B43EA4243D20BCDE957
:10B47000003230220D4E0E4B3568214602FB05335B
:10B48000202218462EF0EEFF0346013580ED088B92
:10B49000DDE900013560C3E90A0102B0BDEC028BB1
:10B4A00070BD00BFE0CC0400A8B10400301A012038
:10B4B00030C30020F0B58BB000AF014607F1140097
:10B4C0002CF084F900BB444A444907F1140016F0FB
:10B4D00033FD002864D142493A1D07F114002CF0D5
:10B4E000B3F908B13F4B7B60786801F055F8002351
:10B4F000044607F114007B602CF060FA38B13A4A38
:10B5000001213A4826F0EBF92C37BD46F0BD07F192
:10B5100014002CF004FA08B1354AF1E707F10800ED
:10B5200013F048F9034628B1324A01212F4826F08A
:10B53000D4F9E9E7304D294E2A46314607F1140087
:10B5400016F03AFD90B16C468AB06A462B4BD56135
:10B55000C2E905362A4B4FF421511362294B234887
:10B5600042F8103F26F0BDF9A546CDE7D7E9022302
:10B5700007F1140016F084FD0346B0B16C468AB0A2
:10B580006A46214BD561C2E905361D4B4FF4215166
:10B5900013621C4B154842F8103F26F0A2F9A5464D
:10B5A00007F114002CF00AFAAEE722460C4907F125
:10B5B00014002CF093FA28B10121144A0B4826F00C
:10B5C0008EF9EDE707F1140000F0B0FC0346002807
:10B5D0009AD00F4AA9E700BF08CD04000CCD0400A3
:10B5E000B0D104002B45050012CD0400A8B1040021
:10B5F00030CD0400E0CC04008FE9040068CD0400E5
:10B600000002010304000002A3CD0400E9CD040000
:10B6100025CE04002DE9F04F97B00646D0E902018F
:10B6200000AF00220023FCF711FE00220023804619
:10B630008946D6E90401FCF709FE0446B0690D46C7
:10B64000FCF762FF00220023FCF700FE82467078C0
:10B650008B4613F009FDC7F804D08EB06A46264B1E
:10B660001063536140F603039386244BC2E90689B5
:10B67000C2E90845C2E90AAB44F6C04142F8103FAE
:10B680001F4826F02EF97378D7F804D0022B2FD15B
:10B6900003211C4A1A4826F022F97378022B27D17D
:10B6A0003822002107F120002EF075FED6E90201B4
:10B6B000012387F820303B730023B269C7E90C01EE
:10B6C000D6E90401C7E90E0107F12800C7E90633EE
:10B6D0003A643B613B7513F06DF807F1200107F107
:10B6E0000C0016F0F7FC18B907F10C0000F01EFC76
:10B6F0005C37BD46BDE8F08F57CE0400090000015D
:10B70000A8B1040098CE0400054B1B68632B01D838
:10B71000FFF78EBE0121034A034826F0E0B800BFC0
:10B72000301A0120C6CE0400A8B104002DE9F84368
:10B7300000AF05468846164616F03EFC0446A8B102
:10B740006D468AB06A46184BD661C2E90538174B78
:10B750004FF421511362164B164842F8103F26F061
:10B76000C0F8AD462046BD46BDE8F8832846D7E977
:10B77000082316F085FC04460028F3D0E9468AB079
:10B780006A460D4BD661C2E90538084B4FF421518A
:10B790001362074B074842F8103F26F0A2F82846EC
:10B7A000CD462CF00BF9DDE768CD04000002010363
:10B7B00004000002A8B10400A3CD04002DE9F04F5D
:10B7C000002301248FB0032102AF4A4A4A48C7E947
:10B7D0000533C7E90A33FB603B743B6287F82430CA
:10B7E0003C723C7726F07BF807F108002CF0A8F8B3
:10B7F000034618BB04464FF000084FF000093F4DC8
:10B80000DFF81CA1DFF81CB1DAF80030A3421ED823
:10B8100003213B4A384826F062F807F1080000F09F
:10B8200085FB0346002862D00121364A324826F0C3
:10B8300054F807F108002CF0C1F804E02146324A20
:10B840002D4826F04AF83437BD46BDE8F08FD5E9DB
:10B850000A232946CDE9002307F11C005A46FFF7C9
:10B8600065FF034638B10121284A234826F035F800
:10B8700001343035C8E7024695ED080B244907F13D
:10B880001C002CF0E7F842460646D5E908014B4675
:10B89000FCF7DCFCC7F804D088B002AA1D4BC2E953
:10B8A0000601536104234FF40351134842F8103F3B
:10B8B00026F017F8D7F804D056B13346164A0121BE
:10B8C0000D4826F00AF807F11C002CF077F8CFE7B6
:10B8D00007F11C0107F108002CF097F8034608B1A6
:10B8E0000E4AECE707F11C002CF019F8C0E7CAF883
:10B8F00000009EE7DDCE0400A8B1040030C30020A4
:10B90000ACCF0400BECF0400F7CE04001DCF04006E
:10B91000B0D1040041CF04005ACF040083CF04000B
:10B92000301A01208FE90400014B1870704700BFE6
:10B93000D33C0120014B1878704700BFD33C012055
:10B94000014601482EF0C8BC9CBE002008B52BF073
:10B9500043FE20B1BDE808401020FFF7F1BF1021E1
:10B96000BDE8084001482EF0BEBC00BF9CBE0020D0
:10B9700007B50022CDE90001012104482EF0B7FCF3
:10B98000003818BF012003B05DF804FB9CBE002006
:10B9900007B50022CDE90001042104482EF0A7FCE0
:10B9A000003818BF012003B05DF804FB9CBE0020E6
:10B9B00007B50022CDE90001082104482EF097FCCC
:10B9C000003818BF012003B05DF804FB9CBE0020C6
:10B9D00007B50022CDE90001102104482EF087FCB4
:10B9E000003818BF012003B05DF804FB9CBE0020A6
:10B9F000014B1860704700BF481A012008B517486E
:10BA000021F022FA062116482EF06DFC0022154B7B
:10BA1000D3E8EF1FC3E8E02F0028F9D10321124A31
:10BA2000124825F061FF17F0BDF810F10D0F034625
:10BA300008D010F1800F05D048B101210C4A0B4805
:10BA400026F035FFBDE808400820FFF779BF032145
:10BA5000084A064825F048FFF4E700BF30B500204B
:10BA60009CBE00204C1A0120DCD10400E0B104008F
:10BA7000F9D1040039D2040008B50321034A04486F
:10BA800025F032FFBDE80840FFF7B8BF62D20400DE
:10BA9000E0B1040008B50321054A064825F024FF5B
:10BAA000012105482EF01FFCBDE80840FFF7A6BFA6
:10BAB000B3D20400E0B104009CBE002008B50D4BD9
:10BAC00099420ED103210C4A0C4825F00DFF4FF48A
:10BAD0000040002122F072F9BDE808400120FFF784
:10BAE0002FBF074B994203D1BDE80840FFF7D2BFF3
:10BAF00008BD00BF010014F1CED20400E0B1040083
:10BB0000020014F170B50378013B0F2B22D8DFE857
:10BB100003F008211422363E46214F21213221967E
:10BB2000213249480321494A25F0DEFE00F0E4FBBA
:10BB30000220BDE87040FFF703BF454A0321424899
:10BB400025F0D2FE0122434BD3E8EF1FC3E8E02FDC
:10BB50000028F9D170BD00223F4B1A703D4BD3E84D
:10BB6000AF3F002BF6D03D4A0321374825F0BCFEFD
:10BB700001223B4B1A60BDE87040FFF73FBF3948D8
:10BB800021F062F91E22364B04201A60D1E7364BB1
:10BB90001B68002BDED0BDE8704008301847334AE0
:10BBA0000321294825F0A0FE01222B4B1A70D1E772
:10BBB0008469002CCED02578002D32D16068002811
:10BBC000C8D0103000F028FC10F1090F12D1032169
:10BBD000274A1D4825F088FE29466068103016F077
:10BBE000BBFB0346A0B1234A0121BDE870401648C3
:10BBF00026F05DBE10F10C0F06D1BDE870400121AA
:10BC00001D4A114825F070BE0B30A3D00121E4E796
:10BC1000606810302CF06BF8034600289AD0174A61
:10BC2000E2E7012D96D16068002893D0283000F01B
:10BC30004FFC00288ED0BDE8704000F063BBBDE82B
:10BC4000704025F05FBE00BFE0B10400EBD20400FD
:10BC500002D304004C1A0120D43C012048D3040034
:10BC6000D4B6002030B50020481A012080D304004B
:10BC7000A6D30400D9D30400BDD30400FED304002E
:10BC800008B50321034A044825F02EFEBDE808400C
:10BC9000FFF7B4BE28D40400E0B104002DE9F04160
:10BCA000022088B025F038FE0321684A684825F054
:10BCB0001BFE01200CF038FC0321664A644825F085
:10BCC00013FE6548654B4360654B036109F06AF8F4
:10BCD00064482BF083FC1422002103A82EF05BFBA8
:10BCE000614B029325F011FE604B049002A806936D
:10BCF00016F0E6FE0346002848D119F0F7FA10F1D5
:10BD0000860F034652D15A4A0221514825F0ECFDD4
:10BD100001200CF0F7FB4FF0FF304FF0FF3122F025
:10BD20004DF8DFF888814A4C4FF0FF364FF0FF376F
:10BD300042460321204625F0D7FD022025F0ECFDE8
:10BD400039463046FFF714FE20460321494A25F0C4
:10BD5000CBFD03212046484A25F0C6FD082147486F
:10BD60002EF0C1FA16F0EAFE10F10B0F05462AD1AB
:10BD700002212046424A25F0B7FD4FF0FF314FF037
:10BD8000FF30FFF715FE03213E4A48E001213E4AFD
:10BD90002F4826F08CFD01213C4A2D4825F0A4FDBA
:10BDA000032008B0BDE8F04125F0B6BD10F16D0FDD
:10BDB00001D1374AA8E70028B3D00121354A2448E9
:10BDC00026F075FDADE7F8B101210346324A204661
:10BDD00026F06DFD314D2B6803212046304A26F0B8
:10BDE00066FD4FF47A734FF4004640F2E7300021CD
:10BDF0002D684FF47A725D430023E5FB0601FCF7E2
:10BE000073FF21F0DBFF8FE70A210246CDE90067CF
:10BE10001A482EF06CFA830705D40121214A2046E6
:10BE200025F062FDD6E7002200230421CDE900239E
:10BE300012482A462EF05BFA00289ED14FF09672E7
:10BE40000023194820F0FAFF97E700BF46D404000A
:10BE5000E0B104005FD40400341A0120BDBA01002F
:10BE6000030014F14DB9010005BB0100A4CC04008E
:10BE7000DBD40400A2D50400B3D504009CBE00208E
:10BE8000CBD5040033D604007FD40400B5D404001D
:10BE90001FD5040048D50400EAD50400D4B600201C
:10BEA0004FD6040014D6040030B5002085D5040018
:10BEB000F7B50F46044668B30190184B5B6A192B1F
:10BEC00008D117480221174A26F0E8FC6FF01B0042
:10BED00003B0F0BD51B114202EF013FA0646B0B1F4
:10BEE00005460FCC0FC5236801962B600022002366
:10BEF0000A4801A91FF04AFF0028E9D001210A4A97
:10BF0000074826F0CBFC17B101982EF0F3F96FF03B
:10BF10000B00DDE76FF01500DAE700BF14BD00206D
:10BF2000D8B204007AD6040090D6040038B50121B6
:10BF30000546FFF7BDFF044648B107480121074AFF
:10BF400026F0ACFC28462BF039FD204638BD2846AB
:10BF50002BF0E5FCF9E700BFD8B20400C8D6040016
:10BF6000BFB52D4E2D4D2E4F4FF0FF324FF0FF330A
:10BF7000694630461FF0A6FF044630B10121034652
:10BF8000284A294826F093FCEEE74FF0FF314FF0A6
:10BF9000FF30FFF7FDFC009B1022214602A8019311
:10BFA0002EF0F9F94FF4817301A8ADF8103016F0B6
:10BFB0000DFE031E22DA01211B483A4626F077FCCB
:10BFC00021460098FFF774FF58B10121174A16481F
:10BFD00026F064FC009C20462BF0F0FC20462EF05E
:10BFE00089F92B680133052B2B60BDDDFFF706FDBA
:10BFF00000214FF4A02021F0E1FEB5E7DDF800803C
:10C0000040462BF0DBFC40462EF074F9042025F06E
:10C0100088FC2C60A8E700BF14BD0020501A012046
:10C0200023D70400E4D60400D8B20400A9D7040042
:10C0300070B50E4615461C46002814BF6422002227
:10C0400000210F4825F063FC002E14BF642200225B
:10C0500001210B4825F05BFC002D14BF6422002257
:10C060000221074825F053FC002C18BF6422BDE8CC
:10C07000704008BF00220321014825F048BC00BFE2
:10C0800038AE040010B40E4BD3E8EF2FC3E8E41F22
:10C09000002CF9D10B4BD3E8EF2FC3E8E10F0029B7
:10C0A000F9D10022084BD3E8EF1FC3E8E02F0028A6
:10C0B000F9D1022105485DF8044B2EF00DB900BFFF
:10C0C000581A0120D8B60020541A0120ACBE002016
:10C0D0002DE9F7434D482DF07AFE38B901214C4A3D
:10C0E0004C4803B0BDE8F04326F0D8BB02214A48D3
:10C0F0002EF0F2F8DFF82081484E4FF0FF324FF07B
:10C10000FF330221CDE90023404600222EF0EFF854
:10C11000DFF81491424FD9E8AF5FD7E8EF3F5A1EDE
:10C12000C7E8E12F0029F8D1002B67D0002D65D09A
:10C13000D6E8EF4F631CC6E8E23F002AF8D1394841
:10C1400022F07CFB4FF0FF324FF0FF33EDB2CDE930
:10C150000023344840F6CD420023013D22F010FB7D
:10C16000032D49D8DFE805F002132E3A282294FB6C
:10C17000F2F302FB13430022132BCCBF0123002355
:10C180001146D4BF01201046FFF752FFC3E76342B8
:10C1900003F0030304F0030158BF594214F0030FE6
:10C1A000A1F10204A1F103050CBF012000206342AC
:10C1B00001F1FF3C63416A426A41DCF1000141EB5D
:10C1C0000C01E1E7142294FBF2F302FB13430E2B64
:10C1D000CCBF002301231A4619460BE00C2394FB25
:10C1E000F3F203FB1244022CCDBF012200220123F3
:10C1F000002311461846C7E70023ECE7002140461C
:10C200002EF06DF8012025F087FB76E738AE0400AC
:10C21000C6D8040088B20400ACBE0020541A012025
:10C22000D8B60020B0BA0020581A0120F8B5194A33
:10C23000051E6E4600AF8AB0174B0EBF0A24134688
:10C240001E246A46D36140F2013314491384144B0F
:10C25000C2E9051442F8103F00234FF4135111486E
:10C2600002F038FAB5460DB12BF06AF902F0F0F899
:10C270004FF47A7340F2E7305C434FF47A72002354
:10C2800000EBC4300021FCF72FFD21F097FD0120C9
:10C2900001F03EFB02D90400C2CE040010D9040014
:10C2A0000400000190B4040008B50221034A0448C8
:10C2B00026F0F4FA6FF0080008BD00BF31D9040081
:10C2C000A0B4040013B50B490DF107022BF0D0FA0E
:10C2D000044630B99DF80700FFF726FB204602B060
:10C2E00010BD233403D1FFF7DFFF0446F6E76FF0FC
:10C2F0002204F3E74DD904000022014B1A70704765
:10C30000D53C012010B594B03C4A3D48032126F0AD
:10C31000C5FA002301220FA8CDE90333CDE9083384
:10C32000CDE90D33CDE912338DF8002001938DF85E
:10C3300008308DF8142006938DF81C308DF82820D5
:10C340000B938DF830308DF83C2010938DF84430ED
:10C350002BF0CBFAB8B16FF00B0468462BF02EFB34
:10C3600005A82BF02BFB0AA82BF028FB0FA82BF01D
:10C3700025FB2CB101212346224A214826F097FAB9
:10C38000204614B010BD0AA82BF0AFFA0028E2D165
:10C3900005A82BF0AAFA0028DDD168462BF0A5FAF3
:10C3A00004460028D7D1FFF7C5FA234602461649AE
:10C3B0000FA82BF0DAFB04460028CED10346134920
:10C3C0000FAA0AA82BF0F1FB04460028C5D10346AA
:10C3D0000F490AAA05A82BF0E8FB04460028BCD1A7
:10C3E00003460C49684605AA2BF0DFFB04460028EB
:10C3F000B3D168462BF07BFC0446AEE75BD9040062
:10C40000A0B4040089D904004DD90400811B0500A3
:10C410007AD9040083D90400F0B5054687B0002816
:10C4200045D00778012F04D06FF02204204607B0D2
:10C43000F0BD4368002BF7D0204B1B78002B39D080
:10C4400000261F4901AACDE904668DF80470029602
:10C450008DF80C602BF020FA1330E5D001A8FFF71F
:10C4600031FF10F1090F044613D101A82BF0A6FAF1
:10C4700001A82BF03AFAFFF75DFA3346024611495C
:10C4800001A82BF072FB20B10F4A39460F4826F065
:10C4900005FA002328460A4901AA2BF086FB00284A
:10C4A000C4D001A82BF08AFA6FF00B04BEE76FF03E
:10C4B0001504BBE76FF00A04B8E700BFD53C0120C4
:10C4C000811B05004DD90400B1D90400A0B40400BB
:10C4D00048B10121074A117002788A4206D14368A7
:10C4E00023B1FFF7EFBE6FF0150070476FF0220029
:10C4F000704700BFD53C01200278012A02D0022AF1
:10C5000004D07047044B1B682BB118474378022BAB
:10C5100001D0FFF7B5BB70475C1A012070B58EB033
:10C5200004460E462BF058F820B90221144A15484B
:10C5300026F0B4F9144B15481C6012F005FD0446B2
:10C5400040B101210346124A0E4826F0B0F92046B8
:10C550000EB070BD01256A46294601A88DF800502D
:10C5600012F060FD01A88DF83450ADF82C6012F087
:10C57000FFFC04460028EAD0064A03462946E3E7C2
:10C58000DFD90400A0B204005C1A0120F9C4010044
:10C590001BDA04004FDA04002DE9F04105461A4C7D
:10C5A0001A4E00AFC822002120462DF0F4FE2B4683
:10C5B0003246C72120461DF0C1FD05462046FCF746
:10C5C000DDFB4FF000082044454500F8028C17DAE7
:10C5D0002B46C82120460E4A22F02CFE6D4688B01C
:10C5E0006A464FF4007393830A4BC2E9056442F82C
:10C5F000103F4FF4E2514346074802F06BF8AD4656
:10C600000148BD46BDE8F081D63C0120182D05004B
:10C6100088DA040003000001B0B1040010B5094C31
:10C620000A44914200D110BD11F8013B5840030962
:10C63000E35C0001C0B243401809205C1B01DBB27F
:10C640005840EEE7C7DA0400F0B5002421F00302F9
:10C65000184D194E194F0244904218D1002301F091
:10C660000300104482421FD112484C405843124BE1
:10C670004FEA70405843124B604080EA10405843E4
:10C68000104B80EA5030584380EA1040F0BD50F81B
:10C69000043B6B434FEA7343734363404FEAF343F6
:10C6A00003EB8303DC19D7E712F8015B45EA0323A8
:10C6B000D8E700BF512D9ECC9335871B646B54E6A1
:10C6C0006BCAEB8535AEB2C270B589B3066801227C
:10C6D000304625F062F901460446304625F025F93A
:10C6E000C30708D41349AF22134825F074FBAF21C8
:10C6F000104825F067FB2146304625F02CF9251817
:10C7000029460022304625F010F92D1AAC4206D0F9
:10C710000849B722084825F05EFBB721E8E7214623
:10C72000304625F01EF92146BDE8704025F05ABA82
:10C7300070BD00BFD7DA0400FADA04002DE9F8432F
:10C740000F4606681446B2684B1EB2F5004F34BF60
:10C75000042108213B4010D0C7F1000909EA07096C
:10C76000494503F1FF3028BF494618420CD11F4606
:10C77000BCB900252846BDE8F8838F420FD8214672
:10C78000BDE8F84325F070BA2C492D484FF4A27249
:10C7900025F021FB4FF4A271284825F013FB9946A0
:10C7A000E6E7B2EBD40FE4D9E319591A104625F0A5
:10C7B000FEF80146304625F054F980460028D8D0CE
:10C7C000B36809EBC005B3F5004F34BF0423082359
:10C7D0001D4435447B1E1D44B5FBF7F57D43A5EB99
:10C7E00009052946304625F0D8F82C44073424F0B2
:10C7F0000704A41B804507464FEAE40408D202461A
:10C800004146304625F067F94146304625F0A8F903
:10C810003946304625F09FF83844844208D23946DC
:10C820003046224625F057F92146304625F098F942
:10C8300001223946304625F094F89BE7D7DA040008
:10C84000FADA04002DE9F74F91461F460E460468B8
:10C85000009031B93A46494603B0BDE8F04FFFF7C2
:10C860006DBF3FB9FFF730FF4FF00008404603B0FF
:10C87000BDE8F08F02F1FF3A1AEA020F0AD04B49E5
:10C880004B4840F2891225F0A6FA40F28911474838
:10C8900025F098FAD4F808B0BBEBD70FE4D92046BE
:10C8A00025F07BF801460546204625F054F8BBF5F7
:10C8B000004F2CBF0822042202EBC5022244B31A07
:10C8C0008046F9185846019325F071F88346B9F16E
:10C8D000000F02D016EA0A0F44D1C3450ED00FD282
:10C8E000AB445A462946204625F0F5F82946012250
:10C8F000204625F036F8594625F074F9B046B5E7DC
:10C9000005EB080A01225146204625F00EF8C30720
:10C9100028D45146204625F01EF84044584521D3DE
:10C920005146204625F086F85146204625F013F85A
:10C93000ABEB080840450AD905EB0B0751462046EA
:10C940003A4625F0C8F83946204625F009F95246FE
:10C950002946204625F0E6F801222946204625F002
:10C9600000F8CBE73A4649460098FFF7E7FE8046D5
:10C9700000283FF479AF2946204624F0ECFFA36855
:10C98000019AB3F5004F34BF04230823C2EBC00261
:10C99000D21ABA42314628BF3A4640462DF0D4FC5E
:10C9A00031460098FFF790FE60E700BFD7DA040039
:10C9B000FADA0400B2F5802F2DE9F0410CD2042AF6
:10C9C00020D83D494FF4F9723C4825F004FA4FF461
:10C9D000F971394825F0F6F90823D21ACC1D114413
:10C9E00024F0070421F00701091B17294FEAD1069B
:10C9F0000AD8314940F2FB12304825F0ECF940F2F8
:10CA0000FB11E6E70423E8E70027046031463046DF
:10CA1000A660E76024F0D4FF0121421D8046304625
:10CA200024F0C5FF9200D51DED082844B0423AD845
:10CA3000B8F1FF3F3946A2F1100204F11000B8BF6F
:10CA40003A462DF0A8FC2A463946204624F0A1FF9C
:10CA50003B463A463946204624F072FFA6EB0508CD
:10CA600020463946012224F07CFF4246294624F024
:10CA700090FF2B463A462946204624F061FF314676
:10CA8000204624F086FF43463A463146204624F0AD
:10CA900057FF31462046012224F063FF2946BDE8B6
:10CAA000F04125F05DB804494FF40372034825F0C6
:10CAB00092F94FF403718CE7D7DA0400FADA040034
:10CAC0002DE9F04F91B0009302F004030293C2F3FA
:10CAD000C2030133840705460E46DDF868900392D1
:10CAE000059340F0E081041D30B1072909D86FF0AB
:10CAF0001B0011B0BDE8F08F01F00706341DC6F130
:10CB00000806009B4FF000084FF0040A591E4FF032
:10CB1000FF3347460193C3465346CDF810800DB10D
:10CB2000009820600598002800F3D7809B48009A61
:10CB3000824203D39A488242C0F0CF80039AA4EB8A
:10CB4000050E92074FEA9E0040F1DE804FF0000C88
:10CB5000CCE07A285DD84B280ED8472859D8292808
:10CB60002DD8252852D054D820287AD02338D0F177
:10CB7000000B4BEB000B74E04C382E2849D8DFE853
:10CB800000F07048484848484848484848484B489A
:10CB90004848484848484859484B4B595959704BA0
:10CBA0006D487048184B18484883804B48484B489C
:10CBB000800000204FF0000B4FF0040A38E0012203
:10CBC0002A38C0B202FA00F010EA0E0F49D110F074
:10CBD000625C2FD110EA020B43D06046013C544402
:10CBE000B4FBFAF40AFB04F4002D60D0A3EB050CAF
:10CBF000A444B4453FF67BAF002867D1042B48D14D
:10CC000059F8043B2360042304342AE0019A013AD2
:10CC100001924FF0000B24E011F8010C6C2835D183
:10CC2000002011F8023C83466C2BC5D14FF0080A56
:10CC30005346D3E709F1070929F00709073424F01F
:10CC40000704F9E802AB35B106982044B0423FF63C
:10CC50004EAFC4E900AB4FF0000B08344FF0080AA8
:10CC6000534611F8010F002800F0A980BBF1000F16
:10CC70007FF46FAF2528F4D14FF0010B019B0133F6
:10CC800001934FF0040AEBE7584693E700208346F0
:10CC9000A4E7082B40F08A8009F1070929F0070969
:10CCA000B9EC027B84ED007B08230834D9E768B92E
:10CCB000042B02D109F10409A5E7082B76D109F16B
:10CCC000070929F0070909F10809EDE70598013876
:10CCD000059059F8040B009021E7039A900744D57A
:10CCE0004FF0010CA4EB050E4FEA9E00BEF5007F4D
:10CCF0001BD32C494FF41F722B4825F06CF84FF4CE
:10CD00001F71284825F05EF80F2F10D8002D38D05D
:10CD100007F140020DEB020C019A0CF8200C0CF804
:10CD2000102C0498013004901EE00F2F08D91D49E3
:10CD300040F281221C4825F04EF840F28121E0E7C4
:10CD4000D5B107F140020DEB020E019AC0B20EF808
:10CD5000200C0EF8102CBCF1000FE2D060F07F0028
:10CD60000EF8200C08F101080137C5F108024FF652
:10CD7000DA7E0434069274E7BCF1000F01D001366C
:10CD8000F2E7029A0236002AEED10098CDE9063188
:10CD9000FBF7F4FFDDE906310644E5E700AC0400EB
:10CDA000E857050012DB0400FADA04003F4940F2BC
:10CDB000C6223F4825F00FF840F2C621A1E7631BC9
:10CDC000B3F5806F08D3394940F2D222384825F0B4
:10CDD00002F840F2D22194E71DB9A6F10804E01848
:10CDE00087E6029A9B0828602B709DF81030C2B12C
:10CDF000EB7085F80280B8F1000F05D0002208A87A
:10CE0000C5F1010C97420ED14FF0000AC5F10103A4
:10CE10000DF1200901930DF1300B574512D1601B24
:10CE200067E66B70E5E710F8013B190608D504EBDF
:10CE30000C0EB64503F07F033FF659AE04F8013BF4
:10CE40000132DFE7B8F1000F03D099F90020002A82
:10CE500017DB029BD3B11AF80B2004F8012B002238
:10CE6000019B98182044B0423FF641AE99F800006B
:10CE7000009904F8010B204603922DF065FA039AFD
:10CE800014440AF1010A09F10109C6E799F80020E2
:10CE900055F822300093029B009845F82230FBF7AA
:10CEA0006DFF421CDCE76FF00D0022E612DB040090
:10CEB000FADA04002DE9F04F97B000AF8946044636
:10CEC000D7F880B0FA623B6250B9A8494FF4667255
:10CED000A74824F080FF4FF46671A44824F072FF45
:10CEE000CBF3C00390F802A0BB6141B9457800784C
:10CEF0000AEB800020444D4517D8A0EB0409E378E5
:10CF0000FB61BAF1000F02D01BF0010F16D1FB69D3
:10CF100053BBFB6A1BB1494620463A6A98474D46C7
:10CF200028465C37BD46BDE8F08F461C3046FBF70F
:10CF300025FF0130304409F10109DCE762682378FC
:10CF40007A62FA6A9900796104EB8301002A40F061
:10CF500002810E464FF000084D4601EB0A094E458E
:10CF60004CD101EB0A0610E01BF0020FD1D0237860
:10CF70009A007A61626804EB83017A62FA6A002A95
:10CF800077D14D46904601EB0A061BF0050F0CBF0A
:10CF900002230123FB62FB6906EB430A0BF0020349
:10CFA000BB625645BCD016F8021B16F8013C54F87B
:10CFB0002390704B994502D36F4B994536D3BB698B
:10CFC000002B40D0786A24F0B2FE00283BD0E9461E
:10CFD0008AB06A46694B53617B6AC2E906314FF4F5
:10CFE00000731384664B42F8103F00234FF4125134
:10CFF000644801F06FFB023DCD46D2E716F8013BD5
:10D00000F96254F82300FBF7B9FED7F88430F96AC7
:10D0100001304BB1D7F8883098453EBFD7F88430FF
:10D0200023F8180008F10108054498E7BB6923B10B
:10D03000786A24F07CFE0028C9D11BF0010F05D1CD
:10D04000FB6AED1AADE7BB6A002BAAD04846FBF796
:10D0500095FED7F8843053B1D7F8883098453FBF54
:10D06000D7F88420431C22F8183008F10108054441
:10D0700097E7BAF1000F74D01BF0040674D0D046C5
:10D08000002607F1480052463B61B9622DF05CF979
:10D09000B96A3B6901EB0A02BA62FA69F96952009E
:10D0A000FA60BA6A02EB41023A610BF00202BA601E
:10D0B000BA6A39698A4267D162781BF0020F18BFD9
:10D0C00000217A6208BF4FEA5801B2181BF0010F25
:10D0D000D2B240F0DE801BF0040F14BF40460020A7
:10D0E000BB616270A070E17020463A6A7969FB6AA0
:10D0F0009847051EFFF614AFBB69414623707B6A53
:10D100003A6A6370FB6984F802A0E37007F1480093
:10D11000FB6A9847B0F10008C0F2E9807B69A9EB8F
:10D120000A01C91AFB683A6AC91AD7E90A0398477B
:10D130000028C0F2DE804FF0000BA84408EB000589
:10D1400007F1380AB345C0F0A68000213A6A0846C4
:10D15000FB6A9847E4E656464FF0000807F13800AE
:10D1600091E75646D04695E7B04693E712DB0400B8
:10D17000FADA040000AC0400E857050040DB0400C4
:10D1800004000001D0B10400BA6A12F8021B12F8C0
:10D19000015CBA6254F82500574A904202D3574ABC
:10D1A000904217D3BA693AB1786A7B6024F0BFFD28
:10D1B0007B6800287FF47CAFBA68002A49D00F2E24
:10D1C0003DD94F4940F24C424E4824F004FE40F213
:10D1D0004C4182E6BA693AB1786A7B6024F0A7FDD7
:10D1E0007B6800287FF464AF1BF0010F0AD00F2E7C
:10D1F00025D9434940F24242424824F0ECFD40F236
:10D2000042416AE61BF0040F3FF452AFB8F10F0F32
:10D2100008D93B4940F245423A4824F0DCFD40F24F
:10D2200045415AE608F1280207F1300008F10101F2
:10D2300002EB000808F8105C5FFA81F838E706F1A5
:10D24000280207F13000711C161806F8205CCEB2D7
:10D250002EE7B8F10F0F08D9294940F24F4229486B
:10D2600024F0B9FD40F24F4137E608F1280207F1FA
:10D27000300C08F10100944407F1580208F102084B
:10D2800052FA80F00CF8101C5FFA88F800F8105C75
:10D290000EE7002024E71BF80A3054F8239087F8A3
:10D2A0003730D7F88430FBB133F81B8001213A6A5C
:10D2B000FB6A07F13700984700281ADB0544B8F1EC
:10D2C000000F06D14846FBF759FD00F101081FFA8F
:10D2D00088F8414648463A6AFB6A9847002808DBC6
:10D2E00005440BF1010B2DE7D7F88480DEE74546B6
:10D2F00016E6054614E600BF00AC0400E85705003A
:10D3000012DB0400FADA0400014B1860704700BF1A
:10D31000DCB6002080B505460E461746984620F03C
:10D320007BFD03462DF062FC0446DFF81890424670
:10D3300049F8003039463046A84754F8090002F051
:10D34000D7FF00BF08000000032800B508D92DF062
:10D350004DFC0922074B1A504FF0FF305DF804FBDB
:10D360003022054B02FB0033D3E8AF3F002BEED059
:10D370000020F3E70C000000681A0120302343432B
:10D3800030B50D4908330B44D3E8AF2F92B1541E8A
:10D39000D3E8EF5F954204D1C3E8EC4FBCF1000F36
:10D3A000F6D1F1D1012A05D13023584300230A18C0
:10D3B0000B50536030BD00BF601A012038B50446E1
:10D3C0001546FFF7C1FF00280DDB30236343074AF2
:10D3D000D0184068086015B10C3313442B6030231B
:10D3E0005C43105938BD0020FCE700BF601A0120E3
:10D3F00070B500254FF0FF334FF0FF32174824F08F
:10D40000DBFC174BD3E8AF2F82B10135042D03F1BC
:10D410003003F7D12DF0EAFB17224FF0FF35114B07
:10D420001A500E4824F0CAFC284670BD30246C43C4
:10D43000D3E8EF0F0130C3E8E10F0029F8D10A4E1D
:10D44000331932515A6004F10C0030442CF01CFDA9
:10D4500004F1200030442CF0C8FDE2E7D4BB0020EA
:10D46000681A01200C000000601A012030B4044644
:10D47000302510466C43084A151911516860EB625B
:10D4800040B1C36833B10C34131940F2051230BCFB
:10D4900024F083BC30BC7047601A012038B50D46BB
:10D4A0000446202200212CF076FF0022EB68E36185
:10D4B000AB68A3612B6823626B68A26263622A690E
:10D4C00023B1591E194208BF42F001022261012214
:10D4D000002104F12C002CF014FD40B10449054852
:10D4E0002F2224F078FC2F21014824F06BFC38BD5A
:10D4F000F4DB0400FADA04002DE9F04F002689B0CD
:10D50000CDE90123436A04468B428846B24605961C
:10D51000079652D34FF0200B00F11407EFF311835D
:10D5200000938BF31288BFF36F8F3846DDF80090BD
:10D5300020F034FE40B946498822464824F04BFC8E
:10D540008821434824F03EFC384620F04BFE079AE1
:10D550002AB13146204624F01FFD0023079306A977
:10D56000204624F045FC0699054641452ED3226805
:10D57000236A204613F8221003EB820A21F00301EC
:10D5800003F822102168424624F056FCE36820602C
:10D59000984216D00025384620F00EFE40B389F39D
:10D5A0001188BFF36F8F059929B1A2690AB120468E
:10D5B000904700230593002DB0D1504609B0BDE837
:10D5C000F08F236943F008032361E3E718B1204695
:10D5D00024F04CFCDFE7DDE9013213432FD0039147
:10D5E0002CF007FD039950BB384620F0E5FD40B90B
:10D5F000174940F23112174824F0EDFB40F2311187
:10D600009FE7009B83F31188BFF36F8F04F12C0019
:10D61000DDE901231EF072FF0546EFF311898BF35C
:10D620001288BFF36F8F384620F0B8FD002882D0F3
:10D63000B5FA85F5384620F0D5FD6D09ABE72046F3
:10D6400007AB05AA266824F030FC0546A3E700BF17
:10D650001ADC0400FADA04002DE9F0410446C3693B
:10D6600008460D46984704F114060746EFF3118863
:10D67000202383F31288BFF36F8F304620F08EFD96
:10D6800040B916498822164824F0A5FB8821134882
:10D6900024F098FB304620F0A5FD2B783A4643F065
:10D6A00001032B706168204624F0C6FB60602046B1
:10D6B00024F08DFC304620F07FFD40B9074940F250
:10D6C0003112074824F087FB40F23111DFE788F37D
:10D6D0001188BFF36F8FBDE8F08100BF1ADC040032
:10D6E000FADA04002DE9F843044600F11407EFF3D9
:10D6F0001188202383F31288BFF36F8F384620F000
:10D700004DFD054640B930498822304824F063FB7E
:10D7100088212D4824F056FB384620F063FD23690C
:10D72000A26813F0080F02D163689A4200D9636AB5
:10D730009B1A002B3AD0216A11F8223001EB8209A2
:10D7400013F0030035D0022803D151F82260B60847
:10D7500005D1D8071AD44846E36998470646A16818
:10D760003246204624F068FB3146A060204624F073
:10D7700071FB384620F020FDE8B9134940F2311220
:10D78000124824F028FB40F23111C2E743F00203B3
:10D7900001F82230E3694846A568984729460246C1
:10D7A000204624F049FB0025A060E2E71D46A9467B
:10D7B000DFE70546FBE788F31188BFF36F8F002D85
:10D7C00095D14846BDE8F8831ADC0400FADA040073
:10D7D0002DE9F0410446C36908460D46984704F117
:10D7E00014070646EFF31188202383F31288BFF352
:10D7F0006F8F384620F0D2FC40B923498822234855
:10D8000024F0E9FA8821204824F0DCFA384620F098
:10D81000E9FC2B786FF300032B7023699B0705D578
:10D82000E268236A03EB82039D421DD12B786FF3DC
:10D8300041032B70D4E90231994204D1324620468B
:10D8400024F0FAFAA0603146204624F003FB384663
:10D8500020F0B2FC68B90C4940F231120B4824F0B8
:10D86000BAFA40F23111CEE72B6866F39F032B60C2
:10D87000EDE788F31188BFF36F8F04F12C00BDE84A
:10D88000F0411EF001BE00BF1ADC0400FADA040009
:10D8900070B5044600F11405EFF31186202383F3DD
:10D8A0001288BFF36F8F284620F078FC40B91649E4
:10D8B0008822164824F08FFA8821134824F082FA2F
:10D8C000284620F08FFC2369A06813F0080F02D1CE
:10D8D000636898420ED9646A241A284620F06CFCCA
:10D8E00050B9094940F23112084824F074FA40F264
:10D8F0003111E2E71C1AF0E786F31188BFF36F8F4E
:10D90000201E18BF012070BD1ADC0400FADA0400E2
:10D91000044608B5EFF31183202383F31288BFF385
:10D920006F8F0DF05DF8204602F098FC024824F05D
:10D9300027FA25F044FAFCE747DC04002DE9F84318
:10D9400040F26C7344690569E1170135E41841F14F
:10D950000001022D8CBF00230123E41AC76861F186
:10D9600000010029064607F1FF374EDA6FF4C77051
:10D970004FF4C8720023201861F10001FBF764F92D
:10D98000244B4FF03C0E03FB0044D6E900834FEAE2
:10D99000E37C99466346022D02468CBF6FF002007D
:10D9A0000920B6680544C6FB0E93A9FB0EC60EFB04
:10D9B000036640F26D1E9920A3080EFB04333B441E
:10D9C000642745430520B4FBF7F40235B5FBF0F5B9
:10D9D0001B1B114C1CEB080CA2FB042004FB0101D7
:10D9E0002B4446EBE87698180C4A41F10003801866
:10D9F0000B4A63F10003A0FB020102FB031110EBD1
:10DA00000C0041EB0601BDE8F8834FF4C872002317
:10DA10002046B3E770FEFFFFB13A02009405F5FF20
:10DA2000805101002DE9F84F0446A38B08461907E1
:10DA3000164612D4022803F0070162D1204624F0D2
:10DA400023FB88B10138042800F22581DFE810F0BB
:10DA5000590023017E00C800F50001280CBF43F0E7
:10DA6000100143F02001A18304F1140020F0A4FB75
:10DA7000002800F0AB8086F31188BFF36F8FBDE8FC
:10DA8000F88F03F00702501F01281ED80020062A35
:10DA90002768C4E9000014D13A4603E0E08B013066
:10DAA000E0831268002AF9D123F0070343F0020251
:10DAB0002046A28324F0E8FA90B342F02002A28329
:10DAC0002EE023F007039AB2F2E7042A33D123F0C1
:10DAD00007039AB22046A28324F0D6FA10B142F08E
